{
	"new.sol": {
		"TaxToken": {
			"abi": [
				{
					"inputs": [
						{
							"internalType": "address",
							"name": "initialTreasuryWallet",
							"type": "address"
						},
						{
							"internalType": "uint256",
							"name": "initialSupply",
							"type": "uint256"
						}
					],
					"stateMutability": "nonpayable",
					"type": "constructor"
				},
				{
					"inputs": [],
					"name": "InsufficientAllowance",
					"type": "error"
				},
				{
					"inputs": [],
					"name": "InsufficientBalance",
					"type": "error"
				},
				{
					"inputs": [],
					"name": "NotOwner",
					"type": "error"
				},
				{
					"anonymous": false,
					"inputs": [
						{
							"indexed": true,
							"internalType": "address",
							"name": "previousOwner",
							"type": "address"
						},
						{
							"indexed": true,
							"internalType": "address",
							"name": "newOwner",
							"type": "address"
						}
					],
					"name": "OwnershipTransferred",
					"type": "event"
				},
				{
					"anonymous": false,
					"inputs": [
						{
							"indexed": true,
							"internalType": "address",
							"name": "from",
							"type": "address"
						},
						{
							"indexed": true,
							"internalType": "address",
							"name": "treasury",
							"type": "address"
						},
						{
							"indexed": false,
							"internalType": "uint256",
							"name": "taxAmount",
							"type": "uint256"
						}
					],
					"name": "TaxCharged",
					"type": "event"
				},
				{
					"anonymous": false,
					"inputs": [
						{
							"indexed": true,
							"internalType": "address",
							"name": "from",
							"type": "address"
						},
						{
							"indexed": true,
							"internalType": "address",
							"name": "to",
							"type": "address"
						},
						{
							"indexed": false,
							"internalType": "uint256",
							"name": "value",
							"type": "uint256"
						}
					],
					"name": "Transfer",
					"type": "event"
				},
				{
					"inputs": [
						{
							"internalType": "address",
							"name": "owner",
							"type": "address"
						},
						{
							"internalType": "address",
							"name": "spender",
							"type": "address"
						}
					],
					"name": "allowance",
					"outputs": [
						{
							"internalType": "uint256",
							"name": "",
							"type": "uint256"
						}
					],
					"stateMutability": "view",
					"type": "function"
				},
				{
					"inputs": [
						{
							"internalType": "address",
							"name": "spender",
							"type": "address"
						},
						{
							"internalType": "uint256",
							"name": "amount",
							"type": "uint256"
						}
					],
					"name": "approve",
					"outputs": [
						{
							"internalType": "bool",
							"name": "success",
							"type": "bool"
						}
					],
					"stateMutability": "nonpayable",
					"type": "function"
				},
				{
					"inputs": [
						{
							"internalType": "address",
							"name": "account",
							"type": "address"
						}
					],
					"name": "balanceOf",
					"outputs": [
						{
							"internalType": "uint256",
							"name": "",
							"type": "uint256"
						}
					],
					"stateMutability": "view",
					"type": "function"
				},
				{
					"inputs": [],
					"name": "totalSupply",
					"outputs": [
						{
							"internalType": "uint256",
							"name": "",
							"type": "uint256"
						}
					],
					"stateMutability": "view",
					"type": "function"
				},
				{
					"inputs": [
						{
							"internalType": "address",
							"name": "to",
							"type": "address"
						},
						{
							"internalType": "uint256",
							"name": "amount",
							"type": "uint256"
						}
					],
					"name": "transfer",
					"outputs": [
						{
							"internalType": "bool",
							"name": "success",
							"type": "bool"
						}
					],
					"stateMutability": "nonpayable",
					"type": "function"
				},
				{
					"inputs": [
						{
							"internalType": "address",
							"name": "from",
							"type": "address"
						},
						{
							"internalType": "address",
							"name": "to",
							"type": "address"
						},
						{
							"internalType": "uint256",
							"name": "amount",
							"type": "uint256"
						}
					],
					"name": "transferFrom",
					"outputs": [
						{
							"internalType": "bool",
							"name": "success",
							"type": "bool"
						}
					],
					"stateMutability": "nonpayable",
					"type": "function"
				},
				{
					"inputs": [
						{
							"internalType": "address",
							"name": "newOwner",
							"type": "address"
						}
					],
					"name": "transferOwnership",
					"outputs": [],
					"stateMutability": "nonpayable",
					"type": "function"
				},
				{
					"inputs": [],
					"name": "treasuryWallet",
					"outputs": [
						{
							"internalType": "address",
							"name": "",
							"type": "address"
						}
					],
					"stateMutability": "view",
					"type": "function"
				}
			],
			"devdoc": {
				"details": "Implements a custom ERC20 token with a tax mechanism.",
				"kind": "dev",
				"methods": {
					"allowance(address,address)": {
						"params": {
							"owner": "The address which owns the funds.",
							"spender": "The address which will spend the funds."
						},
						"returns": {
							"_0": "The remaining number of tokens."
						}
					},
					"approve(address,uint256)": {
						"params": {
							"amount": "The amount of tokens to be spent.",
							"spender": "The address which will spend the funds."
						},
						"returns": {
							"success": "True if the operation was successful."
						}
					},
					"balanceOf(address)": {
						"params": {
							"account": "The address to query the balance of."
						},
						"returns": {
							"_0": "The balance of the specified address."
						}
					},
					"constructor": {
						"params": {
							"initialSupply": "The initial supply of tokens.",
							"initialTreasuryWallet": "The address of the treasury wallet."
						}
					},
					"totalSupply()": {
						"returns": {
							"_0": "The total supply of tokens."
						}
					},
					"transfer(address,uint256)": {
						"params": {
							"amount": "The amount of tokens to transfer.",
							"to": "The address to transfer tokens to."
						},
						"returns": {
							"success": "True if the transfer was successful."
						}
					},
					"transferFrom(address,address,uint256)": {
						"params": {
							"amount": "The amount of tokens to send.",
							"from": "The address to send tokens from.",
							"to": "The address to send tokens to."
						},
						"returns": {
							"success": "True if the operation was successful."
						}
					},
					"transferOwnership(address)": {
						"params": {
							"newOwner": "The address of the new owner."
						}
					}
				},
				"title": "TaxToken - A token that charges a 3% tax on every transfer and sends the tax to the treasury wallet.",
				"version": 1
			},
			"evm": {
				"assembly": "    /* \"new.sol\":238:5216  contract TaxToken {... */\n  mstore(0x40, 0x80)\n    /* \"new.sol\":1249:1545  constructor(address initialTreasuryWallet, uint256 initialSupply) {... */\n  callvalue\n  dup1\n  iszero\n  tag_1\n  jumpi\n  revert(0x00, 0x00)\ntag_1:\n  pop\n  mload(0x40)\n  sub(codesize, bytecodeSize)\n  dup1\n  bytecodeSize\n  dup4\n  codecopy\n  dup2\n  dup2\n  add\n  0x40\n  mstore\n  dup2\n  add\n  swap1\n  tag_2\n  swap2\n  swap1\n  tag_3\n  jump\t// in\ntag_2:\n    /* \"new.sol\":1335:1345  msg.sender */\n  caller\n    /* \"new.sol\":1326:1332  _owner */\n  0x01\n  0x00\n    /* \"new.sol\":1326:1345  _owner = msg.sender */\n  0x0100\n  exp\n  dup2\n  sload\n  dup2\n  0xffffffffffffffffffffffffffffffffffffffff\n  mul\n  not\n  and\n  swap1\n  dup4\n  0xffffffffffffffffffffffffffffffffffffffff\n  and\n  mul\n  or\n  swap1\n  sstore\n  pop\n    /* \"new.sol\":1373:1394  initialTreasuryWallet */\n  dup2\n    /* \"new.sol\":1356:1370  treasuryWallet */\n  0x00\n  0x00\n    /* \"new.sol\":1356:1394  treasuryWallet = initialTreasuryWallet */\n  0x0100\n  exp\n  dup2\n  sload\n  dup2\n  0xffffffffffffffffffffffffffffffffffffffff\n  mul\n  not\n  and\n  swap1\n  dup4\n  0xffffffffffffffffffffffffffffffffffffffff\n  and\n  mul\n  or\n  swap1\n  sstore\n  pop\n    /* \"new.sol\":1420:1433  initialSupply */\n  dup1\n    /* \"new.sol\":1405:1417  _totalSupply */\n  0x02\n    /* \"new.sol\":1405:1433  _totalSupply = initialSupply */\n  dup2\n  swap1\n  sstore\n  pop\n    /* \"new.sol\":1468:1481  initialSupply */\n  dup1\n    /* \"new.sol\":1444:1453  _balances */\n  0x03\n    /* \"new.sol\":1444:1465  _balances[msg.sender] */\n  0x00\n    /* \"new.sol\":1454:1464  msg.sender */\n  caller\n    /* \"new.sol\":1444:1465  _balances[msg.sender] */\n  0xffffffffffffffffffffffffffffffffffffffff\n  and\n  0xffffffffffffffffffffffffffffffffffffffff\n  and\n  dup2\n  mstore\n  0x20\n  add\n  swap1\n  dup2\n  mstore\n  0x20\n  add\n  0x00\n  keccak256\n    /* \"new.sol\":1444:1481  _balances[msg.sender] = initialSupply */\n  dup2\n  swap1\n  sstore\n  pop\n    /* \"new.sol\":1530:1536  _owner */\n  0x01\n  0x00\n  swap1\n  sload\n  swap1\n  0x0100\n  exp\n  swap1\n  div\n  0xffffffffffffffffffffffffffffffffffffffff\n  and\n    /* \"new.sol\":1497:1537  OwnershipTransferred(address(0), _owner) */\n  0xffffffffffffffffffffffffffffffffffffffff\n  and\n    /* \"new.sol\":1526:1527  0 */\n  0x00\n    /* \"new.sol\":1497:1537  OwnershipTransferred(address(0), _owner) */\n  0xffffffffffffffffffffffffffffffffffffffff\n  and\n  0x8be0079c531659141344cd1fd0a4f28419497f9722a3daafe3b4186f6b6457e0\n  mload(0x40)\n  mload(0x40)\n  dup1\n  swap2\n  sub\n  swap1\n  log3\n    /* \"new.sol\":1249:1545  constructor(address initialTreasuryWallet, uint256 initialSupply) {... */\n  pop\n  pop\n    /* \"new.sol\":238:5216  contract TaxToken {... */\n  jump(tag_6)\n    /* \"#utility.yul\":88:205   */\ntag_8:\n    /* \"#utility.yul\":197:198   */\n  0x00\n    /* \"#utility.yul\":194:195   */\n  0x00\n    /* \"#utility.yul\":187:199   */\n  revert\n    /* \"#utility.yul\":334:460   */\ntag_10:\n    /* \"#utility.yul\":371:378   */\n  0x00\n    /* \"#utility.yul\":411:453   */\n  0xffffffffffffffffffffffffffffffffffffffff\n    /* \"#utility.yul\":404:409   */\n  dup3\n    /* \"#utility.yul\":400:454   */\n  and\n    /* \"#utility.yul\":389:454   */\n  swap1\n  pop\n    /* \"#utility.yul\":334:460   */\n  swap2\n  swap1\n  pop\n  jump\t// out\n    /* \"#utility.yul\":466:562   */\ntag_11:\n    /* \"#utility.yul\":503:510   */\n  0x00\n    /* \"#utility.yul\":532:556   */\n  tag_23\n    /* \"#utility.yul\":550:555   */\n  dup3\n    /* \"#utility.yul\":532:556   */\n  tag_10\n  jump\t// in\ntag_23:\n    /* \"#utility.yul\":521:556   */\n  swap1\n  pop\n    /* \"#utility.yul\":466:562   */\n  swap2\n  swap1\n  pop\n  jump\t// out\n    /* \"#utility.yul\":568:690   */\ntag_12:\n    /* \"#utility.yul\":641:665   */\n  tag_25\n    /* \"#utility.yul\":659:664   */\n  dup2\n    /* \"#utility.yul\":641:665   */\n  tag_11\n  jump\t// in\ntag_25:\n    /* \"#utility.yul\":634:639   */\n  dup2\n    /* \"#utility.yul\":631:666   */\n  eq\n    /* \"#utility.yul\":621:684   */\n  tag_26\n  jumpi\n    /* \"#utility.yul\":680:681   */\n  0x00\n    /* \"#utility.yul\":677:678   */\n  0x00\n    /* \"#utility.yul\":670:682   */\n  revert\n    /* \"#utility.yul\":621:684   */\ntag_26:\n    /* \"#utility.yul\":568:690   */\n  pop\n  jump\t// out\n    /* \"#utility.yul\":696:839   */\ntag_13:\n    /* \"#utility.yul\":753:758   */\n  0x00\n    /* \"#utility.yul\":784:790   */\n  dup2\n    /* \"#utility.yul\":778:791   */\n  mload\n    /* \"#utility.yul\":769:791   */\n  swap1\n  pop\n    /* \"#utility.yul\":800:833   */\n  tag_28\n    /* \"#utility.yul\":827:832   */\n  dup2\n    /* \"#utility.yul\":800:833   */\n  tag_12\n  jump\t// in\ntag_28:\n    /* \"#utility.yul\":696:839   */\n  swap3\n  swap2\n  pop\n  pop\n  jump\t// out\n    /* \"#utility.yul\":845:922   */\ntag_14:\n    /* \"#utility.yul\":882:889   */\n  0x00\n    /* \"#utility.yul\":911:916   */\n  dup2\n    /* \"#utility.yul\":900:916   */\n  swap1\n  pop\n    /* \"#utility.yul\":845:922   */\n  swap2\n  swap1\n  pop\n  jump\t// out\n    /* \"#utility.yul\":928:1050   */\ntag_15:\n    /* \"#utility.yul\":1001:1025   */\n  tag_31\n    /* \"#utility.yul\":1019:1024   */\n  dup2\n    /* \"#utility.yul\":1001:1025   */\n  tag_14\n  jump\t// in\ntag_31:\n    /* \"#utility.yul\":994:999   */\n  dup2\n    /* \"#utility.yul\":991:1026   */\n  eq\n    /* \"#utility.yul\":981:1044   */\n  tag_32\n  jumpi\n    /* \"#utility.yul\":1040:1041   */\n  0x00\n    /* \"#utility.yul\":1037:1038   */\n  0x00\n    /* \"#utility.yul\":1030:1042   */\n  revert\n    /* \"#utility.yul\":981:1044   */\ntag_32:\n    /* \"#utility.yul\":928:1050   */\n  pop\n  jump\t// out\n    /* \"#utility.yul\":1056:1199   */\ntag_16:\n    /* \"#utility.yul\":1113:1118   */\n  0x00\n    /* \"#utility.yul\":1144:1150   */\n  dup2\n    /* \"#utility.yul\":1138:1151   */\n  mload\n    /* \"#utility.yul\":1129:1151   */\n  swap1\n  pop\n    /* \"#utility.yul\":1160:1193   */\n  tag_34\n    /* \"#utility.yul\":1187:1192   */\n  dup2\n    /* \"#utility.yul\":1160:1193   */\n  tag_15\n  jump\t// in\ntag_34:\n    /* \"#utility.yul\":1056:1199   */\n  swap3\n  swap2\n  pop\n  pop\n  jump\t// out\n    /* \"#utility.yul\":1205:1712   */\ntag_3:\n    /* \"#utility.yul\":1284:1290   */\n  0x00\n    /* \"#utility.yul\":1292:1298   */\n  0x00\n    /* \"#utility.yul\":1341:1343   */\n  0x40\n    /* \"#utility.yul\":1329:1338   */\n  dup4\n    /* \"#utility.yul\":1320:1327   */\n  dup6\n    /* \"#utility.yul\":1316:1339   */\n  sub\n    /* \"#utility.yul\":1312:1344   */\n  slt\n    /* \"#utility.yul\":1309:1428   */\n  iszero\n  tag_36\n  jumpi\n    /* \"#utility.yul\":1347:1426   */\n  tag_37\n  tag_8\n  jump\t// in\ntag_37:\n    /* \"#utility.yul\":1309:1428   */\ntag_36:\n    /* \"#utility.yul\":1467:1468   */\n  0x00\n    /* \"#utility.yul\":1492:1556   */\n  tag_38\n    /* \"#utility.yul\":1548:1555   */\n  dup6\n    /* \"#utility.yul\":1539:1545   */\n  dup3\n    /* \"#utility.yul\":1528:1537   */\n  dup7\n    /* \"#utility.yul\":1524:1546   */\n  add\n    /* \"#utility.yul\":1492:1556   */\n  tag_13\n  jump\t// in\ntag_38:\n    /* \"#utility.yul\":1482:1556   */\n  swap3\n  pop\n    /* \"#utility.yul\":1438:1566   */\n  pop\n    /* \"#utility.yul\":1605:1607   */\n  0x20\n    /* \"#utility.yul\":1631:1695   */\n  tag_39\n    /* \"#utility.yul\":1687:1694   */\n  dup6\n    /* \"#utility.yul\":1678:1684   */\n  dup3\n    /* \"#utility.yul\":1667:1676   */\n  dup7\n    /* \"#utility.yul\":1663:1685   */\n  add\n    /* \"#utility.yul\":1631:1695   */\n  tag_16\n  jump\t// in\ntag_39:\n    /* \"#utility.yul\":1621:1695   */\n  swap2\n  pop\n    /* \"#utility.yul\":1576:1705   */\n  pop\n    /* \"#utility.yul\":1205:1712   */\n  swap3\n  pop\n  swap3\n  swap1\n  pop\n  jump\t// out\n    /* \"new.sol\":238:5216  contract TaxToken {... */\ntag_6:\n  dataSize(sub_0)\n  dup1\n  dataOffset(sub_0)\n  0x00\n  codecopy\n  0x00\n  return\nstop\n\nsub_0: assembly {\n        /* \"new.sol\":238:5216  contract TaxToken {... */\n      mstore(0x40, 0x80)\n      callvalue\n      dup1\n      iszero\n      tag_1\n      jumpi\n      revert(0x00, 0x00)\n    tag_1:\n      pop\n      jumpi(tag_2, lt(calldatasize, 0x04))\n      shr(0xe0, calldataload(0x00))\n      dup1\n      0x70a08231\n      gt\n      tag_11\n      jumpi\n      dup1\n      0x70a08231\n      eq\n      tag_7\n      jumpi\n      dup1\n      0xa9059cbb\n      eq\n      tag_8\n      jumpi\n      dup1\n      0xdd62ed3e\n      eq\n      tag_9\n      jumpi\n      dup1\n      0xf2fde38b\n      eq\n      tag_10\n      jumpi\n      jump(tag_2)\n    tag_11:\n      dup1\n      0x095ea7b3\n      eq\n      tag_3\n      jumpi\n      dup1\n      0x18160ddd\n      eq\n      tag_4\n      jumpi\n      dup1\n      0x23b872dd\n      eq\n      tag_5\n      jumpi\n      dup1\n      0x4626402b\n      eq\n      tag_6\n      jumpi\n    tag_2:\n      revert(0x00, 0x00)\n        /* \"new.sol\":4002:4217  function approve(address spender, uint256 amount) public returns (bool success) {... */\n    tag_3:\n      tag_12\n      0x04\n      dup1\n      calldatasize\n      sub\n      dup2\n      add\n      swap1\n      tag_13\n      swap2\n      swap1\n      tag_14\n      jump\t// in\n    tag_13:\n      tag_15\n      jump\t// in\n    tag_12:\n      mload(0x40)\n      tag_16\n      swap2\n      swap1\n      tag_17\n      jump\t// in\n    tag_16:\n      mload(0x40)\n      dup1\n      swap2\n      sub\n      swap1\n      return\n        /* \"new.sol\":2883:2974  function totalSupply() public view returns (uint256) {... */\n    tag_4:\n      tag_18\n      tag_19\n      jump\t// in\n    tag_18:\n      mload(0x40)\n      tag_20\n      swap2\n      swap1\n      tag_21\n      jump\t// in\n    tag_20:\n      mload(0x40)\n      dup1\n      swap2\n      sub\n      swap1\n      return\n        /* \"new.sol\":4538:5213  function transferFrom(address from, address to, uint256 amount) public returns (bool success) {... */\n    tag_5:\n      tag_22\n      0x04\n      dup1\n      calldatasize\n      sub\n      dup2\n      add\n      swap1\n      tag_23\n      swap2\n      swap1\n      tag_24\n      jump\t// in\n    tag_23:\n      tag_25\n      jump\t// in\n    tag_22:\n      mload(0x40)\n      tag_26\n      swap2\n      swap1\n      tag_17\n      jump\t// in\n    tag_26:\n      mload(0x40)\n      dup1\n      swap2\n      sub\n      swap1\n      return\n        /* \"new.sol\":287:316  address public treasuryWallet */\n    tag_6:\n      tag_27\n      tag_28\n      jump\t// in\n    tag_27:\n      mload(0x40)\n      tag_29\n      swap2\n      swap1\n      tag_30\n      jump\t// in\n    tag_29:\n      mload(0x40)\n      dup1\n      swap2\n      sub\n      swap1\n      return\n        /* \"new.sol\":3161:3271  function balanceOf(address account) public view returns (uint256) {... */\n    tag_7:\n      tag_31\n      0x04\n      dup1\n      calldatasize\n      sub\n      dup2\n      add\n      swap1\n      tag_32\n      swap2\n      swap1\n      tag_33\n      jump\t// in\n    tag_32:\n      tag_34\n      jump\t// in\n    tag_31:\n      mload(0x40)\n      tag_35\n      swap2\n      swap1\n      tag_21\n      jump\t// in\n    tag_35:\n      mload(0x40)\n      dup1\n      swap2\n      sub\n      swap1\n      return\n        /* \"new.sol\":1857:2403  function transfer(address to, uint256 amount) public returns (bool success) {... */\n    tag_8:\n      tag_36\n      0x04\n      dup1\n      calldatasize\n      sub\n      dup2\n      add\n      swap1\n      tag_37\n      swap2\n      swap1\n      tag_14\n      jump\t// in\n    tag_37:\n      tag_38\n      jump\t// in\n    tag_36:\n      mload(0x40)\n      tag_39\n      swap2\n      swap1\n      tag_17\n      jump\t// in\n    tag_39:\n      mload(0x40)\n      dup1\n      swap2\n      sub\n      swap1\n      return\n        /* \"new.sol\":3566:3700  function allowance(address owner, address spender) public view returns (uint256) {... */\n    tag_9:\n      tag_40\n      0x04\n      dup1\n      calldatasize\n      sub\n      dup2\n      add\n      swap1\n      tag_41\n      swap2\n      swap1\n      tag_42\n      jump\t// in\n    tag_41:\n      tag_43\n      jump\t// in\n    tag_40:\n      mload(0x40)\n      tag_44\n      swap2\n      swap1\n      tag_21\n      jump\t// in\n    tag_44:\n      mload(0x40)\n      dup1\n      swap2\n      sub\n      swap1\n      return\n        /* \"new.sol\":2550:2777  function transferOwnership(address newOwner) public onlyOwner {... */\n    tag_10:\n      tag_45\n      0x04\n      dup1\n      calldatasize\n      sub\n      dup2\n      add\n      swap1\n      tag_46\n      swap2\n      swap1\n      tag_33\n      jump\t// in\n    tag_46:\n      tag_47\n      jump\t// in\n    tag_45:\n      stop\n        /* \"new.sol\":4002:4217  function approve(address spender, uint256 amount) public returns (bool success) {... */\n    tag_15:\n        /* \"new.sol\":4068:4080  bool success */\n      0x00\n        /* \"new.sol\":4128:4134  amount */\n      dup2\n        /* \"new.sol\":4093:4104  _allowances */\n      0x04\n        /* \"new.sol\":4093:4116  _allowances[msg.sender] */\n      0x00\n        /* \"new.sol\":4105:4115  msg.sender */\n      caller\n        /* \"new.sol\":4093:4116  _allowances[msg.sender] */\n      0xffffffffffffffffffffffffffffffffffffffff\n      and\n      0xffffffffffffffffffffffffffffffffffffffff\n      and\n      dup2\n      mstore\n      0x20\n      add\n      swap1\n      dup2\n      mstore\n      0x20\n      add\n      0x00\n      keccak256\n        /* \"new.sol\":4093:4125  _allowances[msg.sender][spender] */\n      0x00\n        /* \"new.sol\":4117:4124  spender */\n      dup6\n        /* \"new.sol\":4093:4125  _allowances[msg.sender][spender] */\n      0xffffffffffffffffffffffffffffffffffffffff\n      and\n      0xffffffffffffffffffffffffffffffffffffffff\n      and\n      dup2\n      mstore\n      0x20\n      add\n      swap1\n      dup2\n      mstore\n      0x20\n      add\n      0x00\n      keccak256\n        /* \"new.sol\":4093:4134  _allowances[msg.sender][spender] = amount */\n      dup2\n      swap1\n      sstore\n      pop\n        /* \"new.sol\":4171:4178  spender */\n      dup3\n        /* \"new.sol\":4150:4187  Transfer(msg.sender, spender, amount) */\n      0xffffffffffffffffffffffffffffffffffffffff\n      and\n        /* \"new.sol\":4159:4169  msg.sender */\n      caller\n        /* \"new.sol\":4150:4187  Transfer(msg.sender, spender, amount) */\n      0xffffffffffffffffffffffffffffffffffffffff\n      and\n      0xddf252ad1be2c89b69c2b068fc378daa952ba7f163c4a11628f55a4df523b3ef\n        /* \"new.sol\":4180:4186  amount */\n      dup5\n        /* \"new.sol\":4150:4187  Transfer(msg.sender, spender, amount) */\n      mload(0x40)\n      tag_49\n      swap2\n      swap1\n      tag_21\n      jump\t// in\n    tag_49:\n      mload(0x40)\n      dup1\n      swap2\n      sub\n      swap1\n      log3\n        /* \"new.sol\":4205:4209  true */\n      0x01\n        /* \"new.sol\":4198:4209  return true */\n      swap1\n      pop\n        /* \"new.sol\":4002:4217  function approve(address spender, uint256 amount) public returns (bool success) {... */\n      swap3\n      swap2\n      pop\n      pop\n      jump\t// out\n        /* \"new.sol\":2883:2974  function totalSupply() public view returns (uint256) {... */\n    tag_19:\n        /* \"new.sol\":2927:2934  uint256 */\n      0x00\n        /* \"new.sol\":2954:2966  _totalSupply */\n      sload(0x02)\n        /* \"new.sol\":2947:2966  return _totalSupply */\n      swap1\n      pop\n        /* \"new.sol\":2883:2974  function totalSupply() public view returns (uint256) {... */\n      swap1\n      jump\t// out\n        /* \"new.sol\":4538:5213  function transferFrom(address from, address to, uint256 amount) public returns (bool success) {... */\n    tag_25:\n        /* \"new.sol\":4618:4630  bool success */\n      0x00\n        /* \"new.sol\":4665:4671  amount */\n      dup2\n        /* \"new.sol\":4647:4656  _balances */\n      0x03\n        /* \"new.sol\":4647:4662  _balances[from] */\n      0x00\n        /* \"new.sol\":4657:4661  from */\n      dup7\n        /* \"new.sol\":4647:4662  _balances[from] */\n      0xffffffffffffffffffffffffffffffffffffffff\n      and\n      0xffffffffffffffffffffffffffffffffffffffff\n      and\n      dup2\n      mstore\n      0x20\n      add\n      swap1\n      dup2\n      mstore\n      0x20\n      add\n      0x00\n      keccak256\n      sload\n        /* \"new.sol\":4647:4671  _balances[from] < amount */\n      lt\n        /* \"new.sol\":4643:4701  if (_balances[from] < amount) revert InsufficientBalance() */\n      iszero\n      tag_52\n      jumpi\n        /* \"new.sol\":4680:4701  InsufficientBalance() */\n      mload(0x40)\n      0xf4d678b800000000000000000000000000000000000000000000000000000000\n      dup2\n      mstore\n      0x04\n      add\n      mload(0x40)\n      dup1\n      swap2\n      sub\n      swap1\n      revert\n        /* \"new.sol\":4643:4701  if (_balances[from] < amount) revert InsufficientBalance() */\n    tag_52:\n        /* \"new.sol\":4748:4754  amount */\n      dup2\n        /* \"new.sol\":4716:4727  _allowances */\n      0x04\n        /* \"new.sol\":4716:4733  _allowances[from] */\n      0x00\n        /* \"new.sol\":4728:4732  from */\n      dup7\n        /* \"new.sol\":4716:4733  _allowances[from] */\n      0xffffffffffffffffffffffffffffffffffffffff\n      and\n      0xffffffffffffffffffffffffffffffffffffffff\n      and\n      dup2\n      mstore\n      0x20\n      add\n      swap1\n      dup2\n      mstore\n      0x20\n      add\n      0x00\n      keccak256\n        /* \"new.sol\":4716:4745  _allowances[from][msg.sender] */\n      0x00\n        /* \"new.sol\":4734:4744  msg.sender */\n      caller\n        /* \"new.sol\":4716:4745  _allowances[from][msg.sender] */\n      0xffffffffffffffffffffffffffffffffffffffff\n      and\n      0xffffffffffffffffffffffffffffffffffffffff\n      and\n      dup2\n      mstore\n      0x20\n      add\n      swap1\n      dup2\n      mstore\n      0x20\n      add\n      0x00\n      keccak256\n      sload\n        /* \"new.sol\":4716:4754  _allowances[from][msg.sender] < amount */\n      lt\n        /* \"new.sol\":4712:4786  if (_allowances[from][msg.sender] < amount) revert InsufficientAllowance() */\n      iszero\n      tag_53\n      jumpi\n        /* \"new.sol\":4763:4786  InsufficientAllowance() */\n      mload(0x40)\n      0x13be252b00000000000000000000000000000000000000000000000000000000\n      dup2\n      mstore\n      0x04\n      add\n      mload(0x40)\n      dup1\n      swap2\n      sub\n      swap1\n      revert\n        /* \"new.sol\":4712:4786  if (_allowances[from][msg.sender] < amount) revert InsufficientAllowance() */\n    tag_53:\n        /* \"new.sol\":4799:4816  uint256 taxAmount */\n      0x00\n        /* \"new.sol\":4834:4837  100 */\n      0x64\n        /* \"new.sol\":4829:4830  3 */\n      0x03\n        /* \"new.sol\":4820:4826  amount */\n      dup5\n        /* \"new.sol\":4820:4830  amount * 3 */\n      tag_54\n      swap2\n      swap1\n      tag_55\n      jump\t// in\n    tag_54:\n        /* \"new.sol\":4819:4837  (amount * 3) / 100 */\n      tag_56\n      swap2\n      swap1\n      tag_57\n      jump\t// in\n    tag_56:\n        /* \"new.sol\":4799:4837  uint256 taxAmount = (amount * 3) / 100 */\n      swap1\n      pop\n        /* \"new.sol\":4848:4870  uint256 transferAmount */\n      0x00\n        /* \"new.sol\":4882:4891  taxAmount */\n      dup2\n        /* \"new.sol\":4873:4879  amount */\n      dup5\n        /* \"new.sol\":4873:4891  amount - taxAmount */\n      tag_58\n      swap2\n      swap1\n      tag_59\n      jump\t// in\n    tag_58:\n        /* \"new.sol\":4848:4891  uint256 transferAmount = amount - taxAmount */\n      swap1\n      pop\n        /* \"new.sol\":4923:4929  amount */\n      dup4\n        /* \"new.sol\":4904:4913  _balances */\n      0x03\n        /* \"new.sol\":4904:4919  _balances[from] */\n      0x00\n        /* \"new.sol\":4914:4918  from */\n      dup9\n        /* \"new.sol\":4904:4919  _balances[from] */\n      0xffffffffffffffffffffffffffffffffffffffff\n      and\n      0xffffffffffffffffffffffffffffffffffffffff\n      and\n      dup2\n      mstore\n      0x20\n      add\n      swap1\n      dup2\n      mstore\n      0x20\n      add\n      0x00\n      keccak256\n      0x00\n        /* \"new.sol\":4904:4929  _balances[from] -= amount */\n      dup3\n      dup3\n      sload\n      tag_60\n      swap2\n      swap1\n      tag_59\n      jump\t// in\n    tag_60:\n      swap3\n      pop\n      pop\n      dup2\n      swap1\n      sstore\n      pop\n        /* \"new.sol\":4957:4971  transferAmount */\n      dup1\n        /* \"new.sol\":4940:4949  _balances */\n      0x03\n        /* \"new.sol\":4940:4953  _balances[to] */\n      0x00\n        /* \"new.sol\":4950:4952  to */\n      dup8\n        /* \"new.sol\":4940:4953  _balances[to] */\n      0xffffffffffffffffffffffffffffffffffffffff\n      and\n      0xffffffffffffffffffffffffffffffffffffffff\n      and\n      dup2\n      mstore\n      0x20\n      add\n      swap1\n      dup2\n      mstore\n      0x20\n      add\n      0x00\n      keccak256\n      0x00\n        /* \"new.sol\":4940:4971  _balances[to] += transferAmount */\n      dup3\n      dup3\n      sload\n      tag_61\n      swap2\n      swap1\n      tag_62\n      jump\t// in\n    tag_61:\n      swap3\n      pop\n      pop\n      dup2\n      swap1\n      sstore\n      pop\n        /* \"new.sol\":5011:5020  taxAmount */\n      dup2\n        /* \"new.sol\":4982:4991  _balances */\n      0x03\n        /* \"new.sol\":4982:5007  _balances[treasuryWallet] */\n      0x00\n        /* \"new.sol\":4992:5006  treasuryWallet */\n      0x00\n      0x00\n      swap1\n      sload\n      swap1\n      0x0100\n      exp\n      swap1\n      div\n      0xffffffffffffffffffffffffffffffffffffffff\n      and\n        /* \"new.sol\":4982:5007  _balances[treasuryWallet] */\n      0xffffffffffffffffffffffffffffffffffffffff\n      and\n      0xffffffffffffffffffffffffffffffffffffffff\n      and\n      dup2\n      mstore\n      0x20\n      add\n      swap1\n      dup2\n      mstore\n      0x20\n      add\n      0x00\n      keccak256\n      0x00\n        /* \"new.sol\":4982:5020  _balances[treasuryWallet] += taxAmount */\n      dup3\n      dup3\n      sload\n      tag_63\n      swap2\n      swap1\n      tag_62\n      jump\t// in\n    tag_63:\n      swap3\n      pop\n      pop\n      dup2\n      swap1\n      sstore\n      pop\n        /* \"new.sol\":5064:5070  amount */\n      dup4\n        /* \"new.sol\":5031:5042  _allowances */\n      0x04\n        /* \"new.sol\":5031:5048  _allowances[from] */\n      0x00\n        /* \"new.sol\":5043:5047  from */\n      dup9\n        /* \"new.sol\":5031:5048  _allowances[from] */\n      0xffffffffffffffffffffffffffffffffffffffff\n      and\n      0xffffffffffffffffffffffffffffffffffffffff\n      and\n      dup2\n      mstore\n      0x20\n      add\n      swap1\n      dup2\n      mstore\n      0x20\n      add\n      0x00\n      keccak256\n        /* \"new.sol\":5031:5060  _allowances[from][msg.sender] */\n      0x00\n        /* \"new.sol\":5049:5059  msg.sender */\n      caller\n        /* \"new.sol\":5031:5060  _allowances[from][msg.sender] */\n      0xffffffffffffffffffffffffffffffffffffffff\n      and\n      0xffffffffffffffffffffffffffffffffffffffff\n      and\n      dup2\n      mstore\n      0x20\n      add\n      swap1\n      dup2\n      mstore\n      0x20\n      add\n      0x00\n      keccak256\n      0x00\n        /* \"new.sol\":5031:5070  _allowances[from][msg.sender] -= amount */\n      dup3\n      dup3\n      sload\n      tag_64\n      swap2\n      swap1\n      tag_59\n      jump\t// in\n    tag_64:\n      swap3\n      pop\n      pop\n      dup2\n      swap1\n      sstore\n      pop\n        /* \"new.sol\":5103:5105  to */\n      dup5\n        /* \"new.sol\":5088:5122  Transfer(from, to, transferAmount) */\n      0xffffffffffffffffffffffffffffffffffffffff\n      and\n        /* \"new.sol\":5097:5101  from */\n      dup7\n        /* \"new.sol\":5088:5122  Transfer(from, to, transferAmount) */\n      0xffffffffffffffffffffffffffffffffffffffff\n      and\n      0xddf252ad1be2c89b69c2b068fc378daa952ba7f163c4a11628f55a4df523b3ef\n        /* \"new.sol\":5107:5121  transferAmount */\n      dup4\n        /* \"new.sol\":5088:5122  Transfer(from, to, transferAmount) */\n      mload(0x40)\n      tag_65\n      swap2\n      swap1\n      tag_21\n      jump\t// in\n    tag_65:\n      mload(0x40)\n      dup1\n      swap2\n      sub\n      swap1\n      log3\n        /* \"new.sol\":5155:5169  treasuryWallet */\n      0x00\n      0x00\n      swap1\n      sload\n      swap1\n      0x0100\n      exp\n      swap1\n      div\n      0xffffffffffffffffffffffffffffffffffffffff\n      and\n        /* \"new.sol\":5138:5181  TaxCharged(from, treasuryWallet, taxAmount) */\n      0xffffffffffffffffffffffffffffffffffffffff\n      and\n        /* \"new.sol\":5149:5153  from */\n      dup7\n        /* \"new.sol\":5138:5181  TaxCharged(from, treasuryWallet, taxAmount) */\n      0xffffffffffffffffffffffffffffffffffffffff\n      and\n      0x67f37689446ca759dce8394ec09e4492257883f3e02136d8ab1cc8cc6a7bb76b\n        /* \"new.sol\":5171:5180  taxAmount */\n      dup5\n        /* \"new.sol\":5138:5181  TaxCharged(from, treasuryWallet, taxAmount) */\n      mload(0x40)\n      tag_66\n      swap2\n      swap1\n      tag_21\n      jump\t// in\n    tag_66:\n      mload(0x40)\n      dup1\n      swap2\n      sub\n      swap1\n      log3\n        /* \"new.sol\":5201:5205  true */\n      0x01\n        /* \"new.sol\":5194:5205  return true */\n      swap3\n      pop\n      pop\n      pop\n        /* \"new.sol\":4538:5213  function transferFrom(address from, address to, uint256 amount) public returns (bool success) {... */\n      swap4\n      swap3\n      pop\n      pop\n      pop\n      jump\t// out\n        /* \"new.sol\":287:316  address public treasuryWallet */\n    tag_28:\n      0x00\n      0x00\n      swap1\n      sload\n      swap1\n      0x0100\n      exp\n      swap1\n      div\n      0xffffffffffffffffffffffffffffffffffffffff\n      and\n      dup2\n      jump\t// out\n        /* \"new.sol\":3161:3271  function balanceOf(address account) public view returns (uint256) {... */\n    tag_34:\n        /* \"new.sol\":3218:3225  uint256 */\n      0x00\n        /* \"new.sol\":3245:3254  _balances */\n      0x03\n        /* \"new.sol\":3245:3263  _balances[account] */\n      0x00\n        /* \"new.sol\":3255:3262  account */\n      dup4\n        /* \"new.sol\":3245:3263  _balances[account] */\n      0xffffffffffffffffffffffffffffffffffffffff\n      and\n      0xffffffffffffffffffffffffffffffffffffffff\n      and\n      dup2\n      mstore\n      0x20\n      add\n      swap1\n      dup2\n      mstore\n      0x20\n      add\n      0x00\n      keccak256\n      sload\n        /* \"new.sol\":3238:3263  return _balances[account] */\n      swap1\n      pop\n        /* \"new.sol\":3161:3271  function balanceOf(address account) public view returns (uint256) {... */\n      swap2\n      swap1\n      pop\n      jump\t// out\n        /* \"new.sol\":1857:2403  function transfer(address to, uint256 amount) public returns (bool success) {... */\n    tag_38:\n        /* \"new.sol\":1919:1931  bool success */\n      0x00\n        /* \"new.sol\":1944:1961  uint256 taxAmount */\n      0x00\n        /* \"new.sol\":1979:1982  100 */\n      0x64\n        /* \"new.sol\":1974:1975  3 */\n      0x03\n        /* \"new.sol\":1965:1971  amount */\n      dup5\n        /* \"new.sol\":1965:1975  amount * 3 */\n      tag_69\n      swap2\n      swap1\n      tag_55\n      jump\t// in\n    tag_69:\n        /* \"new.sol\":1964:1982  (amount * 3) / 100 */\n      tag_70\n      swap2\n      swap1\n      tag_57\n      jump\t// in\n    tag_70:\n        /* \"new.sol\":1944:1982  uint256 taxAmount = (amount * 3) / 100 */\n      swap1\n      pop\n        /* \"new.sol\":1993:2015  uint256 transferAmount */\n      0x00\n        /* \"new.sol\":2027:2036  taxAmount */\n      dup2\n        /* \"new.sol\":2018:2024  amount */\n      dup5\n        /* \"new.sol\":2018:2036  amount - taxAmount */\n      tag_71\n      swap2\n      swap1\n      tag_59\n      jump\t// in\n    tag_71:\n        /* \"new.sol\":1993:2036  uint256 transferAmount = amount - taxAmount */\n      swap1\n      pop\n        /* \"new.sol\":2077:2083  amount */\n      dup4\n        /* \"new.sol\":2053:2062  _balances */\n      0x03\n        /* \"new.sol\":2053:2074  _balances[msg.sender] */\n      0x00\n        /* \"new.sol\":2063:2073  msg.sender */\n      caller\n        /* \"new.sol\":2053:2074  _balances[msg.sender] */\n      0xffffffffffffffffffffffffffffffffffffffff\n      and\n      0xffffffffffffffffffffffffffffffffffffffff\n      and\n      dup2\n      mstore\n      0x20\n      add\n      swap1\n      dup2\n      mstore\n      0x20\n      add\n      0x00\n      keccak256\n      sload\n        /* \"new.sol\":2053:2083  _balances[msg.sender] < amount */\n      lt\n        /* \"new.sol\":2049:2113  if (_balances[msg.sender] < amount) revert InsufficientBalance() */\n      iszero\n      tag_72\n      jumpi\n        /* \"new.sol\":2092:2113  InsufficientBalance() */\n      mload(0x40)\n      0xf4d678b800000000000000000000000000000000000000000000000000000000\n      dup2\n      mstore\n      0x04\n      add\n      mload(0x40)\n      dup1\n      swap2\n      sub\n      swap1\n      revert\n        /* \"new.sol\":2049:2113  if (_balances[msg.sender] < amount) revert InsufficientBalance() */\n    tag_72:\n        /* \"new.sol\":2151:2157  amount */\n      dup4\n        /* \"new.sol\":2126:2135  _balances */\n      0x03\n        /* \"new.sol\":2126:2147  _balances[msg.sender] */\n      0x00\n        /* \"new.sol\":2136:2146  msg.sender */\n      caller\n        /* \"new.sol\":2126:2147  _balances[msg.sender] */\n      0xffffffffffffffffffffffffffffffffffffffff\n      and\n      0xffffffffffffffffffffffffffffffffffffffff\n      and\n      dup2\n      mstore\n      0x20\n      add\n      swap1\n      dup2\n      mstore\n      0x20\n      add\n      0x00\n      keccak256\n      0x00\n        /* \"new.sol\":2126:2157  _balances[msg.sender] -= amount */\n      dup3\n      dup3\n      sload\n      tag_73\n      swap2\n      swap1\n      tag_59\n      jump\t// in\n    tag_73:\n      swap3\n      pop\n      pop\n      dup2\n      swap1\n      sstore\n      pop\n        /* \"new.sol\":2185:2199  transferAmount */\n      dup1\n        /* \"new.sol\":2168:2177  _balances */\n      0x03\n        /* \"new.sol\":2168:2181  _balances[to] */\n      0x00\n        /* \"new.sol\":2178:2180  to */\n      dup8\n        /* \"new.sol\":2168:2181  _balances[to] */\n      0xffffffffffffffffffffffffffffffffffffffff\n      and\n      0xffffffffffffffffffffffffffffffffffffffff\n      and\n      dup2\n      mstore\n      0x20\n      add\n      swap1\n      dup2\n      mstore\n      0x20\n      add\n      0x00\n      keccak256\n      0x00\n        /* \"new.sol\":2168:2199  _balances[to] += transferAmount */\n      dup3\n      dup3\n      sload\n      tag_74\n      swap2\n      swap1\n      tag_62\n      jump\t// in\n    tag_74:\n      swap3\n      pop\n      pop\n      dup2\n      swap1\n      sstore\n      pop\n        /* \"new.sol\":2239:2248  taxAmount */\n      dup2\n        /* \"new.sol\":2210:2219  _balances */\n      0x03\n        /* \"new.sol\":2210:2235  _balances[treasuryWallet] */\n      0x00\n        /* \"new.sol\":2220:2234  treasuryWallet */\n      0x00\n      0x00\n      swap1\n      sload\n      swap1\n      0x0100\n      exp\n      swap1\n      div\n      0xffffffffffffffffffffffffffffffffffffffff\n      and\n        /* \"new.sol\":2210:2235  _balances[treasuryWallet] */\n      0xffffffffffffffffffffffffffffffffffffffff\n      and\n      0xffffffffffffffffffffffffffffffffffffffff\n      and\n      dup2\n      mstore\n      0x20\n      add\n      swap1\n      dup2\n      mstore\n      0x20\n      add\n      0x00\n      keccak256\n      0x00\n        /* \"new.sol\":2210:2248  _balances[treasuryWallet] += taxAmount */\n      dup3\n      dup3\n      sload\n      tag_75\n      swap2\n      swap1\n      tag_62\n      jump\t// in\n    tag_75:\n      swap3\n      pop\n      pop\n      dup2\n      swap1\n      sstore\n      pop\n        /* \"new.sol\":2287:2289  to */\n      dup5\n        /* \"new.sol\":2266:2306  Transfer(msg.sender, to, transferAmount) */\n      0xffffffffffffffffffffffffffffffffffffffff\n      and\n        /* \"new.sol\":2275:2285  msg.sender */\n      caller\n        /* \"new.sol\":2266:2306  Transfer(msg.sender, to, transferAmount) */\n      0xffffffffffffffffffffffffffffffffffffffff\n      and\n      0xddf252ad1be2c89b69c2b068fc378daa952ba7f163c4a11628f55a4df523b3ef\n        /* \"new.sol\":2291:2305  transferAmount */\n      dup4\n        /* \"new.sol\":2266:2306  Transfer(msg.sender, to, transferAmount) */\n      mload(0x40)\n      tag_76\n      swap2\n      swap1\n      tag_21\n      jump\t// in\n    tag_76:\n      mload(0x40)\n      dup1\n      swap2\n      sub\n      swap1\n      log3\n        /* \"new.sol\":2345:2359  treasuryWallet */\n      0x00\n      0x00\n      swap1\n      sload\n      swap1\n      0x0100\n      exp\n      swap1\n      div\n      0xffffffffffffffffffffffffffffffffffffffff\n      and\n        /* \"new.sol\":2322:2371  TaxCharged(msg.sender, treasuryWallet, taxAmount) */\n      0xffffffffffffffffffffffffffffffffffffffff\n      and\n        /* \"new.sol\":2333:2343  msg.sender */\n      caller\n        /* \"new.sol\":2322:2371  TaxCharged(msg.sender, treasuryWallet, taxAmount) */\n      0xffffffffffffffffffffffffffffffffffffffff\n      and\n      0x67f37689446ca759dce8394ec09e4492257883f3e02136d8ab1cc8cc6a7bb76b\n        /* \"new.sol\":2361:2370  taxAmount */\n      dup5\n        /* \"new.sol\":2322:2371  TaxCharged(msg.sender, treasuryWallet, taxAmount) */\n      mload(0x40)\n      tag_77\n      swap2\n      swap1\n      tag_21\n      jump\t// in\n    tag_77:\n      mload(0x40)\n      dup1\n      swap2\n      sub\n      swap1\n      log3\n        /* \"new.sol\":2391:2395  true */\n      0x01\n        /* \"new.sol\":2384:2395  return true */\n      swap3\n      pop\n      pop\n      pop\n        /* \"new.sol\":1857:2403  function transfer(address to, uint256 amount) public returns (bool success) {... */\n      swap3\n      swap2\n      pop\n      pop\n      jump\t// out\n        /* \"new.sol\":3566:3700  function allowance(address owner, address spender) public view returns (uint256) {... */\n    tag_43:\n        /* \"new.sol\":3638:3645  uint256 */\n      0x00\n        /* \"new.sol\":3665:3676  _allowances */\n      0x04\n        /* \"new.sol\":3665:3683  _allowances[owner] */\n      0x00\n        /* \"new.sol\":3677:3682  owner */\n      dup5\n        /* \"new.sol\":3665:3683  _allowances[owner] */\n      0xffffffffffffffffffffffffffffffffffffffff\n      and\n      0xffffffffffffffffffffffffffffffffffffffff\n      and\n      dup2\n      mstore\n      0x20\n      add\n      swap1\n      dup2\n      mstore\n      0x20\n      add\n      0x00\n      keccak256\n        /* \"new.sol\":3665:3692  _allowances[owner][spender] */\n      0x00\n        /* \"new.sol\":3684:3691  spender */\n      dup4\n        /* \"new.sol\":3665:3692  _allowances[owner][spender] */\n      0xffffffffffffffffffffffffffffffffffffffff\n      and\n      0xffffffffffffffffffffffffffffffffffffffff\n      and\n      dup2\n      mstore\n      0x20\n      add\n      swap1\n      dup2\n      mstore\n      0x20\n      add\n      0x00\n      keccak256\n      sload\n        /* \"new.sol\":3658:3692  return _allowances[owner][spender] */\n      swap1\n      pop\n        /* \"new.sol\":3566:3700  function allowance(address owner, address spender) public view returns (uint256) {... */\n      swap3\n      swap2\n      pop\n      pop\n      jump\t// out\n        /* \"new.sol\":2550:2777  function transferOwnership(address newOwner) public onlyOwner {... */\n    tag_47:\n        /* \"new.sol\":975:981  _owner */\n      0x01\n      0x00\n      swap1\n      sload\n      swap1\n      0x0100\n      exp\n      swap1\n      div\n      0xffffffffffffffffffffffffffffffffffffffff\n      and\n        /* \"new.sol\":961:981  msg.sender != _owner */\n      0xffffffffffffffffffffffffffffffffffffffff\n      and\n        /* \"new.sol\":961:971  msg.sender */\n      caller\n        /* \"new.sol\":961:981  msg.sender != _owner */\n      0xffffffffffffffffffffffffffffffffffffffff\n      and\n      eq\n        /* \"new.sol\":957:1000  if (msg.sender != _owner) revert NotOwner() */\n      tag_80\n      jumpi\n        /* \"new.sol\":990:1000  NotOwner() */\n      mload(0x40)\n      0x30cd747100000000000000000000000000000000000000000000000000000000\n      dup2\n      mstore\n      0x04\n      add\n      mload(0x40)\n      dup1\n      swap2\n      sub\n      swap1\n      revert\n        /* \"new.sol\":957:1000  if (msg.sender != _owner) revert NotOwner() */\n    tag_80:\n        /* \"new.sol\":2651:2652  0 */\n      0x00\n        /* \"new.sol\":2631:2653  newOwner != address(0) */\n      0xffffffffffffffffffffffffffffffffffffffff\n      and\n        /* \"new.sol\":2631:2639  newOwner */\n      dup2\n        /* \"new.sol\":2631:2653  newOwner != address(0) */\n      0xffffffffffffffffffffffffffffffffffffffff\n      and\n      sub\n        /* \"new.sol\":2623:2687  require(newOwner != address(0), \"New owner is the zero address\") */\n      tag_82\n      jumpi\n      mload(0x40)\n      0x08c379a000000000000000000000000000000000000000000000000000000000\n      dup2\n      mstore\n      0x04\n      add\n      tag_83\n      swap1\n      tag_84\n      jump\t// in\n    tag_83:\n      mload(0x40)\n      dup1\n      swap2\n      sub\n      swap1\n      revert\n    tag_82:\n        /* \"new.sol\":2732:2740  newOwner */\n      dup1\n        /* \"new.sol\":2703:2741  OwnershipTransferred(_owner, newOwner) */\n      0xffffffffffffffffffffffffffffffffffffffff\n      and\n        /* \"new.sol\":2724:2730  _owner */\n      0x01\n      0x00\n      swap1\n      sload\n      swap1\n      0x0100\n      exp\n      swap1\n      div\n      0xffffffffffffffffffffffffffffffffffffffff\n      and\n        /* \"new.sol\":2703:2741  OwnershipTransferred(_owner, newOwner) */\n      0xffffffffffffffffffffffffffffffffffffffff\n      and\n      0x8be0079c531659141344cd1fd0a4f28419497f9722a3daafe3b4186f6b6457e0\n      mload(0x40)\n      mload(0x40)\n      dup1\n      swap2\n      sub\n      swap1\n      log3\n        /* \"new.sol\":2761:2769  newOwner */\n      dup1\n        /* \"new.sol\":2752:2758  _owner */\n      0x01\n      0x00\n        /* \"new.sol\":2752:2769  _owner = newOwner */\n      0x0100\n      exp\n      dup2\n      sload\n      dup2\n      0xffffffffffffffffffffffffffffffffffffffff\n      mul\n      not\n      and\n      swap1\n      dup4\n      0xffffffffffffffffffffffffffffffffffffffff\n      and\n      mul\n      or\n      swap1\n      sstore\n      pop\n        /* \"new.sol\":2550:2777  function transferOwnership(address newOwner) public onlyOwner {... */\n      pop\n      jump\t// out\n        /* \"#utility.yul\":88:205   */\n    tag_86:\n        /* \"#utility.yul\":197:198   */\n      0x00\n        /* \"#utility.yul\":194:195   */\n      0x00\n        /* \"#utility.yul\":187:199   */\n      revert\n        /* \"#utility.yul\":334:460   */\n    tag_88:\n        /* \"#utility.yul\":371:378   */\n      0x00\n        /* \"#utility.yul\":411:453   */\n      0xffffffffffffffffffffffffffffffffffffffff\n        /* \"#utility.yul\":404:409   */\n      dup3\n        /* \"#utility.yul\":400:454   */\n      and\n        /* \"#utility.yul\":389:454   */\n      swap1\n      pop\n        /* \"#utility.yul\":334:460   */\n      swap2\n      swap1\n      pop\n      jump\t// out\n        /* \"#utility.yul\":466:562   */\n    tag_89:\n        /* \"#utility.yul\":503:510   */\n      0x00\n        /* \"#utility.yul\":532:556   */\n      tag_110\n        /* \"#utility.yul\":550:555   */\n      dup3\n        /* \"#utility.yul\":532:556   */\n      tag_88\n      jump\t// in\n    tag_110:\n        /* \"#utility.yul\":521:556   */\n      swap1\n      pop\n        /* \"#utility.yul\":466:562   */\n      swap2\n      swap1\n      pop\n      jump\t// out\n        /* \"#utility.yul\":568:690   */\n    tag_90:\n        /* \"#utility.yul\":641:665   */\n      tag_112\n        /* \"#utility.yul\":659:664   */\n      dup2\n        /* \"#utility.yul\":641:665   */\n      tag_89\n      jump\t// in\n    tag_112:\n        /* \"#utility.yul\":634:639   */\n      dup2\n        /* \"#utility.yul\":631:666   */\n      eq\n        /* \"#utility.yul\":621:684   */\n      tag_113\n      jumpi\n        /* \"#utility.yul\":680:681   */\n      0x00\n        /* \"#utility.yul\":677:678   */\n      0x00\n        /* \"#utility.yul\":670:682   */\n      revert\n        /* \"#utility.yul\":621:684   */\n    tag_113:\n        /* \"#utility.yul\":568:690   */\n      pop\n      jump\t// out\n        /* \"#utility.yul\":696:835   */\n    tag_91:\n        /* \"#utility.yul\":742:747   */\n      0x00\n        /* \"#utility.yul\":780:786   */\n      dup2\n        /* \"#utility.yul\":767:787   */\n      calldataload\n        /* \"#utility.yul\":758:787   */\n      swap1\n      pop\n        /* \"#utility.yul\":796:829   */\n      tag_115\n        /* \"#utility.yul\":823:828   */\n      dup2\n        /* \"#utility.yul\":796:829   */\n      tag_90\n      jump\t// in\n    tag_115:\n        /* \"#utility.yul\":696:835   */\n      swap3\n      swap2\n      pop\n      pop\n      jump\t// out\n        /* \"#utility.yul\":841:918   */\n    tag_92:\n        /* \"#utility.yul\":878:885   */\n      0x00\n        /* \"#utility.yul\":907:912   */\n      dup2\n        /* \"#utility.yul\":896:912   */\n      swap1\n      pop\n        /* \"#utility.yul\":841:918   */\n      swap2\n      swap1\n      pop\n      jump\t// out\n        /* \"#utility.yul\":924:1046   */\n    tag_93:\n        /* \"#utility.yul\":997:1021   */\n      tag_118\n        /* \"#utility.yul\":1015:1020   */\n      dup2\n        /* \"#utility.yul\":997:1021   */\n      tag_92\n      jump\t// in\n    tag_118:\n        /* \"#utility.yul\":990:995   */\n      dup2\n        /* \"#utility.yul\":987:1022   */\n      eq\n        /* \"#utility.yul\":977:1040   */\n      tag_119\n      jumpi\n        /* \"#utility.yul\":1036:1037   */\n      0x00\n        /* \"#utility.yul\":1033:1034   */\n      0x00\n        /* \"#utility.yul\":1026:1038   */\n      revert\n        /* \"#utility.yul\":977:1040   */\n    tag_119:\n        /* \"#utility.yul\":924:1046   */\n      pop\n      jump\t// out\n        /* \"#utility.yul\":1052:1191   */\n    tag_94:\n        /* \"#utility.yul\":1098:1103   */\n      0x00\n        /* \"#utility.yul\":1136:1142   */\n      dup2\n        /* \"#utility.yul\":1123:1143   */\n      calldataload\n        /* \"#utility.yul\":1114:1143   */\n      swap1\n      pop\n        /* \"#utility.yul\":1152:1185   */\n      tag_121\n        /* \"#utility.yul\":1179:1184   */\n      dup2\n        /* \"#utility.yul\":1152:1185   */\n      tag_93\n      jump\t// in\n    tag_121:\n        /* \"#utility.yul\":1052:1191   */\n      swap3\n      swap2\n      pop\n      pop\n      jump\t// out\n        /* \"#utility.yul\":1197:1671   */\n    tag_14:\n        /* \"#utility.yul\":1265:1271   */\n      0x00\n        /* \"#utility.yul\":1273:1279   */\n      0x00\n        /* \"#utility.yul\":1322:1324   */\n      0x40\n        /* \"#utility.yul\":1310:1319   */\n      dup4\n        /* \"#utility.yul\":1301:1308   */\n      dup6\n        /* \"#utility.yul\":1297:1320   */\n      sub\n        /* \"#utility.yul\":1293:1325   */\n      slt\n        /* \"#utility.yul\":1290:1409   */\n      iszero\n      tag_123\n      jumpi\n        /* \"#utility.yul\":1328:1407   */\n      tag_124\n      tag_86\n      jump\t// in\n    tag_124:\n        /* \"#utility.yul\":1290:1409   */\n    tag_123:\n        /* \"#utility.yul\":1448:1449   */\n      0x00\n        /* \"#utility.yul\":1473:1526   */\n      tag_125\n        /* \"#utility.yul\":1518:1525   */\n      dup6\n        /* \"#utility.yul\":1509:1515   */\n      dup3\n        /* \"#utility.yul\":1498:1507   */\n      dup7\n        /* \"#utility.yul\":1494:1516   */\n      add\n        /* \"#utility.yul\":1473:1526   */\n      tag_91\n      jump\t// in\n    tag_125:\n        /* \"#utility.yul\":1463:1526   */\n      swap3\n      pop\n        /* \"#utility.yul\":1419:1536   */\n      pop\n        /* \"#utility.yul\":1575:1577   */\n      0x20\n        /* \"#utility.yul\":1601:1654   */\n      tag_126\n        /* \"#utility.yul\":1646:1653   */\n      dup6\n        /* \"#utility.yul\":1637:1643   */\n      dup3\n        /* \"#utility.yul\":1626:1635   */\n      dup7\n        /* \"#utility.yul\":1622:1644   */\n      add\n        /* \"#utility.yul\":1601:1654   */\n      tag_94\n      jump\t// in\n    tag_126:\n        /* \"#utility.yul\":1591:1654   */\n      swap2\n      pop\n        /* \"#utility.yul\":1546:1664   */\n      pop\n        /* \"#utility.yul\":1197:1671   */\n      swap3\n      pop\n      swap3\n      swap1\n      pop\n      jump\t// out\n        /* \"#utility.yul\":1677:1767   */\n    tag_95:\n        /* \"#utility.yul\":1711:1718   */\n      0x00\n        /* \"#utility.yul\":1754:1759   */\n      dup2\n        /* \"#utility.yul\":1747:1760   */\n      iszero\n        /* \"#utility.yul\":1740:1761   */\n      iszero\n        /* \"#utility.yul\":1729:1761   */\n      swap1\n      pop\n        /* \"#utility.yul\":1677:1767   */\n      swap2\n      swap1\n      pop\n      jump\t// out\n        /* \"#utility.yul\":1773:1882   */\n    tag_96:\n        /* \"#utility.yul\":1854:1875   */\n      tag_129\n        /* \"#utility.yul\":1869:1874   */\n      dup2\n        /* \"#utility.yul\":1854:1875   */\n      tag_95\n      jump\t// in\n    tag_129:\n        /* \"#utility.yul\":1849:1852   */\n      dup3\n        /* \"#utility.yul\":1842:1876   */\n      mstore\n        /* \"#utility.yul\":1773:1882   */\n      pop\n      pop\n      jump\t// out\n        /* \"#utility.yul\":1888:2098   */\n    tag_17:\n        /* \"#utility.yul\":1975:1979   */\n      0x00\n        /* \"#utility.yul\":2013:2015   */\n      0x20\n        /* \"#utility.yul\":2002:2011   */\n      dup3\n        /* \"#utility.yul\":1998:2016   */\n      add\n        /* \"#utility.yul\":1990:2016   */\n      swap1\n      pop\n        /* \"#utility.yul\":2026:2091   */\n      tag_131\n        /* \"#utility.yul\":2088:2089   */\n      0x00\n        /* \"#utility.yul\":2077:2086   */\n      dup4\n        /* \"#utility.yul\":2073:2090   */\n      add\n        /* \"#utility.yul\":2064:2070   */\n      dup5\n        /* \"#utility.yul\":2026:2091   */\n      tag_96\n      jump\t// in\n    tag_131:\n        /* \"#utility.yul\":1888:2098   */\n      swap3\n      swap2\n      pop\n      pop\n      jump\t// out\n        /* \"#utility.yul\":2104:2222   */\n    tag_97:\n        /* \"#utility.yul\":2191:2215   */\n      tag_133\n        /* \"#utility.yul\":2209:2214   */\n      dup2\n        /* \"#utility.yul\":2191:2215   */\n      tag_92\n      jump\t// in\n    tag_133:\n        /* \"#utility.yul\":2186:2189   */\n      dup3\n        /* \"#utility.yul\":2179:2216   */\n      mstore\n        /* \"#utility.yul\":2104:2222   */\n      pop\n      pop\n      jump\t// out\n        /* \"#utility.yul\":2228:2450   */\n    tag_21:\n        /* \"#utility.yul\":2321:2325   */\n      0x00\n        /* \"#utility.yul\":2359:2361   */\n      0x20\n        /* \"#utility.yul\":2348:2357   */\n      dup3\n        /* \"#utility.yul\":2344:2362   */\n      add\n        /* \"#utility.yul\":2336:2362   */\n      swap1\n      pop\n        /* \"#utility.yul\":2372:2443   */\n      tag_135\n        /* \"#utility.yul\":2440:2441   */\n      0x00\n        /* \"#utility.yul\":2429:2438   */\n      dup4\n        /* \"#utility.yul\":2425:2442   */\n      add\n        /* \"#utility.yul\":2416:2422   */\n      dup5\n        /* \"#utility.yul\":2372:2443   */\n      tag_97\n      jump\t// in\n    tag_135:\n        /* \"#utility.yul\":2228:2450   */\n      swap3\n      swap2\n      pop\n      pop\n      jump\t// out\n        /* \"#utility.yul\":2456:3075   */\n    tag_24:\n        /* \"#utility.yul\":2533:2539   */\n      0x00\n        /* \"#utility.yul\":2541:2547   */\n      0x00\n        /* \"#utility.yul\":2549:2555   */\n      0x00\n        /* \"#utility.yul\":2598:2600   */\n      0x60\n        /* \"#utility.yul\":2586:2595   */\n      dup5\n        /* \"#utility.yul\":2577:2584   */\n      dup7\n        /* \"#utility.yul\":2573:2596   */\n      sub\n        /* \"#utility.yul\":2569:2601   */\n      slt\n        /* \"#utility.yul\":2566:2685   */\n      iszero\n      tag_137\n      jumpi\n        /* \"#utility.yul\":2604:2683   */\n      tag_138\n      tag_86\n      jump\t// in\n    tag_138:\n        /* \"#utility.yul\":2566:2685   */\n    tag_137:\n        /* \"#utility.yul\":2724:2725   */\n      0x00\n        /* \"#utility.yul\":2749:2802   */\n      tag_139\n        /* \"#utility.yul\":2794:2801   */\n      dup7\n        /* \"#utility.yul\":2785:2791   */\n      dup3\n        /* \"#utility.yul\":2774:2783   */\n      dup8\n        /* \"#utility.yul\":2770:2792   */\n      add\n        /* \"#utility.yul\":2749:2802   */\n      tag_91\n      jump\t// in\n    tag_139:\n        /* \"#utility.yul\":2739:2802   */\n      swap4\n      pop\n        /* \"#utility.yul\":2695:2812   */\n      pop\n        /* \"#utility.yul\":2851:2853   */\n      0x20\n        /* \"#utility.yul\":2877:2930   */\n      tag_140\n        /* \"#utility.yul\":2922:2929   */\n      dup7\n        /* \"#utility.yul\":2913:2919   */\n      dup3\n        /* \"#utility.yul\":2902:2911   */\n      dup8\n        /* \"#utility.yul\":2898:2920   */\n      add\n        /* \"#utility.yul\":2877:2930   */\n      tag_91\n      jump\t// in\n    tag_140:\n        /* \"#utility.yul\":2867:2930   */\n      swap3\n      pop\n        /* \"#utility.yul\":2822:2940   */\n      pop\n        /* \"#utility.yul\":2979:2981   */\n      0x40\n        /* \"#utility.yul\":3005:3058   */\n      tag_141\n        /* \"#utility.yul\":3050:3057   */\n      dup7\n        /* \"#utility.yul\":3041:3047   */\n      dup3\n        /* \"#utility.yul\":3030:3039   */\n      dup8\n        /* \"#utility.yul\":3026:3048   */\n      add\n        /* \"#utility.yul\":3005:3058   */\n      tag_94\n      jump\t// in\n    tag_141:\n        /* \"#utility.yul\":2995:3058   */\n      swap2\n      pop\n        /* \"#utility.yul\":2950:3068   */\n      pop\n        /* \"#utility.yul\":2456:3075   */\n      swap3\n      pop\n      swap3\n      pop\n      swap3\n      jump\t// out\n        /* \"#utility.yul\":3081:3199   */\n    tag_98:\n        /* \"#utility.yul\":3168:3192   */\n      tag_143\n        /* \"#utility.yul\":3186:3191   */\n      dup2\n        /* \"#utility.yul\":3168:3192   */\n      tag_89\n      jump\t// in\n    tag_143:\n        /* \"#utility.yul\":3163:3166   */\n      dup3\n        /* \"#utility.yul\":3156:3193   */\n      mstore\n        /* \"#utility.yul\":3081:3199   */\n      pop\n      pop\n      jump\t// out\n        /* \"#utility.yul\":3205:3427   */\n    tag_30:\n        /* \"#utility.yul\":3298:3302   */\n      0x00\n        /* \"#utility.yul\":3336:3338   */\n      0x20\n        /* \"#utility.yul\":3325:3334   */\n      dup3\n        /* \"#utility.yul\":3321:3339   */\n      add\n        /* \"#utility.yul\":3313:3339   */\n      swap1\n      pop\n        /* \"#utility.yul\":3349:3420   */\n      tag_145\n        /* \"#utility.yul\":3417:3418   */\n      0x00\n        /* \"#utility.yul\":3406:3415   */\n      dup4\n        /* \"#utility.yul\":3402:3419   */\n      add\n        /* \"#utility.yul\":3393:3399   */\n      dup5\n        /* \"#utility.yul\":3349:3420   */\n      tag_98\n      jump\t// in\n    tag_145:\n        /* \"#utility.yul\":3205:3427   */\n      swap3\n      swap2\n      pop\n      pop\n      jump\t// out\n        /* \"#utility.yul\":3433:3762   */\n    tag_33:\n        /* \"#utility.yul\":3492:3498   */\n      0x00\n        /* \"#utility.yul\":3541:3543   */\n      0x20\n        /* \"#utility.yul\":3529:3538   */\n      dup3\n        /* \"#utility.yul\":3520:3527   */\n      dup5\n        /* \"#utility.yul\":3516:3539   */\n      sub\n        /* \"#utility.yul\":3512:3544   */\n      slt\n        /* \"#utility.yul\":3509:3628   */\n      iszero\n      tag_147\n      jumpi\n        /* \"#utility.yul\":3547:3626   */\n      tag_148\n      tag_86\n      jump\t// in\n    tag_148:\n        /* \"#utility.yul\":3509:3628   */\n    tag_147:\n        /* \"#utility.yul\":3667:3668   */\n      0x00\n        /* \"#utility.yul\":3692:3745   */\n      tag_149\n        /* \"#utility.yul\":3737:3744   */\n      dup5\n        /* \"#utility.yul\":3728:3734   */\n      dup3\n        /* \"#utility.yul\":3717:3726   */\n      dup6\n        /* \"#utility.yul\":3713:3735   */\n      add\n        /* \"#utility.yul\":3692:3745   */\n      tag_91\n      jump\t// in\n    tag_149:\n        /* \"#utility.yul\":3682:3745   */\n      swap2\n      pop\n        /* \"#utility.yul\":3638:3755   */\n      pop\n        /* \"#utility.yul\":3433:3762   */\n      swap3\n      swap2\n      pop\n      pop\n      jump\t// out\n        /* \"#utility.yul\":3768:4242   */\n    tag_42:\n        /* \"#utility.yul\":3836:3842   */\n      0x00\n        /* \"#utility.yul\":3844:3850   */\n      0x00\n        /* \"#utility.yul\":3893:3895   */\n      0x40\n        /* \"#utility.yul\":3881:3890   */\n      dup4\n        /* \"#utility.yul\":3872:3879   */\n      dup6\n        /* \"#utility.yul\":3868:3891   */\n      sub\n        /* \"#utility.yul\":3864:3896   */\n      slt\n        /* \"#utility.yul\":3861:3980   */\n      iszero\n      tag_151\n      jumpi\n        /* \"#utility.yul\":3899:3978   */\n      tag_152\n      tag_86\n      jump\t// in\n    tag_152:\n        /* \"#utility.yul\":3861:3980   */\n    tag_151:\n        /* \"#utility.yul\":4019:4020   */\n      0x00\n        /* \"#utility.yul\":4044:4097   */\n      tag_153\n        /* \"#utility.yul\":4089:4096   */\n      dup6\n        /* \"#utility.yul\":4080:4086   */\n      dup3\n        /* \"#utility.yul\":4069:4078   */\n      dup7\n        /* \"#utility.yul\":4065:4087   */\n      add\n        /* \"#utility.yul\":4044:4097   */\n      tag_91\n      jump\t// in\n    tag_153:\n        /* \"#utility.yul\":4034:4097   */\n      swap3\n      pop\n        /* \"#utility.yul\":3990:4107   */\n      pop\n        /* \"#utility.yul\":4146:4148   */\n      0x20\n        /* \"#utility.yul\":4172:4225   */\n      tag_154\n        /* \"#utility.yul\":4217:4224   */\n      dup6\n        /* \"#utility.yul\":4208:4214   */\n      dup3\n        /* \"#utility.yul\":4197:4206   */\n      dup7\n        /* \"#utility.yul\":4193:4215   */\n      add\n        /* \"#utility.yul\":4172:4225   */\n      tag_91\n      jump\t// in\n    tag_154:\n        /* \"#utility.yul\":4162:4225   */\n      swap2\n      pop\n        /* \"#utility.yul\":4117:4235   */\n      pop\n        /* \"#utility.yul\":3768:4242   */\n      swap3\n      pop\n      swap3\n      swap1\n      pop\n      jump\t// out\n        /* \"#utility.yul\":4248:4428   */\n    tag_99:\n        /* \"#utility.yul\":4296:4373   */\n      0x4e487b7100000000000000000000000000000000000000000000000000000000\n        /* \"#utility.yul\":4293:4294   */\n      0x00\n        /* \"#utility.yul\":4286:4374   */\n      mstore\n        /* \"#utility.yul\":4393:4397   */\n      0x11\n        /* \"#utility.yul\":4390:4391   */\n      0x04\n        /* \"#utility.yul\":4383:4398   */\n      mstore\n        /* \"#utility.yul\":4417:4421   */\n      0x24\n        /* \"#utility.yul\":4414:4415   */\n      0x00\n        /* \"#utility.yul\":4407:4422   */\n      revert\n        /* \"#utility.yul\":4434:4844   */\n    tag_55:\n        /* \"#utility.yul\":4474:4481   */\n      0x00\n        /* \"#utility.yul\":4497:4517   */\n      tag_157\n        /* \"#utility.yul\":4515:4516   */\n      dup3\n        /* \"#utility.yul\":4497:4517   */\n      tag_92\n      jump\t// in\n    tag_157:\n        /* \"#utility.yul\":4492:4517   */\n      swap2\n      pop\n        /* \"#utility.yul\":4531:4551   */\n      tag_158\n        /* \"#utility.yul\":4549:4550   */\n      dup4\n        /* \"#utility.yul\":4531:4551   */\n      tag_92\n      jump\t// in\n    tag_158:\n        /* \"#utility.yul\":4526:4551   */\n      swap3\n      pop\n        /* \"#utility.yul\":4586:4587   */\n      dup3\n        /* \"#utility.yul\":4583:4584   */\n      dup3\n        /* \"#utility.yul\":4579:4588   */\n      mul\n        /* \"#utility.yul\":4608:4638   */\n      tag_159\n        /* \"#utility.yul\":4626:4637   */\n      dup2\n        /* \"#utility.yul\":4608:4638   */\n      tag_92\n      jump\t// in\n    tag_159:\n        /* \"#utility.yul\":4597:4638   */\n      swap2\n      pop\n        /* \"#utility.yul\":4787:4788   */\n      dup3\n        /* \"#utility.yul\":4778:4785   */\n      dup3\n        /* \"#utility.yul\":4774:4789   */\n      div\n        /* \"#utility.yul\":4771:4772   */\n      dup5\n        /* \"#utility.yul\":4768:4790   */\n      eq\n        /* \"#utility.yul\":4748:4749   */\n      dup4\n        /* \"#utility.yul\":4741:4750   */\n      iszero\n        /* \"#utility.yul\":4721:4804   */\n      or\n        /* \"#utility.yul\":4698:4837   */\n      tag_160\n      jumpi\n        /* \"#utility.yul\":4817:4835   */\n      tag_161\n      tag_99\n      jump\t// in\n    tag_161:\n        /* \"#utility.yul\":4698:4837   */\n    tag_160:\n        /* \"#utility.yul\":4482:4844   */\n      pop\n        /* \"#utility.yul\":4434:4844   */\n      swap3\n      swap2\n      pop\n      pop\n      jump\t// out\n        /* \"#utility.yul\":4850:5030   */\n    tag_100:\n        /* \"#utility.yul\":4898:4975   */\n      0x4e487b7100000000000000000000000000000000000000000000000000000000\n        /* \"#utility.yul\":4895:4896   */\n      0x00\n        /* \"#utility.yul\":4888:4976   */\n      mstore\n        /* \"#utility.yul\":4995:4999   */\n      0x12\n        /* \"#utility.yul\":4992:4993   */\n      0x04\n        /* \"#utility.yul\":4985:5000   */\n      mstore\n        /* \"#utility.yul\":5019:5023   */\n      0x24\n        /* \"#utility.yul\":5016:5017   */\n      0x00\n        /* \"#utility.yul\":5009:5024   */\n      revert\n        /* \"#utility.yul\":5036:5221   */\n    tag_57:\n        /* \"#utility.yul\":5076:5077   */\n      0x00\n        /* \"#utility.yul\":5093:5113   */\n      tag_164\n        /* \"#utility.yul\":5111:5112   */\n      dup3\n        /* \"#utility.yul\":5093:5113   */\n      tag_92\n      jump\t// in\n    tag_164:\n        /* \"#utility.yul\":5088:5113   */\n      swap2\n      pop\n        /* \"#utility.yul\":5127:5147   */\n      tag_165\n        /* \"#utility.yul\":5145:5146   */\n      dup4\n        /* \"#utility.yul\":5127:5147   */\n      tag_92\n      jump\t// in\n    tag_165:\n        /* \"#utility.yul\":5122:5147   */\n      swap3\n      pop\n        /* \"#utility.yul\":5166:5167   */\n      dup3\n        /* \"#utility.yul\":5156:5191   */\n      tag_166\n      jumpi\n        /* \"#utility.yul\":5171:5189   */\n      tag_167\n      tag_100\n      jump\t// in\n    tag_167:\n        /* \"#utility.yul\":5156:5191   */\n    tag_166:\n        /* \"#utility.yul\":5213:5214   */\n      dup3\n        /* \"#utility.yul\":5210:5211   */\n      dup3\n        /* \"#utility.yul\":5206:5215   */\n      div\n        /* \"#utility.yul\":5201:5215   */\n      swap1\n      pop\n        /* \"#utility.yul\":5036:5221   */\n      swap3\n      swap2\n      pop\n      pop\n      jump\t// out\n        /* \"#utility.yul\":5227:5421   */\n    tag_59:\n        /* \"#utility.yul\":5267:5271   */\n      0x00\n        /* \"#utility.yul\":5287:5307   */\n      tag_169\n        /* \"#utility.yul\":5305:5306   */\n      dup3\n        /* \"#utility.yul\":5287:5307   */\n      tag_92\n      jump\t// in\n    tag_169:\n        /* \"#utility.yul\":5282:5307   */\n      swap2\n      pop\n        /* \"#utility.yul\":5321:5341   */\n      tag_170\n        /* \"#utility.yul\":5339:5340   */\n      dup4\n        /* \"#utility.yul\":5321:5341   */\n      tag_92\n      jump\t// in\n    tag_170:\n        /* \"#utility.yul\":5316:5341   */\n      swap3\n      pop\n        /* \"#utility.yul\":5365:5366   */\n      dup3\n        /* \"#utility.yul\":5362:5363   */\n      dup3\n        /* \"#utility.yul\":5358:5367   */\n      sub\n        /* \"#utility.yul\":5350:5367   */\n      swap1\n      pop\n        /* \"#utility.yul\":5389:5390   */\n      dup2\n        /* \"#utility.yul\":5383:5387   */\n      dup2\n        /* \"#utility.yul\":5380:5391   */\n      gt\n        /* \"#utility.yul\":5377:5414   */\n      iszero\n      tag_171\n      jumpi\n        /* \"#utility.yul\":5394:5412   */\n      tag_172\n      tag_99\n      jump\t// in\n    tag_172:\n        /* \"#utility.yul\":5377:5414   */\n    tag_171:\n        /* \"#utility.yul\":5227:5421   */\n      swap3\n      swap2\n      pop\n      pop\n      jump\t// out\n        /* \"#utility.yul\":5427:5618   */\n    tag_62:\n        /* \"#utility.yul\":5467:5470   */\n      0x00\n        /* \"#utility.yul\":5486:5506   */\n      tag_174\n        /* \"#utility.yul\":5504:5505   */\n      dup3\n        /* \"#utility.yul\":5486:5506   */\n      tag_92\n      jump\t// in\n    tag_174:\n        /* \"#utility.yul\":5481:5506   */\n      swap2\n      pop\n        /* \"#utility.yul\":5520:5540   */\n      tag_175\n        /* \"#utility.yul\":5538:5539   */\n      dup4\n        /* \"#utility.yul\":5520:5540   */\n      tag_92\n      jump\t// in\n    tag_175:\n        /* \"#utility.yul\":5515:5540   */\n      swap3\n      pop\n        /* \"#utility.yul\":5563:5564   */\n      dup3\n        /* \"#utility.yul\":5560:5561   */\n      dup3\n        /* \"#utility.yul\":5556:5565   */\n      add\n        /* \"#utility.yul\":5549:5565   */\n      swap1\n      pop\n        /* \"#utility.yul\":5584:5587   */\n      dup1\n        /* \"#utility.yul\":5581:5582   */\n      dup3\n        /* \"#utility.yul\":5578:5588   */\n      gt\n        /* \"#utility.yul\":5575:5611   */\n      iszero\n      tag_176\n      jumpi\n        /* \"#utility.yul\":5591:5609   */\n      tag_177\n      tag_99\n      jump\t// in\n    tag_177:\n        /* \"#utility.yul\":5575:5611   */\n    tag_176:\n        /* \"#utility.yul\":5427:5618   */\n      swap3\n      swap2\n      pop\n      pop\n      jump\t// out\n        /* \"#utility.yul\":5624:5793   */\n    tag_101:\n        /* \"#utility.yul\":5708:5719   */\n      0x00\n        /* \"#utility.yul\":5742:5748   */\n      dup3\n        /* \"#utility.yul\":5737:5740   */\n      dup3\n        /* \"#utility.yul\":5730:5749   */\n      mstore\n        /* \"#utility.yul\":5782:5786   */\n      0x20\n        /* \"#utility.yul\":5777:5780   */\n      dup3\n        /* \"#utility.yul\":5773:5787   */\n      add\n        /* \"#utility.yul\":5758:5787   */\n      swap1\n      pop\n        /* \"#utility.yul\":5624:5793   */\n      swap3\n      swap2\n      pop\n      pop\n      jump\t// out\n        /* \"#utility.yul\":5799:5978   */\n    tag_102:\n        /* \"#utility.yul\":5939:5970   */\n      0x4e6577206f776e657220697320746865207a65726f2061646472657373000000\n        /* \"#utility.yul\":5935:5936   */\n      0x00\n        /* \"#utility.yul\":5927:5933   */\n      dup3\n        /* \"#utility.yul\":5923:5937   */\n      add\n        /* \"#utility.yul\":5916:5971   */\n      mstore\n        /* \"#utility.yul\":5799:5978   */\n      pop\n      jump\t// out\n        /* \"#utility.yul\":5984:6350   */\n    tag_103:\n        /* \"#utility.yul\":6126:6129   */\n      0x00\n        /* \"#utility.yul\":6147:6214   */\n      tag_181\n        /* \"#utility.yul\":6211:6213   */\n      0x1d\n        /* \"#utility.yul\":6206:6209   */\n      dup4\n        /* \"#utility.yul\":6147:6214   */\n      tag_101\n      jump\t// in\n    tag_181:\n        /* \"#utility.yul\":6140:6214   */\n      swap2\n      pop\n        /* \"#utility.yul\":6223:6316   */\n      tag_182\n        /* \"#utility.yul\":6312:6315   */\n      dup3\n        /* \"#utility.yul\":6223:6316   */\n      tag_102\n      jump\t// in\n    tag_182:\n        /* \"#utility.yul\":6341:6343   */\n      0x20\n        /* \"#utility.yul\":6336:6339   */\n      dup3\n        /* \"#utility.yul\":6332:6344   */\n      add\n        /* \"#utility.yul\":6325:6344   */\n      swap1\n      pop\n        /* \"#utility.yul\":5984:6350   */\n      swap2\n      swap1\n      pop\n      jump\t// out\n        /* \"#utility.yul\":6356:6775   */\n    tag_84:\n        /* \"#utility.yul\":6522:6526   */\n      0x00\n        /* \"#utility.yul\":6560:6562   */\n      0x20\n        /* \"#utility.yul\":6549:6558   */\n      dup3\n        /* \"#utility.yul\":6545:6563   */\n      add\n        /* \"#utility.yul\":6537:6563   */\n      swap1\n      pop\n        /* \"#utility.yul\":6609:6618   */\n      dup2\n        /* \"#utility.yul\":6603:6607   */\n      dup2\n        /* \"#utility.yul\":6599:6619   */\n      sub\n        /* \"#utility.yul\":6595:6596   */\n      0x00\n        /* \"#utility.yul\":6584:6593   */\n      dup4\n        /* \"#utility.yul\":6580:6597   */\n      add\n        /* \"#utility.yul\":6573:6620   */\n      mstore\n        /* \"#utility.yul\":6637:6768   */\n      tag_184\n        /* \"#utility.yul\":6763:6767   */\n      dup2\n        /* \"#utility.yul\":6637:6768   */\n      tag_103\n      jump\t// in\n    tag_184:\n        /* \"#utility.yul\":6629:6768   */\n      swap1\n      pop\n        /* \"#utility.yul\":6356:6775   */\n      swap2\n      swap1\n      pop\n      jump\t// out\n\n    auxdata: 0xa2646970667358221220ed36442b97437ec0ba1e10cd60247a57b70e1776184ec1f68a9aff8e52afd5e164736f6c634300081e0033\n}\n",
				"bytecode": {
					"linkReferences": {},
					"object": "608060405234801561000f575f5ffd5b5060405161124c38038061124c8339818101604052810190610031919061020c565b3360015f6101000a81548173ffffffffffffffffffffffffffffffffffffffff021916908373ffffffffffffffffffffffffffffffffffffffff160217905550815f5f6101000a81548173ffffffffffffffffffffffffffffffffffffffff021916908373ffffffffffffffffffffffffffffffffffffffff160217905550806002819055508060035f3373ffffffffffffffffffffffffffffffffffffffff1673ffffffffffffffffffffffffffffffffffffffff1681526020019081526020015f208190555060015f9054906101000a900473ffffffffffffffffffffffffffffffffffffffff1673ffffffffffffffffffffffffffffffffffffffff165f73ffffffffffffffffffffffffffffffffffffffff167f8be0079c531659141344cd1fd0a4f28419497f9722a3daafe3b4186f6b6457e060405160405180910390a3505061024a565b5f5ffd5b5f73ffffffffffffffffffffffffffffffffffffffff82169050919050565b5f6101a88261017f565b9050919050565b6101b88161019e565b81146101c2575f5ffd5b50565b5f815190506101d3816101af565b92915050565b5f819050919050565b6101eb816101d9565b81146101f5575f5ffd5b50565b5f81519050610206816101e2565b92915050565b5f5f604083850312156102225761022161017b565b5b5f61022f858286016101c5565b9250506020610240858286016101f8565b9150509250929050565b610ff5806102575f395ff3fe608060405234801561000f575f5ffd5b5060043610610086575f3560e01c806370a082311161005957806370a0823114610126578063a9059cbb14610156578063dd62ed3e14610186578063f2fde38b146101b657610086565b8063095ea7b31461008a57806318160ddd146100ba57806323b872dd146100d85780634626402b14610108575b5f5ffd5b6100a4600480360381019061009f9190610c9c565b6101d2565b6040516100b19190610cf4565b60405180910390f35b6100c26102bf565b6040516100cf9190610d1c565b60405180910390f35b6100f260048036038101906100ed9190610d35565b6102c8565b6040516100ff9190610cf4565b60405180910390f35b6101106106bb565b60405161011d9190610d94565b60405180910390f35b610140600480360381019061013b9190610dad565b6106df565b60405161014d9190610d1c565b60405180910390f35b610170600480360381019061016b9190610c9c565b610725565b60405161017d9190610cf4565b60405180910390f35b6101a0600480360381019061019b9190610dd8565b6109d7565b6040516101ad9190610d1c565b60405180910390f35b6101d060048036038101906101cb9190610dad565b610a59565b005b5f8160045f3373ffffffffffffffffffffffffffffffffffffffff1673ffffffffffffffffffffffffffffffffffffffff1681526020019081526020015f205f8573ffffffffffffffffffffffffffffffffffffffff1673ffffffffffffffffffffffffffffffffffffffff1681526020019081526020015f20819055508273ffffffffffffffffffffffffffffffffffffffff163373ffffffffffffffffffffffffffffffffffffffff167fddf252ad1be2c89b69c2b068fc378daa952ba7f163c4a11628f55a4df523b3ef846040516102ad9190610d1c565b60405180910390a36001905092915050565b5f600254905090565b5f8160035f8673ffffffffffffffffffffffffffffffffffffffff1673ffffffffffffffffffffffffffffffffffffffff1681526020019081526020015f20541015610340576040517ff4d678b800000000000000000000000000000000000000000000000000000000815260040160405180910390fd5b8160045f8673ffffffffffffffffffffffffffffffffffffffff1673ffffffffffffffffffffffffffffffffffffffff1681526020019081526020015f205f3373ffffffffffffffffffffffffffffffffffffffff1673ffffffffffffffffffffffffffffffffffffffff1681526020019081526020015f205410156103f2576040517f13be252b00000000000000000000000000000000000000000000000000000000815260040160405180910390fd5b5f60646003846104029190610e43565b61040c9190610eb1565b90505f818461041b9190610ee1565b90508360035f8873ffffffffffffffffffffffffffffffffffffffff1673ffffffffffffffffffffffffffffffffffffffff1681526020019081526020015f205f8282546104699190610ee1565b925050819055508060035f8773ffffffffffffffffffffffffffffffffffffffff1673ffffffffffffffffffffffffffffffffffffffff1681526020019081526020015f205f8282546104bc9190610f14565b925050819055508160035f5f5f9054906101000a900473ffffffffffffffffffffffffffffffffffffffff1673ffffffffffffffffffffffffffffffffffffffff1673ffffffffffffffffffffffffffffffffffffffff1681526020019081526020015f205f82825461052f9190610f14565b925050819055508360045f8873ffffffffffffffffffffffffffffffffffffffff1673ffffffffffffffffffffffffffffffffffffffff1681526020019081526020015f205f3373ffffffffffffffffffffffffffffffffffffffff1673ffffffffffffffffffffffffffffffffffffffff1681526020019081526020015f205f8282546105bd9190610ee1565b925050819055508473ffffffffffffffffffffffffffffffffffffffff168673ffffffffffffffffffffffffffffffffffffffff167fddf252ad1be2c89b69c2b068fc378daa952ba7f163c4a11628f55a4df523b3ef836040516106219190610d1c565b60405180910390a35f5f9054906101000a900473ffffffffffffffffffffffffffffffffffffffff1673ffffffffffffffffffffffffffffffffffffffff168673ffffffffffffffffffffffffffffffffffffffff167f67f37689446ca759dce8394ec09e4492257883f3e02136d8ab1cc8cc6a7bb76b846040516106a69190610d1c565b60405180910390a36001925050509392505050565b5f5f9054906101000a900473ffffffffffffffffffffffffffffffffffffffff1681565b5f60035f8373ffffffffffffffffffffffffffffffffffffffff1673ffffffffffffffffffffffffffffffffffffffff1681526020019081526020015f20549050919050565b5f5f60646003846107369190610e43565b6107409190610eb1565b90505f818461074f9190610ee1565b90508360035f3373ffffffffffffffffffffffffffffffffffffffff1673ffffffffffffffffffffffffffffffffffffffff1681526020019081526020015f205410156107c8576040517ff4d678b800000000000000000000000000000000000000000000000000000000815260040160405180910390fd5b8360035f3373ffffffffffffffffffffffffffffffffffffffff1673ffffffffffffffffffffffffffffffffffffffff1681526020019081526020015f205f8282546108149190610ee1565b925050819055508060035f8773ffffffffffffffffffffffffffffffffffffffff1673ffffffffffffffffffffffffffffffffffffffff1681526020019081526020015f205f8282546108679190610f14565b925050819055508160035f5f5f9054906101000a900473ffffffffffffffffffffffffffffffffffffffff1673ffffffffffffffffffffffffffffffffffffffff1673ffffffffffffffffffffffffffffffffffffffff1681526020019081526020015f205f8282546108da9190610f14565b925050819055508473ffffffffffffffffffffffffffffffffffffffff163373ffffffffffffffffffffffffffffffffffffffff167fddf252ad1be2c89b69c2b068fc378daa952ba7f163c4a11628f55a4df523b3ef8360405161093e9190610d1c565b60405180910390a35f5f9054906101000a900473ffffffffffffffffffffffffffffffffffffffff1673ffffffffffffffffffffffffffffffffffffffff163373ffffffffffffffffffffffffffffffffffffffff167f67f37689446ca759dce8394ec09e4492257883f3e02136d8ab1cc8cc6a7bb76b846040516109c39190610d1c565b60405180910390a360019250505092915050565b5f60045f8473ffffffffffffffffffffffffffffffffffffffff1673ffffffffffffffffffffffffffffffffffffffff1681526020019081526020015f205f8373ffffffffffffffffffffffffffffffffffffffff1673ffffffffffffffffffffffffffffffffffffffff1681526020019081526020015f2054905092915050565b60015f9054906101000a900473ffffffffffffffffffffffffffffffffffffffff1673ffffffffffffffffffffffffffffffffffffffff163373ffffffffffffffffffffffffffffffffffffffff1614610adf576040517f30cd747100000000000000000000000000000000000000000000000000000000815260040160405180910390fd5b5f73ffffffffffffffffffffffffffffffffffffffff168173ffffffffffffffffffffffffffffffffffffffff1603610b4d576040517f08c379a0000000000000000000000000000000000000000000000000000000008152600401610b4490610fa1565b60405180910390fd5b8073ffffffffffffffffffffffffffffffffffffffff1660015f9054906101000a900473ffffffffffffffffffffffffffffffffffffffff1673ffffffffffffffffffffffffffffffffffffffff167f8be0079c531659141344cd1fd0a4f28419497f9722a3daafe3b4186f6b6457e060405160405180910390a38060015f6101000a81548173ffffffffffffffffffffffffffffffffffffffff021916908373ffffffffffffffffffffffffffffffffffffffff16021790555050565b5f5ffd5b5f73ffffffffffffffffffffffffffffffffffffffff82169050919050565b5f610c3882610c0f565b9050919050565b610c4881610c2e565b8114610c52575f5ffd5b50565b5f81359050610c6381610c3f565b92915050565b5f819050919050565b610c7b81610c69565b8114610c85575f5ffd5b50565b5f81359050610c9681610c72565b92915050565b5f5f60408385031215610cb257610cb1610c0b565b5b5f610cbf85828601610c55565b9250506020610cd085828601610c88565b9150509250929050565b5f8115159050919050565b610cee81610cda565b82525050565b5f602082019050610d075f830184610ce5565b92915050565b610d1681610c69565b82525050565b5f602082019050610d2f5f830184610d0d565b92915050565b5f5f5f60608486031215610d4c57610d4b610c0b565b5b5f610d5986828701610c55565b9350506020610d6a86828701610c55565b9250506040610d7b86828701610c88565b9150509250925092565b610d8e81610c2e565b82525050565b5f602082019050610da75f830184610d85565b92915050565b5f60208284031215610dc257610dc1610c0b565b5b5f610dcf84828501610c55565b91505092915050565b5f5f60408385031215610dee57610ded610c0b565b5b5f610dfb85828601610c55565b9250506020610e0c85828601610c55565b9150509250929050565b7f4e487b71000000000000000000000000000000000000000000000000000000005f52601160045260245ffd5b5f610e4d82610c69565b9150610e5883610c69565b9250828202610e6681610c69565b91508282048414831517610e7d57610e7c610e16565b5b5092915050565b7f4e487b71000000000000000000000000000000000000000000000000000000005f52601260045260245ffd5b5f610ebb82610c69565b9150610ec683610c69565b925082610ed657610ed5610e84565b5b828204905092915050565b5f610eeb82610c69565b9150610ef683610c69565b9250828203905081811115610f0e57610f0d610e16565b5b92915050565b5f610f1e82610c69565b9150610f2983610c69565b9250828201905080821115610f4157610f40610e16565b5b92915050565b5f82825260208201905092915050565b7f4e6577206f776e657220697320746865207a65726f20616464726573730000005f82015250565b5f610f8b601d83610f47565b9150610f9682610f57565b602082019050919050565b5f6020820190508181035f830152610fb881610f7f565b905091905056fea2646970667358221220ed36442b97437ec0ba1e10cd60247a57b70e1776184ec1f68a9aff8e52afd5e164736f6c634300081e0033",
					"opcodes": "PUSH1 0x80 PUSH1 0x40 MSTORE CALLVALUE DUP1 ISZERO PUSH2 0xF JUMPI PUSH0 PUSH0 REVERT JUMPDEST POP PUSH1 0x40 MLOAD PUSH2 0x124C CODESIZE SUB DUP1 PUSH2 0x124C DUP4 CODECOPY DUP2 DUP2 ADD PUSH1 0x40 MSTORE DUP2 ADD SWAP1 PUSH2 0x31 SWAP2 SWAP1 PUSH2 0x20C JUMP JUMPDEST CALLER PUSH1 0x1 PUSH0 PUSH2 0x100 EXP DUP2 SLOAD DUP2 PUSH20 0xFFFFFFFFFFFFFFFFFFFFFFFFFFFFFFFFFFFFFFFF MUL NOT AND SWAP1 DUP4 PUSH20 0xFFFFFFFFFFFFFFFFFFFFFFFFFFFFFFFFFFFFFFFF AND MUL OR SWAP1 SSTORE POP DUP2 PUSH0 PUSH0 PUSH2 0x100 EXP DUP2 SLOAD DUP2 PUSH20 0xFFFFFFFFFFFFFFFFFFFFFFFFFFFFFFFFFFFFFFFF MUL NOT AND SWAP1 DUP4 PUSH20 0xFFFFFFFFFFFFFFFFFFFFFFFFFFFFFFFFFFFFFFFF AND MUL OR SWAP1 SSTORE POP DUP1 PUSH1 0x2 DUP2 SWAP1 SSTORE POP DUP1 PUSH1 0x3 PUSH0 CALLER PUSH20 0xFFFFFFFFFFFFFFFFFFFFFFFFFFFFFFFFFFFFFFFF AND PUSH20 0xFFFFFFFFFFFFFFFFFFFFFFFFFFFFFFFFFFFFFFFF AND DUP2 MSTORE PUSH1 0x20 ADD SWAP1 DUP2 MSTORE PUSH1 0x20 ADD PUSH0 KECCAK256 DUP2 SWAP1 SSTORE POP PUSH1 0x1 PUSH0 SWAP1 SLOAD SWAP1 PUSH2 0x100 EXP SWAP1 DIV PUSH20 0xFFFFFFFFFFFFFFFFFFFFFFFFFFFFFFFFFFFFFFFF AND PUSH20 0xFFFFFFFFFFFFFFFFFFFFFFFFFFFFFFFFFFFFFFFF AND PUSH0 PUSH20 0xFFFFFFFFFFFFFFFFFFFFFFFFFFFFFFFFFFFFFFFF AND PUSH32 0x8BE0079C531659141344CD1FD0A4F28419497F9722A3DAAFE3B4186F6B6457E0 PUSH1 0x40 MLOAD PUSH1 0x40 MLOAD DUP1 SWAP2 SUB SWAP1 LOG3 POP POP PUSH2 0x24A JUMP JUMPDEST PUSH0 PUSH0 REVERT JUMPDEST PUSH0 PUSH20 0xFFFFFFFFFFFFFFFFFFFFFFFFFFFFFFFFFFFFFFFF DUP3 AND SWAP1 POP SWAP2 SWAP1 POP JUMP JUMPDEST PUSH0 PUSH2 0x1A8 DUP3 PUSH2 0x17F JUMP JUMPDEST SWAP1 POP SWAP2 SWAP1 POP JUMP JUMPDEST PUSH2 0x1B8 DUP2 PUSH2 0x19E JUMP JUMPDEST DUP2 EQ PUSH2 0x1C2 JUMPI PUSH0 PUSH0 REVERT JUMPDEST POP JUMP JUMPDEST PUSH0 DUP2 MLOAD SWAP1 POP PUSH2 0x1D3 DUP2 PUSH2 0x1AF JUMP JUMPDEST SWAP3 SWAP2 POP POP JUMP JUMPDEST PUSH0 DUP2 SWAP1 POP SWAP2 SWAP1 POP JUMP JUMPDEST PUSH2 0x1EB DUP2 PUSH2 0x1D9 JUMP JUMPDEST DUP2 EQ PUSH2 0x1F5 JUMPI PUSH0 PUSH0 REVERT JUMPDEST POP JUMP JUMPDEST PUSH0 DUP2 MLOAD SWAP1 POP PUSH2 0x206 DUP2 PUSH2 0x1E2 JUMP JUMPDEST SWAP3 SWAP2 POP POP JUMP JUMPDEST PUSH0 PUSH0 PUSH1 0x40 DUP4 DUP6 SUB SLT ISZERO PUSH2 0x222 JUMPI PUSH2 0x221 PUSH2 0x17B JUMP JUMPDEST JUMPDEST PUSH0 PUSH2 0x22F DUP6 DUP3 DUP7 ADD PUSH2 0x1C5 JUMP JUMPDEST SWAP3 POP POP PUSH1 0x20 PUSH2 0x240 DUP6 DUP3 DUP7 ADD PUSH2 0x1F8 JUMP JUMPDEST SWAP2 POP POP SWAP3 POP SWAP3 SWAP1 POP JUMP JUMPDEST PUSH2 0xFF5 DUP1 PUSH2 0x257 PUSH0 CODECOPY PUSH0 RETURN INVALID PUSH1 0x80 PUSH1 0x40 MSTORE CALLVALUE DUP1 ISZERO PUSH2 0xF JUMPI PUSH0 PUSH0 REVERT JUMPDEST POP PUSH1 0x4 CALLDATASIZE LT PUSH2 0x86 JUMPI PUSH0 CALLDATALOAD PUSH1 0xE0 SHR DUP1 PUSH4 0x70A08231 GT PUSH2 0x59 JUMPI DUP1 PUSH4 0x70A08231 EQ PUSH2 0x126 JUMPI DUP1 PUSH4 0xA9059CBB EQ PUSH2 0x156 JUMPI DUP1 PUSH4 0xDD62ED3E EQ PUSH2 0x186 JUMPI DUP1 PUSH4 0xF2FDE38B EQ PUSH2 0x1B6 JUMPI PUSH2 0x86 JUMP JUMPDEST DUP1 PUSH4 0x95EA7B3 EQ PUSH2 0x8A JUMPI DUP1 PUSH4 0x18160DDD EQ PUSH2 0xBA JUMPI DUP1 PUSH4 0x23B872DD EQ PUSH2 0xD8 JUMPI DUP1 PUSH4 0x4626402B EQ PUSH2 0x108 JUMPI JUMPDEST PUSH0 PUSH0 REVERT JUMPDEST PUSH2 0xA4 PUSH1 0x4 DUP1 CALLDATASIZE SUB DUP2 ADD SWAP1 PUSH2 0x9F SWAP2 SWAP1 PUSH2 0xC9C JUMP JUMPDEST PUSH2 0x1D2 JUMP JUMPDEST PUSH1 0x40 MLOAD PUSH2 0xB1 SWAP2 SWAP1 PUSH2 0xCF4 JUMP JUMPDEST PUSH1 0x40 MLOAD DUP1 SWAP2 SUB SWAP1 RETURN JUMPDEST PUSH2 0xC2 PUSH2 0x2BF JUMP JUMPDEST PUSH1 0x40 MLOAD PUSH2 0xCF SWAP2 SWAP1 PUSH2 0xD1C JUMP JUMPDEST PUSH1 0x40 MLOAD DUP1 SWAP2 SUB SWAP1 RETURN JUMPDEST PUSH2 0xF2 PUSH1 0x4 DUP1 CALLDATASIZE SUB DUP2 ADD SWAP1 PUSH2 0xED SWAP2 SWAP1 PUSH2 0xD35 JUMP JUMPDEST PUSH2 0x2C8 JUMP JUMPDEST PUSH1 0x40 MLOAD PUSH2 0xFF SWAP2 SWAP1 PUSH2 0xCF4 JUMP JUMPDEST PUSH1 0x40 MLOAD DUP1 SWAP2 SUB SWAP1 RETURN JUMPDEST PUSH2 0x110 PUSH2 0x6BB JUMP JUMPDEST PUSH1 0x40 MLOAD PUSH2 0x11D SWAP2 SWAP1 PUSH2 0xD94 JUMP JUMPDEST PUSH1 0x40 MLOAD DUP1 SWAP2 SUB SWAP1 RETURN JUMPDEST PUSH2 0x140 PUSH1 0x4 DUP1 CALLDATASIZE SUB DUP2 ADD SWAP1 PUSH2 0x13B SWAP2 SWAP1 PUSH2 0xDAD JUMP JUMPDEST PUSH2 0x6DF JUMP JUMPDEST PUSH1 0x40 MLOAD PUSH2 0x14D SWAP2 SWAP1 PUSH2 0xD1C JUMP JUMPDEST PUSH1 0x40 MLOAD DUP1 SWAP2 SUB SWAP1 RETURN JUMPDEST PUSH2 0x170 PUSH1 0x4 DUP1 CALLDATASIZE SUB DUP2 ADD SWAP1 PUSH2 0x16B SWAP2 SWAP1 PUSH2 0xC9C JUMP JUMPDEST PUSH2 0x725 JUMP JUMPDEST PUSH1 0x40 MLOAD PUSH2 0x17D SWAP2 SWAP1 PUSH2 0xCF4 JUMP JUMPDEST PUSH1 0x40 MLOAD DUP1 SWAP2 SUB SWAP1 RETURN JUMPDEST PUSH2 0x1A0 PUSH1 0x4 DUP1 CALLDATASIZE SUB DUP2 ADD SWAP1 PUSH2 0x19B SWAP2 SWAP1 PUSH2 0xDD8 JUMP JUMPDEST PUSH2 0x9D7 JUMP JUMPDEST PUSH1 0x40 MLOAD PUSH2 0x1AD SWAP2 SWAP1 PUSH2 0xD1C JUMP JUMPDEST PUSH1 0x40 MLOAD DUP1 SWAP2 SUB SWAP1 RETURN JUMPDEST PUSH2 0x1D0 PUSH1 0x4 DUP1 CALLDATASIZE SUB DUP2 ADD SWAP1 PUSH2 0x1CB SWAP2 SWAP1 PUSH2 0xDAD JUMP JUMPDEST PUSH2 0xA59 JUMP JUMPDEST STOP JUMPDEST PUSH0 DUP2 PUSH1 0x4 PUSH0 CALLER PUSH20 0xFFFFFFFFFFFFFFFFFFFFFFFFFFFFFFFFFFFFFFFF AND PUSH20 0xFFFFFFFFFFFFFFFFFFFFFFFFFFFFFFFFFFFFFFFF AND DUP2 MSTORE PUSH1 0x20 ADD SWAP1 DUP2 MSTORE PUSH1 0x20 ADD PUSH0 KECCAK256 PUSH0 DUP6 PUSH20 0xFFFFFFFFFFFFFFFFFFFFFFFFFFFFFFFFFFFFFFFF AND PUSH20 0xFFFFFFFFFFFFFFFFFFFFFFFFFFFFFFFFFFFFFFFF AND DUP2 MSTORE PUSH1 0x20 ADD SWAP1 DUP2 MSTORE PUSH1 0x20 ADD PUSH0 KECCAK256 DUP2 SWAP1 SSTORE POP DUP3 PUSH20 0xFFFFFFFFFFFFFFFFFFFFFFFFFFFFFFFFFFFFFFFF AND CALLER PUSH20 0xFFFFFFFFFFFFFFFFFFFFFFFFFFFFFFFFFFFFFFFF AND PUSH32 0xDDF252AD1BE2C89B69C2B068FC378DAA952BA7F163C4A11628F55A4DF523B3EF DUP5 PUSH1 0x40 MLOAD PUSH2 0x2AD SWAP2 SWAP1 PUSH2 0xD1C JUMP JUMPDEST PUSH1 0x40 MLOAD DUP1 SWAP2 SUB SWAP1 LOG3 PUSH1 0x1 SWAP1 POP SWAP3 SWAP2 POP POP JUMP JUMPDEST PUSH0 PUSH1 0x2 SLOAD SWAP1 POP SWAP1 JUMP JUMPDEST PUSH0 DUP2 PUSH1 0x3 PUSH0 DUP7 PUSH20 0xFFFFFFFFFFFFFFFFFFFFFFFFFFFFFFFFFFFFFFFF AND PUSH20 0xFFFFFFFFFFFFFFFFFFFFFFFFFFFFFFFFFFFFFFFF AND DUP2 MSTORE PUSH1 0x20 ADD SWAP1 DUP2 MSTORE PUSH1 0x20 ADD PUSH0 KECCAK256 SLOAD LT ISZERO PUSH2 0x340 JUMPI PUSH1 0x40 MLOAD PUSH32 0xF4D678B800000000000000000000000000000000000000000000000000000000 DUP2 MSTORE PUSH1 0x4 ADD PUSH1 0x40 MLOAD DUP1 SWAP2 SUB SWAP1 REVERT JUMPDEST DUP2 PUSH1 0x4 PUSH0 DUP7 PUSH20 0xFFFFFFFFFFFFFFFFFFFFFFFFFFFFFFFFFFFFFFFF AND PUSH20 0xFFFFFFFFFFFFFFFFFFFFFFFFFFFFFFFFFFFFFFFF AND DUP2 MSTORE PUSH1 0x20 ADD SWAP1 DUP2 MSTORE PUSH1 0x20 ADD PUSH0 KECCAK256 PUSH0 CALLER PUSH20 0xFFFFFFFFFFFFFFFFFFFFFFFFFFFFFFFFFFFFFFFF AND PUSH20 0xFFFFFFFFFFFFFFFFFFFFFFFFFFFFFFFFFFFFFFFF AND DUP2 MSTORE PUSH1 0x20 ADD SWAP1 DUP2 MSTORE PUSH1 0x20 ADD PUSH0 KECCAK256 SLOAD LT ISZERO PUSH2 0x3F2 JUMPI PUSH1 0x40 MLOAD PUSH32 0x13BE252B00000000000000000000000000000000000000000000000000000000 DUP2 MSTORE PUSH1 0x4 ADD PUSH1 0x40 MLOAD DUP1 SWAP2 SUB SWAP1 REVERT JUMPDEST PUSH0 PUSH1 0x64 PUSH1 0x3 DUP5 PUSH2 0x402 SWAP2 SWAP1 PUSH2 0xE43 JUMP JUMPDEST PUSH2 0x40C SWAP2 SWAP1 PUSH2 0xEB1 JUMP JUMPDEST SWAP1 POP PUSH0 DUP2 DUP5 PUSH2 0x41B SWAP2 SWAP1 PUSH2 0xEE1 JUMP JUMPDEST SWAP1 POP DUP4 PUSH1 0x3 PUSH0 DUP9 PUSH20 0xFFFFFFFFFFFFFFFFFFFFFFFFFFFFFFFFFFFFFFFF AND PUSH20 0xFFFFFFFFFFFFFFFFFFFFFFFFFFFFFFFFFFFFFFFF AND DUP2 MSTORE PUSH1 0x20 ADD SWAP1 DUP2 MSTORE PUSH1 0x20 ADD PUSH0 KECCAK256 PUSH0 DUP3 DUP3 SLOAD PUSH2 0x469 SWAP2 SWAP1 PUSH2 0xEE1 JUMP JUMPDEST SWAP3 POP POP DUP2 SWAP1 SSTORE POP DUP1 PUSH1 0x3 PUSH0 DUP8 PUSH20 0xFFFFFFFFFFFFFFFFFFFFFFFFFFFFFFFFFFFFFFFF AND PUSH20 0xFFFFFFFFFFFFFFFFFFFFFFFFFFFFFFFFFFFFFFFF AND DUP2 MSTORE PUSH1 0x20 ADD SWAP1 DUP2 MSTORE PUSH1 0x20 ADD PUSH0 KECCAK256 PUSH0 DUP3 DUP3 SLOAD PUSH2 0x4BC SWAP2 SWAP1 PUSH2 0xF14 JUMP JUMPDEST SWAP3 POP POP DUP2 SWAP1 SSTORE POP DUP2 PUSH1 0x3 PUSH0 PUSH0 PUSH0 SWAP1 SLOAD SWAP1 PUSH2 0x100 EXP SWAP1 DIV PUSH20 0xFFFFFFFFFFFFFFFFFFFFFFFFFFFFFFFFFFFFFFFF AND PUSH20 0xFFFFFFFFFFFFFFFFFFFFFFFFFFFFFFFFFFFFFFFF AND PUSH20 0xFFFFFFFFFFFFFFFFFFFFFFFFFFFFFFFFFFFFFFFF AND DUP2 MSTORE PUSH1 0x20 ADD SWAP1 DUP2 MSTORE PUSH1 0x20 ADD PUSH0 KECCAK256 PUSH0 DUP3 DUP3 SLOAD PUSH2 0x52F SWAP2 SWAP1 PUSH2 0xF14 JUMP JUMPDEST SWAP3 POP POP DUP2 SWAP1 SSTORE POP DUP4 PUSH1 0x4 PUSH0 DUP9 PUSH20 0xFFFFFFFFFFFFFFFFFFFFFFFFFFFFFFFFFFFFFFFF AND PUSH20 0xFFFFFFFFFFFFFFFFFFFFFFFFFFFFFFFFFFFFFFFF AND DUP2 MSTORE PUSH1 0x20 ADD SWAP1 DUP2 MSTORE PUSH1 0x20 ADD PUSH0 KECCAK256 PUSH0 CALLER PUSH20 0xFFFFFFFFFFFFFFFFFFFFFFFFFFFFFFFFFFFFFFFF AND PUSH20 0xFFFFFFFFFFFFFFFFFFFFFFFFFFFFFFFFFFFFFFFF AND DUP2 MSTORE PUSH1 0x20 ADD SWAP1 DUP2 MSTORE PUSH1 0x20 ADD PUSH0 KECCAK256 PUSH0 DUP3 DUP3 SLOAD PUSH2 0x5BD SWAP2 SWAP1 PUSH2 0xEE1 JUMP JUMPDEST SWAP3 POP POP DUP2 SWAP1 SSTORE POP DUP5 PUSH20 0xFFFFFFFFFFFFFFFFFFFFFFFFFFFFFFFFFFFFFFFF AND DUP7 PUSH20 0xFFFFFFFFFFFFFFFFFFFFFFFFFFFFFFFFFFFFFFFF AND PUSH32 0xDDF252AD1BE2C89B69C2B068FC378DAA952BA7F163C4A11628F55A4DF523B3EF DUP4 PUSH1 0x40 MLOAD PUSH2 0x621 SWAP2 SWAP1 PUSH2 0xD1C JUMP JUMPDEST PUSH1 0x40 MLOAD DUP1 SWAP2 SUB SWAP1 LOG3 PUSH0 PUSH0 SWAP1 SLOAD SWAP1 PUSH2 0x100 EXP SWAP1 DIV PUSH20 0xFFFFFFFFFFFFFFFFFFFFFFFFFFFFFFFFFFFFFFFF AND PUSH20 0xFFFFFFFFFFFFFFFFFFFFFFFFFFFFFFFFFFFFFFFF AND DUP7 PUSH20 0xFFFFFFFFFFFFFFFFFFFFFFFFFFFFFFFFFFFFFFFF AND PUSH32 0x67F37689446CA759DCE8394EC09E4492257883F3E02136D8AB1CC8CC6A7BB76B DUP5 PUSH1 0x40 MLOAD PUSH2 0x6A6 SWAP2 SWAP1 PUSH2 0xD1C JUMP JUMPDEST PUSH1 0x40 MLOAD DUP1 SWAP2 SUB SWAP1 LOG3 PUSH1 0x1 SWAP3 POP POP POP SWAP4 SWAP3 POP POP POP JUMP JUMPDEST PUSH0 PUSH0 SWAP1 SLOAD SWAP1 PUSH2 0x100 EXP SWAP1 DIV PUSH20 0xFFFFFFFFFFFFFFFFFFFFFFFFFFFFFFFFFFFFFFFF AND DUP2 JUMP JUMPDEST PUSH0 PUSH1 0x3 PUSH0 DUP4 PUSH20 0xFFFFFFFFFFFFFFFFFFFFFFFFFFFFFFFFFFFFFFFF AND PUSH20 0xFFFFFFFFFFFFFFFFFFFFFFFFFFFFFFFFFFFFFFFF AND DUP2 MSTORE PUSH1 0x20 ADD SWAP1 DUP2 MSTORE PUSH1 0x20 ADD PUSH0 KECCAK256 SLOAD SWAP1 POP SWAP2 SWAP1 POP JUMP JUMPDEST PUSH0 PUSH0 PUSH1 0x64 PUSH1 0x3 DUP5 PUSH2 0x736 SWAP2 SWAP1 PUSH2 0xE43 JUMP JUMPDEST PUSH2 0x740 SWAP2 SWAP1 PUSH2 0xEB1 JUMP JUMPDEST SWAP1 POP PUSH0 DUP2 DUP5 PUSH2 0x74F SWAP2 SWAP1 PUSH2 0xEE1 JUMP JUMPDEST SWAP1 POP DUP4 PUSH1 0x3 PUSH0 CALLER PUSH20 0xFFFFFFFFFFFFFFFFFFFFFFFFFFFFFFFFFFFFFFFF AND PUSH20 0xFFFFFFFFFFFFFFFFFFFFFFFFFFFFFFFFFFFFFFFF AND DUP2 MSTORE PUSH1 0x20 ADD SWAP1 DUP2 MSTORE PUSH1 0x20 ADD PUSH0 KECCAK256 SLOAD LT ISZERO PUSH2 0x7C8 JUMPI PUSH1 0x40 MLOAD PUSH32 0xF4D678B800000000000000000000000000000000000000000000000000000000 DUP2 MSTORE PUSH1 0x4 ADD PUSH1 0x40 MLOAD DUP1 SWAP2 SUB SWAP1 REVERT JUMPDEST DUP4 PUSH1 0x3 PUSH0 CALLER PUSH20 0xFFFFFFFFFFFFFFFFFFFFFFFFFFFFFFFFFFFFFFFF AND PUSH20 0xFFFFFFFFFFFFFFFFFFFFFFFFFFFFFFFFFFFFFFFF AND DUP2 MSTORE PUSH1 0x20 ADD SWAP1 DUP2 MSTORE PUSH1 0x20 ADD PUSH0 KECCAK256 PUSH0 DUP3 DUP3 SLOAD PUSH2 0x814 SWAP2 SWAP1 PUSH2 0xEE1 JUMP JUMPDEST SWAP3 POP POP DUP2 SWAP1 SSTORE POP DUP1 PUSH1 0x3 PUSH0 DUP8 PUSH20 0xFFFFFFFFFFFFFFFFFFFFFFFFFFFFFFFFFFFFFFFF AND PUSH20 0xFFFFFFFFFFFFFFFFFFFFFFFFFFFFFFFFFFFFFFFF AND DUP2 MSTORE PUSH1 0x20 ADD SWAP1 DUP2 MSTORE PUSH1 0x20 ADD PUSH0 KECCAK256 PUSH0 DUP3 DUP3 SLOAD PUSH2 0x867 SWAP2 SWAP1 PUSH2 0xF14 JUMP JUMPDEST SWAP3 POP POP DUP2 SWAP1 SSTORE POP DUP2 PUSH1 0x3 PUSH0 PUSH0 PUSH0 SWAP1 SLOAD SWAP1 PUSH2 0x100 EXP SWAP1 DIV PUSH20 0xFFFFFFFFFFFFFFFFFFFFFFFFFFFFFFFFFFFFFFFF AND PUSH20 0xFFFFFFFFFFFFFFFFFFFFFFFFFFFFFFFFFFFFFFFF AND PUSH20 0xFFFFFFFFFFFFFFFFFFFFFFFFFFFFFFFFFFFFFFFF AND DUP2 MSTORE PUSH1 0x20 ADD SWAP1 DUP2 MSTORE PUSH1 0x20 ADD PUSH0 KECCAK256 PUSH0 DUP3 DUP3 SLOAD PUSH2 0x8DA SWAP2 SWAP1 PUSH2 0xF14 JUMP JUMPDEST SWAP3 POP POP DUP2 SWAP1 SSTORE POP DUP5 PUSH20 0xFFFFFFFFFFFFFFFFFFFFFFFFFFFFFFFFFFFFFFFF AND CALLER PUSH20 0xFFFFFFFFFFFFFFFFFFFFFFFFFFFFFFFFFFFFFFFF AND PUSH32 0xDDF252AD1BE2C89B69C2B068FC378DAA952BA7F163C4A11628F55A4DF523B3EF DUP4 PUSH1 0x40 MLOAD PUSH2 0x93E SWAP2 SWAP1 PUSH2 0xD1C JUMP JUMPDEST PUSH1 0x40 MLOAD DUP1 SWAP2 SUB SWAP1 LOG3 PUSH0 PUSH0 SWAP1 SLOAD SWAP1 PUSH2 0x100 EXP SWAP1 DIV PUSH20 0xFFFFFFFFFFFFFFFFFFFFFFFFFFFFFFFFFFFFFFFF AND PUSH20 0xFFFFFFFFFFFFFFFFFFFFFFFFFFFFFFFFFFFFFFFF AND CALLER PUSH20 0xFFFFFFFFFFFFFFFFFFFFFFFFFFFFFFFFFFFFFFFF AND PUSH32 0x67F37689446CA759DCE8394EC09E4492257883F3E02136D8AB1CC8CC6A7BB76B DUP5 PUSH1 0x40 MLOAD PUSH2 0x9C3 SWAP2 SWAP1 PUSH2 0xD1C JUMP JUMPDEST PUSH1 0x40 MLOAD DUP1 SWAP2 SUB SWAP1 LOG3 PUSH1 0x1 SWAP3 POP POP POP SWAP3 SWAP2 POP POP JUMP JUMPDEST PUSH0 PUSH1 0x4 PUSH0 DUP5 PUSH20 0xFFFFFFFFFFFFFFFFFFFFFFFFFFFFFFFFFFFFFFFF AND PUSH20 0xFFFFFFFFFFFFFFFFFFFFFFFFFFFFFFFFFFFFFFFF AND DUP2 MSTORE PUSH1 0x20 ADD SWAP1 DUP2 MSTORE PUSH1 0x20 ADD PUSH0 KECCAK256 PUSH0 DUP4 PUSH20 0xFFFFFFFFFFFFFFFFFFFFFFFFFFFFFFFFFFFFFFFF AND PUSH20 0xFFFFFFFFFFFFFFFFFFFFFFFFFFFFFFFFFFFFFFFF AND DUP2 MSTORE PUSH1 0x20 ADD SWAP1 DUP2 MSTORE PUSH1 0x20 ADD PUSH0 KECCAK256 SLOAD SWAP1 POP SWAP3 SWAP2 POP POP JUMP JUMPDEST PUSH1 0x1 PUSH0 SWAP1 SLOAD SWAP1 PUSH2 0x100 EXP SWAP1 DIV PUSH20 0xFFFFFFFFFFFFFFFFFFFFFFFFFFFFFFFFFFFFFFFF AND PUSH20 0xFFFFFFFFFFFFFFFFFFFFFFFFFFFFFFFFFFFFFFFF AND CALLER PUSH20 0xFFFFFFFFFFFFFFFFFFFFFFFFFFFFFFFFFFFFFFFF AND EQ PUSH2 0xADF JUMPI PUSH1 0x40 MLOAD PUSH32 0x30CD747100000000000000000000000000000000000000000000000000000000 DUP2 MSTORE PUSH1 0x4 ADD PUSH1 0x40 MLOAD DUP1 SWAP2 SUB SWAP1 REVERT JUMPDEST PUSH0 PUSH20 0xFFFFFFFFFFFFFFFFFFFFFFFFFFFFFFFFFFFFFFFF AND DUP2 PUSH20 0xFFFFFFFFFFFFFFFFFFFFFFFFFFFFFFFFFFFFFFFF AND SUB PUSH2 0xB4D JUMPI PUSH1 0x40 MLOAD PUSH32 0x8C379A000000000000000000000000000000000000000000000000000000000 DUP2 MSTORE PUSH1 0x4 ADD PUSH2 0xB44 SWAP1 PUSH2 0xFA1 JUMP JUMPDEST PUSH1 0x40 MLOAD DUP1 SWAP2 SUB SWAP1 REVERT JUMPDEST DUP1 PUSH20 0xFFFFFFFFFFFFFFFFFFFFFFFFFFFFFFFFFFFFFFFF AND PUSH1 0x1 PUSH0 SWAP1 SLOAD SWAP1 PUSH2 0x100 EXP SWAP1 DIV PUSH20 0xFFFFFFFFFFFFFFFFFFFFFFFFFFFFFFFFFFFFFFFF AND PUSH20 0xFFFFFFFFFFFFFFFFFFFFFFFFFFFFFFFFFFFFFFFF AND PUSH32 0x8BE0079C531659141344CD1FD0A4F28419497F9722A3DAAFE3B4186F6B6457E0 PUSH1 0x40 MLOAD PUSH1 0x40 MLOAD DUP1 SWAP2 SUB SWAP1 LOG3 DUP1 PUSH1 0x1 PUSH0 PUSH2 0x100 EXP DUP2 SLOAD DUP2 PUSH20 0xFFFFFFFFFFFFFFFFFFFFFFFFFFFFFFFFFFFFFFFF MUL NOT AND SWAP1 DUP4 PUSH20 0xFFFFFFFFFFFFFFFFFFFFFFFFFFFFFFFFFFFFFFFF AND MUL OR SWAP1 SSTORE POP POP JUMP JUMPDEST PUSH0 PUSH0 REVERT JUMPDEST PUSH0 PUSH20 0xFFFFFFFFFFFFFFFFFFFFFFFFFFFFFFFFFFFFFFFF DUP3 AND SWAP1 POP SWAP2 SWAP1 POP JUMP JUMPDEST PUSH0 PUSH2 0xC38 DUP3 PUSH2 0xC0F JUMP JUMPDEST SWAP1 POP SWAP2 SWAP1 POP JUMP JUMPDEST PUSH2 0xC48 DUP2 PUSH2 0xC2E JUMP JUMPDEST DUP2 EQ PUSH2 0xC52 JUMPI PUSH0 PUSH0 REVERT JUMPDEST POP JUMP JUMPDEST PUSH0 DUP2 CALLDATALOAD SWAP1 POP PUSH2 0xC63 DUP2 PUSH2 0xC3F JUMP JUMPDEST SWAP3 SWAP2 POP POP JUMP JUMPDEST PUSH0 DUP2 SWAP1 POP SWAP2 SWAP1 POP JUMP JUMPDEST PUSH2 0xC7B DUP2 PUSH2 0xC69 JUMP JUMPDEST DUP2 EQ PUSH2 0xC85 JUMPI PUSH0 PUSH0 REVERT JUMPDEST POP JUMP JUMPDEST PUSH0 DUP2 CALLDATALOAD SWAP1 POP PUSH2 0xC96 DUP2 PUSH2 0xC72 JUMP JUMPDEST SWAP3 SWAP2 POP POP JUMP JUMPDEST PUSH0 PUSH0 PUSH1 0x40 DUP4 DUP6 SUB SLT ISZERO PUSH2 0xCB2 JUMPI PUSH2 0xCB1 PUSH2 0xC0B JUMP JUMPDEST JUMPDEST PUSH0 PUSH2 0xCBF DUP6 DUP3 DUP7 ADD PUSH2 0xC55 JUMP JUMPDEST SWAP3 POP POP PUSH1 0x20 PUSH2 0xCD0 DUP6 DUP3 DUP7 ADD PUSH2 0xC88 JUMP JUMPDEST SWAP2 POP POP SWAP3 POP SWAP3 SWAP1 POP JUMP JUMPDEST PUSH0 DUP2 ISZERO ISZERO SWAP1 POP SWAP2 SWAP1 POP JUMP JUMPDEST PUSH2 0xCEE DUP2 PUSH2 0xCDA JUMP JUMPDEST DUP3 MSTORE POP POP JUMP JUMPDEST PUSH0 PUSH1 0x20 DUP3 ADD SWAP1 POP PUSH2 0xD07 PUSH0 DUP4 ADD DUP5 PUSH2 0xCE5 JUMP JUMPDEST SWAP3 SWAP2 POP POP JUMP JUMPDEST PUSH2 0xD16 DUP2 PUSH2 0xC69 JUMP JUMPDEST DUP3 MSTORE POP POP JUMP JUMPDEST PUSH0 PUSH1 0x20 DUP3 ADD SWAP1 POP PUSH2 0xD2F PUSH0 DUP4 ADD DUP5 PUSH2 0xD0D JUMP JUMPDEST SWAP3 SWAP2 POP POP JUMP JUMPDEST PUSH0 PUSH0 PUSH0 PUSH1 0x60 DUP5 DUP7 SUB SLT ISZERO PUSH2 0xD4C JUMPI PUSH2 0xD4B PUSH2 0xC0B JUMP JUMPDEST JUMPDEST PUSH0 PUSH2 0xD59 DUP7 DUP3 DUP8 ADD PUSH2 0xC55 JUMP JUMPDEST SWAP4 POP POP PUSH1 0x20 PUSH2 0xD6A DUP7 DUP3 DUP8 ADD PUSH2 0xC55 JUMP JUMPDEST SWAP3 POP POP PUSH1 0x40 PUSH2 0xD7B DUP7 DUP3 DUP8 ADD PUSH2 0xC88 JUMP JUMPDEST SWAP2 POP POP SWAP3 POP SWAP3 POP SWAP3 JUMP JUMPDEST PUSH2 0xD8E DUP2 PUSH2 0xC2E JUMP JUMPDEST DUP3 MSTORE POP POP JUMP JUMPDEST PUSH0 PUSH1 0x20 DUP3 ADD SWAP1 POP PUSH2 0xDA7 PUSH0 DUP4 ADD DUP5 PUSH2 0xD85 JUMP JUMPDEST SWAP3 SWAP2 POP POP JUMP JUMPDEST PUSH0 PUSH1 0x20 DUP3 DUP5 SUB SLT ISZERO PUSH2 0xDC2 JUMPI PUSH2 0xDC1 PUSH2 0xC0B JUMP JUMPDEST JUMPDEST PUSH0 PUSH2 0xDCF DUP5 DUP3 DUP6 ADD PUSH2 0xC55 JUMP JUMPDEST SWAP2 POP POP SWAP3 SWAP2 POP POP JUMP JUMPDEST PUSH0 PUSH0 PUSH1 0x40 DUP4 DUP6 SUB SLT ISZERO PUSH2 0xDEE JUMPI PUSH2 0xDED PUSH2 0xC0B JUMP JUMPDEST JUMPDEST PUSH0 PUSH2 0xDFB DUP6 DUP3 DUP7 ADD PUSH2 0xC55 JUMP JUMPDEST SWAP3 POP POP PUSH1 0x20 PUSH2 0xE0C DUP6 DUP3 DUP7 ADD PUSH2 0xC55 JUMP JUMPDEST SWAP2 POP POP SWAP3 POP SWAP3 SWAP1 POP JUMP JUMPDEST PUSH32 0x4E487B7100000000000000000000000000000000000000000000000000000000 PUSH0 MSTORE PUSH1 0x11 PUSH1 0x4 MSTORE PUSH1 0x24 PUSH0 REVERT JUMPDEST PUSH0 PUSH2 0xE4D DUP3 PUSH2 0xC69 JUMP JUMPDEST SWAP2 POP PUSH2 0xE58 DUP4 PUSH2 0xC69 JUMP JUMPDEST SWAP3 POP DUP3 DUP3 MUL PUSH2 0xE66 DUP2 PUSH2 0xC69 JUMP JUMPDEST SWAP2 POP DUP3 DUP3 DIV DUP5 EQ DUP4 ISZERO OR PUSH2 0xE7D JUMPI PUSH2 0xE7C PUSH2 0xE16 JUMP JUMPDEST JUMPDEST POP SWAP3 SWAP2 POP POP JUMP JUMPDEST PUSH32 0x4E487B7100000000000000000000000000000000000000000000000000000000 PUSH0 MSTORE PUSH1 0x12 PUSH1 0x4 MSTORE PUSH1 0x24 PUSH0 REVERT JUMPDEST PUSH0 PUSH2 0xEBB DUP3 PUSH2 0xC69 JUMP JUMPDEST SWAP2 POP PUSH2 0xEC6 DUP4 PUSH2 0xC69 JUMP JUMPDEST SWAP3 POP DUP3 PUSH2 0xED6 JUMPI PUSH2 0xED5 PUSH2 0xE84 JUMP JUMPDEST JUMPDEST DUP3 DUP3 DIV SWAP1 POP SWAP3 SWAP2 POP POP JUMP JUMPDEST PUSH0 PUSH2 0xEEB DUP3 PUSH2 0xC69 JUMP JUMPDEST SWAP2 POP PUSH2 0xEF6 DUP4 PUSH2 0xC69 JUMP JUMPDEST SWAP3 POP DUP3 DUP3 SUB SWAP1 POP DUP2 DUP2 GT ISZERO PUSH2 0xF0E JUMPI PUSH2 0xF0D PUSH2 0xE16 JUMP JUMPDEST JUMPDEST SWAP3 SWAP2 POP POP JUMP JUMPDEST PUSH0 PUSH2 0xF1E DUP3 PUSH2 0xC69 JUMP JUMPDEST SWAP2 POP PUSH2 0xF29 DUP4 PUSH2 0xC69 JUMP JUMPDEST SWAP3 POP DUP3 DUP3 ADD SWAP1 POP DUP1 DUP3 GT ISZERO PUSH2 0xF41 JUMPI PUSH2 0xF40 PUSH2 0xE16 JUMP JUMPDEST JUMPDEST SWAP3 SWAP2 POP POP JUMP JUMPDEST PUSH0 DUP3 DUP3 MSTORE PUSH1 0x20 DUP3 ADD SWAP1 POP SWAP3 SWAP2 POP POP JUMP JUMPDEST PUSH32 0x4E6577206F776E657220697320746865207A65726F2061646472657373000000 PUSH0 DUP3 ADD MSTORE POP JUMP JUMPDEST PUSH0 PUSH2 0xF8B PUSH1 0x1D DUP4 PUSH2 0xF47 JUMP JUMPDEST SWAP2 POP PUSH2 0xF96 DUP3 PUSH2 0xF57 JUMP JUMPDEST PUSH1 0x20 DUP3 ADD SWAP1 POP SWAP2 SWAP1 POP JUMP JUMPDEST PUSH0 PUSH1 0x20 DUP3 ADD SWAP1 POP DUP2 DUP2 SUB PUSH0 DUP4 ADD MSTORE PUSH2 0xFB8 DUP2 PUSH2 0xF7F JUMP JUMPDEST SWAP1 POP SWAP2 SWAP1 POP JUMP INVALID LOG2 PUSH5 0x6970667358 0x22 SLT KECCAK256 0xED CALLDATASIZE PREVRANDAO 0x2B SWAP8 NUMBER PUSH31 0xC0BA1E10CD60247A57B70E1776184EC1F68A9AFF8E52AFD5E164736F6C6343 STOP ADDMOD 0x1E STOP CALLER "
				},
				"gasEstimates": {
					"creation": {
						"codeDepositCost": "817000",
						"executionCost": "infinite",
						"totalCost": "infinite"
					},
					"external": {
						"allowance(address,address)": "infinite",
						"approve(address,uint256)": "infinite",
						"balanceOf(address)": "2829",
						"totalSupply()": "2455",
						"transfer(address,uint256)": "infinite",
						"transferFrom(address,address,uint256)": "infinite",
						"transferOwnership(address)": "30664",
						"treasuryWallet()": "2574"
					}
				},
				"methodIdentifiers": {
					"allowance(address,address)": "dd62ed3e",
					"approve(address,uint256)": "095ea7b3",
					"balanceOf(address)": "70a08231",
					"totalSupply()": "18160ddd",
					"transfer(address,uint256)": "a9059cbb",
					"transferFrom(address,address,uint256)": "23b872dd",
					"transferOwnership(address)": "f2fde38b",
					"treasuryWallet()": "4626402b"
				}
			},
			"storageLayout": {
				"storage": [
					{
						"astId": 4,
						"contract": "new.sol:TaxToken",
						"label": "treasuryWallet",
						"offset": 0,
						"slot": "0",
						"type": "t_address"
					},
					{
						"astId": 6,
						"contract": "new.sol:TaxToken",
						"label": "_owner",
						"offset": 0,
						"slot": "1",
						"type": "t_address"
					},
					{
						"astId": 8,
						"contract": "new.sol:TaxToken",
						"label": "_totalSupply",
						"offset": 0,
						"slot": "2",
						"type": "t_uint256"
					},
					{
						"astId": 12,
						"contract": "new.sol:TaxToken",
						"label": "_balances",
						"offset": 0,
						"slot": "3",
						"type": "t_mapping(t_address,t_uint256)"
					},
					{
						"astId": 18,
						"contract": "new.sol:TaxToken",
						"label": "_allowances",
						"offset": 0,
						"slot": "4",
						"type": "t_mapping(t_address,t_mapping(t_address,t_uint256))"
					}
				],
				"types": {
					"t_address": {
						"encoding": "inplace",
						"label": "address",
						"numberOfBytes": "20"
					},
					"t_mapping(t_address,t_mapping(t_address,t_uint256))": {
						"encoding": "mapping",
						"key": "t_address",
						"label": "mapping(address => mapping(address => uint256))",
						"numberOfBytes": "32",
						"value": "t_mapping(t_address,t_uint256)"
					},
					"t_mapping(t_address,t_uint256)": {
						"encoding": "mapping",
						"key": "t_address",
						"label": "mapping(address => uint256)",
						"numberOfBytes": "32",
						"value": "t_uint256"
					},
					"t_uint256": {
						"encoding": "inplace",
						"label": "uint256",
						"numberOfBytes": "32"
					}
				}
			},
			"userdoc": {
				"kind": "user",
				"methods": {
					"allowance(address,address)": {
						"notice": "Returns the remaining number of tokens that `spender` will be allowed to spend on behalf of `owner`."
					},
					"approve(address,uint256)": {
						"notice": "Approves the passed address to spend the specified amount of tokens on behalf of msg.sender."
					},
					"balanceOf(address)": {
						"notice": "Returns the balance of the specified address."
					},
					"constructor": {
						"notice": "Initializes the contract with the treasury wallet and initial supply."
					},
					"totalSupply()": {
						"notice": "Returns the total supply of tokens."
					},
					"transfer(address,uint256)": {
						"notice": "Transfers tokens from the caller to the specified address, charging a 3% tax that is sent to the treasury wallet."
					},
					"transferFrom(address,address,uint256)": {
						"notice": "Transfers tokens from one address to another using the allowance mechanism."
					},
					"transferOwnership(address)": {
						"notice": "Transfers ownership of the contract to a new account (`newOwner`)."
					}
				},
				"version": 1
			}
		}
	}
}