{
	"hopp.sol": {
		"DualStaking": {
			"abi": [
				{
					"inputs": [
						{
							"internalType": "address",
							"name": "_stakeToken",
							"type": "address"
						},
						{
							"internalType": "address",
							"name": "_rewardToken1",
							"type": "address"
						},
						{
							"internalType": "address",
							"name": "_rewardToken2",
							"type": "address"
						}
					],
					"stateMutability": "nonpayable",
					"type": "constructor"
				},
				{
					"inputs": [],
					"name": "InsufficientBalance",
					"type": "error"
				},
				{
					"inputs": [],
					"name": "Unauthorized",
					"type": "error"
				},
				{
					"inputs": [],
					"name": "ZeroAmount",
					"type": "error"
				},
				{
					"anonymous": false,
					"inputs": [
						{
							"indexed": true,
							"internalType": "address",
							"name": "user",
							"type": "address"
						},
						{
							"indexed": false,
							"internalType": "uint256",
							"name": "reward1",
							"type": "uint256"
						},
						{
							"indexed": false,
							"internalType": "uint256",
							"name": "reward2",
							"type": "uint256"
						}
					],
					"name": "RewardsClaimed",
					"type": "event"
				},
				{
					"anonymous": false,
					"inputs": [
						{
							"indexed": true,
							"internalType": "address",
							"name": "user",
							"type": "address"
						},
						{
							"indexed": false,
							"internalType": "uint256",
							"name": "amount",
							"type": "uint256"
						}
					],
					"name": "Staked",
					"type": "event"
				},
				{
					"anonymous": false,
					"inputs": [
						{
							"indexed": true,
							"internalType": "address",
							"name": "user",
							"type": "address"
						},
						{
							"indexed": false,
							"internalType": "uint256",
							"name": "amount",
							"type": "uint256"
						}
					],
					"name": "Withdrawn",
					"type": "event"
				},
				{
					"inputs": [],
					"name": "claimRewards",
					"outputs": [],
					"stateMutability": "nonpayable",
					"type": "function"
				},
				{
					"inputs": [],
					"name": "rewardToken1",
					"outputs": [
						{
							"internalType": "address",
							"name": "",
							"type": "address"
						}
					],
					"stateMutability": "view",
					"type": "function"
				},
				{
					"inputs": [],
					"name": "rewardToken2",
					"outputs": [
						{
							"internalType": "address",
							"name": "",
							"type": "address"
						}
					],
					"stateMutability": "view",
					"type": "function"
				},
				{
					"inputs": [
						{
							"internalType": "uint256",
							"name": "rate1",
							"type": "uint256"
						},
						{
							"internalType": "uint256",
							"name": "rate2",
							"type": "uint256"
						}
					],
					"name": "setRewardRates",
					"outputs": [],
					"stateMutability": "nonpayable",
					"type": "function"
				},
				{
					"inputs": [
						{
							"internalType": "uint256",
							"name": "amount",
							"type": "uint256"
						}
					],
					"name": "stake",
					"outputs": [],
					"stateMutability": "nonpayable",
					"type": "function"
				},
				{
					"inputs": [],
					"name": "stakeToken",
					"outputs": [
						{
							"internalType": "address",
							"name": "",
							"type": "address"
						}
					],
					"stateMutability": "view",
					"type": "function"
				},
				{
					"inputs": [],
					"name": "totalStaked",
					"outputs": [
						{
							"internalType": "uint256",
							"name": "",
							"type": "uint256"
						}
					],
					"stateMutability": "view",
					"type": "function"
				},
				{
					"inputs": [
						{
							"internalType": "uint256",
							"name": "amount",
							"type": "uint256"
						}
					],
					"name": "withdraw",
					"outputs": [],
					"stateMutability": "nonpayable",
					"type": "function"
				},
				{
					"inputs": [
						{
							"internalType": "address",
							"name": "token",
							"type": "address"
						},
						{
							"internalType": "uint256",
							"name": "amount",
							"type": "uint256"
						}
					],
					"name": "withdrawTokens",
					"outputs": [],
					"stateMutability": "nonpayable",
					"type": "function"
				}
			],
			"devdoc": {
				"errors": {
					"InsufficientBalance()": [
						{
							"details": "Error for insufficient balance."
						}
					],
					"Unauthorized()": [
						{
							"details": "Error for unauthorized access."
						}
					],
					"ZeroAmount()": [
						{
							"details": "Error for zero amount operations."
						}
					]
				},
				"kind": "dev",
				"methods": {
					"constructor": {
						"details": "Constructor to initialize the contract with token addresses and admin.",
						"params": {
							"_rewardToken1": "Address of the first reward token.",
							"_rewardToken2": "Address of the second reward token.",
							"_stakeToken": "Address of the token to be staked."
						}
					},
					"setRewardRates(uint256,uint256)": {
						"params": {
							"rate1": "The new reward rate for the first reward token.",
							"rate2": "The new reward rate for the second reward token."
						}
					},
					"stake(uint256)": {
						"params": {
							"amount": "The amount of tokens to stake."
						}
					},
					"withdraw(uint256)": {
						"params": {
							"amount": "The amount of tokens to withdraw."
						}
					},
					"withdrawTokens(address,uint256)": {
						"params": {
							"amount": "The amount of tokens to withdraw.",
							"token": "The address of the token to withdraw."
						}
					}
				},
				"stateVariables": {
					"admin": {
						"details": "Admin role for managing the contract."
					},
					"rewardRate1": {
						"details": "Reward rate for the first reward token."
					},
					"rewardRate2": {
						"details": "Reward rate for the second reward token."
					},
					"userStakes": {
						"details": "Mapping of user addresses to their staked token amounts."
					}
				},
				"title": "DualStaking - A dual-staking contract where users earn rewards in two different tokens.",
				"version": 1
			},
			"evm": {
				"assembly": "    /* \"hopp.sol\":161:5267  contract DualStaking {... */\n  mstore(0x40, 0x80)\n    /* \"hopp.sol\":2022:2251  constructor(address _stakeToken, address _rewardToken1, address _rewardToken2) {... */\n  callvalue\n  dup1\n  iszero\n  tag_1\n  jumpi\n  revert(0x00, 0x00)\ntag_1:\n  pop\n  mload(0x40)\n  sub(codesize, bytecodeSize)\n  dup1\n  bytecodeSize\n  dup4\n  codecopy\n  dup2\n  dup2\n  add\n  0x40\n  mstore\n  dup2\n  add\n  swap1\n  tag_2\n  swap2\n  swap1\n  tag_3\n  jump\t// in\ntag_2:\n    /* \"hopp.sol\":2125:2136  _stakeToken */\n  dup3\n    /* \"hopp.sol\":2112:2122  stakeToken */\n  0x00\n  0x00\n    /* \"hopp.sol\":2112:2136  stakeToken = _stakeToken */\n  0x0100\n  exp\n  dup2\n  sload\n  dup2\n  0xffffffffffffffffffffffffffffffffffffffff\n  mul\n  not\n  and\n  swap1\n  dup4\n  0xffffffffffffffffffffffffffffffffffffffff\n  and\n  mul\n  or\n  swap1\n  sstore\n  pop\n    /* \"hopp.sol\":2162:2175  _rewardToken1 */\n  dup2\n    /* \"hopp.sol\":2147:2159  rewardToken1 */\n  0x01\n  0x00\n    /* \"hopp.sol\":2147:2175  rewardToken1 = _rewardToken1 */\n  0x0100\n  exp\n  dup2\n  sload\n  dup2\n  0xffffffffffffffffffffffffffffffffffffffff\n  mul\n  not\n  and\n  swap1\n  dup4\n  0xffffffffffffffffffffffffffffffffffffffff\n  and\n  mul\n  or\n  swap1\n  sstore\n  pop\n    /* \"hopp.sol\":2201:2214  _rewardToken2 */\n  dup1\n    /* \"hopp.sol\":2186:2198  rewardToken2 */\n  0x02\n  0x00\n    /* \"hopp.sol\":2186:2214  rewardToken2 = _rewardToken2 */\n  0x0100\n  exp\n  dup2\n  sload\n  dup2\n  0xffffffffffffffffffffffffffffffffffffffff\n  mul\n  not\n  and\n  swap1\n  dup4\n  0xffffffffffffffffffffffffffffffffffffffff\n  and\n  mul\n  or\n  swap1\n  sstore\n  pop\n    /* \"hopp.sol\":2233:2243  msg.sender */\n  caller\n    /* \"hopp.sol\":2225:2230  admin */\n  0x07\n  0x00\n    /* \"hopp.sol\":2225:2243  admin = msg.sender */\n  0x0100\n  exp\n  dup2\n  sload\n  dup2\n  0xffffffffffffffffffffffffffffffffffffffff\n  mul\n  not\n  and\n  swap1\n  dup4\n  0xffffffffffffffffffffffffffffffffffffffff\n  and\n  mul\n  or\n  swap1\n  sstore\n  pop\n    /* \"hopp.sol\":2022:2251  constructor(address _stakeToken, address _rewardToken1, address _rewardToken2) {... */\n  pop\n  pop\n  pop\n    /* \"hopp.sol\":161:5267  contract DualStaking {... */\n  jump(tag_6)\n    /* \"#utility.yul\":88:205   */\ntag_8:\n    /* \"#utility.yul\":197:198   */\n  0x00\n    /* \"#utility.yul\":194:195   */\n  0x00\n    /* \"#utility.yul\":187:199   */\n  revert\n    /* \"#utility.yul\":334:460   */\ntag_10:\n    /* \"#utility.yul\":371:378   */\n  0x00\n    /* \"#utility.yul\":411:453   */\n  0xffffffffffffffffffffffffffffffffffffffff\n    /* \"#utility.yul\":404:409   */\n  dup3\n    /* \"#utility.yul\":400:454   */\n  and\n    /* \"#utility.yul\":389:454   */\n  swap1\n  pop\n    /* \"#utility.yul\":334:460   */\n  swap2\n  swap1\n  pop\n  jump\t// out\n    /* \"#utility.yul\":466:562   */\ntag_11:\n    /* \"#utility.yul\":503:510   */\n  0x00\n    /* \"#utility.yul\":532:556   */\n  tag_20\n    /* \"#utility.yul\":550:555   */\n  dup3\n    /* \"#utility.yul\":532:556   */\n  tag_10\n  jump\t// in\ntag_20:\n    /* \"#utility.yul\":521:556   */\n  swap1\n  pop\n    /* \"#utility.yul\":466:562   */\n  swap2\n  swap1\n  pop\n  jump\t// out\n    /* \"#utility.yul\":568:690   */\ntag_12:\n    /* \"#utility.yul\":641:665   */\n  tag_22\n    /* \"#utility.yul\":659:664   */\n  dup2\n    /* \"#utility.yul\":641:665   */\n  tag_11\n  jump\t// in\ntag_22:\n    /* \"#utility.yul\":634:639   */\n  dup2\n    /* \"#utility.yul\":631:666   */\n  eq\n    /* \"#utility.yul\":621:684   */\n  tag_23\n  jumpi\n    /* \"#utility.yul\":680:681   */\n  0x00\n    /* \"#utility.yul\":677:678   */\n  0x00\n    /* \"#utility.yul\":670:682   */\n  revert\n    /* \"#utility.yul\":621:684   */\ntag_23:\n    /* \"#utility.yul\":568:690   */\n  pop\n  jump\t// out\n    /* \"#utility.yul\":696:839   */\ntag_13:\n    /* \"#utility.yul\":753:758   */\n  0x00\n    /* \"#utility.yul\":784:790   */\n  dup2\n    /* \"#utility.yul\":778:791   */\n  mload\n    /* \"#utility.yul\":769:791   */\n  swap1\n  pop\n    /* \"#utility.yul\":800:833   */\n  tag_25\n    /* \"#utility.yul\":827:832   */\n  dup2\n    /* \"#utility.yul\":800:833   */\n  tag_12\n  jump\t// in\ntag_25:\n    /* \"#utility.yul\":696:839   */\n  swap3\n  swap2\n  pop\n  pop\n  jump\t// out\n    /* \"#utility.yul\":845:1508   */\ntag_3:\n    /* \"#utility.yul\":933:939   */\n  0x00\n    /* \"#utility.yul\":941:947   */\n  0x00\n    /* \"#utility.yul\":949:955   */\n  0x00\n    /* \"#utility.yul\":998:1000   */\n  0x60\n    /* \"#utility.yul\":986:995   */\n  dup5\n    /* \"#utility.yul\":977:984   */\n  dup7\n    /* \"#utility.yul\":973:996   */\n  sub\n    /* \"#utility.yul\":969:1001   */\n  slt\n    /* \"#utility.yul\":966:1085   */\n  iszero\n  tag_27\n  jumpi\n    /* \"#utility.yul\":1004:1083   */\n  tag_28\n  tag_8\n  jump\t// in\ntag_28:\n    /* \"#utility.yul\":966:1085   */\ntag_27:\n    /* \"#utility.yul\":1124:1125   */\n  0x00\n    /* \"#utility.yul\":1149:1213   */\n  tag_29\n    /* \"#utility.yul\":1205:1212   */\n  dup7\n    /* \"#utility.yul\":1196:1202   */\n  dup3\n    /* \"#utility.yul\":1185:1194   */\n  dup8\n    /* \"#utility.yul\":1181:1203   */\n  add\n    /* \"#utility.yul\":1149:1213   */\n  tag_13\n  jump\t// in\ntag_29:\n    /* \"#utility.yul\":1139:1213   */\n  swap4\n  pop\n    /* \"#utility.yul\":1095:1223   */\n  pop\n    /* \"#utility.yul\":1262:1264   */\n  0x20\n    /* \"#utility.yul\":1288:1352   */\n  tag_30\n    /* \"#utility.yul\":1344:1351   */\n  dup7\n    /* \"#utility.yul\":1335:1341   */\n  dup3\n    /* \"#utility.yul\":1324:1333   */\n  dup8\n    /* \"#utility.yul\":1320:1342   */\n  add\n    /* \"#utility.yul\":1288:1352   */\n  tag_13\n  jump\t// in\ntag_30:\n    /* \"#utility.yul\":1278:1352   */\n  swap3\n  pop\n    /* \"#utility.yul\":1233:1362   */\n  pop\n    /* \"#utility.yul\":1401:1403   */\n  0x40\n    /* \"#utility.yul\":1427:1491   */\n  tag_31\n    /* \"#utility.yul\":1483:1490   */\n  dup7\n    /* \"#utility.yul\":1474:1480   */\n  dup3\n    /* \"#utility.yul\":1463:1472   */\n  dup8\n    /* \"#utility.yul\":1459:1481   */\n  add\n    /* \"#utility.yul\":1427:1491   */\n  tag_13\n  jump\t// in\ntag_31:\n    /* \"#utility.yul\":1417:1491   */\n  swap2\n  pop\n    /* \"#utility.yul\":1372:1501   */\n  pop\n    /* \"#utility.yul\":845:1508   */\n  swap3\n  pop\n  swap3\n  pop\n  swap3\n  jump\t// out\n    /* \"hopp.sol\":161:5267  contract DualStaking {... */\ntag_6:\n  dataSize(sub_0)\n  dup1\n  dataOffset(sub_0)\n  0x00\n  codecopy\n  0x00\n  return\nstop\n\nsub_0: assembly {\n        /* \"hopp.sol\":161:5267  contract DualStaking {... */\n      mstore(0x40, 0x80)\n      callvalue\n      dup1\n      iszero\n      tag_1\n      jumpi\n      revert(0x00, 0x00)\n    tag_1:\n      pop\n      jumpi(tag_2, lt(calldatasize, 0x04))\n      shr(0xe0, calldataload(0x00))\n      dup1\n      0x51ed6a30\n      gt\n      tag_12\n      jumpi\n      dup1\n      0x51ed6a30\n      eq\n      tag_7\n      jumpi\n      dup1\n      0x6f28d688\n      eq\n      tag_8\n      jumpi\n      dup1\n      0x817b1cd2\n      eq\n      tag_9\n      jumpi\n      dup1\n      0xa694fc3a\n      eq\n      tag_10\n      jumpi\n      dup1\n      0xd61a47f1\n      eq\n      tag_11\n      jumpi\n      jump(tag_2)\n    tag_12:\n      dup1\n      0x06b091f9\n      eq\n      tag_3\n      jumpi\n      dup1\n      0x2e1a7d4d\n      eq\n      tag_4\n      jumpi\n      dup1\n      0x372500ab\n      eq\n      tag_5\n      jumpi\n      dup1\n      0x37ba04a0\n      eq\n      tag_6\n      jumpi\n    tag_2:\n      revert(0x00, 0x00)\n        /* \"hopp.sol\":4936:5264  function withdrawTokens(address token, uint256 amount) external onlyAdmin {... */\n    tag_3:\n      tag_13\n      0x04\n      dup1\n      calldatasize\n      sub\n      dup2\n      add\n      swap1\n      tag_14\n      swap2\n      swap1\n      tag_15\n      jump\t// in\n    tag_14:\n      tag_16\n      jump\t// in\n    tag_13:\n      stop\n        /* \"hopp.sol\":3047:3625  function withdraw(uint256 amount) external {... */\n    tag_4:\n      tag_17\n      0x04\n      dup1\n      calldatasize\n      sub\n      dup2\n      add\n      swap1\n      tag_18\n      swap2\n      swap1\n      tag_19\n      jump\t// in\n    tag_18:\n      tag_20\n      jump\t// in\n    tag_17:\n      stop\n        /* \"hopp.sol\":3716:4367  function claimRewards() external {... */\n    tag_5:\n      tag_21\n      tag_22\n      jump\t// in\n    tag_21:\n      stop\n        /* \"hopp.sol\":4598:4739  function setRewardRates(uint256 rate1, uint256 rate2) external onlyAdmin {... */\n    tag_6:\n      tag_23\n      0x04\n      dup1\n      calldatasize\n      sub\n      dup2\n      add\n      swap1\n      tag_24\n      swap2\n      swap1\n      tag_25\n      jump\t// in\n    tag_24:\n      tag_26\n      jump\t// in\n    tag_23:\n      stop\n        /* \"hopp.sol\":241:266  address public stakeToken */\n    tag_7:\n      tag_27\n      tag_28\n      jump\t// in\n    tag_27:\n      mload(0x40)\n      tag_29\n      swap2\n      swap1\n      tag_30\n      jump\t// in\n    tag_29:\n      mload(0x40)\n      dup1\n      swap2\n      sub\n      swap1\n      return\n        /* \"hopp.sol\":331:358  address public rewardToken1 */\n    tag_8:\n      tag_31\n      tag_32\n      jump\t// in\n    tag_31:\n      mload(0x40)\n      tag_33\n      swap2\n      swap1\n      tag_30\n      jump\t// in\n    tag_33:\n      mload(0x40)\n      dup1\n      swap2\n      sub\n      swap1\n      return\n        /* \"hopp.sol\":528:554  uint256 public totalStaked */\n    tag_9:\n      tag_34\n      tag_35\n      jump\t// in\n    tag_34:\n      mload(0x40)\n      tag_36\n      swap2\n      swap1\n      tag_37\n      jump\t// in\n    tag_36:\n      mload(0x40)\n      dup1\n      swap2\n      sub\n      swap1\n      return\n        /* \"hopp.sol\":2382:2897  function stake(uint256 amount) external {... */\n    tag_10:\n      tag_38\n      0x04\n      dup1\n      calldatasize\n      sub\n      dup2\n      add\n      swap1\n      tag_39\n      swap2\n      swap1\n      tag_19\n      jump\t// in\n    tag_39:\n      tag_40\n      jump\t// in\n    tag_38:\n      stop\n        /* \"hopp.sol\":424:451  address public rewardToken2 */\n    tag_11:\n      tag_41\n      tag_42\n      jump\t// in\n    tag_41:\n      mload(0x40)\n      tag_43\n      swap2\n      swap1\n      tag_30\n      jump\t// in\n    tag_43:\n      mload(0x40)\n      dup1\n      swap2\n      sub\n      swap1\n      return\n        /* \"hopp.sol\":4936:5264  function withdrawTokens(address token, uint256 amount) external onlyAdmin {... */\n    tag_16:\n        /* \"hopp.sol\":1687:1692  admin */\n      0x07\n      0x00\n      swap1\n      sload\n      swap1\n      0x0100\n      exp\n      swap1\n      div\n      0xffffffffffffffffffffffffffffffffffffffff\n      and\n        /* \"hopp.sol\":1673:1692  msg.sender != admin */\n      0xffffffffffffffffffffffffffffffffffffffff\n      and\n        /* \"hopp.sol\":1673:1683  msg.sender */\n      caller\n        /* \"hopp.sol\":1673:1692  msg.sender != admin */\n      0xffffffffffffffffffffffffffffffffffffffff\n      and\n      eq\n        /* \"hopp.sol\":1669:1715  if (msg.sender != admin) revert Unauthorized() */\n      tag_45\n      jumpi\n        /* \"hopp.sol\":1701:1715  Unauthorized() */\n      mload(0x40)\n      0x82b4290000000000000000000000000000000000000000000000000000000000\n      dup2\n      mstore\n      0x04\n      add\n      mload(0x40)\n      dup1\n      swap2\n      sub\n      swap1\n      revert\n        /* \"hopp.sol\":1669:1715  if (msg.sender != admin) revert Unauthorized() */\n    tag_45:\n        /* \"hopp.sol\":5035:5036  0 */\n      0x00\n        /* \"hopp.sol\":5025:5031  amount */\n      dup2\n        /* \"hopp.sol\":5025:5036  amount == 0 */\n      sub\n        /* \"hopp.sol\":5021:5057  if (amount == 0) revert ZeroAmount() */\n      tag_47\n      jumpi\n        /* \"hopp.sol\":5045:5057  ZeroAmount() */\n      mload(0x40)\n      0x1f2a200500000000000000000000000000000000000000000000000000000000\n      dup2\n      mstore\n      0x04\n      add\n      mload(0x40)\n      dup1\n      swap2\n      sub\n      swap1\n      revert\n        /* \"hopp.sol\":5021:5057  if (amount == 0) revert ZeroAmount() */\n    tag_47:\n        /* \"hopp.sol\":5151:5163  bool success */\n      0x00\n        /* \"hopp.sol\":5173:5178  token */\n      dup3\n        /* \"hopp.sol\":5166:5188  IERC20(token).transfer */\n      0xffffffffffffffffffffffffffffffffffffffff\n      and\n      0xa9059cbb\n        /* \"hopp.sol\":5189:5194  admin */\n      0x07\n      0x00\n      swap1\n      sload\n      swap1\n      0x0100\n      exp\n      swap1\n      div\n      0xffffffffffffffffffffffffffffffffffffffff\n      and\n        /* \"hopp.sol\":5196:5202  amount */\n      dup5\n        /* \"hopp.sol\":5166:5203  IERC20(token).transfer(admin, amount) */\n      mload(0x40)\n      dup4\n      0xffffffff\n      and\n      0xe0\n      shl\n      dup2\n      mstore\n      0x04\n      add\n      tag_48\n      swap3\n      swap2\n      swap1\n      tag_49\n      jump\t// in\n    tag_48:\n      0x20\n      mload(0x40)\n      dup1\n      dup4\n      sub\n      dup2\n      0x00\n      dup8\n      gas\n      call\n      iszero\n      dup1\n      iszero\n      tag_51\n      jumpi\n      returndatacopy(0x00, 0x00, returndatasize)\n      revert(0x00, returndatasize)\n    tag_51:\n      pop\n      pop\n      pop\n      pop\n      mload(0x40)\n      returndatasize\n      not(0x1f)\n      0x1f\n      dup3\n      add\n      and\n      dup3\n      add\n      dup1\n      0x40\n      mstore\n      pop\n      dup2\n      add\n      swap1\n      tag_52\n      swap2\n      swap1\n      tag_53\n      jump\t// in\n    tag_52:\n        /* \"hopp.sol\":5151:5203  bool success = IERC20(token).transfer(admin, amount) */\n      swap1\n      pop\n        /* \"hopp.sol\":5219:5226  success */\n      dup1\n        /* \"hopp.sol\":5214:5256  if (!success) revert InsufficientBalance() */\n      tag_54\n      jumpi\n        /* \"hopp.sol\":5235:5256  InsufficientBalance() */\n      mload(0x40)\n      0xf4d678b800000000000000000000000000000000000000000000000000000000\n      dup2\n      mstore\n      0x04\n      add\n      mload(0x40)\n      dup1\n      swap2\n      sub\n      swap1\n      revert\n        /* \"hopp.sol\":5214:5256  if (!success) revert InsufficientBalance() */\n    tag_54:\n        /* \"hopp.sol\":5010:5264  {... */\n      pop\n        /* \"hopp.sol\":4936:5264  function withdrawTokens(address token, uint256 amount) external onlyAdmin {... */\n      pop\n      pop\n      jump\t// out\n        /* \"hopp.sol\":3047:3625  function withdraw(uint256 amount) external {... */\n    tag_20:\n        /* \"hopp.sol\":3115:3116  0 */\n      0x00\n        /* \"hopp.sol\":3105:3111  amount */\n      dup2\n        /* \"hopp.sol\":3105:3116  amount == 0 */\n      sub\n        /* \"hopp.sol\":3101:3137  if (amount == 0) revert ZeroAmount() */\n      tag_56\n      jumpi\n        /* \"hopp.sol\":3125:3137  ZeroAmount() */\n      mload(0x40)\n      0x1f2a200500000000000000000000000000000000000000000000000000000000\n      dup2\n      mstore\n      0x04\n      add\n      mload(0x40)\n      dup1\n      swap2\n      sub\n      swap1\n      revert\n        /* \"hopp.sol\":3101:3137  if (amount == 0) revert ZeroAmount() */\n    tag_56:\n        /* \"hopp.sol\":3177:3183  amount */\n      dup1\n        /* \"hopp.sol\":3152:3162  userStakes */\n      0x04\n        /* \"hopp.sol\":3152:3174  userStakes[msg.sender] */\n      0x00\n        /* \"hopp.sol\":3163:3173  msg.sender */\n      caller\n        /* \"hopp.sol\":3152:3174  userStakes[msg.sender] */\n      0xffffffffffffffffffffffffffffffffffffffff\n      and\n      0xffffffffffffffffffffffffffffffffffffffff\n      and\n      dup2\n      mstore\n      0x20\n      add\n      swap1\n      dup2\n      mstore\n      0x20\n      add\n      0x00\n      keccak256\n      sload\n        /* \"hopp.sol\":3152:3183  userStakes[msg.sender] < amount */\n      lt\n        /* \"hopp.sol\":3148:3213  if (userStakes[msg.sender] < amount) revert InsufficientBalance() */\n      iszero\n      tag_57\n      jumpi\n        /* \"hopp.sol\":3192:3213  InsufficientBalance() */\n      mload(0x40)\n      0xf4d678b800000000000000000000000000000000000000000000000000000000\n      dup2\n      mstore\n      0x04\n      add\n      mload(0x40)\n      dup1\n      swap2\n      sub\n      swap1\n      revert\n        /* \"hopp.sol\":3148:3213  if (userStakes[msg.sender] < amount) revert InsufficientBalance() */\n    tag_57:\n        /* \"hopp.sol\":3320:3326  amount */\n      dup1\n        /* \"hopp.sol\":3294:3304  userStakes */\n      0x04\n        /* \"hopp.sol\":3294:3316  userStakes[msg.sender] */\n      0x00\n        /* \"hopp.sol\":3305:3315  msg.sender */\n      caller\n        /* \"hopp.sol\":3294:3316  userStakes[msg.sender] */\n      0xffffffffffffffffffffffffffffffffffffffff\n      and\n      0xffffffffffffffffffffffffffffffffffffffff\n      and\n      dup2\n      mstore\n      0x20\n      add\n      swap1\n      dup2\n      mstore\n      0x20\n      add\n      0x00\n      keccak256\n      0x00\n        /* \"hopp.sol\":3294:3326  userStakes[msg.sender] -= amount */\n      dup3\n      dup3\n      sload\n      tag_58\n      swap2\n      swap1\n      tag_59\n      jump\t// in\n    tag_58:\n      swap3\n      pop\n      pop\n      dup2\n      swap1\n      sstore\n      pop\n        /* \"hopp.sol\":3352:3358  amount */\n      dup1\n        /* \"hopp.sol\":3337:3348  totalStaked */\n      0x03\n      0x00\n        /* \"hopp.sol\":3337:3358  totalStaked -= amount */\n      dup3\n      dup3\n      sload\n      tag_60\n      swap2\n      swap1\n      tag_59\n      jump\t// in\n    tag_60:\n      swap3\n      pop\n      pop\n      dup2\n      swap1\n      sstore\n      pop\n        /* \"hopp.sol\":3447:3459  bool success */\n      0x00\n        /* \"hopp.sol\":3469:3479  stakeToken */\n      0x00\n      0x00\n      swap1\n      sload\n      swap1\n      0x0100\n      exp\n      swap1\n      div\n      0xffffffffffffffffffffffffffffffffffffffff\n      and\n        /* \"hopp.sol\":3462:3489  IERC20(stakeToken).transfer */\n      0xffffffffffffffffffffffffffffffffffffffff\n      and\n      0xa9059cbb\n        /* \"hopp.sol\":3490:3500  msg.sender */\n      caller\n        /* \"hopp.sol\":3502:3508  amount */\n      dup5\n        /* \"hopp.sol\":3462:3509  IERC20(stakeToken).transfer(msg.sender, amount) */\n      mload(0x40)\n      dup4\n      0xffffffff\n      and\n      0xe0\n      shl\n      dup2\n      mstore\n      0x04\n      add\n      tag_61\n      swap3\n      swap2\n      swap1\n      tag_49\n      jump\t// in\n    tag_61:\n      0x20\n      mload(0x40)\n      dup1\n      dup4\n      sub\n      dup2\n      0x00\n      dup8\n      gas\n      call\n      iszero\n      dup1\n      iszero\n      tag_63\n      jumpi\n      returndatacopy(0x00, 0x00, returndatasize)\n      revert(0x00, returndatasize)\n    tag_63:\n      pop\n      pop\n      pop\n      pop\n      mload(0x40)\n      returndatasize\n      not(0x1f)\n      0x1f\n      dup3\n      add\n      and\n      dup3\n      add\n      dup1\n      0x40\n      mstore\n      pop\n      dup2\n      add\n      swap1\n      tag_64\n      swap2\n      swap1\n      tag_53\n      jump\t// in\n    tag_64:\n        /* \"hopp.sol\":3447:3509  bool success = IERC20(stakeToken).transfer(msg.sender, amount) */\n      swap1\n      pop\n        /* \"hopp.sol\":3525:3532  success */\n      dup1\n        /* \"hopp.sol\":3520:3562  if (!success) revert InsufficientBalance() */\n      tag_65\n      jumpi\n        /* \"hopp.sol\":3541:3562  InsufficientBalance() */\n      mload(0x40)\n      0xf4d678b800000000000000000000000000000000000000000000000000000000\n      dup2\n      mstore\n      0x04\n      add\n      mload(0x40)\n      dup1\n      swap2\n      sub\n      swap1\n      revert\n        /* \"hopp.sol\":3520:3562  if (!success) revert InsufficientBalance() */\n    tag_65:\n        /* \"hopp.sol\":3598:3608  msg.sender */\n      caller\n        /* \"hopp.sol\":3588:3617  Withdrawn(msg.sender, amount) */\n      0xffffffffffffffffffffffffffffffffffffffff\n      and\n      0x7084f5476618d8e60b11ef0d7d3f06914655adb8793e28ff7f018d4c76d505d5\n        /* \"hopp.sol\":3610:3616  amount */\n      dup4\n        /* \"hopp.sol\":3588:3617  Withdrawn(msg.sender, amount) */\n      mload(0x40)\n      tag_66\n      swap2\n      swap1\n      tag_37\n      jump\t// in\n    tag_66:\n      mload(0x40)\n      dup1\n      swap2\n      sub\n      swap1\n      log2\n        /* \"hopp.sol\":3090:3625  {... */\n      pop\n        /* \"hopp.sol\":3047:3625  function withdraw(uint256 amount) external {... */\n      pop\n      jump\t// out\n        /* \"hopp.sol\":3716:4367  function claimRewards() external {... */\n    tag_22:\n        /* \"hopp.sol\":3760:3777  uint256 userStake */\n      0x00\n        /* \"hopp.sol\":3780:3790  userStakes */\n      0x04\n        /* \"hopp.sol\":3780:3802  userStakes[msg.sender] */\n      0x00\n        /* \"hopp.sol\":3791:3801  msg.sender */\n      caller\n        /* \"hopp.sol\":3780:3802  userStakes[msg.sender] */\n      0xffffffffffffffffffffffffffffffffffffffff\n      and\n      0xffffffffffffffffffffffffffffffffffffffff\n      and\n      dup2\n      mstore\n      0x20\n      add\n      swap1\n      dup2\n      mstore\n      0x20\n      add\n      0x00\n      keccak256\n      sload\n        /* \"hopp.sol\":3760:3802  uint256 userStake = userStakes[msg.sender] */\n      swap1\n      pop\n        /* \"hopp.sol\":3830:3831  0 */\n      0x00\n        /* \"hopp.sol\":3817:3826  userStake */\n      dup2\n        /* \"hopp.sol\":3817:3831  userStake == 0 */\n      sub\n        /* \"hopp.sol\":3813:3861  if (userStake == 0) revert InsufficientBalance() */\n      tag_68\n      jumpi\n        /* \"hopp.sol\":3840:3861  InsufficientBalance() */\n      mload(0x40)\n      0xf4d678b800000000000000000000000000000000000000000000000000000000\n      dup2\n      mstore\n      0x04\n      add\n      mload(0x40)\n      dup1\n      swap2\n      sub\n      swap1\n      revert\n        /* \"hopp.sol\":3813:3861  if (userStake == 0) revert InsufficientBalance() */\n    tag_68:\n        /* \"hopp.sol\":3882:3897  uint256 reward1 */\n      0x00\n        /* \"hopp.sol\":3926:3930  1e18 */\n      0x0de0b6b3a7640000\n        /* \"hopp.sol\":3912:3923  rewardRate1 */\n      sload(0x05)\n        /* \"hopp.sol\":3900:3909  userStake */\n      dup4\n        /* \"hopp.sol\":3900:3923  userStake * rewardRate1 */\n      tag_69\n      swap2\n      swap1\n      tag_70\n      jump\t// in\n    tag_69:\n        /* \"hopp.sol\":3900:3930  userStake * rewardRate1 / 1e18 */\n      tag_71\n      swap2\n      swap1\n      tag_72\n      jump\t// in\n    tag_71:\n        /* \"hopp.sol\":3882:3930  uint256 reward1 = userStake * rewardRate1 / 1e18 */\n      swap1\n      pop\n        /* \"hopp.sol\":3941:3956  uint256 reward2 */\n      0x00\n        /* \"hopp.sol\":3985:3989  1e18 */\n      0x0de0b6b3a7640000\n        /* \"hopp.sol\":3971:3982  rewardRate2 */\n      sload(0x06)\n        /* \"hopp.sol\":3959:3968  userStake */\n      dup5\n        /* \"hopp.sol\":3959:3982  userStake * rewardRate2 */\n      tag_73\n      swap2\n      swap1\n      tag_70\n      jump\t// in\n    tag_73:\n        /* \"hopp.sol\":3959:3989  userStake * rewardRate2 / 1e18 */\n      tag_74\n      swap2\n      swap1\n      tag_72\n      jump\t// in\n    tag_74:\n        /* \"hopp.sol\":3941:3989  uint256 reward2 = userStake * rewardRate2 / 1e18 */\n      swap1\n      pop\n        /* \"hopp.sol\":4079:4092  bool success1 */\n      0x00\n        /* \"hopp.sol\":4102:4114  rewardToken1 */\n      0x01\n      0x00\n      swap1\n      sload\n      swap1\n      0x0100\n      exp\n      swap1\n      div\n      0xffffffffffffffffffffffffffffffffffffffff\n      and\n        /* \"hopp.sol\":4095:4124  IERC20(rewardToken1).transfer */\n      0xffffffffffffffffffffffffffffffffffffffff\n      and\n      0xa9059cbb\n        /* \"hopp.sol\":4125:4135  msg.sender */\n      caller\n        /* \"hopp.sol\":4137:4144  reward1 */\n      dup6\n        /* \"hopp.sol\":4095:4145  IERC20(rewardToken1).transfer(msg.sender, reward1) */\n      mload(0x40)\n      dup4\n      0xffffffff\n      and\n      0xe0\n      shl\n      dup2\n      mstore\n      0x04\n      add\n      tag_75\n      swap3\n      swap2\n      swap1\n      tag_49\n      jump\t// in\n    tag_75:\n      0x20\n      mload(0x40)\n      dup1\n      dup4\n      sub\n      dup2\n      0x00\n      dup8\n      gas\n      call\n      iszero\n      dup1\n      iszero\n      tag_77\n      jumpi\n      returndatacopy(0x00, 0x00, returndatasize)\n      revert(0x00, returndatasize)\n    tag_77:\n      pop\n      pop\n      pop\n      pop\n      mload(0x40)\n      returndatasize\n      not(0x1f)\n      0x1f\n      dup3\n      add\n      and\n      dup3\n      add\n      dup1\n      0x40\n      mstore\n      pop\n      dup2\n      add\n      swap1\n      tag_78\n      swap2\n      swap1\n      tag_53\n      jump\t// in\n    tag_78:\n        /* \"hopp.sol\":4079:4145  bool success1 = IERC20(rewardToken1).transfer(msg.sender, reward1) */\n      swap1\n      pop\n        /* \"hopp.sol\":4156:4169  bool success2 */\n      0x00\n        /* \"hopp.sol\":4179:4191  rewardToken2 */\n      0x02\n      0x00\n      swap1\n      sload\n      swap1\n      0x0100\n      exp\n      swap1\n      div\n      0xffffffffffffffffffffffffffffffffffffffff\n      and\n        /* \"hopp.sol\":4172:4201  IERC20(rewardToken2).transfer */\n      0xffffffffffffffffffffffffffffffffffffffff\n      and\n      0xa9059cbb\n        /* \"hopp.sol\":4202:4212  msg.sender */\n      caller\n        /* \"hopp.sol\":4214:4221  reward2 */\n      dup6\n        /* \"hopp.sol\":4172:4222  IERC20(rewardToken2).transfer(msg.sender, reward2) */\n      mload(0x40)\n      dup4\n      0xffffffff\n      and\n      0xe0\n      shl\n      dup2\n      mstore\n      0x04\n      add\n      tag_79\n      swap3\n      swap2\n      swap1\n      tag_49\n      jump\t// in\n    tag_79:\n      0x20\n      mload(0x40)\n      dup1\n      dup4\n      sub\n      dup2\n      0x00\n      dup8\n      gas\n      call\n      iszero\n      dup1\n      iszero\n      tag_81\n      jumpi\n      returndatacopy(0x00, 0x00, returndatasize)\n      revert(0x00, returndatasize)\n    tag_81:\n      pop\n      pop\n      pop\n      pop\n      mload(0x40)\n      returndatasize\n      not(0x1f)\n      0x1f\n      dup3\n      add\n      and\n      dup3\n      add\n      dup1\n      0x40\n      mstore\n      pop\n      dup2\n      add\n      swap1\n      tag_82\n      swap2\n      swap1\n      tag_53\n      jump\t// in\n    tag_82:\n        /* \"hopp.sol\":4156:4222  bool success2 = IERC20(rewardToken2).transfer(msg.sender, reward2) */\n      swap1\n      pop\n        /* \"hopp.sol\":4238:4246  success1 */\n      dup2\n        /* \"hopp.sol\":4237:4246  !success1 */\n      iszero\n        /* \"hopp.sol\":4237:4259  !success1 || !success2 */\n      dup1\n      tag_83\n      jumpi\n      pop\n        /* \"hopp.sol\":4251:4259  success2 */\n      dup1\n        /* \"hopp.sol\":4250:4259  !success2 */\n      iszero\n        /* \"hopp.sol\":4237:4259  !success1 || !success2 */\n    tag_83:\n        /* \"hopp.sol\":4233:4289  if (!success1 || !success2) revert InsufficientBalance() */\n      iszero\n      tag_84\n      jumpi\n        /* \"hopp.sol\":4268:4289  InsufficientBalance() */\n      mload(0x40)\n      0xf4d678b800000000000000000000000000000000000000000000000000000000\n      dup2\n      mstore\n      0x04\n      add\n      mload(0x40)\n      dup1\n      swap2\n      sub\n      swap1\n      revert\n        /* \"hopp.sol\":4233:4289  if (!success1 || !success2) revert InsufficientBalance() */\n    tag_84:\n        /* \"hopp.sol\":4330:4340  msg.sender */\n      caller\n        /* \"hopp.sol\":4315:4359  RewardsClaimed(msg.sender, reward1, reward2) */\n      0xffffffffffffffffffffffffffffffffffffffff\n      and\n      0xdacbdde355ba930696a362ea6738feb9f8bd52dfb3d81947558fd3217e23e325\n        /* \"hopp.sol\":4342:4349  reward1 */\n      dup6\n        /* \"hopp.sol\":4351:4358  reward2 */\n      dup6\n        /* \"hopp.sol\":4315:4359  RewardsClaimed(msg.sender, reward1, reward2) */\n      mload(0x40)\n      tag_85\n      swap3\n      swap2\n      swap1\n      tag_86\n      jump\t// in\n    tag_85:\n      mload(0x40)\n      dup1\n      swap2\n      sub\n      swap1\n      log2\n        /* \"hopp.sol\":3749:4367  {... */\n      pop\n      pop\n      pop\n      pop\n      pop\n        /* \"hopp.sol\":3716:4367  function claimRewards() external {... */\n      jump\t// out\n        /* \"hopp.sol\":4598:4739  function setRewardRates(uint256 rate1, uint256 rate2) external onlyAdmin {... */\n    tag_26:\n        /* \"hopp.sol\":1687:1692  admin */\n      0x07\n      0x00\n      swap1\n      sload\n      swap1\n      0x0100\n      exp\n      swap1\n      div\n      0xffffffffffffffffffffffffffffffffffffffff\n      and\n        /* \"hopp.sol\":1673:1692  msg.sender != admin */\n      0xffffffffffffffffffffffffffffffffffffffff\n      and\n        /* \"hopp.sol\":1673:1683  msg.sender */\n      caller\n        /* \"hopp.sol\":1673:1692  msg.sender != admin */\n      0xffffffffffffffffffffffffffffffffffffffff\n      and\n      eq\n        /* \"hopp.sol\":1669:1715  if (msg.sender != admin) revert Unauthorized() */\n      tag_88\n      jumpi\n        /* \"hopp.sol\":1701:1715  Unauthorized() */\n      mload(0x40)\n      0x82b4290000000000000000000000000000000000000000000000000000000000\n      dup2\n      mstore\n      0x04\n      add\n      mload(0x40)\n      dup1\n      swap2\n      sub\n      swap1\n      revert\n        /* \"hopp.sol\":1669:1715  if (msg.sender != admin) revert Unauthorized() */\n    tag_88:\n        /* \"hopp.sol\":4696:4701  rate1 */\n      dup2\n        /* \"hopp.sol\":4682:4693  rewardRate1 */\n      0x05\n        /* \"hopp.sol\":4682:4701  rewardRate1 = rate1 */\n      dup2\n      swap1\n      sstore\n      pop\n        /* \"hopp.sol\":4726:4731  rate2 */\n      dup1\n        /* \"hopp.sol\":4712:4723  rewardRate2 */\n      0x06\n        /* \"hopp.sol\":4712:4731  rewardRate2 = rate2 */\n      dup2\n      swap1\n      sstore\n      pop\n        /* \"hopp.sol\":4598:4739  function setRewardRates(uint256 rate1, uint256 rate2) external onlyAdmin {... */\n      pop\n      pop\n      jump\t// out\n        /* \"hopp.sol\":241:266  address public stakeToken */\n    tag_28:\n      0x00\n      0x00\n      swap1\n      sload\n      swap1\n      0x0100\n      exp\n      swap1\n      div\n      0xffffffffffffffffffffffffffffffffffffffff\n      and\n      dup2\n      jump\t// out\n        /* \"hopp.sol\":331:358  address public rewardToken1 */\n    tag_32:\n      0x01\n      0x00\n      swap1\n      sload\n      swap1\n      0x0100\n      exp\n      swap1\n      div\n      0xffffffffffffffffffffffffffffffffffffffff\n      and\n      dup2\n      jump\t// out\n        /* \"hopp.sol\":528:554  uint256 public totalStaked */\n    tag_35:\n      sload(0x03)\n      dup2\n      jump\t// out\n        /* \"hopp.sol\":2382:2897  function stake(uint256 amount) external {... */\n    tag_40:\n        /* \"hopp.sol\":2447:2448  0 */\n      0x00\n        /* \"hopp.sol\":2437:2443  amount */\n      dup2\n        /* \"hopp.sol\":2437:2448  amount == 0 */\n      sub\n        /* \"hopp.sol\":2433:2469  if (amount == 0) revert ZeroAmount() */\n      tag_91\n      jumpi\n        /* \"hopp.sol\":2457:2469  ZeroAmount() */\n      mload(0x40)\n      0x1f2a200500000000000000000000000000000000000000000000000000000000\n      dup2\n      mstore\n      0x04\n      add\n      mload(0x40)\n      dup1\n      swap2\n      sub\n      swap1\n      revert\n        /* \"hopp.sol\":2433:2469  if (amount == 0) revert ZeroAmount() */\n    tag_91:\n        /* \"hopp.sol\":2558:2570  bool success */\n      0x00\n        /* \"hopp.sol\":2580:2590  stakeToken */\n      0x00\n      0x00\n      swap1\n      sload\n      swap1\n      0x0100\n      exp\n      swap1\n      div\n      0xffffffffffffffffffffffffffffffffffffffff\n      and\n        /* \"hopp.sol\":2573:2604  IERC20(stakeToken).transferFrom */\n      0xffffffffffffffffffffffffffffffffffffffff\n      and\n      0x23b872dd\n        /* \"hopp.sol\":2605:2615  msg.sender */\n      caller\n        /* \"hopp.sol\":2625:2629  this */\n      address\n        /* \"hopp.sol\":2632:2638  amount */\n      dup6\n        /* \"hopp.sol\":2573:2639  IERC20(stakeToken).transferFrom(msg.sender, address(this), amount) */\n      mload(0x40)\n      dup5\n      0xffffffff\n      and\n      0xe0\n      shl\n      dup2\n      mstore\n      0x04\n      add\n      tag_92\n      swap4\n      swap3\n      swap2\n      swap1\n      tag_93\n      jump\t// in\n    tag_92:\n      0x20\n      mload(0x40)\n      dup1\n      dup4\n      sub\n      dup2\n      0x00\n      dup8\n      gas\n      call\n      iszero\n      dup1\n      iszero\n      tag_95\n      jumpi\n      returndatacopy(0x00, 0x00, returndatasize)\n      revert(0x00, returndatasize)\n    tag_95:\n      pop\n      pop\n      pop\n      pop\n      mload(0x40)\n      returndatasize\n      not(0x1f)\n      0x1f\n      dup3\n      add\n      and\n      dup3\n      add\n      dup1\n      0x40\n      mstore\n      pop\n      dup2\n      add\n      swap1\n      tag_96\n      swap2\n      swap1\n      tag_53\n      jump\t// in\n    tag_96:\n        /* \"hopp.sol\":2558:2639  bool success = IERC20(stakeToken).transferFrom(msg.sender, address(this), amount) */\n      swap1\n      pop\n        /* \"hopp.sol\":2655:2662  success */\n      dup1\n        /* \"hopp.sol\":2650:2692  if (!success) revert InsufficientBalance() */\n      tag_97\n      jumpi\n        /* \"hopp.sol\":2671:2692  InsufficientBalance() */\n      mload(0x40)\n      0xf4d678b800000000000000000000000000000000000000000000000000000000\n      dup2\n      mstore\n      0x04\n      add\n      mload(0x40)\n      dup1\n      swap2\n      sub\n      swap1\n      revert\n        /* \"hopp.sol\":2650:2692  if (!success) revert InsufficientBalance() */\n    tag_97:\n        /* \"hopp.sol\":2799:2805  amount */\n      dup2\n        /* \"hopp.sol\":2773:2783  userStakes */\n      0x04\n        /* \"hopp.sol\":2773:2795  userStakes[msg.sender] */\n      0x00\n        /* \"hopp.sol\":2784:2794  msg.sender */\n      caller\n        /* \"hopp.sol\":2773:2795  userStakes[msg.sender] */\n      0xffffffffffffffffffffffffffffffffffffffff\n      and\n      0xffffffffffffffffffffffffffffffffffffffff\n      and\n      dup2\n      mstore\n      0x20\n      add\n      swap1\n      dup2\n      mstore\n      0x20\n      add\n      0x00\n      keccak256\n      0x00\n        /* \"hopp.sol\":2773:2805  userStakes[msg.sender] += amount */\n      dup3\n      dup3\n      sload\n      tag_98\n      swap2\n      swap1\n      tag_99\n      jump\t// in\n    tag_98:\n      swap3\n      pop\n      pop\n      dup2\n      swap1\n      sstore\n      pop\n        /* \"hopp.sol\":2831:2837  amount */\n      dup2\n        /* \"hopp.sol\":2816:2827  totalStaked */\n      0x03\n      0x00\n        /* \"hopp.sol\":2816:2837  totalStaked += amount */\n      dup3\n      dup3\n      sload\n      tag_100\n      swap2\n      swap1\n      tag_99\n      jump\t// in\n    tag_100:\n      swap3\n      pop\n      pop\n      dup2\n      swap1\n      sstore\n      pop\n        /* \"hopp.sol\":2870:2880  msg.sender */\n      caller\n        /* \"hopp.sol\":2863:2889  Staked(msg.sender, amount) */\n      0xffffffffffffffffffffffffffffffffffffffff\n      and\n      0x9e71bc8eea02a63969f509818f2dafb9254532904319f9dbda79b67bd34a5f3d\n        /* \"hopp.sol\":2882:2888  amount */\n      dup4\n        /* \"hopp.sol\":2863:2889  Staked(msg.sender, amount) */\n      mload(0x40)\n      tag_101\n      swap2\n      swap1\n      tag_37\n      jump\t// in\n    tag_101:\n      mload(0x40)\n      dup1\n      swap2\n      sub\n      swap1\n      log2\n        /* \"hopp.sol\":2422:2897  {... */\n      pop\n        /* \"hopp.sol\":2382:2897  function stake(uint256 amount) external {... */\n      pop\n      jump\t// out\n        /* \"hopp.sol\":424:451  address public rewardToken2 */\n    tag_42:\n      0x02\n      0x00\n      swap1\n      sload\n      swap1\n      0x0100\n      exp\n      swap1\n      div\n      0xffffffffffffffffffffffffffffffffffffffff\n      and\n      dup2\n      jump\t// out\n        /* \"#utility.yul\":88:205   */\n    tag_103:\n        /* \"#utility.yul\":197:198   */\n      0x00\n        /* \"#utility.yul\":194:195   */\n      0x00\n        /* \"#utility.yul\":187:199   */\n      revert\n        /* \"#utility.yul\":334:460   */\n    tag_105:\n        /* \"#utility.yul\":371:378   */\n      0x00\n        /* \"#utility.yul\":411:453   */\n      0xffffffffffffffffffffffffffffffffffffffff\n        /* \"#utility.yul\":404:409   */\n      dup3\n        /* \"#utility.yul\":400:454   */\n      and\n        /* \"#utility.yul\":389:454   */\n      swap1\n      pop\n        /* \"#utility.yul\":334:460   */\n      swap2\n      swap1\n      pop\n      jump\t// out\n        /* \"#utility.yul\":466:562   */\n    tag_106:\n        /* \"#utility.yul\":503:510   */\n      0x00\n        /* \"#utility.yul\":532:556   */\n      tag_125\n        /* \"#utility.yul\":550:555   */\n      dup3\n        /* \"#utility.yul\":532:556   */\n      tag_105\n      jump\t// in\n    tag_125:\n        /* \"#utility.yul\":521:556   */\n      swap1\n      pop\n        /* \"#utility.yul\":466:562   */\n      swap2\n      swap1\n      pop\n      jump\t// out\n        /* \"#utility.yul\":568:690   */\n    tag_107:\n        /* \"#utility.yul\":641:665   */\n      tag_127\n        /* \"#utility.yul\":659:664   */\n      dup2\n        /* \"#utility.yul\":641:665   */\n      tag_106\n      jump\t// in\n    tag_127:\n        /* \"#utility.yul\":634:639   */\n      dup2\n        /* \"#utility.yul\":631:666   */\n      eq\n        /* \"#utility.yul\":621:684   */\n      tag_128\n      jumpi\n        /* \"#utility.yul\":680:681   */\n      0x00\n        /* \"#utility.yul\":677:678   */\n      0x00\n        /* \"#utility.yul\":670:682   */\n      revert\n        /* \"#utility.yul\":621:684   */\n    tag_128:\n        /* \"#utility.yul\":568:690   */\n      pop\n      jump\t// out\n        /* \"#utility.yul\":696:835   */\n    tag_108:\n        /* \"#utility.yul\":742:747   */\n      0x00\n        /* \"#utility.yul\":780:786   */\n      dup2\n        /* \"#utility.yul\":767:787   */\n      calldataload\n        /* \"#utility.yul\":758:787   */\n      swap1\n      pop\n        /* \"#utility.yul\":796:829   */\n      tag_130\n        /* \"#utility.yul\":823:828   */\n      dup2\n        /* \"#utility.yul\":796:829   */\n      tag_107\n      jump\t// in\n    tag_130:\n        /* \"#utility.yul\":696:835   */\n      swap3\n      swap2\n      pop\n      pop\n      jump\t// out\n        /* \"#utility.yul\":841:918   */\n    tag_109:\n        /* \"#utility.yul\":878:885   */\n      0x00\n        /* \"#utility.yul\":907:912   */\n      dup2\n        /* \"#utility.yul\":896:912   */\n      swap1\n      pop\n        /* \"#utility.yul\":841:918   */\n      swap2\n      swap1\n      pop\n      jump\t// out\n        /* \"#utility.yul\":924:1046   */\n    tag_110:\n        /* \"#utility.yul\":997:1021   */\n      tag_133\n        /* \"#utility.yul\":1015:1020   */\n      dup2\n        /* \"#utility.yul\":997:1021   */\n      tag_109\n      jump\t// in\n    tag_133:\n        /* \"#utility.yul\":990:995   */\n      dup2\n        /* \"#utility.yul\":987:1022   */\n      eq\n        /* \"#utility.yul\":977:1040   */\n      tag_134\n      jumpi\n        /* \"#utility.yul\":1036:1037   */\n      0x00\n        /* \"#utility.yul\":1033:1034   */\n      0x00\n        /* \"#utility.yul\":1026:1038   */\n      revert\n        /* \"#utility.yul\":977:1040   */\n    tag_134:\n        /* \"#utility.yul\":924:1046   */\n      pop\n      jump\t// out\n        /* \"#utility.yul\":1052:1191   */\n    tag_111:\n        /* \"#utility.yul\":1098:1103   */\n      0x00\n        /* \"#utility.yul\":1136:1142   */\n      dup2\n        /* \"#utility.yul\":1123:1143   */\n      calldataload\n        /* \"#utility.yul\":1114:1143   */\n      swap1\n      pop\n        /* \"#utility.yul\":1152:1185   */\n      tag_136\n        /* \"#utility.yul\":1179:1184   */\n      dup2\n        /* \"#utility.yul\":1152:1185   */\n      tag_110\n      jump\t// in\n    tag_136:\n        /* \"#utility.yul\":1052:1191   */\n      swap3\n      swap2\n      pop\n      pop\n      jump\t// out\n        /* \"#utility.yul\":1197:1671   */\n    tag_15:\n        /* \"#utility.yul\":1265:1271   */\n      0x00\n        /* \"#utility.yul\":1273:1279   */\n      0x00\n        /* \"#utility.yul\":1322:1324   */\n      0x40\n        /* \"#utility.yul\":1310:1319   */\n      dup4\n        /* \"#utility.yul\":1301:1308   */\n      dup6\n        /* \"#utility.yul\":1297:1320   */\n      sub\n        /* \"#utility.yul\":1293:1325   */\n      slt\n        /* \"#utility.yul\":1290:1409   */\n      iszero\n      tag_138\n      jumpi\n        /* \"#utility.yul\":1328:1407   */\n      tag_139\n      tag_103\n      jump\t// in\n    tag_139:\n        /* \"#utility.yul\":1290:1409   */\n    tag_138:\n        /* \"#utility.yul\":1448:1449   */\n      0x00\n        /* \"#utility.yul\":1473:1526   */\n      tag_140\n        /* \"#utility.yul\":1518:1525   */\n      dup6\n        /* \"#utility.yul\":1509:1515   */\n      dup3\n        /* \"#utility.yul\":1498:1507   */\n      dup7\n        /* \"#utility.yul\":1494:1516   */\n      add\n        /* \"#utility.yul\":1473:1526   */\n      tag_108\n      jump\t// in\n    tag_140:\n        /* \"#utility.yul\":1463:1526   */\n      swap3\n      pop\n        /* \"#utility.yul\":1419:1536   */\n      pop\n        /* \"#utility.yul\":1575:1577   */\n      0x20\n        /* \"#utility.yul\":1601:1654   */\n      tag_141\n        /* \"#utility.yul\":1646:1653   */\n      dup6\n        /* \"#utility.yul\":1637:1643   */\n      dup3\n        /* \"#utility.yul\":1626:1635   */\n      dup7\n        /* \"#utility.yul\":1622:1644   */\n      add\n        /* \"#utility.yul\":1601:1654   */\n      tag_111\n      jump\t// in\n    tag_141:\n        /* \"#utility.yul\":1591:1654   */\n      swap2\n      pop\n        /* \"#utility.yul\":1546:1664   */\n      pop\n        /* \"#utility.yul\":1197:1671   */\n      swap3\n      pop\n      swap3\n      swap1\n      pop\n      jump\t// out\n        /* \"#utility.yul\":1677:2006   */\n    tag_19:\n        /* \"#utility.yul\":1736:1742   */\n      0x00\n        /* \"#utility.yul\":1785:1787   */\n      0x20\n        /* \"#utility.yul\":1773:1782   */\n      dup3\n        /* \"#utility.yul\":1764:1771   */\n      dup5\n        /* \"#utility.yul\":1760:1783   */\n      sub\n        /* \"#utility.yul\":1756:1788   */\n      slt\n        /* \"#utility.yul\":1753:1872   */\n      iszero\n      tag_143\n      jumpi\n        /* \"#utility.yul\":1791:1870   */\n      tag_144\n      tag_103\n      jump\t// in\n    tag_144:\n        /* \"#utility.yul\":1753:1872   */\n    tag_143:\n        /* \"#utility.yul\":1911:1912   */\n      0x00\n        /* \"#utility.yul\":1936:1989   */\n      tag_145\n        /* \"#utility.yul\":1981:1988   */\n      dup5\n        /* \"#utility.yul\":1972:1978   */\n      dup3\n        /* \"#utility.yul\":1961:1970   */\n      dup6\n        /* \"#utility.yul\":1957:1979   */\n      add\n        /* \"#utility.yul\":1936:1989   */\n      tag_111\n      jump\t// in\n    tag_145:\n        /* \"#utility.yul\":1926:1989   */\n      swap2\n      pop\n        /* \"#utility.yul\":1882:1999   */\n      pop\n        /* \"#utility.yul\":1677:2006   */\n      swap3\n      swap2\n      pop\n      pop\n      jump\t// out\n        /* \"#utility.yul\":2012:2486   */\n    tag_25:\n        /* \"#utility.yul\":2080:2086   */\n      0x00\n        /* \"#utility.yul\":2088:2094   */\n      0x00\n        /* \"#utility.yul\":2137:2139   */\n      0x40\n        /* \"#utility.yul\":2125:2134   */\n      dup4\n        /* \"#utility.yul\":2116:2123   */\n      dup6\n        /* \"#utility.yul\":2112:2135   */\n      sub\n        /* \"#utility.yul\":2108:2140   */\n      slt\n        /* \"#utility.yul\":2105:2224   */\n      iszero\n      tag_147\n      jumpi\n        /* \"#utility.yul\":2143:2222   */\n      tag_148\n      tag_103\n      jump\t// in\n    tag_148:\n        /* \"#utility.yul\":2105:2224   */\n    tag_147:\n        /* \"#utility.yul\":2263:2264   */\n      0x00\n        /* \"#utility.yul\":2288:2341   */\n      tag_149\n        /* \"#utility.yul\":2333:2340   */\n      dup6\n        /* \"#utility.yul\":2324:2330   */\n      dup3\n        /* \"#utility.yul\":2313:2322   */\n      dup7\n        /* \"#utility.yul\":2309:2331   */\n      add\n        /* \"#utility.yul\":2288:2341   */\n      tag_111\n      jump\t// in\n    tag_149:\n        /* \"#utility.yul\":2278:2341   */\n      swap3\n      pop\n        /* \"#utility.yul\":2234:2351   */\n      pop\n        /* \"#utility.yul\":2390:2392   */\n      0x20\n        /* \"#utility.yul\":2416:2469   */\n      tag_150\n        /* \"#utility.yul\":2461:2468   */\n      dup6\n        /* \"#utility.yul\":2452:2458   */\n      dup3\n        /* \"#utility.yul\":2441:2450   */\n      dup7\n        /* \"#utility.yul\":2437:2459   */\n      add\n        /* \"#utility.yul\":2416:2469   */\n      tag_111\n      jump\t// in\n    tag_150:\n        /* \"#utility.yul\":2406:2469   */\n      swap2\n      pop\n        /* \"#utility.yul\":2361:2479   */\n      pop\n        /* \"#utility.yul\":2012:2486   */\n      swap3\n      pop\n      swap3\n      swap1\n      pop\n      jump\t// out\n        /* \"#utility.yul\":2492:2610   */\n    tag_112:\n        /* \"#utility.yul\":2579:2603   */\n      tag_152\n        /* \"#utility.yul\":2597:2602   */\n      dup2\n        /* \"#utility.yul\":2579:2603   */\n      tag_106\n      jump\t// in\n    tag_152:\n        /* \"#utility.yul\":2574:2577   */\n      dup3\n        /* \"#utility.yul\":2567:2604   */\n      mstore\n        /* \"#utility.yul\":2492:2610   */\n      pop\n      pop\n      jump\t// out\n        /* \"#utility.yul\":2616:2838   */\n    tag_30:\n        /* \"#utility.yul\":2709:2713   */\n      0x00\n        /* \"#utility.yul\":2747:2749   */\n      0x20\n        /* \"#utility.yul\":2736:2745   */\n      dup3\n        /* \"#utility.yul\":2732:2750   */\n      add\n        /* \"#utility.yul\":2724:2750   */\n      swap1\n      pop\n        /* \"#utility.yul\":2760:2831   */\n      tag_154\n        /* \"#utility.yul\":2828:2829   */\n      0x00\n        /* \"#utility.yul\":2817:2826   */\n      dup4\n        /* \"#utility.yul\":2813:2830   */\n      add\n        /* \"#utility.yul\":2804:2810   */\n      dup5\n        /* \"#utility.yul\":2760:2831   */\n      tag_112\n      jump\t// in\n    tag_154:\n        /* \"#utility.yul\":2616:2838   */\n      swap3\n      swap2\n      pop\n      pop\n      jump\t// out\n        /* \"#utility.yul\":2844:2962   */\n    tag_113:\n        /* \"#utility.yul\":2931:2955   */\n      tag_156\n        /* \"#utility.yul\":2949:2954   */\n      dup2\n        /* \"#utility.yul\":2931:2955   */\n      tag_109\n      jump\t// in\n    tag_156:\n        /* \"#utility.yul\":2926:2929   */\n      dup3\n        /* \"#utility.yul\":2919:2956   */\n      mstore\n        /* \"#utility.yul\":2844:2962   */\n      pop\n      pop\n      jump\t// out\n        /* \"#utility.yul\":2968:3190   */\n    tag_37:\n        /* \"#utility.yul\":3061:3065   */\n      0x00\n        /* \"#utility.yul\":3099:3101   */\n      0x20\n        /* \"#utility.yul\":3088:3097   */\n      dup3\n        /* \"#utility.yul\":3084:3102   */\n      add\n        /* \"#utility.yul\":3076:3102   */\n      swap1\n      pop\n        /* \"#utility.yul\":3112:3183   */\n      tag_158\n        /* \"#utility.yul\":3180:3181   */\n      0x00\n        /* \"#utility.yul\":3169:3178   */\n      dup4\n        /* \"#utility.yul\":3165:3182   */\n      add\n        /* \"#utility.yul\":3156:3162   */\n      dup5\n        /* \"#utility.yul\":3112:3183   */\n      tag_113\n      jump\t// in\n    tag_158:\n        /* \"#utility.yul\":2968:3190   */\n      swap3\n      swap2\n      pop\n      pop\n      jump\t// out\n        /* \"#utility.yul\":3196:3528   */\n    tag_49:\n        /* \"#utility.yul\":3317:3321   */\n      0x00\n        /* \"#utility.yul\":3355:3357   */\n      0x40\n        /* \"#utility.yul\":3344:3353   */\n      dup3\n        /* \"#utility.yul\":3340:3358   */\n      add\n        /* \"#utility.yul\":3332:3358   */\n      swap1\n      pop\n        /* \"#utility.yul\":3368:3439   */\n      tag_160\n        /* \"#utility.yul\":3436:3437   */\n      0x00\n        /* \"#utility.yul\":3425:3434   */\n      dup4\n        /* \"#utility.yul\":3421:3438   */\n      add\n        /* \"#utility.yul\":3412:3418   */\n      dup6\n        /* \"#utility.yul\":3368:3439   */\n      tag_112\n      jump\t// in\n    tag_160:\n        /* \"#utility.yul\":3449:3521   */\n      tag_161\n        /* \"#utility.yul\":3517:3519   */\n      0x20\n        /* \"#utility.yul\":3506:3515   */\n      dup4\n        /* \"#utility.yul\":3502:3520   */\n      add\n        /* \"#utility.yul\":3493:3499   */\n      dup5\n        /* \"#utility.yul\":3449:3521   */\n      tag_113\n      jump\t// in\n    tag_161:\n        /* \"#utility.yul\":3196:3528   */\n      swap4\n      swap3\n      pop\n      pop\n      pop\n      jump\t// out\n        /* \"#utility.yul\":3534:3624   */\n    tag_114:\n        /* \"#utility.yul\":3568:3575   */\n      0x00\n        /* \"#utility.yul\":3611:3616   */\n      dup2\n        /* \"#utility.yul\":3604:3617   */\n      iszero\n        /* \"#utility.yul\":3597:3618   */\n      iszero\n        /* \"#utility.yul\":3586:3618   */\n      swap1\n      pop\n        /* \"#utility.yul\":3534:3624   */\n      swap2\n      swap1\n      pop\n      jump\t// out\n        /* \"#utility.yul\":3630:3746   */\n    tag_115:\n        /* \"#utility.yul\":3700:3721   */\n      tag_164\n        /* \"#utility.yul\":3715:3720   */\n      dup2\n        /* \"#utility.yul\":3700:3721   */\n      tag_114\n      jump\t// in\n    tag_164:\n        /* \"#utility.yul\":3693:3698   */\n      dup2\n        /* \"#utility.yul\":3690:3722   */\n      eq\n        /* \"#utility.yul\":3680:3740   */\n      tag_165\n      jumpi\n        /* \"#utility.yul\":3736:3737   */\n      0x00\n        /* \"#utility.yul\":3733:3734   */\n      0x00\n        /* \"#utility.yul\":3726:3738   */\n      revert\n        /* \"#utility.yul\":3680:3740   */\n    tag_165:\n        /* \"#utility.yul\":3630:3746   */\n      pop\n      jump\t// out\n        /* \"#utility.yul\":3752:3889   */\n    tag_116:\n        /* \"#utility.yul\":3806:3811   */\n      0x00\n        /* \"#utility.yul\":3837:3843   */\n      dup2\n        /* \"#utility.yul\":3831:3844   */\n      mload\n        /* \"#utility.yul\":3822:3844   */\n      swap1\n      pop\n        /* \"#utility.yul\":3853:3883   */\n      tag_167\n        /* \"#utility.yul\":3877:3882   */\n      dup2\n        /* \"#utility.yul\":3853:3883   */\n      tag_115\n      jump\t// in\n    tag_167:\n        /* \"#utility.yul\":3752:3889   */\n      swap3\n      swap2\n      pop\n      pop\n      jump\t// out\n        /* \"#utility.yul\":3895:4240   */\n    tag_53:\n        /* \"#utility.yul\":3962:3968   */\n      0x00\n        /* \"#utility.yul\":4011:4013   */\n      0x20\n        /* \"#utility.yul\":3999:4008   */\n      dup3\n        /* \"#utility.yul\":3990:3997   */\n      dup5\n        /* \"#utility.yul\":3986:4009   */\n      sub\n        /* \"#utility.yul\":3982:4014   */\n      slt\n        /* \"#utility.yul\":3979:4098   */\n      iszero\n      tag_169\n      jumpi\n        /* \"#utility.yul\":4017:4096   */\n      tag_170\n      tag_103\n      jump\t// in\n    tag_170:\n        /* \"#utility.yul\":3979:4098   */\n    tag_169:\n        /* \"#utility.yul\":4137:4138   */\n      0x00\n        /* \"#utility.yul\":4162:4223   */\n      tag_171\n        /* \"#utility.yul\":4215:4222   */\n      dup5\n        /* \"#utility.yul\":4206:4212   */\n      dup3\n        /* \"#utility.yul\":4195:4204   */\n      dup6\n        /* \"#utility.yul\":4191:4213   */\n      add\n        /* \"#utility.yul\":4162:4223   */\n      tag_116\n      jump\t// in\n    tag_171:\n        /* \"#utility.yul\":4152:4223   */\n      swap2\n      pop\n        /* \"#utility.yul\":4108:4233   */\n      pop\n        /* \"#utility.yul\":3895:4240   */\n      swap3\n      swap2\n      pop\n      pop\n      jump\t// out\n        /* \"#utility.yul\":4246:4426   */\n    tag_117:\n        /* \"#utility.yul\":4294:4371   */\n      0x4e487b7100000000000000000000000000000000000000000000000000000000\n        /* \"#utility.yul\":4291:4292   */\n      0x00\n        /* \"#utility.yul\":4284:4372   */\n      mstore\n        /* \"#utility.yul\":4391:4395   */\n      0x11\n        /* \"#utility.yul\":4388:4389   */\n      0x04\n        /* \"#utility.yul\":4381:4396   */\n      mstore\n        /* \"#utility.yul\":4415:4419   */\n      0x24\n        /* \"#utility.yul\":4412:4413   */\n      0x00\n        /* \"#utility.yul\":4405:4420   */\n      revert\n        /* \"#utility.yul\":4432:4626   */\n    tag_59:\n        /* \"#utility.yul\":4472:4476   */\n      0x00\n        /* \"#utility.yul\":4492:4512   */\n      tag_174\n        /* \"#utility.yul\":4510:4511   */\n      dup3\n        /* \"#utility.yul\":4492:4512   */\n      tag_109\n      jump\t// in\n    tag_174:\n        /* \"#utility.yul\":4487:4512   */\n      swap2\n      pop\n        /* \"#utility.yul\":4526:4546   */\n      tag_175\n        /* \"#utility.yul\":4544:4545   */\n      dup4\n        /* \"#utility.yul\":4526:4546   */\n      tag_109\n      jump\t// in\n    tag_175:\n        /* \"#utility.yul\":4521:4546   */\n      swap3\n      pop\n        /* \"#utility.yul\":4570:4571   */\n      dup3\n        /* \"#utility.yul\":4567:4568   */\n      dup3\n        /* \"#utility.yul\":4563:4572   */\n      sub\n        /* \"#utility.yul\":4555:4572   */\n      swap1\n      pop\n        /* \"#utility.yul\":4594:4595   */\n      dup2\n        /* \"#utility.yul\":4588:4592   */\n      dup2\n        /* \"#utility.yul\":4585:4596   */\n      gt\n        /* \"#utility.yul\":4582:4619   */\n      iszero\n      tag_176\n      jumpi\n        /* \"#utility.yul\":4599:4617   */\n      tag_177\n      tag_117\n      jump\t// in\n    tag_177:\n        /* \"#utility.yul\":4582:4619   */\n    tag_176:\n        /* \"#utility.yul\":4432:4626   */\n      swap3\n      swap2\n      pop\n      pop\n      jump\t// out\n        /* \"#utility.yul\":4632:5042   */\n    tag_70:\n        /* \"#utility.yul\":4672:4679   */\n      0x00\n        /* \"#utility.yul\":4695:4715   */\n      tag_179\n        /* \"#utility.yul\":4713:4714   */\n      dup3\n        /* \"#utility.yul\":4695:4715   */\n      tag_109\n      jump\t// in\n    tag_179:\n        /* \"#utility.yul\":4690:4715   */\n      swap2\n      pop\n        /* \"#utility.yul\":4729:4749   */\n      tag_180\n        /* \"#utility.yul\":4747:4748   */\n      dup4\n        /* \"#utility.yul\":4729:4749   */\n      tag_109\n      jump\t// in\n    tag_180:\n        /* \"#utility.yul\":4724:4749   */\n      swap3\n      pop\n        /* \"#utility.yul\":4784:4785   */\n      dup3\n        /* \"#utility.yul\":4781:4782   */\n      dup3\n        /* \"#utility.yul\":4777:4786   */\n      mul\n        /* \"#utility.yul\":4806:4836   */\n      tag_181\n        /* \"#utility.yul\":4824:4835   */\n      dup2\n        /* \"#utility.yul\":4806:4836   */\n      tag_109\n      jump\t// in\n    tag_181:\n        /* \"#utility.yul\":4795:4836   */\n      swap2\n      pop\n        /* \"#utility.yul\":4985:4986   */\n      dup3\n        /* \"#utility.yul\":4976:4983   */\n      dup3\n        /* \"#utility.yul\":4972:4987   */\n      div\n        /* \"#utility.yul\":4969:4970   */\n      dup5\n        /* \"#utility.yul\":4966:4988   */\n      eq\n        /* \"#utility.yul\":4946:4947   */\n      dup4\n        /* \"#utility.yul\":4939:4948   */\n      iszero\n        /* \"#utility.yul\":4919:5002   */\n      or\n        /* \"#utility.yul\":4896:5035   */\n      tag_182\n      jumpi\n        /* \"#utility.yul\":5015:5033   */\n      tag_183\n      tag_117\n      jump\t// in\n    tag_183:\n        /* \"#utility.yul\":4896:5035   */\n    tag_182:\n        /* \"#utility.yul\":4680:5042   */\n      pop\n        /* \"#utility.yul\":4632:5042   */\n      swap3\n      swap2\n      pop\n      pop\n      jump\t// out\n        /* \"#utility.yul\":5048:5228   */\n    tag_118:\n        /* \"#utility.yul\":5096:5173   */\n      0x4e487b7100000000000000000000000000000000000000000000000000000000\n        /* \"#utility.yul\":5093:5094   */\n      0x00\n        /* \"#utility.yul\":5086:5174   */\n      mstore\n        /* \"#utility.yul\":5193:5197   */\n      0x12\n        /* \"#utility.yul\":5190:5191   */\n      0x04\n        /* \"#utility.yul\":5183:5198   */\n      mstore\n        /* \"#utility.yul\":5217:5221   */\n      0x24\n        /* \"#utility.yul\":5214:5215   */\n      0x00\n        /* \"#utility.yul\":5207:5222   */\n      revert\n        /* \"#utility.yul\":5234:5419   */\n    tag_72:\n        /* \"#utility.yul\":5274:5275   */\n      0x00\n        /* \"#utility.yul\":5291:5311   */\n      tag_186\n        /* \"#utility.yul\":5309:5310   */\n      dup3\n        /* \"#utility.yul\":5291:5311   */\n      tag_109\n      jump\t// in\n    tag_186:\n        /* \"#utility.yul\":5286:5311   */\n      swap2\n      pop\n        /* \"#utility.yul\":5325:5345   */\n      tag_187\n        /* \"#utility.yul\":5343:5344   */\n      dup4\n        /* \"#utility.yul\":5325:5345   */\n      tag_109\n      jump\t// in\n    tag_187:\n        /* \"#utility.yul\":5320:5345   */\n      swap3\n      pop\n        /* \"#utility.yul\":5364:5365   */\n      dup3\n        /* \"#utility.yul\":5354:5389   */\n      tag_188\n      jumpi\n        /* \"#utility.yul\":5369:5387   */\n      tag_189\n      tag_118\n      jump\t// in\n    tag_189:\n        /* \"#utility.yul\":5354:5389   */\n    tag_188:\n        /* \"#utility.yul\":5411:5412   */\n      dup3\n        /* \"#utility.yul\":5408:5409   */\n      dup3\n        /* \"#utility.yul\":5404:5413   */\n      div\n        /* \"#utility.yul\":5399:5413   */\n      swap1\n      pop\n        /* \"#utility.yul\":5234:5419   */\n      swap3\n      swap2\n      pop\n      pop\n      jump\t// out\n        /* \"#utility.yul\":5425:5757   */\n    tag_86:\n        /* \"#utility.yul\":5546:5550   */\n      0x00\n        /* \"#utility.yul\":5584:5586   */\n      0x40\n        /* \"#utility.yul\":5573:5582   */\n      dup3\n        /* \"#utility.yul\":5569:5587   */\n      add\n        /* \"#utility.yul\":5561:5587   */\n      swap1\n      pop\n        /* \"#utility.yul\":5597:5668   */\n      tag_191\n        /* \"#utility.yul\":5665:5666   */\n      0x00\n        /* \"#utility.yul\":5654:5663   */\n      dup4\n        /* \"#utility.yul\":5650:5667   */\n      add\n        /* \"#utility.yul\":5641:5647   */\n      dup6\n        /* \"#utility.yul\":5597:5668   */\n      tag_113\n      jump\t// in\n    tag_191:\n        /* \"#utility.yul\":5678:5750   */\n      tag_192\n        /* \"#utility.yul\":5746:5748   */\n      0x20\n        /* \"#utility.yul\":5735:5744   */\n      dup4\n        /* \"#utility.yul\":5731:5749   */\n      add\n        /* \"#utility.yul\":5722:5728   */\n      dup5\n        /* \"#utility.yul\":5678:5750   */\n      tag_113\n      jump\t// in\n    tag_192:\n        /* \"#utility.yul\":5425:5757   */\n      swap4\n      swap3\n      pop\n      pop\n      pop\n      jump\t// out\n        /* \"#utility.yul\":5763:6205   */\n    tag_93:\n        /* \"#utility.yul\":5912:5916   */\n      0x00\n        /* \"#utility.yul\":5950:5952   */\n      0x60\n        /* \"#utility.yul\":5939:5948   */\n      dup3\n        /* \"#utility.yul\":5935:5953   */\n      add\n        /* \"#utility.yul\":5927:5953   */\n      swap1\n      pop\n        /* \"#utility.yul\":5963:6034   */\n      tag_194\n        /* \"#utility.yul\":6031:6032   */\n      0x00\n        /* \"#utility.yul\":6020:6029   */\n      dup4\n        /* \"#utility.yul\":6016:6033   */\n      add\n        /* \"#utility.yul\":6007:6013   */\n      dup7\n        /* \"#utility.yul\":5963:6034   */\n      tag_112\n      jump\t// in\n    tag_194:\n        /* \"#utility.yul\":6044:6116   */\n      tag_195\n        /* \"#utility.yul\":6112:6114   */\n      0x20\n        /* \"#utility.yul\":6101:6110   */\n      dup4\n        /* \"#utility.yul\":6097:6115   */\n      add\n        /* \"#utility.yul\":6088:6094   */\n      dup6\n        /* \"#utility.yul\":6044:6116   */\n      tag_112\n      jump\t// in\n    tag_195:\n        /* \"#utility.yul\":6126:6198   */\n      tag_196\n        /* \"#utility.yul\":6194:6196   */\n      0x40\n        /* \"#utility.yul\":6183:6192   */\n      dup4\n        /* \"#utility.yul\":6179:6197   */\n      add\n        /* \"#utility.yul\":6170:6176   */\n      dup5\n        /* \"#utility.yul\":6126:6198   */\n      tag_113\n      jump\t// in\n    tag_196:\n        /* \"#utility.yul\":5763:6205   */\n      swap5\n      swap4\n      pop\n      pop\n      pop\n      pop\n      jump\t// out\n        /* \"#utility.yul\":6211:6402   */\n    tag_99:\n        /* \"#utility.yul\":6251:6254   */\n      0x00\n        /* \"#utility.yul\":6270:6290   */\n      tag_198\n        /* \"#utility.yul\":6288:6289   */\n      dup3\n        /* \"#utility.yul\":6270:6290   */\n      tag_109\n      jump\t// in\n    tag_198:\n        /* \"#utility.yul\":6265:6290   */\n      swap2\n      pop\n        /* \"#utility.yul\":6304:6324   */\n      tag_199\n        /* \"#utility.yul\":6322:6323   */\n      dup4\n        /* \"#utility.yul\":6304:6324   */\n      tag_109\n      jump\t// in\n    tag_199:\n        /* \"#utility.yul\":6299:6324   */\n      swap3\n      pop\n        /* \"#utility.yul\":6347:6348   */\n      dup3\n        /* \"#utility.yul\":6344:6345   */\n      dup3\n        /* \"#utility.yul\":6340:6349   */\n      add\n        /* \"#utility.yul\":6333:6349   */\n      swap1\n      pop\n        /* \"#utility.yul\":6368:6371   */\n      dup1\n        /* \"#utility.yul\":6365:6366   */\n      dup3\n        /* \"#utility.yul\":6362:6372   */\n      gt\n        /* \"#utility.yul\":6359:6395   */\n      iszero\n      tag_200\n      jumpi\n        /* \"#utility.yul\":6375:6393   */\n      tag_201\n      tag_117\n      jump\t// in\n    tag_201:\n        /* \"#utility.yul\":6359:6395   */\n    tag_200:\n        /* \"#utility.yul\":6211:6402   */\n      swap3\n      swap2\n      pop\n      pop\n      jump\t// out\n\n    auxdata: 0xa2646970667358221220952236e412625ca12ed9f3f27dd76f2cfd2c06a98b871c532ec9eaf45f655ea464736f6c634300081e0033\n}\n",
				"bytecode": {
					"linkReferences": {},
					"object": "608060405234801561000f575f5ffd5b5060405161109a38038061109a83398181016040528101906100319190610196565b825f5f6101000a81548173ffffffffffffffffffffffffffffffffffffffff021916908373ffffffffffffffffffffffffffffffffffffffff1602179055508160015f6101000a81548173ffffffffffffffffffffffffffffffffffffffff021916908373ffffffffffffffffffffffffffffffffffffffff1602179055508060025f6101000a81548173ffffffffffffffffffffffffffffffffffffffff021916908373ffffffffffffffffffffffffffffffffffffffff1602179055503360075f6101000a81548173ffffffffffffffffffffffffffffffffffffffff021916908373ffffffffffffffffffffffffffffffffffffffff1602179055505050506101e6565b5f5ffd5b5f73ffffffffffffffffffffffffffffffffffffffff82169050919050565b5f6101658261013c565b9050919050565b6101758161015b565b811461017f575f5ffd5b50565b5f815190506101908161016c565b92915050565b5f5f5f606084860312156101ad576101ac610138565b5b5f6101ba86828701610182565b93505060206101cb86828701610182565b92505060406101dc86828701610182565b9150509250925092565b610ea7806101f35f395ff3fe608060405234801561000f575f5ffd5b5060043610610091575f3560e01c806351ed6a301161006457806351ed6a30146100f35780636f28d68814610111578063817b1cd21461012f578063a694fc3a1461014d578063d61a47f11461016957610091565b806306b091f9146100955780632e1a7d4d146100b1578063372500ab146100cd57806337ba04a0146100d7575b5f5ffd5b6100af60048036038101906100aa9190610b66565b610187565b005b6100cb60048036038101906100c69190610ba4565b610321565b005b6100d5610563565b005b6100f160048036038101906100ec9190610bcf565b6107fc565b005b6100fb610894565b6040516101089190610c1c565b60405180910390f35b6101196108b8565b6040516101269190610c1c565b60405180910390f35b6101376108dd565b6040516101449190610c44565b60405180910390f35b61016760048036038101906101629190610ba4565b6108e3565b005b610171610ab0565b60405161017e9190610c1c565b60405180910390f35b60075f9054906101000a900473ffffffffffffffffffffffffffffffffffffffff1673ffffffffffffffffffffffffffffffffffffffff163373ffffffffffffffffffffffffffffffffffffffff161461020d576040517f82b4290000000000000000000000000000000000000000000000000000000000815260040160405180910390fd5b5f8103610246576040517f1f2a200500000000000000000000000000000000000000000000000000000000815260040160405180910390fd5b5f8273ffffffffffffffffffffffffffffffffffffffff1663a9059cbb60075f9054906101000a900473ffffffffffffffffffffffffffffffffffffffff16846040518363ffffffff1660e01b81526004016102a3929190610c5d565b6020604051808303815f875af11580156102bf573d5f5f3e3d5ffd5b505050506040513d601f19601f820116820180604052508101906102e39190610cb9565b90508061031c576040517ff4d678b800000000000000000000000000000000000000000000000000000000815260040160405180910390fd5b505050565b5f810361035a576040517f1f2a200500000000000000000000000000000000000000000000000000000000815260040160405180910390fd5b8060045f3373ffffffffffffffffffffffffffffffffffffffff1673ffffffffffffffffffffffffffffffffffffffff1681526020019081526020015f205410156103d1576040517ff4d678b800000000000000000000000000000000000000000000000000000000815260040160405180910390fd5b8060045f3373ffffffffffffffffffffffffffffffffffffffff1673ffffffffffffffffffffffffffffffffffffffff1681526020019081526020015f205f82825461041d9190610d11565b925050819055508060035f8282546104359190610d11565b925050819055505f5f5f9054906101000a900473ffffffffffffffffffffffffffffffffffffffff1673ffffffffffffffffffffffffffffffffffffffff1663a9059cbb33846040518363ffffffff1660e01b8152600401610498929190610c5d565b6020604051808303815f875af11580156104b4573d5f5f3e3d5ffd5b505050506040513d601f19601f820116820180604052508101906104d89190610cb9565b905080610511576040517ff4d678b800000000000000000000000000000000000000000000000000000000815260040160405180910390fd5b3373ffffffffffffffffffffffffffffffffffffffff167f7084f5476618d8e60b11ef0d7d3f06914655adb8793e28ff7f018d4c76d505d5836040516105579190610c44565b60405180910390a25050565b5f60045f3373ffffffffffffffffffffffffffffffffffffffff1673ffffffffffffffffffffffffffffffffffffffff1681526020019081526020015f205490505f81036105dd576040517ff4d678b800000000000000000000000000000000000000000000000000000000815260040160405180910390fd5b5f670de0b6b3a7640000600554836105f59190610d44565b6105ff9190610db2565b90505f670de0b6b3a7640000600654846106199190610d44565b6106239190610db2565b90505f60015f9054906101000a900473ffffffffffffffffffffffffffffffffffffffff1673ffffffffffffffffffffffffffffffffffffffff1663a9059cbb33856040518363ffffffff1660e01b8152600401610682929190610c5d565b6020604051808303815f875af115801561069e573d5f5f3e3d5ffd5b505050506040513d601f19601f820116820180604052508101906106c29190610cb9565b90505f60025f9054906101000a900473ffffffffffffffffffffffffffffffffffffffff1673ffffffffffffffffffffffffffffffffffffffff1663a9059cbb33856040518363ffffffff1660e01b8152600401610721929190610c5d565b6020604051808303815f875af115801561073d573d5f5f3e3d5ffd5b505050506040513d601f19601f820116820180604052508101906107619190610cb9565b905081158061076e575080155b156107a5576040517ff4d678b800000000000000000000000000000000000000000000000000000000815260040160405180910390fd5b3373ffffffffffffffffffffffffffffffffffffffff167fdacbdde355ba930696a362ea6738feb9f8bd52dfb3d81947558fd3217e23e32585856040516107ed929190610de2565b60405180910390a25050505050565b60075f9054906101000a900473ffffffffffffffffffffffffffffffffffffffff1673ffffffffffffffffffffffffffffffffffffffff163373ffffffffffffffffffffffffffffffffffffffff1614610882576040517f82b4290000000000000000000000000000000000000000000000000000000000815260040160405180910390fd5b81600581905550806006819055505050565b5f5f9054906101000a900473ffffffffffffffffffffffffffffffffffffffff1681565b60015f9054906101000a900473ffffffffffffffffffffffffffffffffffffffff1681565b60035481565b5f810361091c576040517f1f2a200500000000000000000000000000000000000000000000000000000000815260040160405180910390fd5b5f5f5f9054906101000a900473ffffffffffffffffffffffffffffffffffffffff1673ffffffffffffffffffffffffffffffffffffffff166323b872dd3330856040518463ffffffff1660e01b815260040161097a93929190610e09565b6020604051808303815f875af1158015610996573d5f5f3e3d5ffd5b505050506040513d601f19601f820116820180604052508101906109ba9190610cb9565b9050806109f3576040517ff4d678b800000000000000000000000000000000000000000000000000000000815260040160405180910390fd5b8160045f3373ffffffffffffffffffffffffffffffffffffffff1673ffffffffffffffffffffffffffffffffffffffff1681526020019081526020015f205f828254610a3f9190610e3e565b925050819055508160035f828254610a579190610e3e565b925050819055503373ffffffffffffffffffffffffffffffffffffffff167f9e71bc8eea02a63969f509818f2dafb9254532904319f9dbda79b67bd34a5f3d83604051610aa49190610c44565b60405180910390a25050565b60025f9054906101000a900473ffffffffffffffffffffffffffffffffffffffff1681565b5f5ffd5b5f73ffffffffffffffffffffffffffffffffffffffff82169050919050565b5f610b0282610ad9565b9050919050565b610b1281610af8565b8114610b1c575f5ffd5b50565b5f81359050610b2d81610b09565b92915050565b5f819050919050565b610b4581610b33565b8114610b4f575f5ffd5b50565b5f81359050610b6081610b3c565b92915050565b5f5f60408385031215610b7c57610b7b610ad5565b5b5f610b8985828601610b1f565b9250506020610b9a85828601610b52565b9150509250929050565b5f60208284031215610bb957610bb8610ad5565b5b5f610bc684828501610b52565b91505092915050565b5f5f60408385031215610be557610be4610ad5565b5b5f610bf285828601610b52565b9250506020610c0385828601610b52565b9150509250929050565b610c1681610af8565b82525050565b5f602082019050610c2f5f830184610c0d565b92915050565b610c3e81610b33565b82525050565b5f602082019050610c575f830184610c35565b92915050565b5f604082019050610c705f830185610c0d565b610c7d6020830184610c35565b9392505050565b5f8115159050919050565b610c9881610c84565b8114610ca2575f5ffd5b50565b5f81519050610cb381610c8f565b92915050565b5f60208284031215610cce57610ccd610ad5565b5b5f610cdb84828501610ca5565b91505092915050565b7f4e487b71000000000000000000000000000000000000000000000000000000005f52601160045260245ffd5b5f610d1b82610b33565b9150610d2683610b33565b9250828203905081811115610d3e57610d3d610ce4565b5b92915050565b5f610d4e82610b33565b9150610d5983610b33565b9250828202610d6781610b33565b91508282048414831517610d7e57610d7d610ce4565b5b5092915050565b7f4e487b71000000000000000000000000000000000000000000000000000000005f52601260045260245ffd5b5f610dbc82610b33565b9150610dc783610b33565b925082610dd757610dd6610d85565b5b828204905092915050565b5f604082019050610df55f830185610c35565b610e026020830184610c35565b9392505050565b5f606082019050610e1c5f830186610c0d565b610e296020830185610c0d565b610e366040830184610c35565b949350505050565b5f610e4882610b33565b9150610e5383610b33565b9250828201905080821115610e6b57610e6a610ce4565b5b9291505056fea2646970667358221220952236e412625ca12ed9f3f27dd76f2cfd2c06a98b871c532ec9eaf45f655ea464736f6c634300081e0033",
					"opcodes": "PUSH1 0x80 PUSH1 0x40 MSTORE CALLVALUE DUP1 ISZERO PUSH2 0xF JUMPI PUSH0 PUSH0 REVERT JUMPDEST POP PUSH1 0x40 MLOAD PUSH2 0x109A CODESIZE SUB DUP1 PUSH2 0x109A DUP4 CODECOPY DUP2 DUP2 ADD PUSH1 0x40 MSTORE DUP2 ADD SWAP1 PUSH2 0x31 SWAP2 SWAP1 PUSH2 0x196 JUMP JUMPDEST DUP3 PUSH0 PUSH0 PUSH2 0x100 EXP DUP2 SLOAD DUP2 PUSH20 0xFFFFFFFFFFFFFFFFFFFFFFFFFFFFFFFFFFFFFFFF MUL NOT AND SWAP1 DUP4 PUSH20 0xFFFFFFFFFFFFFFFFFFFFFFFFFFFFFFFFFFFFFFFF AND MUL OR SWAP1 SSTORE POP DUP2 PUSH1 0x1 PUSH0 PUSH2 0x100 EXP DUP2 SLOAD DUP2 PUSH20 0xFFFFFFFFFFFFFFFFFFFFFFFFFFFFFFFFFFFFFFFF MUL NOT AND SWAP1 DUP4 PUSH20 0xFFFFFFFFFFFFFFFFFFFFFFFFFFFFFFFFFFFFFFFF AND MUL OR SWAP1 SSTORE POP DUP1 PUSH1 0x2 PUSH0 PUSH2 0x100 EXP DUP2 SLOAD DUP2 PUSH20 0xFFFFFFFFFFFFFFFFFFFFFFFFFFFFFFFFFFFFFFFF MUL NOT AND SWAP1 DUP4 PUSH20 0xFFFFFFFFFFFFFFFFFFFFFFFFFFFFFFFFFFFFFFFF AND MUL OR SWAP1 SSTORE POP CALLER PUSH1 0x7 PUSH0 PUSH2 0x100 EXP DUP2 SLOAD DUP2 PUSH20 0xFFFFFFFFFFFFFFFFFFFFFFFFFFFFFFFFFFFFFFFF MUL NOT AND SWAP1 DUP4 PUSH20 0xFFFFFFFFFFFFFFFFFFFFFFFFFFFFFFFFFFFFFFFF AND MUL OR SWAP1 SSTORE POP POP POP POP PUSH2 0x1E6 JUMP JUMPDEST PUSH0 PUSH0 REVERT JUMPDEST PUSH0 PUSH20 0xFFFFFFFFFFFFFFFFFFFFFFFFFFFFFFFFFFFFFFFF DUP3 AND SWAP1 POP SWAP2 SWAP1 POP JUMP JUMPDEST PUSH0 PUSH2 0x165 DUP3 PUSH2 0x13C JUMP JUMPDEST SWAP1 POP SWAP2 SWAP1 POP JUMP JUMPDEST PUSH2 0x175 DUP2 PUSH2 0x15B JUMP JUMPDEST DUP2 EQ PUSH2 0x17F JUMPI PUSH0 PUSH0 REVERT JUMPDEST POP JUMP JUMPDEST PUSH0 DUP2 MLOAD SWAP1 POP PUSH2 0x190 DUP2 PUSH2 0x16C JUMP JUMPDEST SWAP3 SWAP2 POP POP JUMP JUMPDEST PUSH0 PUSH0 PUSH0 PUSH1 0x60 DUP5 DUP7 SUB SLT ISZERO PUSH2 0x1AD JUMPI PUSH2 0x1AC PUSH2 0x138 JUMP JUMPDEST JUMPDEST PUSH0 PUSH2 0x1BA DUP7 DUP3 DUP8 ADD PUSH2 0x182 JUMP JUMPDEST SWAP4 POP POP PUSH1 0x20 PUSH2 0x1CB DUP7 DUP3 DUP8 ADD PUSH2 0x182 JUMP JUMPDEST SWAP3 POP POP PUSH1 0x40 PUSH2 0x1DC DUP7 DUP3 DUP8 ADD PUSH2 0x182 JUMP JUMPDEST SWAP2 POP POP SWAP3 POP SWAP3 POP SWAP3 JUMP JUMPDEST PUSH2 0xEA7 DUP1 PUSH2 0x1F3 PUSH0 CODECOPY PUSH0 RETURN INVALID PUSH1 0x80 PUSH1 0x40 MSTORE CALLVALUE DUP1 ISZERO PUSH2 0xF JUMPI PUSH0 PUSH0 REVERT JUMPDEST POP PUSH1 0x4 CALLDATASIZE LT PUSH2 0x91 JUMPI PUSH0 CALLDATALOAD PUSH1 0xE0 SHR DUP1 PUSH4 0x51ED6A30 GT PUSH2 0x64 JUMPI DUP1 PUSH4 0x51ED6A30 EQ PUSH2 0xF3 JUMPI DUP1 PUSH4 0x6F28D688 EQ PUSH2 0x111 JUMPI DUP1 PUSH4 0x817B1CD2 EQ PUSH2 0x12F JUMPI DUP1 PUSH4 0xA694FC3A EQ PUSH2 0x14D JUMPI DUP1 PUSH4 0xD61A47F1 EQ PUSH2 0x169 JUMPI PUSH2 0x91 JUMP JUMPDEST DUP1 PUSH4 0x6B091F9 EQ PUSH2 0x95 JUMPI DUP1 PUSH4 0x2E1A7D4D EQ PUSH2 0xB1 JUMPI DUP1 PUSH4 0x372500AB EQ PUSH2 0xCD JUMPI DUP1 PUSH4 0x37BA04A0 EQ PUSH2 0xD7 JUMPI JUMPDEST PUSH0 PUSH0 REVERT JUMPDEST PUSH2 0xAF PUSH1 0x4 DUP1 CALLDATASIZE SUB DUP2 ADD SWAP1 PUSH2 0xAA SWAP2 SWAP1 PUSH2 0xB66 JUMP JUMPDEST PUSH2 0x187 JUMP JUMPDEST STOP JUMPDEST PUSH2 0xCB PUSH1 0x4 DUP1 CALLDATASIZE SUB DUP2 ADD SWAP1 PUSH2 0xC6 SWAP2 SWAP1 PUSH2 0xBA4 JUMP JUMPDEST PUSH2 0x321 JUMP JUMPDEST STOP JUMPDEST PUSH2 0xD5 PUSH2 0x563 JUMP JUMPDEST STOP JUMPDEST PUSH2 0xF1 PUSH1 0x4 DUP1 CALLDATASIZE SUB DUP2 ADD SWAP1 PUSH2 0xEC SWAP2 SWAP1 PUSH2 0xBCF JUMP JUMPDEST PUSH2 0x7FC JUMP JUMPDEST STOP JUMPDEST PUSH2 0xFB PUSH2 0x894 JUMP JUMPDEST PUSH1 0x40 MLOAD PUSH2 0x108 SWAP2 SWAP1 PUSH2 0xC1C JUMP JUMPDEST PUSH1 0x40 MLOAD DUP1 SWAP2 SUB SWAP1 RETURN JUMPDEST PUSH2 0x119 PUSH2 0x8B8 JUMP JUMPDEST PUSH1 0x40 MLOAD PUSH2 0x126 SWAP2 SWAP1 PUSH2 0xC1C JUMP JUMPDEST PUSH1 0x40 MLOAD DUP1 SWAP2 SUB SWAP1 RETURN JUMPDEST PUSH2 0x137 PUSH2 0x8DD JUMP JUMPDEST PUSH1 0x40 MLOAD PUSH2 0x144 SWAP2 SWAP1 PUSH2 0xC44 JUMP JUMPDEST PUSH1 0x40 MLOAD DUP1 SWAP2 SUB SWAP1 RETURN JUMPDEST PUSH2 0x167 PUSH1 0x4 DUP1 CALLDATASIZE SUB DUP2 ADD SWAP1 PUSH2 0x162 SWAP2 SWAP1 PUSH2 0xBA4 JUMP JUMPDEST PUSH2 0x8E3 JUMP JUMPDEST STOP JUMPDEST PUSH2 0x171 PUSH2 0xAB0 JUMP JUMPDEST PUSH1 0x40 MLOAD PUSH2 0x17E SWAP2 SWAP1 PUSH2 0xC1C JUMP JUMPDEST PUSH1 0x40 MLOAD DUP1 SWAP2 SUB SWAP1 RETURN JUMPDEST PUSH1 0x7 PUSH0 SWAP1 SLOAD SWAP1 PUSH2 0x100 EXP SWAP1 DIV PUSH20 0xFFFFFFFFFFFFFFFFFFFFFFFFFFFFFFFFFFFFFFFF AND PUSH20 0xFFFFFFFFFFFFFFFFFFFFFFFFFFFFFFFFFFFFFFFF AND CALLER PUSH20 0xFFFFFFFFFFFFFFFFFFFFFFFFFFFFFFFFFFFFFFFF AND EQ PUSH2 0x20D JUMPI PUSH1 0x40 MLOAD PUSH32 0x82B4290000000000000000000000000000000000000000000000000000000000 DUP2 MSTORE PUSH1 0x4 ADD PUSH1 0x40 MLOAD DUP1 SWAP2 SUB SWAP1 REVERT JUMPDEST PUSH0 DUP2 SUB PUSH2 0x246 JUMPI PUSH1 0x40 MLOAD PUSH32 0x1F2A200500000000000000000000000000000000000000000000000000000000 DUP2 MSTORE PUSH1 0x4 ADD PUSH1 0x40 MLOAD DUP1 SWAP2 SUB SWAP1 REVERT JUMPDEST PUSH0 DUP3 PUSH20 0xFFFFFFFFFFFFFFFFFFFFFFFFFFFFFFFFFFFFFFFF AND PUSH4 0xA9059CBB PUSH1 0x7 PUSH0 SWAP1 SLOAD SWAP1 PUSH2 0x100 EXP SWAP1 DIV PUSH20 0xFFFFFFFFFFFFFFFFFFFFFFFFFFFFFFFFFFFFFFFF AND DUP5 PUSH1 0x40 MLOAD DUP4 PUSH4 0xFFFFFFFF AND PUSH1 0xE0 SHL DUP2 MSTORE PUSH1 0x4 ADD PUSH2 0x2A3 SWAP3 SWAP2 SWAP1 PUSH2 0xC5D JUMP JUMPDEST PUSH1 0x20 PUSH1 0x40 MLOAD DUP1 DUP4 SUB DUP2 PUSH0 DUP8 GAS CALL ISZERO DUP1 ISZERO PUSH2 0x2BF JUMPI RETURNDATASIZE PUSH0 PUSH0 RETURNDATACOPY RETURNDATASIZE PUSH0 REVERT JUMPDEST POP POP POP POP PUSH1 0x40 MLOAD RETURNDATASIZE PUSH1 0x1F NOT PUSH1 0x1F DUP3 ADD AND DUP3 ADD DUP1 PUSH1 0x40 MSTORE POP DUP2 ADD SWAP1 PUSH2 0x2E3 SWAP2 SWAP1 PUSH2 0xCB9 JUMP JUMPDEST SWAP1 POP DUP1 PUSH2 0x31C JUMPI PUSH1 0x40 MLOAD PUSH32 0xF4D678B800000000000000000000000000000000000000000000000000000000 DUP2 MSTORE PUSH1 0x4 ADD PUSH1 0x40 MLOAD DUP1 SWAP2 SUB SWAP1 REVERT JUMPDEST POP POP POP JUMP JUMPDEST PUSH0 DUP2 SUB PUSH2 0x35A JUMPI PUSH1 0x40 MLOAD PUSH32 0x1F2A200500000000000000000000000000000000000000000000000000000000 DUP2 MSTORE PUSH1 0x4 ADD PUSH1 0x40 MLOAD DUP1 SWAP2 SUB SWAP1 REVERT JUMPDEST DUP1 PUSH1 0x4 PUSH0 CALLER PUSH20 0xFFFFFFFFFFFFFFFFFFFFFFFFFFFFFFFFFFFFFFFF AND PUSH20 0xFFFFFFFFFFFFFFFFFFFFFFFFFFFFFFFFFFFFFFFF AND DUP2 MSTORE PUSH1 0x20 ADD SWAP1 DUP2 MSTORE PUSH1 0x20 ADD PUSH0 KECCAK256 SLOAD LT ISZERO PUSH2 0x3D1 JUMPI PUSH1 0x40 MLOAD PUSH32 0xF4D678B800000000000000000000000000000000000000000000000000000000 DUP2 MSTORE PUSH1 0x4 ADD PUSH1 0x40 MLOAD DUP1 SWAP2 SUB SWAP1 REVERT JUMPDEST DUP1 PUSH1 0x4 PUSH0 CALLER PUSH20 0xFFFFFFFFFFFFFFFFFFFFFFFFFFFFFFFFFFFFFFFF AND PUSH20 0xFFFFFFFFFFFFFFFFFFFFFFFFFFFFFFFFFFFFFFFF AND DUP2 MSTORE PUSH1 0x20 ADD SWAP1 DUP2 MSTORE PUSH1 0x20 ADD PUSH0 KECCAK256 PUSH0 DUP3 DUP3 SLOAD PUSH2 0x41D SWAP2 SWAP1 PUSH2 0xD11 JUMP JUMPDEST SWAP3 POP POP DUP2 SWAP1 SSTORE POP DUP1 PUSH1 0x3 PUSH0 DUP3 DUP3 SLOAD PUSH2 0x435 SWAP2 SWAP1 PUSH2 0xD11 JUMP JUMPDEST SWAP3 POP POP DUP2 SWAP1 SSTORE POP PUSH0 PUSH0 PUSH0 SWAP1 SLOAD SWAP1 PUSH2 0x100 EXP SWAP1 DIV PUSH20 0xFFFFFFFFFFFFFFFFFFFFFFFFFFFFFFFFFFFFFFFF AND PUSH20 0xFFFFFFFFFFFFFFFFFFFFFFFFFFFFFFFFFFFFFFFF AND PUSH4 0xA9059CBB CALLER DUP5 PUSH1 0x40 MLOAD DUP4 PUSH4 0xFFFFFFFF AND PUSH1 0xE0 SHL DUP2 MSTORE PUSH1 0x4 ADD PUSH2 0x498 SWAP3 SWAP2 SWAP1 PUSH2 0xC5D JUMP JUMPDEST PUSH1 0x20 PUSH1 0x40 MLOAD DUP1 DUP4 SUB DUP2 PUSH0 DUP8 GAS CALL ISZERO DUP1 ISZERO PUSH2 0x4B4 JUMPI RETURNDATASIZE PUSH0 PUSH0 RETURNDATACOPY RETURNDATASIZE PUSH0 REVERT JUMPDEST POP POP POP POP PUSH1 0x40 MLOAD RETURNDATASIZE PUSH1 0x1F NOT PUSH1 0x1F DUP3 ADD AND DUP3 ADD DUP1 PUSH1 0x40 MSTORE POP DUP2 ADD SWAP1 PUSH2 0x4D8 SWAP2 SWAP1 PUSH2 0xCB9 JUMP JUMPDEST SWAP1 POP DUP1 PUSH2 0x511 JUMPI PUSH1 0x40 MLOAD PUSH32 0xF4D678B800000000000000000000000000000000000000000000000000000000 DUP2 MSTORE PUSH1 0x4 ADD PUSH1 0x40 MLOAD DUP1 SWAP2 SUB SWAP1 REVERT JUMPDEST CALLER PUSH20 0xFFFFFFFFFFFFFFFFFFFFFFFFFFFFFFFFFFFFFFFF AND PUSH32 0x7084F5476618D8E60B11EF0D7D3F06914655ADB8793E28FF7F018D4C76D505D5 DUP4 PUSH1 0x40 MLOAD PUSH2 0x557 SWAP2 SWAP1 PUSH2 0xC44 JUMP JUMPDEST PUSH1 0x40 MLOAD DUP1 SWAP2 SUB SWAP1 LOG2 POP POP JUMP JUMPDEST PUSH0 PUSH1 0x4 PUSH0 CALLER PUSH20 0xFFFFFFFFFFFFFFFFFFFFFFFFFFFFFFFFFFFFFFFF AND PUSH20 0xFFFFFFFFFFFFFFFFFFFFFFFFFFFFFFFFFFFFFFFF AND DUP2 MSTORE PUSH1 0x20 ADD SWAP1 DUP2 MSTORE PUSH1 0x20 ADD PUSH0 KECCAK256 SLOAD SWAP1 POP PUSH0 DUP2 SUB PUSH2 0x5DD JUMPI PUSH1 0x40 MLOAD PUSH32 0xF4D678B800000000000000000000000000000000000000000000000000000000 DUP2 MSTORE PUSH1 0x4 ADD PUSH1 0x40 MLOAD DUP1 SWAP2 SUB SWAP1 REVERT JUMPDEST PUSH0 PUSH8 0xDE0B6B3A7640000 PUSH1 0x5 SLOAD DUP4 PUSH2 0x5F5 SWAP2 SWAP1 PUSH2 0xD44 JUMP JUMPDEST PUSH2 0x5FF SWAP2 SWAP1 PUSH2 0xDB2 JUMP JUMPDEST SWAP1 POP PUSH0 PUSH8 0xDE0B6B3A7640000 PUSH1 0x6 SLOAD DUP5 PUSH2 0x619 SWAP2 SWAP1 PUSH2 0xD44 JUMP JUMPDEST PUSH2 0x623 SWAP2 SWAP1 PUSH2 0xDB2 JUMP JUMPDEST SWAP1 POP PUSH0 PUSH1 0x1 PUSH0 SWAP1 SLOAD SWAP1 PUSH2 0x100 EXP SWAP1 DIV PUSH20 0xFFFFFFFFFFFFFFFFFFFFFFFFFFFFFFFFFFFFFFFF AND PUSH20 0xFFFFFFFFFFFFFFFFFFFFFFFFFFFFFFFFFFFFFFFF AND PUSH4 0xA9059CBB CALLER DUP6 PUSH1 0x40 MLOAD DUP4 PUSH4 0xFFFFFFFF AND PUSH1 0xE0 SHL DUP2 MSTORE PUSH1 0x4 ADD PUSH2 0x682 SWAP3 SWAP2 SWAP1 PUSH2 0xC5D JUMP JUMPDEST PUSH1 0x20 PUSH1 0x40 MLOAD DUP1 DUP4 SUB DUP2 PUSH0 DUP8 GAS CALL ISZERO DUP1 ISZERO PUSH2 0x69E JUMPI RETURNDATASIZE PUSH0 PUSH0 RETURNDATACOPY RETURNDATASIZE PUSH0 REVERT JUMPDEST POP POP POP POP PUSH1 0x40 MLOAD RETURNDATASIZE PUSH1 0x1F NOT PUSH1 0x1F DUP3 ADD AND DUP3 ADD DUP1 PUSH1 0x40 MSTORE POP DUP2 ADD SWAP1 PUSH2 0x6C2 SWAP2 SWAP1 PUSH2 0xCB9 JUMP JUMPDEST SWAP1 POP PUSH0 PUSH1 0x2 PUSH0 SWAP1 SLOAD SWAP1 PUSH2 0x100 EXP SWAP1 DIV PUSH20 0xFFFFFFFFFFFFFFFFFFFFFFFFFFFFFFFFFFFFFFFF AND PUSH20 0xFFFFFFFFFFFFFFFFFFFFFFFFFFFFFFFFFFFFFFFF AND PUSH4 0xA9059CBB CALLER DUP6 PUSH1 0x40 MLOAD DUP4 PUSH4 0xFFFFFFFF AND PUSH1 0xE0 SHL DUP2 MSTORE PUSH1 0x4 ADD PUSH2 0x721 SWAP3 SWAP2 SWAP1 PUSH2 0xC5D JUMP JUMPDEST PUSH1 0x20 PUSH1 0x40 MLOAD DUP1 DUP4 SUB DUP2 PUSH0 DUP8 GAS CALL ISZERO DUP1 ISZERO PUSH2 0x73D JUMPI RETURNDATASIZE PUSH0 PUSH0 RETURNDATACOPY RETURNDATASIZE PUSH0 REVERT JUMPDEST POP POP POP POP PUSH1 0x40 MLOAD RETURNDATASIZE PUSH1 0x1F NOT PUSH1 0x1F DUP3 ADD AND DUP3 ADD DUP1 PUSH1 0x40 MSTORE POP DUP2 ADD SWAP1 PUSH2 0x761 SWAP2 SWAP1 PUSH2 0xCB9 JUMP JUMPDEST SWAP1 POP DUP2 ISZERO DUP1 PUSH2 0x76E JUMPI POP DUP1 ISZERO JUMPDEST ISZERO PUSH2 0x7A5 JUMPI PUSH1 0x40 MLOAD PUSH32 0xF4D678B800000000000000000000000000000000000000000000000000000000 DUP2 MSTORE PUSH1 0x4 ADD PUSH1 0x40 MLOAD DUP1 SWAP2 SUB SWAP1 REVERT JUMPDEST CALLER PUSH20 0xFFFFFFFFFFFFFFFFFFFFFFFFFFFFFFFFFFFFFFFF AND PUSH32 0xDACBDDE355BA930696A362EA6738FEB9F8BD52DFB3D81947558FD3217E23E325 DUP6 DUP6 PUSH1 0x40 MLOAD PUSH2 0x7ED SWAP3 SWAP2 SWAP1 PUSH2 0xDE2 JUMP JUMPDEST PUSH1 0x40 MLOAD DUP1 SWAP2 SUB SWAP1 LOG2 POP POP POP POP POP JUMP JUMPDEST PUSH1 0x7 PUSH0 SWAP1 SLOAD SWAP1 PUSH2 0x100 EXP SWAP1 DIV PUSH20 0xFFFFFFFFFFFFFFFFFFFFFFFFFFFFFFFFFFFFFFFF AND PUSH20 0xFFFFFFFFFFFFFFFFFFFFFFFFFFFFFFFFFFFFFFFF AND CALLER PUSH20 0xFFFFFFFFFFFFFFFFFFFFFFFFFFFFFFFFFFFFFFFF AND EQ PUSH2 0x882 JUMPI PUSH1 0x40 MLOAD PUSH32 0x82B4290000000000000000000000000000000000000000000000000000000000 DUP2 MSTORE PUSH1 0x4 ADD PUSH1 0x40 MLOAD DUP1 SWAP2 SUB SWAP1 REVERT JUMPDEST DUP2 PUSH1 0x5 DUP2 SWAP1 SSTORE POP DUP1 PUSH1 0x6 DUP2 SWAP1 SSTORE POP POP POP JUMP JUMPDEST PUSH0 PUSH0 SWAP1 SLOAD SWAP1 PUSH2 0x100 EXP SWAP1 DIV PUSH20 0xFFFFFFFFFFFFFFFFFFFFFFFFFFFFFFFFFFFFFFFF AND DUP2 JUMP JUMPDEST PUSH1 0x1 PUSH0 SWAP1 SLOAD SWAP1 PUSH2 0x100 EXP SWAP1 DIV PUSH20 0xFFFFFFFFFFFFFFFFFFFFFFFFFFFFFFFFFFFFFFFF AND DUP2 JUMP JUMPDEST PUSH1 0x3 SLOAD DUP2 JUMP JUMPDEST PUSH0 DUP2 SUB PUSH2 0x91C JUMPI PUSH1 0x40 MLOAD PUSH32 0x1F2A200500000000000000000000000000000000000000000000000000000000 DUP2 MSTORE PUSH1 0x4 ADD PUSH1 0x40 MLOAD DUP1 SWAP2 SUB SWAP1 REVERT JUMPDEST PUSH0 PUSH0 PUSH0 SWAP1 SLOAD SWAP1 PUSH2 0x100 EXP SWAP1 DIV PUSH20 0xFFFFFFFFFFFFFFFFFFFFFFFFFFFFFFFFFFFFFFFF AND PUSH20 0xFFFFFFFFFFFFFFFFFFFFFFFFFFFFFFFFFFFFFFFF AND PUSH4 0x23B872DD CALLER ADDRESS DUP6 PUSH1 0x40 MLOAD DUP5 PUSH4 0xFFFFFFFF AND PUSH1 0xE0 SHL DUP2 MSTORE PUSH1 0x4 ADD PUSH2 0x97A SWAP4 SWAP3 SWAP2 SWAP1 PUSH2 0xE09 JUMP JUMPDEST PUSH1 0x20 PUSH1 0x40 MLOAD DUP1 DUP4 SUB DUP2 PUSH0 DUP8 GAS CALL ISZERO DUP1 ISZERO PUSH2 0x996 JUMPI RETURNDATASIZE PUSH0 PUSH0 RETURNDATACOPY RETURNDATASIZE PUSH0 REVERT JUMPDEST POP POP POP POP PUSH1 0x40 MLOAD RETURNDATASIZE PUSH1 0x1F NOT PUSH1 0x1F DUP3 ADD AND DUP3 ADD DUP1 PUSH1 0x40 MSTORE POP DUP2 ADD SWAP1 PUSH2 0x9BA SWAP2 SWAP1 PUSH2 0xCB9 JUMP JUMPDEST SWAP1 POP DUP1 PUSH2 0x9F3 JUMPI PUSH1 0x40 MLOAD PUSH32 0xF4D678B800000000000000000000000000000000000000000000000000000000 DUP2 MSTORE PUSH1 0x4 ADD PUSH1 0x40 MLOAD DUP1 SWAP2 SUB SWAP1 REVERT JUMPDEST DUP2 PUSH1 0x4 PUSH0 CALLER PUSH20 0xFFFFFFFFFFFFFFFFFFFFFFFFFFFFFFFFFFFFFFFF AND PUSH20 0xFFFFFFFFFFFFFFFFFFFFFFFFFFFFFFFFFFFFFFFF AND DUP2 MSTORE PUSH1 0x20 ADD SWAP1 DUP2 MSTORE PUSH1 0x20 ADD PUSH0 KECCAK256 PUSH0 DUP3 DUP3 SLOAD PUSH2 0xA3F SWAP2 SWAP1 PUSH2 0xE3E JUMP JUMPDEST SWAP3 POP POP DUP2 SWAP1 SSTORE POP DUP2 PUSH1 0x3 PUSH0 DUP3 DUP3 SLOAD PUSH2 0xA57 SWAP2 SWAP1 PUSH2 0xE3E JUMP JUMPDEST SWAP3 POP POP DUP2 SWAP1 SSTORE POP CALLER PUSH20 0xFFFFFFFFFFFFFFFFFFFFFFFFFFFFFFFFFFFFFFFF AND PUSH32 0x9E71BC8EEA02A63969F509818F2DAFB9254532904319F9DBDA79B67BD34A5F3D DUP4 PUSH1 0x40 MLOAD PUSH2 0xAA4 SWAP2 SWAP1 PUSH2 0xC44 JUMP JUMPDEST PUSH1 0x40 MLOAD DUP1 SWAP2 SUB SWAP1 LOG2 POP POP JUMP JUMPDEST PUSH1 0x2 PUSH0 SWAP1 SLOAD SWAP1 PUSH2 0x100 EXP SWAP1 DIV PUSH20 0xFFFFFFFFFFFFFFFFFFFFFFFFFFFFFFFFFFFFFFFF AND DUP2 JUMP JUMPDEST PUSH0 PUSH0 REVERT JUMPDEST PUSH0 PUSH20 0xFFFFFFFFFFFFFFFFFFFFFFFFFFFFFFFFFFFFFFFF DUP3 AND SWAP1 POP SWAP2 SWAP1 POP JUMP JUMPDEST PUSH0 PUSH2 0xB02 DUP3 PUSH2 0xAD9 JUMP JUMPDEST SWAP1 POP SWAP2 SWAP1 POP JUMP JUMPDEST PUSH2 0xB12 DUP2 PUSH2 0xAF8 JUMP JUMPDEST DUP2 EQ PUSH2 0xB1C JUMPI PUSH0 PUSH0 REVERT JUMPDEST POP JUMP JUMPDEST PUSH0 DUP2 CALLDATALOAD SWAP1 POP PUSH2 0xB2D DUP2 PUSH2 0xB09 JUMP JUMPDEST SWAP3 SWAP2 POP POP JUMP JUMPDEST PUSH0 DUP2 SWAP1 POP SWAP2 SWAP1 POP JUMP JUMPDEST PUSH2 0xB45 DUP2 PUSH2 0xB33 JUMP JUMPDEST DUP2 EQ PUSH2 0xB4F JUMPI PUSH0 PUSH0 REVERT JUMPDEST POP JUMP JUMPDEST PUSH0 DUP2 CALLDATALOAD SWAP1 POP PUSH2 0xB60 DUP2 PUSH2 0xB3C JUMP JUMPDEST SWAP3 SWAP2 POP POP JUMP JUMPDEST PUSH0 PUSH0 PUSH1 0x40 DUP4 DUP6 SUB SLT ISZERO PUSH2 0xB7C JUMPI PUSH2 0xB7B PUSH2 0xAD5 JUMP JUMPDEST JUMPDEST PUSH0 PUSH2 0xB89 DUP6 DUP3 DUP7 ADD PUSH2 0xB1F JUMP JUMPDEST SWAP3 POP POP PUSH1 0x20 PUSH2 0xB9A DUP6 DUP3 DUP7 ADD PUSH2 0xB52 JUMP JUMPDEST SWAP2 POP POP SWAP3 POP SWAP3 SWAP1 POP JUMP JUMPDEST PUSH0 PUSH1 0x20 DUP3 DUP5 SUB SLT ISZERO PUSH2 0xBB9 JUMPI PUSH2 0xBB8 PUSH2 0xAD5 JUMP JUMPDEST JUMPDEST PUSH0 PUSH2 0xBC6 DUP5 DUP3 DUP6 ADD PUSH2 0xB52 JUMP JUMPDEST SWAP2 POP POP SWAP3 SWAP2 POP POP JUMP JUMPDEST PUSH0 PUSH0 PUSH1 0x40 DUP4 DUP6 SUB SLT ISZERO PUSH2 0xBE5 JUMPI PUSH2 0xBE4 PUSH2 0xAD5 JUMP JUMPDEST JUMPDEST PUSH0 PUSH2 0xBF2 DUP6 DUP3 DUP7 ADD PUSH2 0xB52 JUMP JUMPDEST SWAP3 POP POP PUSH1 0x20 PUSH2 0xC03 DUP6 DUP3 DUP7 ADD PUSH2 0xB52 JUMP JUMPDEST SWAP2 POP POP SWAP3 POP SWAP3 SWAP1 POP JUMP JUMPDEST PUSH2 0xC16 DUP2 PUSH2 0xAF8 JUMP JUMPDEST DUP3 MSTORE POP POP JUMP JUMPDEST PUSH0 PUSH1 0x20 DUP3 ADD SWAP1 POP PUSH2 0xC2F PUSH0 DUP4 ADD DUP5 PUSH2 0xC0D JUMP JUMPDEST SWAP3 SWAP2 POP POP JUMP JUMPDEST PUSH2 0xC3E DUP2 PUSH2 0xB33 JUMP JUMPDEST DUP3 MSTORE POP POP JUMP JUMPDEST PUSH0 PUSH1 0x20 DUP3 ADD SWAP1 POP PUSH2 0xC57 PUSH0 DUP4 ADD DUP5 PUSH2 0xC35 JUMP JUMPDEST SWAP3 SWAP2 POP POP JUMP JUMPDEST PUSH0 PUSH1 0x40 DUP3 ADD SWAP1 POP PUSH2 0xC70 PUSH0 DUP4 ADD DUP6 PUSH2 0xC0D JUMP JUMPDEST PUSH2 0xC7D PUSH1 0x20 DUP4 ADD DUP5 PUSH2 0xC35 JUMP JUMPDEST SWAP4 SWAP3 POP POP POP JUMP JUMPDEST PUSH0 DUP2 ISZERO ISZERO SWAP1 POP SWAP2 SWAP1 POP JUMP JUMPDEST PUSH2 0xC98 DUP2 PUSH2 0xC84 JUMP JUMPDEST DUP2 EQ PUSH2 0xCA2 JUMPI PUSH0 PUSH0 REVERT JUMPDEST POP JUMP JUMPDEST PUSH0 DUP2 MLOAD SWAP1 POP PUSH2 0xCB3 DUP2 PUSH2 0xC8F JUMP JUMPDEST SWAP3 SWAP2 POP POP JUMP JUMPDEST PUSH0 PUSH1 0x20 DUP3 DUP5 SUB SLT ISZERO PUSH2 0xCCE JUMPI PUSH2 0xCCD PUSH2 0xAD5 JUMP JUMPDEST JUMPDEST PUSH0 PUSH2 0xCDB DUP5 DUP3 DUP6 ADD PUSH2 0xCA5 JUMP JUMPDEST SWAP2 POP POP SWAP3 SWAP2 POP POP JUMP JUMPDEST PUSH32 0x4E487B7100000000000000000000000000000000000000000000000000000000 PUSH0 MSTORE PUSH1 0x11 PUSH1 0x4 MSTORE PUSH1 0x24 PUSH0 REVERT JUMPDEST PUSH0 PUSH2 0xD1B DUP3 PUSH2 0xB33 JUMP JUMPDEST SWAP2 POP PUSH2 0xD26 DUP4 PUSH2 0xB33 JUMP JUMPDEST SWAP3 POP DUP3 DUP3 SUB SWAP1 POP DUP2 DUP2 GT ISZERO PUSH2 0xD3E JUMPI PUSH2 0xD3D PUSH2 0xCE4 JUMP JUMPDEST JUMPDEST SWAP3 SWAP2 POP POP JUMP JUMPDEST PUSH0 PUSH2 0xD4E DUP3 PUSH2 0xB33 JUMP JUMPDEST SWAP2 POP PUSH2 0xD59 DUP4 PUSH2 0xB33 JUMP JUMPDEST SWAP3 POP DUP3 DUP3 MUL PUSH2 0xD67 DUP2 PUSH2 0xB33 JUMP JUMPDEST SWAP2 POP DUP3 DUP3 DIV DUP5 EQ DUP4 ISZERO OR PUSH2 0xD7E JUMPI PUSH2 0xD7D PUSH2 0xCE4 JUMP JUMPDEST JUMPDEST POP SWAP3 SWAP2 POP POP JUMP JUMPDEST PUSH32 0x4E487B7100000000000000000000000000000000000000000000000000000000 PUSH0 MSTORE PUSH1 0x12 PUSH1 0x4 MSTORE PUSH1 0x24 PUSH0 REVERT JUMPDEST PUSH0 PUSH2 0xDBC DUP3 PUSH2 0xB33 JUMP JUMPDEST SWAP2 POP PUSH2 0xDC7 DUP4 PUSH2 0xB33 JUMP JUMPDEST SWAP3 POP DUP3 PUSH2 0xDD7 JUMPI PUSH2 0xDD6 PUSH2 0xD85 JUMP JUMPDEST JUMPDEST DUP3 DUP3 DIV SWAP1 POP SWAP3 SWAP2 POP POP JUMP JUMPDEST PUSH0 PUSH1 0x40 DUP3 ADD SWAP1 POP PUSH2 0xDF5 PUSH0 DUP4 ADD DUP6 PUSH2 0xC35 JUMP JUMPDEST PUSH2 0xE02 PUSH1 0x20 DUP4 ADD DUP5 PUSH2 0xC35 JUMP JUMPDEST SWAP4 SWAP3 POP POP POP JUMP JUMPDEST PUSH0 PUSH1 0x60 DUP3 ADD SWAP1 POP PUSH2 0xE1C PUSH0 DUP4 ADD DUP7 PUSH2 0xC0D JUMP JUMPDEST PUSH2 0xE29 PUSH1 0x20 DUP4 ADD DUP6 PUSH2 0xC0D JUMP JUMPDEST PUSH2 0xE36 PUSH1 0x40 DUP4 ADD DUP5 PUSH2 0xC35 JUMP JUMPDEST SWAP5 SWAP4 POP POP POP POP JUMP JUMPDEST PUSH0 PUSH2 0xE48 DUP3 PUSH2 0xB33 JUMP JUMPDEST SWAP2 POP PUSH2 0xE53 DUP4 PUSH2 0xB33 JUMP JUMPDEST SWAP3 POP DUP3 DUP3 ADD SWAP1 POP DUP1 DUP3 GT ISZERO PUSH2 0xE6B JUMPI PUSH2 0xE6A PUSH2 0xCE4 JUMP JUMPDEST JUMPDEST SWAP3 SWAP2 POP POP JUMP INVALID LOG2 PUSH5 0x6970667358 0x22 SLT KECCAK256 SWAP6 0x22 CALLDATASIZE RETF SLT PUSH3 0x5CA12E 0xD9 RETURN CALLCODE PUSH30 0xD76F2CFD2C06A98B871C532EC9EAF45F655EA464736F6C634300081E0033 "
				},
				"gasEstimates": {
					"creation": {
						"codeDepositCost": "750200",
						"executionCost": "infinite",
						"totalCost": "infinite"
					},
					"external": {
						"claimRewards()": "infinite",
						"rewardToken1()": "2530",
						"rewardToken2()": "2596",
						"setRewardRates(uint256,uint256)": "infinite",
						"stake(uint256)": "infinite",
						"stakeToken()": "2507",
						"totalStaked()": "2469",
						"withdraw(uint256)": "infinite",
						"withdrawTokens(address,uint256)": "infinite"
					}
				},
				"methodIdentifiers": {
					"claimRewards()": "372500ab",
					"rewardToken1()": "6f28d688",
					"rewardToken2()": "d61a47f1",
					"setRewardRates(uint256,uint256)": "37ba04a0",
					"stake(uint256)": "a694fc3a",
					"stakeToken()": "51ed6a30",
					"totalStaked()": "817b1cd2",
					"withdraw(uint256)": "2e1a7d4d",
					"withdrawTokens(address,uint256)": "06b091f9"
				}
			},
			"storageLayout": {
				"storage": [
					{
						"astId": 5,
						"contract": "hopp.sol:DualStaking",
						"label": "stakeToken",
						"offset": 0,
						"slot": "0",
						"type": "t_address"
					},
					{
						"astId": 8,
						"contract": "hopp.sol:DualStaking",
						"label": "rewardToken1",
						"offset": 0,
						"slot": "1",
						"type": "t_address"
					},
					{
						"astId": 11,
						"contract": "hopp.sol:DualStaking",
						"label": "rewardToken2",
						"offset": 0,
						"slot": "2",
						"type": "t_address"
					},
					{
						"astId": 14,
						"contract": "hopp.sol:DualStaking",
						"label": "totalStaked",
						"offset": 0,
						"slot": "3",
						"type": "t_uint256"
					},
					{
						"astId": 19,
						"contract": "hopp.sol:DualStaking",
						"label": "userStakes",
						"offset": 0,
						"slot": "4",
						"type": "t_mapping(t_address,t_uint256)"
					},
					{
						"astId": 22,
						"contract": "hopp.sol:DualStaking",
						"label": "rewardRate1",
						"offset": 0,
						"slot": "5",
						"type": "t_uint256"
					},
					{
						"astId": 25,
						"contract": "hopp.sol:DualStaking",
						"label": "rewardRate2",
						"offset": 0,
						"slot": "6",
						"type": "t_uint256"
					},
					{
						"astId": 28,
						"contract": "hopp.sol:DualStaking",
						"label": "admin",
						"offset": 0,
						"slot": "7",
						"type": "t_address"
					}
				],
				"types": {
					"t_address": {
						"encoding": "inplace",
						"label": "address",
						"numberOfBytes": "20"
					},
					"t_mapping(t_address,t_uint256)": {
						"encoding": "mapping",
						"key": "t_address",
						"label": "mapping(address => uint256)",
						"numberOfBytes": "32",
						"value": "t_uint256"
					},
					"t_uint256": {
						"encoding": "inplace",
						"label": "uint256",
						"numberOfBytes": "32"
					}
				}
			},
			"userdoc": {
				"events": {
					"RewardsClaimed(address,uint256,uint256)": {
						"notice": "Emitted when a user claims rewards."
					},
					"Staked(address,uint256)": {
						"notice": "Emitted when a user stakes tokens."
					},
					"Withdrawn(address,uint256)": {
						"notice": "Emitted when a user withdraws staked tokens."
					}
				},
				"kind": "user",
				"methods": {
					"claimRewards()": {
						"notice": "Allows users to claim their earned rewards in both reward tokens."
					},
					"rewardToken1()": {
						"notice": "Address of the first reward token."
					},
					"rewardToken2()": {
						"notice": "Address of the second reward token."
					},
					"setRewardRates(uint256,uint256)": {
						"notice": "Allows the admin to set the reward rates for both reward tokens."
					},
					"stake(uint256)": {
						"notice": "Allows users to stake a specified amount of tokens."
					},
					"stakeToken()": {
						"notice": "Address of the token to be staked."
					},
					"totalStaked()": {
						"notice": "Total amount of tokens staked in the contract."
					},
					"withdraw(uint256)": {
						"notice": "Allows users to withdraw a specified amount of their staked tokens."
					},
					"withdrawTokens(address,uint256)": {
						"notice": "Allows the admin to withdraw tokens from the contract."
					}
				},
				"version": 1
			}
		}
	}
}