{
	"hashTime.sol": {
		"HashedTimeLockEscrow": {
			"abi": [
				{
					"inputs": [],
					"stateMutability": "nonpayable",
					"type": "constructor"
				},
				{
					"inputs": [],
					"name": "FundsAlreadyRefunded",
					"type": "error"
				},
				{
					"inputs": [],
					"name": "FundsAlreadyWithdrawn",
					"type": "error"
				},
				{
					"inputs": [],
					"name": "InvalidAddress",
					"type": "error"
				},
				{
					"inputs": [],
					"name": "InvalidAmount",
					"type": "error"
				},
				{
					"inputs": [
						{
							"internalType": "address",
							"name": "owner",
							"type": "address"
						}
					],
					"name": "OwnableInvalidOwner",
					"type": "error"
				},
				{
					"inputs": [
						{
							"internalType": "address",
							"name": "account",
							"type": "address"
						}
					],
					"name": "OwnableUnauthorizedAccount",
					"type": "error"
				},
				{
					"inputs": [],
					"name": "UnauthorizedReceiver",
					"type": "error"
				},
				{
					"inputs": [],
					"name": "UnauthorizedSender",
					"type": "error"
				},
				{
					"anonymous": false,
					"inputs": [
						{
							"indexed": true,
							"internalType": "address",
							"name": "sender",
							"type": "address"
						},
						{
							"indexed": true,
							"internalType": "address",
							"name": "receiver",
							"type": "address"
						},
						{
							"indexed": false,
							"internalType": "uint256",
							"name": "amount",
							"type": "uint256"
						},
						{
							"indexed": false,
							"internalType": "bytes32",
							"name": "hashlock",
							"type": "bytes32"
						},
						{
							"indexed": false,
							"internalType": "uint256",
							"name": "timelock",
							"type": "uint256"
						}
					],
					"name": "Initiated",
					"type": "event"
				},
				{
					"anonymous": false,
					"inputs": [
						{
							"indexed": true,
							"internalType": "address",
							"name": "previousOwner",
							"type": "address"
						},
						{
							"indexed": true,
							"internalType": "address",
							"name": "newOwner",
							"type": "address"
						}
					],
					"name": "OwnershipTransferred",
					"type": "event"
				},
				{
					"anonymous": false,
					"inputs": [
						{
							"indexed": true,
							"internalType": "address",
							"name": "sender",
							"type": "address"
						},
						{
							"indexed": false,
							"internalType": "uint256",
							"name": "amount",
							"type": "uint256"
						}
					],
					"name": "Refunded",
					"type": "event"
				},
				{
					"anonymous": false,
					"inputs": [
						{
							"indexed": true,
							"internalType": "address",
							"name": "receiver",
							"type": "address"
						},
						{
							"indexed": false,
							"internalType": "uint256",
							"name": "amount",
							"type": "uint256"
						}
					],
					"name": "Withdrawn",
					"type": "event"
				},
				{
					"inputs": [],
					"name": "amount",
					"outputs": [
						{
							"internalType": "uint256",
							"name": "",
							"type": "uint256"
						}
					],
					"stateMutability": "view",
					"type": "function"
				},
				{
					"inputs": [],
					"name": "hashlock",
					"outputs": [
						{
							"internalType": "bytes32",
							"name": "",
							"type": "bytes32"
						}
					],
					"stateMutability": "view",
					"type": "function"
				},
				{
					"inputs": [
						{
							"internalType": "address",
							"name": "_receiver",
							"type": "address"
						},
						{
							"internalType": "bytes32",
							"name": "_hashlock",
							"type": "bytes32"
						},
						{
							"internalType": "uint256",
							"name": "_timelock",
							"type": "uint256"
						}
					],
					"name": "initiate",
					"outputs": [],
					"stateMutability": "payable",
					"type": "function"
				},
				{
					"inputs": [],
					"name": "owner",
					"outputs": [
						{
							"internalType": "address",
							"name": "",
							"type": "address"
						}
					],
					"stateMutability": "view",
					"type": "function"
				},
				{
					"inputs": [],
					"name": "receiver",
					"outputs": [
						{
							"internalType": "address",
							"name": "",
							"type": "address"
						}
					],
					"stateMutability": "view",
					"type": "function"
				},
				{
					"inputs": [],
					"name": "refund",
					"outputs": [],
					"stateMutability": "nonpayable",
					"type": "function"
				},
				{
					"inputs": [],
					"name": "renounceOwnership",
					"outputs": [],
					"stateMutability": "nonpayable",
					"type": "function"
				},
				{
					"inputs": [],
					"name": "sender",
					"outputs": [
						{
							"internalType": "address",
							"name": "",
							"type": "address"
						}
					],
					"stateMutability": "view",
					"type": "function"
				},
				{
					"inputs": [],
					"name": "timelock",
					"outputs": [
						{
							"internalType": "uint256",
							"name": "",
							"type": "uint256"
						}
					],
					"stateMutability": "view",
					"type": "function"
				},
				{
					"inputs": [
						{
							"internalType": "address",
							"name": "newOwner",
							"type": "address"
						}
					],
					"name": "transferOwnership",
					"outputs": [],
					"stateMutability": "nonpayable",
					"type": "function"
				},
				{
					"inputs": [
						{
							"internalType": "bytes32",
							"name": "preimage",
							"type": "bytes32"
						}
					],
					"name": "withdraw",
					"outputs": [],
					"stateMutability": "nonpayable",
					"type": "function"
				}
			],
			"devdoc": {
				"details": "A hashed time-lock escrow contract for cross-chain payments, allowing secure transactions between parties by locking funds until certain conditions are met.",
				"errors": {
					"FundsAlreadyRefunded()": [
						{
							"details": "Error for funds already refunded."
						}
					],
					"FundsAlreadyWithdrawn()": [
						{
							"details": "Error for funds already withdrawn."
						}
					],
					"InvalidAddress()": [
						{
							"details": "Error for invalid address."
						}
					],
					"InvalidAmount()": [
						{
							"details": "Error for invalid amount."
						}
					],
					"OwnableInvalidOwner(address)": [
						{
							"details": "The owner is not a valid owner account. (eg. `address(0)`)"
						}
					],
					"OwnableUnauthorizedAccount(address)": [
						{
							"details": "The caller account is not authorized to perform an operation."
						}
					],
					"UnauthorizedReceiver()": [
						{
							"details": "Error for unauthorized receiver access."
						}
					],
					"UnauthorizedSender()": [
						{
							"details": "Error for unauthorized sender access."
						}
					]
				},
				"events": {
					"Initiated(address,address,uint256,bytes32,uint256)": {
						"details": "Emitted when the HTLC is initiated."
					},
					"Refunded(address,uint256)": {
						"details": "Emitted when the funds are refunded to the sender."
					},
					"Withdrawn(address,uint256)": {
						"details": "Emitted when the funds are withdrawn by the receiver."
					}
				},
				"kind": "dev",
				"methods": {
					"initiate(address,bytes32,uint256)": {
						"params": {
							"_hashlock": "The hashlock condition for the HTLC.",
							"_receiver": "The address of the receiver.",
							"_timelock": "The time until which the funds are locked."
						}
					},
					"owner()": {
						"details": "Returns the address of the current owner."
					},
					"renounceOwnership()": {
						"details": "Leaves the contract without owner. It will not be possible to call `onlyOwner` functions. Can only be called by the current owner. NOTE: Renouncing ownership will leave the contract without an owner, thereby disabling any functionality that is only available to the owner."
					},
					"transferOwnership(address)": {
						"details": "Transfers ownership of the contract to a new account (`newOwner`). Can only be called by the current owner."
					},
					"withdraw(bytes32)": {
						"params": {
							"preimage": "The preimage that hashes to the hashlock."
						}
					}
				},
				"title": "HashedTimeLockEscrow",
				"version": 1
			},
			"evm": {
				"assembly": "    /* \"hashTime.sol\":327:4094  contract HashedTimeLockEscrow is Ownable {... */\n  mstore(0x40, 0x80)\n    /* \"hashTime.sol\":2248:2284  constructor() Ownable(msg.sender) {} */\n  callvalue\n  dup1\n  iszero\n  tag_1\n  jumpi\n  revert(0x00, 0x00)\ntag_1:\n  pop\n    /* \"hashTime.sol\":2270:2280  msg.sender */\n  caller\n    /* \"@openzeppelin/contracts/access/Ownable.sol\":1297:1298  0 */\n  0x00\n    /* \"@openzeppelin/contracts/access/Ownable.sol\":1273:1299  initialOwner == address(0) */\n  0xffffffffffffffffffffffffffffffffffffffff\n  and\n    /* \"@openzeppelin/contracts/access/Ownable.sol\":1273:1285  initialOwner */\n  dup2\n    /* \"@openzeppelin/contracts/access/Ownable.sol\":1273:1299  initialOwner == address(0) */\n  0xffffffffffffffffffffffffffffffffffffffff\n  and\n  sub\n    /* \"@openzeppelin/contracts/access/Ownable.sol\":1269:1364  if (initialOwner == address(0)) {... */\n  tag_5\n  jumpi\n    /* \"@openzeppelin/contracts/access/Ownable.sol\":1350:1351  0 */\n  0x00\n    /* \"@openzeppelin/contracts/access/Ownable.sol\":1322:1353  OwnableInvalidOwner(address(0)) */\n  mload(0x40)\n  0x1e4fbdf700000000000000000000000000000000000000000000000000000000\n  dup2\n  mstore\n  0x04\n  add\n  tag_6\n  swap2\n  swap1\n  tag_7\n  jump\t// in\ntag_6:\n  mload(0x40)\n  dup1\n  swap2\n  sub\n  swap1\n  revert\n    /* \"@openzeppelin/contracts/access/Ownable.sol\":1269:1364  if (initialOwner == address(0)) {... */\ntag_5:\n    /* \"@openzeppelin/contracts/access/Ownable.sol\":1373:1405  _transferOwnership(initialOwner) */\n  tag_8\n    /* \"@openzeppelin/contracts/access/Ownable.sol\":1392:1404  initialOwner */\n  dup2\n    /* \"@openzeppelin/contracts/access/Ownable.sol\":1373:1391  _transferOwnership */\n  shl(0x20, tag_9)\n    /* \"@openzeppelin/contracts/access/Ownable.sol\":1373:1405  _transferOwnership(initialOwner) */\n  0x20\n  shr\n  jump\t// in\ntag_8:\n    /* \"@openzeppelin/contracts/access/Ownable.sol\":1225:1412  constructor(address initialOwner) {... */\n  pop\n    /* \"hashTime.sol\":327:4094  contract HashedTimeLockEscrow is Ownable {... */\n  jump(tag_11)\n    /* \"@openzeppelin/contracts/access/Ownable.sol\":2912:3099  function _transferOwnership(address newOwner) internal virtual {... */\ntag_9:\n    /* \"@openzeppelin/contracts/access/Ownable.sol\":2985:3001  address oldOwner */\n  0x00\n    /* \"@openzeppelin/contracts/access/Ownable.sol\":3004:3010  _owner */\n  0x00\n  0x00\n  swap1\n  sload\n  swap1\n  0x0100\n  exp\n  swap1\n  div\n  0xffffffffffffffffffffffffffffffffffffffff\n  and\n    /* \"@openzeppelin/contracts/access/Ownable.sol\":2985:3010  address oldOwner = _owner */\n  swap1\n  pop\n    /* \"@openzeppelin/contracts/access/Ownable.sol\":3029:3037  newOwner */\n  dup2\n    /* \"@openzeppelin/contracts/access/Ownable.sol\":3020:3026  _owner */\n  0x00\n  0x00\n    /* \"@openzeppelin/contracts/access/Ownable.sol\":3020:3037  _owner = newOwner */\n  0x0100\n  exp\n  dup2\n  sload\n  dup2\n  0xffffffffffffffffffffffffffffffffffffffff\n  mul\n  not\n  and\n  swap1\n  dup4\n  0xffffffffffffffffffffffffffffffffffffffff\n  and\n  mul\n  or\n  swap1\n  sstore\n  pop\n    /* \"@openzeppelin/contracts/access/Ownable.sol\":3083:3091  newOwner */\n  dup2\n    /* \"@openzeppelin/contracts/access/Ownable.sol\":3052:3092  OwnershipTransferred(oldOwner, newOwner) */\n  0xffffffffffffffffffffffffffffffffffffffff\n  and\n    /* \"@openzeppelin/contracts/access/Ownable.sol\":3073:3081  oldOwner */\n  dup2\n    /* \"@openzeppelin/contracts/access/Ownable.sol\":3052:3092  OwnershipTransferred(oldOwner, newOwner) */\n  0xffffffffffffffffffffffffffffffffffffffff\n  and\n  0x8be0079c531659141344cd1fd0a4f28419497f9722a3daafe3b4186f6b6457e0\n  mload(0x40)\n  mload(0x40)\n  dup1\n  swap2\n  sub\n  swap1\n  log3\n    /* \"@openzeppelin/contracts/access/Ownable.sol\":2975:3099  {... */\n  pop\n    /* \"@openzeppelin/contracts/access/Ownable.sol\":2912:3099  function _transferOwnership(address newOwner) internal virtual {... */\n  pop\n  jump\t// out\n    /* \"#utility.yul\":7:133   */\ntag_13:\n    /* \"#utility.yul\":44:51   */\n  0x00\n    /* \"#utility.yul\":84:126   */\n  0xffffffffffffffffffffffffffffffffffffffff\n    /* \"#utility.yul\":77:82   */\n  dup3\n    /* \"#utility.yul\":73:127   */\n  and\n    /* \"#utility.yul\":62:127   */\n  swap1\n  pop\n    /* \"#utility.yul\":7:133   */\n  swap2\n  swap1\n  pop\n  jump\t// out\n    /* \"#utility.yul\":139:235   */\ntag_14:\n    /* \"#utility.yul\":176:183   */\n  0x00\n    /* \"#utility.yul\":205:229   */\n  tag_19\n    /* \"#utility.yul\":223:228   */\n  dup3\n    /* \"#utility.yul\":205:229   */\n  tag_13\n  jump\t// in\ntag_19:\n    /* \"#utility.yul\":194:229   */\n  swap1\n  pop\n    /* \"#utility.yul\":139:235   */\n  swap2\n  swap1\n  pop\n  jump\t// out\n    /* \"#utility.yul\":241:359   */\ntag_15:\n    /* \"#utility.yul\":328:352   */\n  tag_21\n    /* \"#utility.yul\":346:351   */\n  dup2\n    /* \"#utility.yul\":328:352   */\n  tag_14\n  jump\t// in\ntag_21:\n    /* \"#utility.yul\":323:326   */\n  dup3\n    /* \"#utility.yul\":316:353   */\n  mstore\n    /* \"#utility.yul\":241:359   */\n  pop\n  pop\n  jump\t// out\n    /* \"#utility.yul\":365:587   */\ntag_7:\n    /* \"#utility.yul\":458:462   */\n  0x00\n    /* \"#utility.yul\":496:498   */\n  0x20\n    /* \"#utility.yul\":485:494   */\n  dup3\n    /* \"#utility.yul\":481:499   */\n  add\n    /* \"#utility.yul\":473:499   */\n  swap1\n  pop\n    /* \"#utility.yul\":509:580   */\n  tag_23\n    /* \"#utility.yul\":577:578   */\n  0x00\n    /* \"#utility.yul\":566:575   */\n  dup4\n    /* \"#utility.yul\":562:579   */\n  add\n    /* \"#utility.yul\":553:559   */\n  dup5\n    /* \"#utility.yul\":509:580   */\n  tag_15\n  jump\t// in\ntag_23:\n    /* \"#utility.yul\":365:587   */\n  swap3\n  swap2\n  pop\n  pop\n  jump\t// out\n    /* \"hashTime.sol\":327:4094  contract HashedTimeLockEscrow is Ownable {... */\ntag_11:\n  dataSize(sub_0)\n  dup1\n  dataOffset(sub_0)\n  0x00\n  codecopy\n  0x00\n  return\nstop\n\nsub_0: assembly {\n        /* \"hashTime.sol\":327:4094  contract HashedTimeLockEscrow is Ownable {... */\n      mstore(0x40, 0x80)\n      jumpi(tag_1, lt(calldatasize, 0x04))\n      shr(0xe0, calldataload(0x00))\n      dup1\n      0x8e19899e\n      gt\n      tag_13\n      jumpi\n      dup1\n      0x8e19899e\n      eq\n      tag_7\n      jumpi\n      dup1\n      0xa782086e\n      eq\n      tag_8\n      jumpi\n      dup1\n      0xaa8c217c\n      eq\n      tag_9\n      jumpi\n      dup1\n      0xd33219b4\n      eq\n      tag_10\n      jumpi\n      dup1\n      0xf2fde38b\n      eq\n      tag_11\n      jumpi\n      dup1\n      0xf7260d3e\n      eq\n      tag_12\n      jumpi\n      jump(tag_1)\n    tag_13:\n      dup1\n      0x39f5632b\n      eq\n      tag_2\n      jumpi\n      dup1\n      0x590e1ae3\n      eq\n      tag_3\n      jumpi\n      dup1\n      0x67e404ce\n      eq\n      tag_4\n      jumpi\n      dup1\n      0x715018a6\n      eq\n      tag_5\n      jumpi\n      dup1\n      0x8da5cb5b\n      eq\n      tag_6\n      jumpi\n    tag_1:\n      revert(0x00, 0x00)\n        /* \"hashTime.sol\":2597:3050  function initiate(address _receiver, bytes32 _hashlock, uint256 _timelock) external payable onlyOwner {... */\n    tag_2:\n      tag_14\n      0x04\n      dup1\n      calldatasize\n      sub\n      dup2\n      add\n      swap1\n      tag_15\n      swap2\n      swap1\n      tag_16\n      jump\t// in\n    tag_15:\n      tag_17\n      jump\t// in\n    tag_14:\n      stop\n        /* \"hashTime.sol\":3762:4091  function refund() external onlySender fundsNotWithdrawn fundsNotRefunded {... */\n    tag_3:\n      callvalue\n      dup1\n      iszero\n      tag_18\n      jumpi\n      revert(0x00, 0x00)\n    tag_18:\n      pop\n      tag_19\n      tag_20\n      jump\t// in\n    tag_19:\n      stop\n        /* \"hashTime.sol\":375:396  address public sender */\n    tag_4:\n      callvalue\n      dup1\n      iszero\n      tag_21\n      jumpi\n      revert(0x00, 0x00)\n    tag_21:\n      pop\n      tag_22\n      tag_23\n      jump\t// in\n    tag_22:\n      mload(0x40)\n      tag_24\n      swap2\n      swap1\n      tag_25\n      jump\t// in\n    tag_24:\n      mload(0x40)\n      dup1\n      swap2\n      sub\n      swap1\n      return\n        /* \"@openzeppelin/contracts/access/Ownable.sol\":2293:2394  function renounceOwnership() public virtual onlyOwner {... */\n    tag_5:\n      callvalue\n      dup1\n      iszero\n      tag_26\n      jumpi\n      revert(0x00, 0x00)\n    tag_26:\n      pop\n      tag_27\n      tag_28\n      jump\t// in\n    tag_27:\n      stop\n        /* \"@openzeppelin/contracts/access/Ownable.sol\":1638:1723  function owner() public view virtual returns (address) {... */\n    tag_6:\n      callvalue\n      dup1\n      iszero\n      tag_29\n      jumpi\n      revert(0x00, 0x00)\n    tag_29:\n      pop\n      tag_30\n      tag_31\n      jump\t// in\n    tag_30:\n      mload(0x40)\n      tag_32\n      swap2\n      swap1\n      tag_25\n      jump\t// in\n    tag_32:\n      mload(0x40)\n      dup1\n      swap2\n      sub\n      swap1\n      return\n        /* \"hashTime.sol\":3235:3615  function withdraw(bytes32 preimage) external onlyReceiver fundsNotWithdrawn fundsNotRefunded {... */\n    tag_7:\n      callvalue\n      dup1\n      iszero\n      tag_33\n      jumpi\n      revert(0x00, 0x00)\n    tag_33:\n      pop\n      tag_34\n      0x04\n      dup1\n      calldatasize\n      sub\n      dup2\n      add\n      swap1\n      tag_35\n      swap2\n      swap1\n      tag_36\n      jump\t// in\n    tag_35:\n      tag_37\n      jump\t// in\n    tag_34:\n      stop\n        /* \"hashTime.sol\":433:456  bytes32 public hashlock */\n    tag_8:\n      callvalue\n      dup1\n      iszero\n      tag_38\n      jumpi\n      revert(0x00, 0x00)\n    tag_38:\n      pop\n      tag_39\n      tag_40\n      jump\t// in\n    tag_39:\n      mload(0x40)\n      tag_41\n      swap2\n      swap1\n      tag_42\n      jump\t// in\n    tag_41:\n      mload(0x40)\n      dup1\n      swap2\n      sub\n      swap1\n      return\n        /* \"hashTime.sol\":493:514  uint256 public amount */\n    tag_9:\n      callvalue\n      dup1\n      iszero\n      tag_43\n      jumpi\n      revert(0x00, 0x00)\n    tag_43:\n      pop\n      tag_44\n      tag_45\n      jump\t// in\n    tag_44:\n      mload(0x40)\n      tag_46\n      swap2\n      swap1\n      tag_47\n      jump\t// in\n    tag_46:\n      mload(0x40)\n      dup1\n      swap2\n      sub\n      swap1\n      return\n        /* \"hashTime.sol\":463:486  uint256 public timelock */\n    tag_10:\n      callvalue\n      dup1\n      iszero\n      tag_48\n      jumpi\n      revert(0x00, 0x00)\n    tag_48:\n      pop\n      tag_49\n      tag_50\n      jump\t// in\n    tag_49:\n      mload(0x40)\n      tag_51\n      swap2\n      swap1\n      tag_47\n      jump\t// in\n    tag_51:\n      mload(0x40)\n      dup1\n      swap2\n      sub\n      swap1\n      return\n        /* \"@openzeppelin/contracts/access/Ownable.sol\":2543:2758  function transferOwnership(address newOwner) public virtual onlyOwner {... */\n    tag_11:\n      callvalue\n      dup1\n      iszero\n      tag_52\n      jumpi\n      revert(0x00, 0x00)\n    tag_52:\n      pop\n      tag_53\n      0x04\n      dup1\n      calldatasize\n      sub\n      dup2\n      add\n      swap1\n      tag_54\n      swap2\n      swap1\n      tag_55\n      jump\t// in\n    tag_54:\n      tag_56\n      jump\t// in\n    tag_53:\n      stop\n        /* \"hashTime.sol\":403:426  address public receiver */\n    tag_12:\n      callvalue\n      dup1\n      iszero\n      tag_57\n      jumpi\n      revert(0x00, 0x00)\n    tag_57:\n      pop\n      tag_58\n      tag_59\n      jump\t// in\n    tag_58:\n      mload(0x40)\n      tag_60\n      swap2\n      swap1\n      tag_25\n      jump\t// in\n    tag_60:\n      mload(0x40)\n      dup1\n      swap2\n      sub\n      swap1\n      return\n        /* \"hashTime.sol\":2597:3050  function initiate(address _receiver, bytes32 _hashlock, uint256 _timelock) external payable onlyOwner {... */\n    tag_17:\n        /* \"@openzeppelin/contracts/access/Ownable.sol\":1531:1544  _checkOwner() */\n      tag_62\n        /* \"@openzeppelin/contracts/access/Ownable.sol\":1531:1542  _checkOwner */\n      tag_63\n        /* \"@openzeppelin/contracts/access/Ownable.sol\":1531:1544  _checkOwner() */\n      jump\t// in\n    tag_62:\n        /* \"hashTime.sol\":2735:2736  0 */\n      0x00\n        /* \"hashTime.sol\":2714:2737  _receiver == address(0) */\n      0xffffffffffffffffffffffffffffffffffffffff\n      and\n        /* \"hashTime.sol\":2714:2723  _receiver */\n      dup4\n        /* \"hashTime.sol\":2714:2737  _receiver == address(0) */\n      0xffffffffffffffffffffffffffffffffffffffff\n      and\n      sub\n        /* \"hashTime.sol\":2710:2762  if (_receiver == address(0)) revert InvalidAddress() */\n      tag_65\n      jumpi\n        /* \"hashTime.sol\":2746:2762  InvalidAddress() */\n      mload(0x40)\n      0xe6c4247b00000000000000000000000000000000000000000000000000000000\n      dup2\n      mstore\n      0x04\n      add\n      mload(0x40)\n      dup1\n      swap2\n      sub\n      swap1\n      revert\n        /* \"hashTime.sol\":2710:2762  if (_receiver == address(0)) revert InvalidAddress() */\n    tag_65:\n        /* \"hashTime.sol\":2790:2791  0 */\n      0x00\n        /* \"hashTime.sol\":2777:2786  msg.value */\n      callvalue\n        /* \"hashTime.sol\":2777:2791  msg.value == 0 */\n      sub\n        /* \"hashTime.sol\":2773:2815  if (msg.value == 0) revert InvalidAmount() */\n      tag_66\n      jumpi\n        /* \"hashTime.sol\":2800:2815  InvalidAmount() */\n      mload(0x40)\n      0x2c5211c600000000000000000000000000000000000000000000000000000000\n      dup2\n      mstore\n      0x04\n      add\n      mload(0x40)\n      dup1\n      swap2\n      sub\n      swap1\n      revert\n        /* \"hashTime.sol\":2773:2815  if (msg.value == 0) revert InvalidAmount() */\n    tag_66:\n        /* \"hashTime.sol\":2837:2847  msg.sender */\n      caller\n        /* \"hashTime.sol\":2828:2834  sender */\n      0x01\n      0x00\n        /* \"hashTime.sol\":2828:2847  sender = msg.sender */\n      0x0100\n      exp\n      dup2\n      sload\n      dup2\n      0xffffffffffffffffffffffffffffffffffffffff\n      mul\n      not\n      and\n      swap1\n      dup4\n      0xffffffffffffffffffffffffffffffffffffffff\n      and\n      mul\n      or\n      swap1\n      sstore\n      pop\n        /* \"hashTime.sol\":2869:2878  _receiver */\n      dup3\n        /* \"hashTime.sol\":2858:2866  receiver */\n      0x02\n      0x00\n        /* \"hashTime.sol\":2858:2878  receiver = _receiver */\n      0x0100\n      exp\n      dup2\n      sload\n      dup2\n      0xffffffffffffffffffffffffffffffffffffffff\n      mul\n      not\n      and\n      swap1\n      dup4\n      0xffffffffffffffffffffffffffffffffffffffff\n      and\n      mul\n      or\n      swap1\n      sstore\n      pop\n        /* \"hashTime.sol\":2900:2909  _hashlock */\n      dup2\n        /* \"hashTime.sol\":2889:2897  hashlock */\n      0x03\n        /* \"hashTime.sol\":2889:2909  hashlock = _hashlock */\n      dup2\n      swap1\n      sstore\n      pop\n        /* \"hashTime.sol\":2931:2940  _timelock */\n      dup1\n        /* \"hashTime.sol\":2920:2928  timelock */\n      0x04\n        /* \"hashTime.sol\":2920:2940  timelock = _timelock */\n      dup2\n      swap1\n      sstore\n      pop\n        /* \"hashTime.sol\":2960:2969  msg.value */\n      callvalue\n        /* \"hashTime.sol\":2951:2957  amount */\n      0x05\n        /* \"hashTime.sol\":2951:2969  amount = msg.value */\n      dup2\n      swap1\n      sstore\n      pop\n        /* \"hashTime.sol\":3005:3013  receiver */\n      0x02\n      0x00\n      swap1\n      sload\n      swap1\n      0x0100\n      exp\n      swap1\n      div\n      0xffffffffffffffffffffffffffffffffffffffff\n      and\n        /* \"hashTime.sol\":2987:3042  Initiated(sender, receiver, amount, hashlock, timelock) */\n      0xffffffffffffffffffffffffffffffffffffffff\n      and\n        /* \"hashTime.sol\":2997:3003  sender */\n      0x01\n      0x00\n      swap1\n      sload\n      swap1\n      0x0100\n      exp\n      swap1\n      div\n      0xffffffffffffffffffffffffffffffffffffffff\n      and\n        /* \"hashTime.sol\":2987:3042  Initiated(sender, receiver, amount, hashlock, timelock) */\n      0xffffffffffffffffffffffffffffffffffffffff\n      and\n      0xeba8ce60075340b428688165c04c10c94e8d81b21712a999dd5918bada05c69d\n        /* \"hashTime.sol\":3015:3021  amount */\n      sload(0x05)\n        /* \"hashTime.sol\":3023:3031  hashlock */\n      sload(0x03)\n        /* \"hashTime.sol\":3033:3041  timelock */\n      sload(0x04)\n        /* \"hashTime.sol\":2987:3042  Initiated(sender, receiver, amount, hashlock, timelock) */\n      mload(0x40)\n      tag_67\n      swap4\n      swap3\n      swap2\n      swap1\n      tag_68\n      jump\t// in\n    tag_67:\n      mload(0x40)\n      dup1\n      swap2\n      sub\n      swap1\n      log3\n        /* \"hashTime.sol\":2597:3050  function initiate(address _receiver, bytes32 _hashlock, uint256 _timelock) external payable onlyOwner {... */\n      pop\n      pop\n      pop\n      jump\t// out\n        /* \"hashTime.sol\":3762:4091  function refund() external onlySender fundsNotWithdrawn fundsNotRefunded {... */\n    tag_20:\n        /* \"hashTime.sol\":1143:1149  sender */\n      0x01\n      0x00\n      swap1\n      sload\n      swap1\n      0x0100\n      exp\n      swap1\n      div\n      0xffffffffffffffffffffffffffffffffffffffff\n      and\n        /* \"hashTime.sol\":1129:1149  msg.sender != sender */\n      0xffffffffffffffffffffffffffffffffffffffff\n      and\n        /* \"hashTime.sol\":1129:1139  msg.sender */\n      caller\n        /* \"hashTime.sol\":1129:1149  msg.sender != sender */\n      0xffffffffffffffffffffffffffffffffffffffff\n      and\n      eq\n        /* \"hashTime.sol\":1125:1178  if (msg.sender != sender) revert UnauthorizedSender() */\n      tag_70\n      jumpi\n        /* \"hashTime.sol\":1158:1178  UnauthorizedSender() */\n      mload(0x40)\n      0x0809490800000000000000000000000000000000000000000000000000000000\n      dup2\n      mstore\n      0x04\n      add\n      mload(0x40)\n      dup1\n      swap2\n      sub\n      swap1\n      revert\n        /* \"hashTime.sol\":1125:1178  if (msg.sender != sender) revert UnauthorizedSender() */\n    tag_70:\n        /* \"hashTime.sol\":1508:1519  isWithdrawn */\n      0x06\n      0x00\n      swap1\n      sload\n      swap1\n      0x0100\n      exp\n      swap1\n      div\n      0xff\n      and\n        /* \"hashTime.sol\":1504:1551  if (isWithdrawn) revert FundsAlreadyWithdrawn() */\n      iszero\n      tag_72\n      jumpi\n        /* \"hashTime.sol\":1528:1551  FundsAlreadyWithdrawn() */\n      mload(0x40)\n      0xfdc9d49c00000000000000000000000000000000000000000000000000000000\n      dup2\n      mstore\n      0x04\n      add\n      mload(0x40)\n      dup1\n      swap2\n      sub\n      swap1\n      revert\n        /* \"hashTime.sol\":1504:1551  if (isWithdrawn) revert FundsAlreadyWithdrawn() */\n    tag_72:\n        /* \"hashTime.sol\":1687:1697  isRefunded */\n      0x06\n      0x01\n      swap1\n      sload\n      swap1\n      0x0100\n      exp\n      swap1\n      div\n      0xff\n      and\n        /* \"hashTime.sol\":1683:1728  if (isRefunded) revert FundsAlreadyRefunded() */\n      iszero\n      tag_74\n      jumpi\n        /* \"hashTime.sol\":1706:1728  FundsAlreadyRefunded() */\n      mload(0x40)\n      0x99b9caee00000000000000000000000000000000000000000000000000000000\n      dup2\n      mstore\n      0x04\n      add\n      mload(0x40)\n      dup1\n      swap2\n      sub\n      swap1\n      revert\n        /* \"hashTime.sol\":1683:1728  if (isRefunded) revert FundsAlreadyRefunded() */\n    tag_74:\n        /* \"hashTime.sol\":3868:3876  timelock */\n      sload(0x04)\n        /* \"hashTime.sol\":3850:3865  block.timestamp */\n      timestamp\n        /* \"hashTime.sol\":3850:3876  block.timestamp < timelock */\n      lt\n        /* \"hashTime.sol\":3846:3905  if (block.timestamp < timelock) revert UnauthorizedSender() */\n      iszero\n      tag_76\n      jumpi\n        /* \"hashTime.sol\":3885:3905  UnauthorizedSender() */\n      mload(0x40)\n      0x0809490800000000000000000000000000000000000000000000000000000000\n      dup2\n      mstore\n      0x04\n      add\n      mload(0x40)\n      dup1\n      swap2\n      sub\n      swap1\n      revert\n        /* \"hashTime.sol\":3846:3905  if (block.timestamp < timelock) revert UnauthorizedSender() */\n    tag_76:\n        /* \"hashTime.sol\":3931:3935  true */\n      0x01\n        /* \"hashTime.sol\":3918:3928  isRefunded */\n      0x06\n      0x01\n        /* \"hashTime.sol\":3918:3935  isRefunded = true */\n      0x0100\n      exp\n      dup2\n      sload\n      dup2\n      0xff\n      mul\n      not\n      and\n      swap1\n      dup4\n      iszero\n      iszero\n      mul\n      or\n      swap1\n      sstore\n      pop\n        /* \"hashTime.sol\":3960:3966  sender */\n      0x01\n      0x00\n      swap1\n      sload\n      swap1\n      0x0100\n      exp\n      swap1\n      div\n      0xffffffffffffffffffffffffffffffffffffffff\n      and\n        /* \"hashTime.sol\":3951:3975  Refunded(sender, amount) */\n      0xffffffffffffffffffffffffffffffffffffffff\n      and\n      0xd7dee2702d63ad89917b6a4da9981c90c4d24f8c2bdfd64c604ecae57d8d0651\n        /* \"hashTime.sol\":3968:3974  amount */\n      sload(0x05)\n        /* \"hashTime.sol\":3951:3975  Refunded(sender, amount) */\n      mload(0x40)\n      tag_77\n      swap2\n      swap1\n      tag_47\n      jump\t// in\n    tag_77:\n      mload(0x40)\n      dup1\n      swap2\n      sub\n      swap1\n      log2\n        /* \"hashTime.sol\":3989:4001  bool success */\n      0x00\n        /* \"hashTime.sol\":4007:4013  sender */\n      0x01\n      0x00\n      swap1\n      sload\n      swap1\n      0x0100\n      exp\n      swap1\n      div\n      0xffffffffffffffffffffffffffffffffffffffff\n      and\n        /* \"hashTime.sol\":4007:4018  sender.call */\n      0xffffffffffffffffffffffffffffffffffffffff\n      and\n        /* \"hashTime.sol\":4026:4032  amount */\n      sload(0x05)\n        /* \"hashTime.sol\":4007:4037  sender.call{value: amount}(\"\") */\n      mload(0x40)\n      tag_78\n      swap1\n      tag_79\n      jump\t// in\n    tag_78:\n      0x00\n      mload(0x40)\n      dup1\n      dup4\n      sub\n      dup2\n      dup6\n      dup8\n      gas\n      call\n      swap3\n      pop\n      pop\n      pop\n      returndatasize\n      dup1\n      0x00\n      dup2\n      eq\n      tag_82\n      jumpi\n      mload(0x40)\n      swap2\n      pop\n      and(add(returndatasize, 0x3f), not(0x1f))\n      dup3\n      add\n      0x40\n      mstore\n      returndatasize\n      dup3\n      mstore\n      returndatasize\n      0x00\n      0x20\n      dup5\n      add\n      returndatacopy\n      jump(tag_81)\n    tag_82:\n      0x60\n      swap2\n      pop\n    tag_81:\n      pop\n        /* \"hashTime.sol\":3988:4037  (bool success, ) = sender.call{value: amount}(\"\") */\n      pop\n      swap1\n      pop\n        /* \"hashTime.sol\":4056:4063  success */\n      dup1\n        /* \"hashTime.sol\":4048:4083  require(success, \"Transfer failed\") */\n      tag_83\n      jumpi\n      mload(0x40)\n      0x08c379a000000000000000000000000000000000000000000000000000000000\n      dup2\n      mstore\n      0x04\n      add\n      tag_84\n      swap1\n      tag_85\n      jump\t// in\n    tag_84:\n      mload(0x40)\n      dup1\n      swap2\n      sub\n      swap1\n      revert\n    tag_83:\n        /* \"hashTime.sol\":3835:4091  {... */\n      pop\n        /* \"hashTime.sol\":3762:4091  function refund() external onlySender fundsNotWithdrawn fundsNotRefunded {... */\n      jump\t// out\n        /* \"hashTime.sol\":375:396  address public sender */\n    tag_23:\n      0x01\n      0x00\n      swap1\n      sload\n      swap1\n      0x0100\n      exp\n      swap1\n      div\n      0xffffffffffffffffffffffffffffffffffffffff\n      and\n      dup2\n      jump\t// out\n        /* \"@openzeppelin/contracts/access/Ownable.sol\":2293:2394  function renounceOwnership() public virtual onlyOwner {... */\n    tag_28:\n        /* \"@openzeppelin/contracts/access/Ownable.sol\":1531:1544  _checkOwner() */\n      tag_87\n        /* \"@openzeppelin/contracts/access/Ownable.sol\":1531:1542  _checkOwner */\n      tag_63\n        /* \"@openzeppelin/contracts/access/Ownable.sol\":1531:1544  _checkOwner() */\n      jump\t// in\n    tag_87:\n        /* \"@openzeppelin/contracts/access/Ownable.sol\":2357:2387  _transferOwnership(address(0)) */\n      tag_89\n        /* \"@openzeppelin/contracts/access/Ownable.sol\":2384:2385  0 */\n      0x00\n        /* \"@openzeppelin/contracts/access/Ownable.sol\":2357:2375  _transferOwnership */\n      tag_90\n        /* \"@openzeppelin/contracts/access/Ownable.sol\":2357:2387  _transferOwnership(address(0)) */\n      jump\t// in\n    tag_89:\n        /* \"@openzeppelin/contracts/access/Ownable.sol\":2293:2394  function renounceOwnership() public virtual onlyOwner {... */\n      jump\t// out\n        /* \"@openzeppelin/contracts/access/Ownable.sol\":1638:1723  function owner() public view virtual returns (address) {... */\n    tag_31:\n        /* \"@openzeppelin/contracts/access/Ownable.sol\":1684:1691  address */\n      0x00\n        /* \"@openzeppelin/contracts/access/Ownable.sol\":1710:1716  _owner */\n      0x00\n      0x00\n      swap1\n      sload\n      swap1\n      0x0100\n      exp\n      swap1\n      div\n      0xffffffffffffffffffffffffffffffffffffffff\n      and\n        /* \"@openzeppelin/contracts/access/Ownable.sol\":1703:1716  return _owner */\n      swap1\n      pop\n        /* \"@openzeppelin/contracts/access/Ownable.sol\":1638:1723  function owner() public view virtual returns (address) {... */\n      swap1\n      jump\t// out\n        /* \"hashTime.sol\":3235:3615  function withdraw(bytes32 preimage) external onlyReceiver fundsNotWithdrawn fundsNotRefunded {... */\n    tag_37:\n        /* \"hashTime.sol\":1331:1339  receiver */\n      0x02\n      0x00\n      swap1\n      sload\n      swap1\n      0x0100\n      exp\n      swap1\n      div\n      0xffffffffffffffffffffffffffffffffffffffff\n      and\n        /* \"hashTime.sol\":1317:1339  msg.sender != receiver */\n      0xffffffffffffffffffffffffffffffffffffffff\n      and\n        /* \"hashTime.sol\":1317:1327  msg.sender */\n      caller\n        /* \"hashTime.sol\":1317:1339  msg.sender != receiver */\n      0xffffffffffffffffffffffffffffffffffffffff\n      and\n      eq\n        /* \"hashTime.sol\":1313:1370  if (msg.sender != receiver) revert UnauthorizedReceiver() */\n      tag_93\n      jumpi\n        /* \"hashTime.sol\":1348:1370  UnauthorizedReceiver() */\n      mload(0x40)\n      0x79f0ddd500000000000000000000000000000000000000000000000000000000\n      dup2\n      mstore\n      0x04\n      add\n      mload(0x40)\n      dup1\n      swap2\n      sub\n      swap1\n      revert\n        /* \"hashTime.sol\":1313:1370  if (msg.sender != receiver) revert UnauthorizedReceiver() */\n    tag_93:\n        /* \"hashTime.sol\":1508:1519  isWithdrawn */\n      0x06\n      0x00\n      swap1\n      sload\n      swap1\n      0x0100\n      exp\n      swap1\n      div\n      0xff\n      and\n        /* \"hashTime.sol\":1504:1551  if (isWithdrawn) revert FundsAlreadyWithdrawn() */\n      iszero\n      tag_95\n      jumpi\n        /* \"hashTime.sol\":1528:1551  FundsAlreadyWithdrawn() */\n      mload(0x40)\n      0xfdc9d49c00000000000000000000000000000000000000000000000000000000\n      dup2\n      mstore\n      0x04\n      add\n      mload(0x40)\n      dup1\n      swap2\n      sub\n      swap1\n      revert\n        /* \"hashTime.sol\":1504:1551  if (isWithdrawn) revert FundsAlreadyWithdrawn() */\n    tag_95:\n        /* \"hashTime.sol\":1687:1697  isRefunded */\n      0x06\n      0x01\n      swap1\n      sload\n      swap1\n      0x0100\n      exp\n      swap1\n      div\n      0xff\n      and\n        /* \"hashTime.sol\":1683:1728  if (isRefunded) revert FundsAlreadyRefunded() */\n      iszero\n      tag_97\n      jumpi\n        /* \"hashTime.sol\":1706:1728  FundsAlreadyRefunded() */\n      mload(0x40)\n      0x99b9caee00000000000000000000000000000000000000000000000000000000\n      dup2\n      mstore\n      0x04\n      add\n      mload(0x40)\n      dup1\n      swap2\n      sub\n      swap1\n      revert\n        /* \"hashTime.sol\":1683:1728  if (isRefunded) revert FundsAlreadyRefunded() */\n    tag_97:\n        /* \"hashTime.sol\":3384:3392  hashlock */\n      sload(0x03)\n        /* \"hashTime.sol\":3370:3378  preimage */\n      dup2\n        /* \"hashTime.sol\":3353:3379  abi.encodePacked(preimage) */\n      add(0x20, mload(0x40))\n      tag_99\n      swap2\n      swap1\n      tag_100\n      jump\t// in\n    tag_99:\n      mload(0x40)\n      0x20\n      dup2\n      dup4\n      sub\n      sub\n      dup2\n      mstore\n      swap1\n      0x40\n      mstore\n        /* \"hashTime.sol\":3343:3380  keccak256(abi.encodePacked(preimage)) */\n      dup1\n      mload\n      swap1\n      0x20\n      add\n      keccak256\n        /* \"hashTime.sol\":3343:3392  keccak256(abi.encodePacked(preimage)) != hashlock */\n      eq\n        /* \"hashTime.sol\":3339:3423  if (keccak256(abi.encodePacked(preimage)) != hashlock) revert UnauthorizedReceiver() */\n      tag_101\n      jumpi\n        /* \"hashTime.sol\":3401:3423  UnauthorizedReceiver() */\n      mload(0x40)\n      0x79f0ddd500000000000000000000000000000000000000000000000000000000\n      dup2\n      mstore\n      0x04\n      add\n      mload(0x40)\n      dup1\n      swap2\n      sub\n      swap1\n      revert\n        /* \"hashTime.sol\":3339:3423  if (keccak256(abi.encodePacked(preimage)) != hashlock) revert UnauthorizedReceiver() */\n    tag_101:\n        /* \"hashTime.sol\":3450:3454  true */\n      0x01\n        /* \"hashTime.sol\":3436:3447  isWithdrawn */\n      0x06\n      0x00\n        /* \"hashTime.sol\":3436:3454  isWithdrawn = true */\n      0x0100\n      exp\n      dup2\n      sload\n      dup2\n      0xff\n      mul\n      not\n      and\n      swap1\n      dup4\n      iszero\n      iszero\n      mul\n      or\n      swap1\n      sstore\n      pop\n        /* \"hashTime.sol\":3480:3488  receiver */\n      0x02\n      0x00\n      swap1\n      sload\n      swap1\n      0x0100\n      exp\n      swap1\n      div\n      0xffffffffffffffffffffffffffffffffffffffff\n      and\n        /* \"hashTime.sol\":3470:3497  Withdrawn(receiver, amount) */\n      0xffffffffffffffffffffffffffffffffffffffff\n      and\n      0x7084f5476618d8e60b11ef0d7d3f06914655adb8793e28ff7f018d4c76d505d5\n        /* \"hashTime.sol\":3490:3496  amount */\n      sload(0x05)\n        /* \"hashTime.sol\":3470:3497  Withdrawn(receiver, amount) */\n      mload(0x40)\n      tag_102\n      swap2\n      swap1\n      tag_47\n      jump\t// in\n    tag_102:\n      mload(0x40)\n      dup1\n      swap2\n      sub\n      swap1\n      log2\n        /* \"hashTime.sol\":3511:3523  bool success */\n      0x00\n        /* \"hashTime.sol\":3529:3537  receiver */\n      0x02\n      0x00\n      swap1\n      sload\n      swap1\n      0x0100\n      exp\n      swap1\n      div\n      0xffffffffffffffffffffffffffffffffffffffff\n      and\n        /* \"hashTime.sol\":3529:3542  receiver.call */\n      0xffffffffffffffffffffffffffffffffffffffff\n      and\n        /* \"hashTime.sol\":3550:3556  amount */\n      sload(0x05)\n        /* \"hashTime.sol\":3529:3561  receiver.call{value: amount}(\"\") */\n      mload(0x40)\n      tag_103\n      swap1\n      tag_79\n      jump\t// in\n    tag_103:\n      0x00\n      mload(0x40)\n      dup1\n      dup4\n      sub\n      dup2\n      dup6\n      dup8\n      gas\n      call\n      swap3\n      pop\n      pop\n      pop\n      returndatasize\n      dup1\n      0x00\n      dup2\n      eq\n      tag_106\n      jumpi\n      mload(0x40)\n      swap2\n      pop\n      and(add(returndatasize, 0x3f), not(0x1f))\n      dup3\n      add\n      0x40\n      mstore\n      returndatasize\n      dup3\n      mstore\n      returndatasize\n      0x00\n      0x20\n      dup5\n      add\n      returndatacopy\n      jump(tag_105)\n    tag_106:\n      0x60\n      swap2\n      pop\n    tag_105:\n      pop\n        /* \"hashTime.sol\":3510:3561  (bool success, ) = receiver.call{value: amount}(\"\") */\n      pop\n      swap1\n      pop\n        /* \"hashTime.sol\":3580:3587  success */\n      dup1\n        /* \"hashTime.sol\":3572:3607  require(success, \"Transfer failed\") */\n      tag_107\n      jumpi\n      mload(0x40)\n      0x08c379a000000000000000000000000000000000000000000000000000000000\n      dup2\n      mstore\n      0x04\n      add\n      tag_108\n      swap1\n      tag_85\n      jump\t// in\n    tag_108:\n      mload(0x40)\n      dup1\n      swap2\n      sub\n      swap1\n      revert\n    tag_107:\n        /* \"hashTime.sol\":3328:3615  {... */\n      pop\n        /* \"hashTime.sol\":3235:3615  function withdraw(bytes32 preimage) external onlyReceiver fundsNotWithdrawn fundsNotRefunded {... */\n      pop\n      jump\t// out\n        /* \"hashTime.sol\":433:456  bytes32 public hashlock */\n    tag_40:\n      sload(0x03)\n      dup2\n      jump\t// out\n        /* \"hashTime.sol\":493:514  uint256 public amount */\n    tag_45:\n      sload(0x05)\n      dup2\n      jump\t// out\n        /* \"hashTime.sol\":463:486  uint256 public timelock */\n    tag_50:\n      sload(0x04)\n      dup2\n      jump\t// out\n        /* \"@openzeppelin/contracts/access/Ownable.sol\":2543:2758  function transferOwnership(address newOwner) public virtual onlyOwner {... */\n    tag_56:\n        /* \"@openzeppelin/contracts/access/Ownable.sol\":1531:1544  _checkOwner() */\n      tag_110\n        /* \"@openzeppelin/contracts/access/Ownable.sol\":1531:1542  _checkOwner */\n      tag_63\n        /* \"@openzeppelin/contracts/access/Ownable.sol\":1531:1544  _checkOwner() */\n      jump\t// in\n    tag_110:\n        /* \"@openzeppelin/contracts/access/Ownable.sol\":2647:2648  0 */\n      0x00\n        /* \"@openzeppelin/contracts/access/Ownable.sol\":2627:2649  newOwner == address(0) */\n      0xffffffffffffffffffffffffffffffffffffffff\n      and\n        /* \"@openzeppelin/contracts/access/Ownable.sol\":2627:2635  newOwner */\n      dup2\n        /* \"@openzeppelin/contracts/access/Ownable.sol\":2627:2649  newOwner == address(0) */\n      0xffffffffffffffffffffffffffffffffffffffff\n      and\n      sub\n        /* \"@openzeppelin/contracts/access/Ownable.sol\":2623:2714  if (newOwner == address(0)) {... */\n      tag_112\n      jumpi\n        /* \"@openzeppelin/contracts/access/Ownable.sol\":2700:2701  0 */\n      0x00\n        /* \"@openzeppelin/contracts/access/Ownable.sol\":2672:2703  OwnableInvalidOwner(address(0)) */\n      mload(0x40)\n      0x1e4fbdf700000000000000000000000000000000000000000000000000000000\n      dup2\n      mstore\n      0x04\n      add\n      tag_113\n      swap2\n      swap1\n      tag_25\n      jump\t// in\n    tag_113:\n      mload(0x40)\n      dup1\n      swap2\n      sub\n      swap1\n      revert\n        /* \"@openzeppelin/contracts/access/Ownable.sol\":2623:2714  if (newOwner == address(0)) {... */\n    tag_112:\n        /* \"@openzeppelin/contracts/access/Ownable.sol\":2723:2751  _transferOwnership(newOwner) */\n      tag_114\n        /* \"@openzeppelin/contracts/access/Ownable.sol\":2742:2750  newOwner */\n      dup2\n        /* \"@openzeppelin/contracts/access/Ownable.sol\":2723:2741  _transferOwnership */\n      tag_90\n        /* \"@openzeppelin/contracts/access/Ownable.sol\":2723:2751  _transferOwnership(newOwner) */\n      jump\t// in\n    tag_114:\n        /* \"@openzeppelin/contracts/access/Ownable.sol\":2543:2758  function transferOwnership(address newOwner) public virtual onlyOwner {... */\n      pop\n      jump\t// out\n        /* \"hashTime.sol\":403:426  address public receiver */\n    tag_59:\n      0x02\n      0x00\n      swap1\n      sload\n      swap1\n      0x0100\n      exp\n      swap1\n      div\n      0xffffffffffffffffffffffffffffffffffffffff\n      and\n      dup2\n      jump\t// out\n        /* \"@openzeppelin/contracts/access/Ownable.sol\":1796:1958  function _checkOwner() internal view virtual {... */\n    tag_63:\n        /* \"@openzeppelin/contracts/access/Ownable.sol\":1866:1878  _msgSender() */\n      tag_116\n        /* \"@openzeppelin/contracts/access/Ownable.sol\":1866:1876  _msgSender */\n      tag_117\n        /* \"@openzeppelin/contracts/access/Ownable.sol\":1866:1878  _msgSender() */\n      jump\t// in\n    tag_116:\n        /* \"@openzeppelin/contracts/access/Ownable.sol\":1855:1878  owner() != _msgSender() */\n      0xffffffffffffffffffffffffffffffffffffffff\n      and\n        /* \"@openzeppelin/contracts/access/Ownable.sol\":1855:1862  owner() */\n      tag_118\n        /* \"@openzeppelin/contracts/access/Ownable.sol\":1855:1860  owner */\n      tag_31\n        /* \"@openzeppelin/contracts/access/Ownable.sol\":1855:1862  owner() */\n      jump\t// in\n    tag_118:\n        /* \"@openzeppelin/contracts/access/Ownable.sol\":1855:1878  owner() != _msgSender() */\n      0xffffffffffffffffffffffffffffffffffffffff\n      and\n      eq\n        /* \"@openzeppelin/contracts/access/Ownable.sol\":1851:1952  if (owner() != _msgSender()) {... */\n      tag_119\n      jumpi\n        /* \"@openzeppelin/contracts/access/Ownable.sol\":1928:1940  _msgSender() */\n      tag_120\n        /* \"@openzeppelin/contracts/access/Ownable.sol\":1928:1938  _msgSender */\n      tag_117\n        /* \"@openzeppelin/contracts/access/Ownable.sol\":1928:1940  _msgSender() */\n      jump\t// in\n    tag_120:\n        /* \"@openzeppelin/contracts/access/Ownable.sol\":1901:1941  OwnableUnauthorizedAccount(_msgSender()) */\n      mload(0x40)\n      0x118cdaa700000000000000000000000000000000000000000000000000000000\n      dup2\n      mstore\n      0x04\n      add\n      tag_121\n      swap2\n      swap1\n      tag_25\n      jump\t// in\n    tag_121:\n      mload(0x40)\n      dup1\n      swap2\n      sub\n      swap1\n      revert\n        /* \"@openzeppelin/contracts/access/Ownable.sol\":1851:1952  if (owner() != _msgSender()) {... */\n    tag_119:\n        /* \"@openzeppelin/contracts/access/Ownable.sol\":1796:1958  function _checkOwner() internal view virtual {... */\n      jump\t// out\n        /* \"@openzeppelin/contracts/access/Ownable.sol\":2912:3099  function _transferOwnership(address newOwner) internal virtual {... */\n    tag_90:\n        /* \"@openzeppelin/contracts/access/Ownable.sol\":2985:3001  address oldOwner */\n      0x00\n        /* \"@openzeppelin/contracts/access/Ownable.sol\":3004:3010  _owner */\n      0x00\n      0x00\n      swap1\n      sload\n      swap1\n      0x0100\n      exp\n      swap1\n      div\n      0xffffffffffffffffffffffffffffffffffffffff\n      and\n        /* \"@openzeppelin/contracts/access/Ownable.sol\":2985:3010  address oldOwner = _owner */\n      swap1\n      pop\n        /* \"@openzeppelin/contracts/access/Ownable.sol\":3029:3037  newOwner */\n      dup2\n        /* \"@openzeppelin/contracts/access/Ownable.sol\":3020:3026  _owner */\n      0x00\n      0x00\n        /* \"@openzeppelin/contracts/access/Ownable.sol\":3020:3037  _owner = newOwner */\n      0x0100\n      exp\n      dup2\n      sload\n      dup2\n      0xffffffffffffffffffffffffffffffffffffffff\n      mul\n      not\n      and\n      swap1\n      dup4\n      0xffffffffffffffffffffffffffffffffffffffff\n      and\n      mul\n      or\n      swap1\n      sstore\n      pop\n        /* \"@openzeppelin/contracts/access/Ownable.sol\":3083:3091  newOwner */\n      dup2\n        /* \"@openzeppelin/contracts/access/Ownable.sol\":3052:3092  OwnershipTransferred(oldOwner, newOwner) */\n      0xffffffffffffffffffffffffffffffffffffffff\n      and\n        /* \"@openzeppelin/contracts/access/Ownable.sol\":3073:3081  oldOwner */\n      dup2\n        /* \"@openzeppelin/contracts/access/Ownable.sol\":3052:3092  OwnershipTransferred(oldOwner, newOwner) */\n      0xffffffffffffffffffffffffffffffffffffffff\n      and\n      0x8be0079c531659141344cd1fd0a4f28419497f9722a3daafe3b4186f6b6457e0\n      mload(0x40)\n      mload(0x40)\n      dup1\n      swap2\n      sub\n      swap1\n      log3\n        /* \"@openzeppelin/contracts/access/Ownable.sol\":2975:3099  {... */\n      pop\n        /* \"@openzeppelin/contracts/access/Ownable.sol\":2912:3099  function _transferOwnership(address newOwner) internal virtual {... */\n      pop\n      jump\t// out\n        /* \"@openzeppelin/contracts/utils/Context.sol\":656:752  function _msgSender() internal view virtual returns (address) {... */\n    tag_117:\n        /* \"@openzeppelin/contracts/utils/Context.sol\":709:716  address */\n      0x00\n        /* \"@openzeppelin/contracts/utils/Context.sol\":735:745  msg.sender */\n      caller\n        /* \"@openzeppelin/contracts/utils/Context.sol\":728:745  return msg.sender */\n      swap1\n      pop\n        /* \"@openzeppelin/contracts/utils/Context.sol\":656:752  function _msgSender() internal view virtual returns (address) {... */\n      swap1\n      jump\t// out\n        /* \"#utility.yul\":88:205   */\n    tag_125:\n        /* \"#utility.yul\":197:198   */\n      0x00\n        /* \"#utility.yul\":194:195   */\n      0x00\n        /* \"#utility.yul\":187:199   */\n      revert\n        /* \"#utility.yul\":334:460   */\n    tag_127:\n        /* \"#utility.yul\":371:378   */\n      0x00\n        /* \"#utility.yul\":411:453   */\n      0xffffffffffffffffffffffffffffffffffffffff\n        /* \"#utility.yul\":404:409   */\n      dup3\n        /* \"#utility.yul\":400:454   */\n      and\n        /* \"#utility.yul\":389:454   */\n      swap1\n      pop\n        /* \"#utility.yul\":334:460   */\n      swap2\n      swap1\n      pop\n      jump\t// out\n        /* \"#utility.yul\":466:562   */\n    tag_128:\n        /* \"#utility.yul\":503:510   */\n      0x00\n        /* \"#utility.yul\":532:556   */\n      tag_154\n        /* \"#utility.yul\":550:555   */\n      dup3\n        /* \"#utility.yul\":532:556   */\n      tag_127\n      jump\t// in\n    tag_154:\n        /* \"#utility.yul\":521:556   */\n      swap1\n      pop\n        /* \"#utility.yul\":466:562   */\n      swap2\n      swap1\n      pop\n      jump\t// out\n        /* \"#utility.yul\":568:690   */\n    tag_129:\n        /* \"#utility.yul\":641:665   */\n      tag_156\n        /* \"#utility.yul\":659:664   */\n      dup2\n        /* \"#utility.yul\":641:665   */\n      tag_128\n      jump\t// in\n    tag_156:\n        /* \"#utility.yul\":634:639   */\n      dup2\n        /* \"#utility.yul\":631:666   */\n      eq\n        /* \"#utility.yul\":621:684   */\n      tag_157\n      jumpi\n        /* \"#utility.yul\":680:681   */\n      0x00\n        /* \"#utility.yul\":677:678   */\n      0x00\n        /* \"#utility.yul\":670:682   */\n      revert\n        /* \"#utility.yul\":621:684   */\n    tag_157:\n        /* \"#utility.yul\":568:690   */\n      pop\n      jump\t// out\n        /* \"#utility.yul\":696:835   */\n    tag_130:\n        /* \"#utility.yul\":742:747   */\n      0x00\n        /* \"#utility.yul\":780:786   */\n      dup2\n        /* \"#utility.yul\":767:787   */\n      calldataload\n        /* \"#utility.yul\":758:787   */\n      swap1\n      pop\n        /* \"#utility.yul\":796:829   */\n      tag_159\n        /* \"#utility.yul\":823:828   */\n      dup2\n        /* \"#utility.yul\":796:829   */\n      tag_129\n      jump\t// in\n    tag_159:\n        /* \"#utility.yul\":696:835   */\n      swap3\n      swap2\n      pop\n      pop\n      jump\t// out\n        /* \"#utility.yul\":841:918   */\n    tag_131:\n        /* \"#utility.yul\":878:885   */\n      0x00\n        /* \"#utility.yul\":907:912   */\n      dup2\n        /* \"#utility.yul\":896:912   */\n      swap1\n      pop\n        /* \"#utility.yul\":841:918   */\n      swap2\n      swap1\n      pop\n      jump\t// out\n        /* \"#utility.yul\":924:1046   */\n    tag_132:\n        /* \"#utility.yul\":997:1021   */\n      tag_162\n        /* \"#utility.yul\":1015:1020   */\n      dup2\n        /* \"#utility.yul\":997:1021   */\n      tag_131\n      jump\t// in\n    tag_162:\n        /* \"#utility.yul\":990:995   */\n      dup2\n        /* \"#utility.yul\":987:1022   */\n      eq\n        /* \"#utility.yul\":977:1040   */\n      tag_163\n      jumpi\n        /* \"#utility.yul\":1036:1037   */\n      0x00\n        /* \"#utility.yul\":1033:1034   */\n      0x00\n        /* \"#utility.yul\":1026:1038   */\n      revert\n        /* \"#utility.yul\":977:1040   */\n    tag_163:\n        /* \"#utility.yul\":924:1046   */\n      pop\n      jump\t// out\n        /* \"#utility.yul\":1052:1191   */\n    tag_133:\n        /* \"#utility.yul\":1098:1103   */\n      0x00\n        /* \"#utility.yul\":1136:1142   */\n      dup2\n        /* \"#utility.yul\":1123:1143   */\n      calldataload\n        /* \"#utility.yul\":1114:1143   */\n      swap1\n      pop\n        /* \"#utility.yul\":1152:1185   */\n      tag_165\n        /* \"#utility.yul\":1179:1184   */\n      dup2\n        /* \"#utility.yul\":1152:1185   */\n      tag_132\n      jump\t// in\n    tag_165:\n        /* \"#utility.yul\":1052:1191   */\n      swap3\n      swap2\n      pop\n      pop\n      jump\t// out\n        /* \"#utility.yul\":1197:1274   */\n    tag_134:\n        /* \"#utility.yul\":1234:1241   */\n      0x00\n        /* \"#utility.yul\":1263:1268   */\n      dup2\n        /* \"#utility.yul\":1252:1268   */\n      swap1\n      pop\n        /* \"#utility.yul\":1197:1274   */\n      swap2\n      swap1\n      pop\n      jump\t// out\n        /* \"#utility.yul\":1280:1402   */\n    tag_135:\n        /* \"#utility.yul\":1353:1377   */\n      tag_168\n        /* \"#utility.yul\":1371:1376   */\n      dup2\n        /* \"#utility.yul\":1353:1377   */\n      tag_134\n      jump\t// in\n    tag_168:\n        /* \"#utility.yul\":1346:1351   */\n      dup2\n        /* \"#utility.yul\":1343:1378   */\n      eq\n        /* \"#utility.yul\":1333:1396   */\n      tag_169\n      jumpi\n        /* \"#utility.yul\":1392:1393   */\n      0x00\n        /* \"#utility.yul\":1389:1390   */\n      0x00\n        /* \"#utility.yul\":1382:1394   */\n      revert\n        /* \"#utility.yul\":1333:1396   */\n    tag_169:\n        /* \"#utility.yul\":1280:1402   */\n      pop\n      jump\t// out\n        /* \"#utility.yul\":1408:1547   */\n    tag_136:\n        /* \"#utility.yul\":1454:1459   */\n      0x00\n        /* \"#utility.yul\":1492:1498   */\n      dup2\n        /* \"#utility.yul\":1479:1499   */\n      calldataload\n        /* \"#utility.yul\":1470:1499   */\n      swap1\n      pop\n        /* \"#utility.yul\":1508:1541   */\n      tag_171\n        /* \"#utility.yul\":1535:1540   */\n      dup2\n        /* \"#utility.yul\":1508:1541   */\n      tag_135\n      jump\t// in\n    tag_171:\n        /* \"#utility.yul\":1408:1547   */\n      swap3\n      swap2\n      pop\n      pop\n      jump\t// out\n        /* \"#utility.yul\":1553:2172   */\n    tag_16:\n        /* \"#utility.yul\":1630:1636   */\n      0x00\n        /* \"#utility.yul\":1638:1644   */\n      0x00\n        /* \"#utility.yul\":1646:1652   */\n      0x00\n        /* \"#utility.yul\":1695:1697   */\n      0x60\n        /* \"#utility.yul\":1683:1692   */\n      dup5\n        /* \"#utility.yul\":1674:1681   */\n      dup7\n        /* \"#utility.yul\":1670:1693   */\n      sub\n        /* \"#utility.yul\":1666:1698   */\n      slt\n        /* \"#utility.yul\":1663:1782   */\n      iszero\n      tag_173\n      jumpi\n        /* \"#utility.yul\":1701:1780   */\n      tag_174\n      tag_125\n      jump\t// in\n    tag_174:\n        /* \"#utility.yul\":1663:1782   */\n    tag_173:\n        /* \"#utility.yul\":1821:1822   */\n      0x00\n        /* \"#utility.yul\":1846:1899   */\n      tag_175\n        /* \"#utility.yul\":1891:1898   */\n      dup7\n        /* \"#utility.yul\":1882:1888   */\n      dup3\n        /* \"#utility.yul\":1871:1880   */\n      dup8\n        /* \"#utility.yul\":1867:1889   */\n      add\n        /* \"#utility.yul\":1846:1899   */\n      tag_130\n      jump\t// in\n    tag_175:\n        /* \"#utility.yul\":1836:1899   */\n      swap4\n      pop\n        /* \"#utility.yul\":1792:1909   */\n      pop\n        /* \"#utility.yul\":1948:1950   */\n      0x20\n        /* \"#utility.yul\":1974:2027   */\n      tag_176\n        /* \"#utility.yul\":2019:2026   */\n      dup7\n        /* \"#utility.yul\":2010:2016   */\n      dup3\n        /* \"#utility.yul\":1999:2008   */\n      dup8\n        /* \"#utility.yul\":1995:2017   */\n      add\n        /* \"#utility.yul\":1974:2027   */\n      tag_133\n      jump\t// in\n    tag_176:\n        /* \"#utility.yul\":1964:2027   */\n      swap3\n      pop\n        /* \"#utility.yul\":1919:2037   */\n      pop\n        /* \"#utility.yul\":2076:2078   */\n      0x40\n        /* \"#utility.yul\":2102:2155   */\n      tag_177\n        /* \"#utility.yul\":2147:2154   */\n      dup7\n        /* \"#utility.yul\":2138:2144   */\n      dup3\n        /* \"#utility.yul\":2127:2136   */\n      dup8\n        /* \"#utility.yul\":2123:2145   */\n      add\n        /* \"#utility.yul\":2102:2155   */\n      tag_136\n      jump\t// in\n    tag_177:\n        /* \"#utility.yul\":2092:2155   */\n      swap2\n      pop\n        /* \"#utility.yul\":2047:2165   */\n      pop\n        /* \"#utility.yul\":1553:2172   */\n      swap3\n      pop\n      swap3\n      pop\n      swap3\n      jump\t// out\n        /* \"#utility.yul\":2178:2296   */\n    tag_137:\n        /* \"#utility.yul\":2265:2289   */\n      tag_179\n        /* \"#utility.yul\":2283:2288   */\n      dup2\n        /* \"#utility.yul\":2265:2289   */\n      tag_128\n      jump\t// in\n    tag_179:\n        /* \"#utility.yul\":2260:2263   */\n      dup3\n        /* \"#utility.yul\":2253:2290   */\n      mstore\n        /* \"#utility.yul\":2178:2296   */\n      pop\n      pop\n      jump\t// out\n        /* \"#utility.yul\":2302:2524   */\n    tag_25:\n        /* \"#utility.yul\":2395:2399   */\n      0x00\n        /* \"#utility.yul\":2433:2435   */\n      0x20\n        /* \"#utility.yul\":2422:2431   */\n      dup3\n        /* \"#utility.yul\":2418:2436   */\n      add\n        /* \"#utility.yul\":2410:2436   */\n      swap1\n      pop\n        /* \"#utility.yul\":2446:2517   */\n      tag_181\n        /* \"#utility.yul\":2514:2515   */\n      0x00\n        /* \"#utility.yul\":2503:2512   */\n      dup4\n        /* \"#utility.yul\":2499:2516   */\n      add\n        /* \"#utility.yul\":2490:2496   */\n      dup5\n        /* \"#utility.yul\":2446:2517   */\n      tag_137\n      jump\t// in\n    tag_181:\n        /* \"#utility.yul\":2302:2524   */\n      swap3\n      swap2\n      pop\n      pop\n      jump\t// out\n        /* \"#utility.yul\":2530:2859   */\n    tag_36:\n        /* \"#utility.yul\":2589:2595   */\n      0x00\n        /* \"#utility.yul\":2638:2640   */\n      0x20\n        /* \"#utility.yul\":2626:2635   */\n      dup3\n        /* \"#utility.yul\":2617:2624   */\n      dup5\n        /* \"#utility.yul\":2613:2636   */\n      sub\n        /* \"#utility.yul\":2609:2641   */\n      slt\n        /* \"#utility.yul\":2606:2725   */\n      iszero\n      tag_183\n      jumpi\n        /* \"#utility.yul\":2644:2723   */\n      tag_184\n      tag_125\n      jump\t// in\n    tag_184:\n        /* \"#utility.yul\":2606:2725   */\n    tag_183:\n        /* \"#utility.yul\":2764:2765   */\n      0x00\n        /* \"#utility.yul\":2789:2842   */\n      tag_185\n        /* \"#utility.yul\":2834:2841   */\n      dup5\n        /* \"#utility.yul\":2825:2831   */\n      dup3\n        /* \"#utility.yul\":2814:2823   */\n      dup6\n        /* \"#utility.yul\":2810:2832   */\n      add\n        /* \"#utility.yul\":2789:2842   */\n      tag_133\n      jump\t// in\n    tag_185:\n        /* \"#utility.yul\":2779:2842   */\n      swap2\n      pop\n        /* \"#utility.yul\":2735:2852   */\n      pop\n        /* \"#utility.yul\":2530:2859   */\n      swap3\n      swap2\n      pop\n      pop\n      jump\t// out\n        /* \"#utility.yul\":2865:2983   */\n    tag_138:\n        /* \"#utility.yul\":2952:2976   */\n      tag_187\n        /* \"#utility.yul\":2970:2975   */\n      dup2\n        /* \"#utility.yul\":2952:2976   */\n      tag_131\n      jump\t// in\n    tag_187:\n        /* \"#utility.yul\":2947:2950   */\n      dup3\n        /* \"#utility.yul\":2940:2977   */\n      mstore\n        /* \"#utility.yul\":2865:2983   */\n      pop\n      pop\n      jump\t// out\n        /* \"#utility.yul\":2989:3211   */\n    tag_42:\n        /* \"#utility.yul\":3082:3086   */\n      0x00\n        /* \"#utility.yul\":3120:3122   */\n      0x20\n        /* \"#utility.yul\":3109:3118   */\n      dup3\n        /* \"#utility.yul\":3105:3123   */\n      add\n        /* \"#utility.yul\":3097:3123   */\n      swap1\n      pop\n        /* \"#utility.yul\":3133:3204   */\n      tag_189\n        /* \"#utility.yul\":3201:3202   */\n      0x00\n        /* \"#utility.yul\":3190:3199   */\n      dup4\n        /* \"#utility.yul\":3186:3203   */\n      add\n        /* \"#utility.yul\":3177:3183   */\n      dup5\n        /* \"#utility.yul\":3133:3204   */\n      tag_138\n      jump\t// in\n    tag_189:\n        /* \"#utility.yul\":2989:3211   */\n      swap3\n      swap2\n      pop\n      pop\n      jump\t// out\n        /* \"#utility.yul\":3217:3335   */\n    tag_139:\n        /* \"#utility.yul\":3304:3328   */\n      tag_191\n        /* \"#utility.yul\":3322:3327   */\n      dup2\n        /* \"#utility.yul\":3304:3328   */\n      tag_134\n      jump\t// in\n    tag_191:\n        /* \"#utility.yul\":3299:3302   */\n      dup3\n        /* \"#utility.yul\":3292:3329   */\n      mstore\n        /* \"#utility.yul\":3217:3335   */\n      pop\n      pop\n      jump\t// out\n        /* \"#utility.yul\":3341:3563   */\n    tag_47:\n        /* \"#utility.yul\":3434:3438   */\n      0x00\n        /* \"#utility.yul\":3472:3474   */\n      0x20\n        /* \"#utility.yul\":3461:3470   */\n      dup3\n        /* \"#utility.yul\":3457:3475   */\n      add\n        /* \"#utility.yul\":3449:3475   */\n      swap1\n      pop\n        /* \"#utility.yul\":3485:3556   */\n      tag_193\n        /* \"#utility.yul\":3553:3554   */\n      0x00\n        /* \"#utility.yul\":3542:3551   */\n      dup4\n        /* \"#utility.yul\":3538:3555   */\n      add\n        /* \"#utility.yul\":3529:3535   */\n      dup5\n        /* \"#utility.yul\":3485:3556   */\n      tag_139\n      jump\t// in\n    tag_193:\n        /* \"#utility.yul\":3341:3563   */\n      swap3\n      swap2\n      pop\n      pop\n      jump\t// out\n        /* \"#utility.yul\":3569:3898   */\n    tag_55:\n        /* \"#utility.yul\":3628:3634   */\n      0x00\n        /* \"#utility.yul\":3677:3679   */\n      0x20\n        /* \"#utility.yul\":3665:3674   */\n      dup3\n        /* \"#utility.yul\":3656:3663   */\n      dup5\n        /* \"#utility.yul\":3652:3675   */\n      sub\n        /* \"#utility.yul\":3648:3680   */\n      slt\n        /* \"#utility.yul\":3645:3764   */\n      iszero\n      tag_195\n      jumpi\n        /* \"#utility.yul\":3683:3762   */\n      tag_196\n      tag_125\n      jump\t// in\n    tag_196:\n        /* \"#utility.yul\":3645:3764   */\n    tag_195:\n        /* \"#utility.yul\":3803:3804   */\n      0x00\n        /* \"#utility.yul\":3828:3881   */\n      tag_197\n        /* \"#utility.yul\":3873:3880   */\n      dup5\n        /* \"#utility.yul\":3864:3870   */\n      dup3\n        /* \"#utility.yul\":3853:3862   */\n      dup6\n        /* \"#utility.yul\":3849:3871   */\n      add\n        /* \"#utility.yul\":3828:3881   */\n      tag_130\n      jump\t// in\n    tag_197:\n        /* \"#utility.yul\":3818:3881   */\n      swap2\n      pop\n        /* \"#utility.yul\":3774:3891   */\n      pop\n        /* \"#utility.yul\":3569:3898   */\n      swap3\n      swap2\n      pop\n      pop\n      jump\t// out\n        /* \"#utility.yul\":3904:4346   */\n    tag_68:\n        /* \"#utility.yul\":4053:4057   */\n      0x00\n        /* \"#utility.yul\":4091:4093   */\n      0x60\n        /* \"#utility.yul\":4080:4089   */\n      dup3\n        /* \"#utility.yul\":4076:4094   */\n      add\n        /* \"#utility.yul\":4068:4094   */\n      swap1\n      pop\n        /* \"#utility.yul\":4104:4175   */\n      tag_199\n        /* \"#utility.yul\":4172:4173   */\n      0x00\n        /* \"#utility.yul\":4161:4170   */\n      dup4\n        /* \"#utility.yul\":4157:4174   */\n      add\n        /* \"#utility.yul\":4148:4154   */\n      dup7\n        /* \"#utility.yul\":4104:4175   */\n      tag_139\n      jump\t// in\n    tag_199:\n        /* \"#utility.yul\":4185:4257   */\n      tag_200\n        /* \"#utility.yul\":4253:4255   */\n      0x20\n        /* \"#utility.yul\":4242:4251   */\n      dup4\n        /* \"#utility.yul\":4238:4256   */\n      add\n        /* \"#utility.yul\":4229:4235   */\n      dup6\n        /* \"#utility.yul\":4185:4257   */\n      tag_138\n      jump\t// in\n    tag_200:\n        /* \"#utility.yul\":4267:4339   */\n      tag_201\n        /* \"#utility.yul\":4335:4337   */\n      0x40\n        /* \"#utility.yul\":4324:4333   */\n      dup4\n        /* \"#utility.yul\":4320:4338   */\n      add\n        /* \"#utility.yul\":4311:4317   */\n      dup5\n        /* \"#utility.yul\":4267:4339   */\n      tag_139\n      jump\t// in\n    tag_201:\n        /* \"#utility.yul\":3904:4346   */\n      swap5\n      swap4\n      pop\n      pop\n      pop\n      pop\n      jump\t// out\n        /* \"#utility.yul\":4352:4499   */\n    tag_140:\n        /* \"#utility.yul\":4453:4464   */\n      0x00\n        /* \"#utility.yul\":4490:4493   */\n      dup2\n        /* \"#utility.yul\":4475:4493   */\n      swap1\n      pop\n        /* \"#utility.yul\":4352:4499   */\n      swap3\n      swap2\n      pop\n      pop\n      jump\t// out\n        /* \"#utility.yul\":4505:4619   */\n    tag_141:\n      pop\n      jump\t// out\n        /* \"#utility.yul\":4625:5023   */\n    tag_142:\n        /* \"#utility.yul\":4784:4787   */\n      0x00\n        /* \"#utility.yul\":4805:4888   */\n      tag_205\n        /* \"#utility.yul\":4886:4887   */\n      0x00\n        /* \"#utility.yul\":4881:4884   */\n      dup4\n        /* \"#utility.yul\":4805:4888   */\n      tag_140\n      jump\t// in\n    tag_205:\n        /* \"#utility.yul\":4798:4888   */\n      swap2\n      pop\n        /* \"#utility.yul\":4897:4990   */\n      tag_206\n        /* \"#utility.yul\":4986:4989   */\n      dup3\n        /* \"#utility.yul\":4897:4990   */\n      tag_141\n      jump\t// in\n    tag_206:\n        /* \"#utility.yul\":5015:5016   */\n      0x00\n        /* \"#utility.yul\":5010:5013   */\n      dup3\n        /* \"#utility.yul\":5006:5017   */\n      add\n        /* \"#utility.yul\":4999:5017   */\n      swap1\n      pop\n        /* \"#utility.yul\":4625:5023   */\n      swap2\n      swap1\n      pop\n      jump\t// out\n        /* \"#utility.yul\":5029:5408   */\n    tag_79:\n        /* \"#utility.yul\":5213:5216   */\n      0x00\n        /* \"#utility.yul\":5235:5382   */\n      tag_208\n        /* \"#utility.yul\":5378:5381   */\n      dup3\n        /* \"#utility.yul\":5235:5382   */\n      tag_142\n      jump\t// in\n    tag_208:\n        /* \"#utility.yul\":5228:5382   */\n      swap2\n      pop\n        /* \"#utility.yul\":5399:5402   */\n      dup2\n        /* \"#utility.yul\":5392:5402   */\n      swap1\n      pop\n        /* \"#utility.yul\":5029:5408   */\n      swap2\n      swap1\n      pop\n      jump\t// out\n        /* \"#utility.yul\":5414:5583   */\n    tag_143:\n        /* \"#utility.yul\":5498:5509   */\n      0x00\n        /* \"#utility.yul\":5532:5538   */\n      dup3\n        /* \"#utility.yul\":5527:5530   */\n      dup3\n        /* \"#utility.yul\":5520:5539   */\n      mstore\n        /* \"#utility.yul\":5572:5576   */\n      0x20\n        /* \"#utility.yul\":5567:5570   */\n      dup3\n        /* \"#utility.yul\":5563:5577   */\n      add\n        /* \"#utility.yul\":5548:5577   */\n      swap1\n      pop\n        /* \"#utility.yul\":5414:5583   */\n      swap3\n      swap2\n      pop\n      pop\n      jump\t// out\n        /* \"#utility.yul\":5589:5754   */\n    tag_144:\n        /* \"#utility.yul\":5729:5746   */\n      0x5472616e73666572206661696c65640000000000000000000000000000000000\n        /* \"#utility.yul\":5725:5726   */\n      0x00\n        /* \"#utility.yul\":5717:5723   */\n      dup3\n        /* \"#utility.yul\":5713:5727   */\n      add\n        /* \"#utility.yul\":5706:5747   */\n      mstore\n        /* \"#utility.yul\":5589:5754   */\n      pop\n      jump\t// out\n        /* \"#utility.yul\":5760:6126   */\n    tag_145:\n        /* \"#utility.yul\":5902:5905   */\n      0x00\n        /* \"#utility.yul\":5923:5990   */\n      tag_212\n        /* \"#utility.yul\":5987:5989   */\n      0x0f\n        /* \"#utility.yul\":5982:5985   */\n      dup4\n        /* \"#utility.yul\":5923:5990   */\n      tag_143\n      jump\t// in\n    tag_212:\n        /* \"#utility.yul\":5916:5990   */\n      swap2\n      pop\n        /* \"#utility.yul\":5999:6092   */\n      tag_213\n        /* \"#utility.yul\":6088:6091   */\n      dup3\n        /* \"#utility.yul\":5999:6092   */\n      tag_144\n      jump\t// in\n    tag_213:\n        /* \"#utility.yul\":6117:6119   */\n      0x20\n        /* \"#utility.yul\":6112:6115   */\n      dup3\n        /* \"#utility.yul\":6108:6120   */\n      add\n        /* \"#utility.yul\":6101:6120   */\n      swap1\n      pop\n        /* \"#utility.yul\":5760:6126   */\n      swap2\n      swap1\n      pop\n      jump\t// out\n        /* \"#utility.yul\":6132:6551   */\n    tag_85:\n        /* \"#utility.yul\":6298:6302   */\n      0x00\n        /* \"#utility.yul\":6336:6338   */\n      0x20\n        /* \"#utility.yul\":6325:6334   */\n      dup3\n        /* \"#utility.yul\":6321:6339   */\n      add\n        /* \"#utility.yul\":6313:6339   */\n      swap1\n      pop\n        /* \"#utility.yul\":6385:6394   */\n      dup2\n        /* \"#utility.yul\":6379:6383   */\n      dup2\n        /* \"#utility.yul\":6375:6395   */\n      sub\n        /* \"#utility.yul\":6371:6372   */\n      0x00\n        /* \"#utility.yul\":6360:6369   */\n      dup4\n        /* \"#utility.yul\":6356:6373   */\n      add\n        /* \"#utility.yul\":6349:6396   */\n      mstore\n        /* \"#utility.yul\":6413:6544   */\n      tag_215\n        /* \"#utility.yul\":6539:6543   */\n      dup2\n        /* \"#utility.yul\":6413:6544   */\n      tag_145\n      jump\t// in\n    tag_215:\n        /* \"#utility.yul\":6405:6544   */\n      swap1\n      pop\n        /* \"#utility.yul\":6132:6551   */\n      swap2\n      swap1\n      pop\n      jump\t// out\n        /* \"#utility.yul\":6557:6636   */\n    tag_146:\n        /* \"#utility.yul\":6596:6603   */\n      0x00\n        /* \"#utility.yul\":6625:6630   */\n      dup2\n        /* \"#utility.yul\":6614:6630   */\n      swap1\n      pop\n        /* \"#utility.yul\":6557:6636   */\n      swap2\n      swap1\n      pop\n      jump\t// out\n        /* \"#utility.yul\":6642:6799   */\n    tag_147:\n        /* \"#utility.yul\":6747:6792   */\n      tag_218\n        /* \"#utility.yul\":6767:6791   */\n      tag_219\n        /* \"#utility.yul\":6785:6790   */\n      dup3\n        /* \"#utility.yul\":6767:6791   */\n      tag_131\n      jump\t// in\n    tag_219:\n        /* \"#utility.yul\":6747:6792   */\n      tag_146\n      jump\t// in\n    tag_218:\n        /* \"#utility.yul\":6742:6745   */\n      dup3\n        /* \"#utility.yul\":6735:6793   */\n      mstore\n        /* \"#utility.yul\":6642:6799   */\n      pop\n      pop\n      jump\t// out\n        /* \"#utility.yul\":6805:7061   */\n    tag_100:\n        /* \"#utility.yul\":6917:6920   */\n      0x00\n        /* \"#utility.yul\":6932:7007   */\n      tag_221\n        /* \"#utility.yul\":7003:7006   */\n      dup3\n        /* \"#utility.yul\":6994:7000   */\n      dup5\n        /* \"#utility.yul\":6932:7007   */\n      tag_147\n      jump\t// in\n    tag_221:\n        /* \"#utility.yul\":7032:7034   */\n      0x20\n        /* \"#utility.yul\":7027:7030   */\n      dup3\n        /* \"#utility.yul\":7023:7035   */\n      add\n        /* \"#utility.yul\":7016:7035   */\n      swap2\n      pop\n        /* \"#utility.yul\":7052:7055   */\n      dup2\n        /* \"#utility.yul\":7045:7055   */\n      swap1\n      pop\n        /* \"#utility.yul\":6805:7061   */\n      swap3\n      swap2\n      pop\n      pop\n      jump\t// out\n\n    auxdata: 0xa26469706673582212207cb004b448bfde7f4ce05a28d952f7909ff2b8034e1d882d0e23da1a3c31a9ea64736f6c634300081e0033\n}\n",
				"bytecode": {
					"linkReferences": {},
					"object": "608060405234801561000f575f5ffd5b50335f73ffffffffffffffffffffffffffffffffffffffff168173ffffffffffffffffffffffffffffffffffffffff1603610081575f6040517f1e4fbdf70000000000000000000000000000000000000000000000000000000081526004016100789190610196565b60405180910390fd5b6100908161009660201b60201c565b506101af565b5f5f5f9054906101000a900473ffffffffffffffffffffffffffffffffffffffff169050815f5f6101000a81548173ffffffffffffffffffffffffffffffffffffffff021916908373ffffffffffffffffffffffffffffffffffffffff1602179055508173ffffffffffffffffffffffffffffffffffffffff168173ffffffffffffffffffffffffffffffffffffffff167f8be0079c531659141344cd1fd0a4f28419497f9722a3daafe3b4186f6b6457e060405160405180910390a35050565b5f73ffffffffffffffffffffffffffffffffffffffff82169050919050565b5f61018082610157565b9050919050565b61019081610176565b82525050565b5f6020820190506101a95f830184610187565b92915050565b610f44806101bc5f395ff3fe60806040526004361061009b575f3560e01c80638e19899e116100635780638e19899e1461013b578063a782086e14610163578063aa8c217c1461018d578063d33219b4146101b7578063f2fde38b146101e1578063f7260d3e146102095761009b565b806339f5632b1461009f578063590e1ae3146100bb57806367e404ce146100d1578063715018a6146100fb5780638da5cb5b14610111575b5f5ffd5b6100b960048036038101906100b49190610cc8565b610233565b005b3480156100c6575f5ffd5b506100cf610424565b005b3480156100dc575f5ffd5b506100e56106cd565b6040516100f29190610d27565b60405180910390f35b348015610106575f5ffd5b5061010f6106f2565b005b34801561011c575f5ffd5b50610125610705565b6040516101329190610d27565b60405180910390f35b348015610146575f5ffd5b50610161600480360381019061015c9190610d40565b61072c565b005b34801561016e575f5ffd5b506101776109fa565b6040516101849190610d7a565b60405180910390f35b348015610198575f5ffd5b506101a1610a00565b6040516101ae9190610da2565b60405180910390f35b3480156101c2575f5ffd5b506101cb610a06565b6040516101d89190610da2565b60405180910390f35b3480156101ec575f5ffd5b5061020760048036038101906102029190610dbb565b610a0c565b005b348015610214575f5ffd5b5061021d610a90565b60405161022a9190610d27565b60405180910390f35b61023b610ab5565b5f73ffffffffffffffffffffffffffffffffffffffff168373ffffffffffffffffffffffffffffffffffffffff16036102a0576040517fe6c4247b00000000000000000000000000000000000000000000000000000000815260040160405180910390fd5b5f34036102d9576040517f2c5211c600000000000000000000000000000000000000000000000000000000815260040160405180910390fd5b3360015f6101000a81548173ffffffffffffffffffffffffffffffffffffffff021916908373ffffffffffffffffffffffffffffffffffffffff1602179055508260025f6101000a81548173ffffffffffffffffffffffffffffffffffffffff021916908373ffffffffffffffffffffffffffffffffffffffff16021790555081600381905550806004819055503460058190555060025f9054906101000a900473ffffffffffffffffffffffffffffffffffffffff1673ffffffffffffffffffffffffffffffffffffffff1660015f9054906101000a900473ffffffffffffffffffffffffffffffffffffffff1673ffffffffffffffffffffffffffffffffffffffff167feba8ce60075340b428688165c04c10c94e8d81b21712a999dd5918bada05c69d60055460035460045460405161041793929190610de6565b60405180910390a3505050565b60015f9054906101000a900473ffffffffffffffffffffffffffffffffffffffff1673ffffffffffffffffffffffffffffffffffffffff163373ffffffffffffffffffffffffffffffffffffffff16146104aa576040517f0809490800000000000000000000000000000000000000000000000000000000815260040160405180910390fd5b60065f9054906101000a900460ff16156104f0576040517ffdc9d49c00000000000000000000000000000000000000000000000000000000815260040160405180910390fd5b600660019054906101000a900460ff1615610537576040517f99b9caee00000000000000000000000000000000000000000000000000000000815260040160405180910390fd5b600454421015610573576040517f0809490800000000000000000000000000000000000000000000000000000000815260040160405180910390fd5b6001600660016101000a81548160ff02191690831515021790555060015f9054906101000a900473ffffffffffffffffffffffffffffffffffffffff1673ffffffffffffffffffffffffffffffffffffffff167fd7dee2702d63ad89917b6a4da9981c90c4d24f8c2bdfd64c604ecae57d8d06516005546040516105f79190610da2565b60405180910390a25f60015f9054906101000a900473ffffffffffffffffffffffffffffffffffffffff1673ffffffffffffffffffffffffffffffffffffffff1660055460405161064790610e48565b5f6040518083038185875af1925050503d805f8114610681576040519150601f19603f3d011682016040523d82523d5f602084013e610686565b606091505b50509050806106ca576040517f08c379a00000000000000000000000000000000000000000000000000000000081526004016106c190610eb6565b60405180910390fd5b50565b60015f9054906101000a900473ffffffffffffffffffffffffffffffffffffffff1681565b6106fa610ab5565b6107035f610b3c565b565b5f5f5f9054906101000a900473ffffffffffffffffffffffffffffffffffffffff16905090565b60025f9054906101000a900473ffffffffffffffffffffffffffffffffffffffff1673ffffffffffffffffffffffffffffffffffffffff163373ffffffffffffffffffffffffffffffffffffffff16146107b2576040517f79f0ddd500000000000000000000000000000000000000000000000000000000815260040160405180910390fd5b60065f9054906101000a900460ff16156107f8576040517ffdc9d49c00000000000000000000000000000000000000000000000000000000815260040160405180910390fd5b600660019054906101000a900460ff161561083f576040517f99b9caee00000000000000000000000000000000000000000000000000000000815260040160405180910390fd5b600354816040516020016108539190610ef4565b60405160208183030381529060405280519060200120146108a0576040517f79f0ddd500000000000000000000000000000000000000000000000000000000815260040160405180910390fd5b600160065f6101000a81548160ff02191690831515021790555060025f9054906101000a900473ffffffffffffffffffffffffffffffffffffffff1673ffffffffffffffffffffffffffffffffffffffff167f7084f5476618d8e60b11ef0d7d3f06914655adb8793e28ff7f018d4c76d505d56005546040516109239190610da2565b60405180910390a25f60025f9054906101000a900473ffffffffffffffffffffffffffffffffffffffff1673ffffffffffffffffffffffffffffffffffffffff1660055460405161097390610e48565b5f6040518083038185875af1925050503d805f81146109ad576040519150601f19603f3d011682016040523d82523d5f602084013e6109b2565b606091505b50509050806109f6576040517f08c379a00000000000000000000000000000000000000000000000000000000081526004016109ed90610eb6565b60405180910390fd5b5050565b60035481565b60055481565b60045481565b610a14610ab5565b5f73ffffffffffffffffffffffffffffffffffffffff168173ffffffffffffffffffffffffffffffffffffffff1603610a84575f6040517f1e4fbdf7000000000000000000000000000000000000000000000000000000008152600401610a7b9190610d27565b60405180910390fd5b610a8d81610b3c565b50565b60025f9054906101000a900473ffffffffffffffffffffffffffffffffffffffff1681565b610abd610bfd565b73ffffffffffffffffffffffffffffffffffffffff16610adb610705565b73ffffffffffffffffffffffffffffffffffffffff1614610b3a57610afe610bfd565b6040517f118cdaa7000000000000000000000000000000000000000000000000000000008152600401610b319190610d27565b60405180910390fd5b565b5f5f5f9054906101000a900473ffffffffffffffffffffffffffffffffffffffff169050815f5f6101000a81548173ffffffffffffffffffffffffffffffffffffffff021916908373ffffffffffffffffffffffffffffffffffffffff1602179055508173ffffffffffffffffffffffffffffffffffffffff168173ffffffffffffffffffffffffffffffffffffffff167f8be0079c531659141344cd1fd0a4f28419497f9722a3daafe3b4186f6b6457e060405160405180910390a35050565b5f33905090565b5f5ffd5b5f73ffffffffffffffffffffffffffffffffffffffff82169050919050565b5f610c3182610c08565b9050919050565b610c4181610c27565b8114610c4b575f5ffd5b50565b5f81359050610c5c81610c38565b92915050565b5f819050919050565b610c7481610c62565b8114610c7e575f5ffd5b50565b5f81359050610c8f81610c6b565b92915050565b5f819050919050565b610ca781610c95565b8114610cb1575f5ffd5b50565b5f81359050610cc281610c9e565b92915050565b5f5f5f60608486031215610cdf57610cde610c04565b5b5f610cec86828701610c4e565b9350506020610cfd86828701610c81565b9250506040610d0e86828701610cb4565b9150509250925092565b610d2181610c27565b82525050565b5f602082019050610d3a5f830184610d18565b92915050565b5f60208284031215610d5557610d54610c04565b5b5f610d6284828501610c81565b91505092915050565b610d7481610c62565b82525050565b5f602082019050610d8d5f830184610d6b565b92915050565b610d9c81610c95565b82525050565b5f602082019050610db55f830184610d93565b92915050565b5f60208284031215610dd057610dcf610c04565b5b5f610ddd84828501610c4e565b91505092915050565b5f606082019050610df95f830186610d93565b610e066020830185610d6b565b610e136040830184610d93565b949350505050565b5f81905092915050565b50565b5f610e335f83610e1b565b9150610e3e82610e25565b5f82019050919050565b5f610e5282610e28565b9150819050919050565b5f82825260208201905092915050565b7f5472616e73666572206661696c656400000000000000000000000000000000005f82015250565b5f610ea0600f83610e5c565b9150610eab82610e6c565b602082019050919050565b5f6020820190508181035f830152610ecd81610e94565b9050919050565b5f819050919050565b610eee610ee982610c62565b610ed4565b82525050565b5f610eff8284610edd565b6020820191508190509291505056fea26469706673582212207cb004b448bfde7f4ce05a28d952f7909ff2b8034e1d882d0e23da1a3c31a9ea64736f6c634300081e0033",
					"opcodes": "PUSH1 0x80 PUSH1 0x40 MSTORE CALLVALUE DUP1 ISZERO PUSH2 0xF JUMPI PUSH0 PUSH0 REVERT JUMPDEST POP CALLER PUSH0 PUSH20 0xFFFFFFFFFFFFFFFFFFFFFFFFFFFFFFFFFFFFFFFF AND DUP2 PUSH20 0xFFFFFFFFFFFFFFFFFFFFFFFFFFFFFFFFFFFFFFFF AND SUB PUSH2 0x81 JUMPI PUSH0 PUSH1 0x40 MLOAD PUSH32 0x1E4FBDF700000000000000000000000000000000000000000000000000000000 DUP2 MSTORE PUSH1 0x4 ADD PUSH2 0x78 SWAP2 SWAP1 PUSH2 0x196 JUMP JUMPDEST PUSH1 0x40 MLOAD DUP1 SWAP2 SUB SWAP1 REVERT JUMPDEST PUSH2 0x90 DUP2 PUSH2 0x96 PUSH1 0x20 SHL PUSH1 0x20 SHR JUMP JUMPDEST POP PUSH2 0x1AF JUMP JUMPDEST PUSH0 PUSH0 PUSH0 SWAP1 SLOAD SWAP1 PUSH2 0x100 EXP SWAP1 DIV PUSH20 0xFFFFFFFFFFFFFFFFFFFFFFFFFFFFFFFFFFFFFFFF AND SWAP1 POP DUP2 PUSH0 PUSH0 PUSH2 0x100 EXP DUP2 SLOAD DUP2 PUSH20 0xFFFFFFFFFFFFFFFFFFFFFFFFFFFFFFFFFFFFFFFF MUL NOT AND SWAP1 DUP4 PUSH20 0xFFFFFFFFFFFFFFFFFFFFFFFFFFFFFFFFFFFFFFFF AND MUL OR SWAP1 SSTORE POP DUP2 PUSH20 0xFFFFFFFFFFFFFFFFFFFFFFFFFFFFFFFFFFFFFFFF AND DUP2 PUSH20 0xFFFFFFFFFFFFFFFFFFFFFFFFFFFFFFFFFFFFFFFF AND PUSH32 0x8BE0079C531659141344CD1FD0A4F28419497F9722A3DAAFE3B4186F6B6457E0 PUSH1 0x40 MLOAD PUSH1 0x40 MLOAD DUP1 SWAP2 SUB SWAP1 LOG3 POP POP JUMP JUMPDEST PUSH0 PUSH20 0xFFFFFFFFFFFFFFFFFFFFFFFFFFFFFFFFFFFFFFFF DUP3 AND SWAP1 POP SWAP2 SWAP1 POP JUMP JUMPDEST PUSH0 PUSH2 0x180 DUP3 PUSH2 0x157 JUMP JUMPDEST SWAP1 POP SWAP2 SWAP1 POP JUMP JUMPDEST PUSH2 0x190 DUP2 PUSH2 0x176 JUMP JUMPDEST DUP3 MSTORE POP POP JUMP JUMPDEST PUSH0 PUSH1 0x20 DUP3 ADD SWAP1 POP PUSH2 0x1A9 PUSH0 DUP4 ADD DUP5 PUSH2 0x187 JUMP JUMPDEST SWAP3 SWAP2 POP POP JUMP JUMPDEST PUSH2 0xF44 DUP1 PUSH2 0x1BC PUSH0 CODECOPY PUSH0 RETURN INVALID PUSH1 0x80 PUSH1 0x40 MSTORE PUSH1 0x4 CALLDATASIZE LT PUSH2 0x9B JUMPI PUSH0 CALLDATALOAD PUSH1 0xE0 SHR DUP1 PUSH4 0x8E19899E GT PUSH2 0x63 JUMPI DUP1 PUSH4 0x8E19899E EQ PUSH2 0x13B JUMPI DUP1 PUSH4 0xA782086E EQ PUSH2 0x163 JUMPI DUP1 PUSH4 0xAA8C217C EQ PUSH2 0x18D JUMPI DUP1 PUSH4 0xD33219B4 EQ PUSH2 0x1B7 JUMPI DUP1 PUSH4 0xF2FDE38B EQ PUSH2 0x1E1 JUMPI DUP1 PUSH4 0xF7260D3E EQ PUSH2 0x209 JUMPI PUSH2 0x9B JUMP JUMPDEST DUP1 PUSH4 0x39F5632B EQ PUSH2 0x9F JUMPI DUP1 PUSH4 0x590E1AE3 EQ PUSH2 0xBB JUMPI DUP1 PUSH4 0x67E404CE EQ PUSH2 0xD1 JUMPI DUP1 PUSH4 0x715018A6 EQ PUSH2 0xFB JUMPI DUP1 PUSH4 0x8DA5CB5B EQ PUSH2 0x111 JUMPI JUMPDEST PUSH0 PUSH0 REVERT JUMPDEST PUSH2 0xB9 PUSH1 0x4 DUP1 CALLDATASIZE SUB DUP2 ADD SWAP1 PUSH2 0xB4 SWAP2 SWAP1 PUSH2 0xCC8 JUMP JUMPDEST PUSH2 0x233 JUMP JUMPDEST STOP JUMPDEST CALLVALUE DUP1 ISZERO PUSH2 0xC6 JUMPI PUSH0 PUSH0 REVERT JUMPDEST POP PUSH2 0xCF PUSH2 0x424 JUMP JUMPDEST STOP JUMPDEST CALLVALUE DUP1 ISZERO PUSH2 0xDC JUMPI PUSH0 PUSH0 REVERT JUMPDEST POP PUSH2 0xE5 PUSH2 0x6CD JUMP JUMPDEST PUSH1 0x40 MLOAD PUSH2 0xF2 SWAP2 SWAP1 PUSH2 0xD27 JUMP JUMPDEST PUSH1 0x40 MLOAD DUP1 SWAP2 SUB SWAP1 RETURN JUMPDEST CALLVALUE DUP1 ISZERO PUSH2 0x106 JUMPI PUSH0 PUSH0 REVERT JUMPDEST POP PUSH2 0x10F PUSH2 0x6F2 JUMP JUMPDEST STOP JUMPDEST CALLVALUE DUP1 ISZERO PUSH2 0x11C JUMPI PUSH0 PUSH0 REVERT JUMPDEST POP PUSH2 0x125 PUSH2 0x705 JUMP JUMPDEST PUSH1 0x40 MLOAD PUSH2 0x132 SWAP2 SWAP1 PUSH2 0xD27 JUMP JUMPDEST PUSH1 0x40 MLOAD DUP1 SWAP2 SUB SWAP1 RETURN JUMPDEST CALLVALUE DUP1 ISZERO PUSH2 0x146 JUMPI PUSH0 PUSH0 REVERT JUMPDEST POP PUSH2 0x161 PUSH1 0x4 DUP1 CALLDATASIZE SUB DUP2 ADD SWAP1 PUSH2 0x15C SWAP2 SWAP1 PUSH2 0xD40 JUMP JUMPDEST PUSH2 0x72C JUMP JUMPDEST STOP JUMPDEST CALLVALUE DUP1 ISZERO PUSH2 0x16E JUMPI PUSH0 PUSH0 REVERT JUMPDEST POP PUSH2 0x177 PUSH2 0x9FA JUMP JUMPDEST PUSH1 0x40 MLOAD PUSH2 0x184 SWAP2 SWAP1 PUSH2 0xD7A JUMP JUMPDEST PUSH1 0x40 MLOAD DUP1 SWAP2 SUB SWAP1 RETURN JUMPDEST CALLVALUE DUP1 ISZERO PUSH2 0x198 JUMPI PUSH0 PUSH0 REVERT JUMPDEST POP PUSH2 0x1A1 PUSH2 0xA00 JUMP JUMPDEST PUSH1 0x40 MLOAD PUSH2 0x1AE SWAP2 SWAP1 PUSH2 0xDA2 JUMP JUMPDEST PUSH1 0x40 MLOAD DUP1 SWAP2 SUB SWAP1 RETURN JUMPDEST CALLVALUE DUP1 ISZERO PUSH2 0x1C2 JUMPI PUSH0 PUSH0 REVERT JUMPDEST POP PUSH2 0x1CB PUSH2 0xA06 JUMP JUMPDEST PUSH1 0x40 MLOAD PUSH2 0x1D8 SWAP2 SWAP1 PUSH2 0xDA2 JUMP JUMPDEST PUSH1 0x40 MLOAD DUP1 SWAP2 SUB SWAP1 RETURN JUMPDEST CALLVALUE DUP1 ISZERO PUSH2 0x1EC JUMPI PUSH0 PUSH0 REVERT JUMPDEST POP PUSH2 0x207 PUSH1 0x4 DUP1 CALLDATASIZE SUB DUP2 ADD SWAP1 PUSH2 0x202 SWAP2 SWAP1 PUSH2 0xDBB JUMP JUMPDEST PUSH2 0xA0C JUMP JUMPDEST STOP JUMPDEST CALLVALUE DUP1 ISZERO PUSH2 0x214 JUMPI PUSH0 PUSH0 REVERT JUMPDEST POP PUSH2 0x21D PUSH2 0xA90 JUMP JUMPDEST PUSH1 0x40 MLOAD PUSH2 0x22A SWAP2 SWAP1 PUSH2 0xD27 JUMP JUMPDEST PUSH1 0x40 MLOAD DUP1 SWAP2 SUB SWAP1 RETURN JUMPDEST PUSH2 0x23B PUSH2 0xAB5 JUMP JUMPDEST PUSH0 PUSH20 0xFFFFFFFFFFFFFFFFFFFFFFFFFFFFFFFFFFFFFFFF AND DUP4 PUSH20 0xFFFFFFFFFFFFFFFFFFFFFFFFFFFFFFFFFFFFFFFF AND SUB PUSH2 0x2A0 JUMPI PUSH1 0x40 MLOAD PUSH32 0xE6C4247B00000000000000000000000000000000000000000000000000000000 DUP2 MSTORE PUSH1 0x4 ADD PUSH1 0x40 MLOAD DUP1 SWAP2 SUB SWAP1 REVERT JUMPDEST PUSH0 CALLVALUE SUB PUSH2 0x2D9 JUMPI PUSH1 0x40 MLOAD PUSH32 0x2C5211C600000000000000000000000000000000000000000000000000000000 DUP2 MSTORE PUSH1 0x4 ADD PUSH1 0x40 MLOAD DUP1 SWAP2 SUB SWAP1 REVERT JUMPDEST CALLER PUSH1 0x1 PUSH0 PUSH2 0x100 EXP DUP2 SLOAD DUP2 PUSH20 0xFFFFFFFFFFFFFFFFFFFFFFFFFFFFFFFFFFFFFFFF MUL NOT AND SWAP1 DUP4 PUSH20 0xFFFFFFFFFFFFFFFFFFFFFFFFFFFFFFFFFFFFFFFF AND MUL OR SWAP1 SSTORE POP DUP3 PUSH1 0x2 PUSH0 PUSH2 0x100 EXP DUP2 SLOAD DUP2 PUSH20 0xFFFFFFFFFFFFFFFFFFFFFFFFFFFFFFFFFFFFFFFF MUL NOT AND SWAP1 DUP4 PUSH20 0xFFFFFFFFFFFFFFFFFFFFFFFFFFFFFFFFFFFFFFFF AND MUL OR SWAP1 SSTORE POP DUP2 PUSH1 0x3 DUP2 SWAP1 SSTORE POP DUP1 PUSH1 0x4 DUP2 SWAP1 SSTORE POP CALLVALUE PUSH1 0x5 DUP2 SWAP1 SSTORE POP PUSH1 0x2 PUSH0 SWAP1 SLOAD SWAP1 PUSH2 0x100 EXP SWAP1 DIV PUSH20 0xFFFFFFFFFFFFFFFFFFFFFFFFFFFFFFFFFFFFFFFF AND PUSH20 0xFFFFFFFFFFFFFFFFFFFFFFFFFFFFFFFFFFFFFFFF AND PUSH1 0x1 PUSH0 SWAP1 SLOAD SWAP1 PUSH2 0x100 EXP SWAP1 DIV PUSH20 0xFFFFFFFFFFFFFFFFFFFFFFFFFFFFFFFFFFFFFFFF AND PUSH20 0xFFFFFFFFFFFFFFFFFFFFFFFFFFFFFFFFFFFFFFFF AND PUSH32 0xEBA8CE60075340B428688165C04C10C94E8D81B21712A999DD5918BADA05C69D PUSH1 0x5 SLOAD PUSH1 0x3 SLOAD PUSH1 0x4 SLOAD PUSH1 0x40 MLOAD PUSH2 0x417 SWAP4 SWAP3 SWAP2 SWAP1 PUSH2 0xDE6 JUMP JUMPDEST PUSH1 0x40 MLOAD DUP1 SWAP2 SUB SWAP1 LOG3 POP POP POP JUMP JUMPDEST PUSH1 0x1 PUSH0 SWAP1 SLOAD SWAP1 PUSH2 0x100 EXP SWAP1 DIV PUSH20 0xFFFFFFFFFFFFFFFFFFFFFFFFFFFFFFFFFFFFFFFF AND PUSH20 0xFFFFFFFFFFFFFFFFFFFFFFFFFFFFFFFFFFFFFFFF AND CALLER PUSH20 0xFFFFFFFFFFFFFFFFFFFFFFFFFFFFFFFFFFFFFFFF AND EQ PUSH2 0x4AA JUMPI PUSH1 0x40 MLOAD PUSH32 0x809490800000000000000000000000000000000000000000000000000000000 DUP2 MSTORE PUSH1 0x4 ADD PUSH1 0x40 MLOAD DUP1 SWAP2 SUB SWAP1 REVERT JUMPDEST PUSH1 0x6 PUSH0 SWAP1 SLOAD SWAP1 PUSH2 0x100 EXP SWAP1 DIV PUSH1 0xFF AND ISZERO PUSH2 0x4F0 JUMPI PUSH1 0x40 MLOAD PUSH32 0xFDC9D49C00000000000000000000000000000000000000000000000000000000 DUP2 MSTORE PUSH1 0x4 ADD PUSH1 0x40 MLOAD DUP1 SWAP2 SUB SWAP1 REVERT JUMPDEST PUSH1 0x6 PUSH1 0x1 SWAP1 SLOAD SWAP1 PUSH2 0x100 EXP SWAP1 DIV PUSH1 0xFF AND ISZERO PUSH2 0x537 JUMPI PUSH1 0x40 MLOAD PUSH32 0x99B9CAEE00000000000000000000000000000000000000000000000000000000 DUP2 MSTORE PUSH1 0x4 ADD PUSH1 0x40 MLOAD DUP1 SWAP2 SUB SWAP1 REVERT JUMPDEST PUSH1 0x4 SLOAD TIMESTAMP LT ISZERO PUSH2 0x573 JUMPI PUSH1 0x40 MLOAD PUSH32 0x809490800000000000000000000000000000000000000000000000000000000 DUP2 MSTORE PUSH1 0x4 ADD PUSH1 0x40 MLOAD DUP1 SWAP2 SUB SWAP1 REVERT JUMPDEST PUSH1 0x1 PUSH1 0x6 PUSH1 0x1 PUSH2 0x100 EXP DUP2 SLOAD DUP2 PUSH1 0xFF MUL NOT AND SWAP1 DUP4 ISZERO ISZERO MUL OR SWAP1 SSTORE POP PUSH1 0x1 PUSH0 SWAP1 SLOAD SWAP1 PUSH2 0x100 EXP SWAP1 DIV PUSH20 0xFFFFFFFFFFFFFFFFFFFFFFFFFFFFFFFFFFFFFFFF AND PUSH20 0xFFFFFFFFFFFFFFFFFFFFFFFFFFFFFFFFFFFFFFFF AND PUSH32 0xD7DEE2702D63AD89917B6A4DA9981C90C4D24F8C2BDFD64C604ECAE57D8D0651 PUSH1 0x5 SLOAD PUSH1 0x40 MLOAD PUSH2 0x5F7 SWAP2 SWAP1 PUSH2 0xDA2 JUMP JUMPDEST PUSH1 0x40 MLOAD DUP1 SWAP2 SUB SWAP1 LOG2 PUSH0 PUSH1 0x1 PUSH0 SWAP1 SLOAD SWAP1 PUSH2 0x100 EXP SWAP1 DIV PUSH20 0xFFFFFFFFFFFFFFFFFFFFFFFFFFFFFFFFFFFFFFFF AND PUSH20 0xFFFFFFFFFFFFFFFFFFFFFFFFFFFFFFFFFFFFFFFF AND PUSH1 0x5 SLOAD PUSH1 0x40 MLOAD PUSH2 0x647 SWAP1 PUSH2 0xE48 JUMP JUMPDEST PUSH0 PUSH1 0x40 MLOAD DUP1 DUP4 SUB DUP2 DUP6 DUP8 GAS CALL SWAP3 POP POP POP RETURNDATASIZE DUP1 PUSH0 DUP2 EQ PUSH2 0x681 JUMPI PUSH1 0x40 MLOAD SWAP2 POP PUSH1 0x1F NOT PUSH1 0x3F RETURNDATASIZE ADD AND DUP3 ADD PUSH1 0x40 MSTORE RETURNDATASIZE DUP3 MSTORE RETURNDATASIZE PUSH0 PUSH1 0x20 DUP5 ADD RETURNDATACOPY PUSH2 0x686 JUMP JUMPDEST PUSH1 0x60 SWAP2 POP JUMPDEST POP POP SWAP1 POP DUP1 PUSH2 0x6CA JUMPI PUSH1 0x40 MLOAD PUSH32 0x8C379A000000000000000000000000000000000000000000000000000000000 DUP2 MSTORE PUSH1 0x4 ADD PUSH2 0x6C1 SWAP1 PUSH2 0xEB6 JUMP JUMPDEST PUSH1 0x40 MLOAD DUP1 SWAP2 SUB SWAP1 REVERT JUMPDEST POP JUMP JUMPDEST PUSH1 0x1 PUSH0 SWAP1 SLOAD SWAP1 PUSH2 0x100 EXP SWAP1 DIV PUSH20 0xFFFFFFFFFFFFFFFFFFFFFFFFFFFFFFFFFFFFFFFF AND DUP2 JUMP JUMPDEST PUSH2 0x6FA PUSH2 0xAB5 JUMP JUMPDEST PUSH2 0x703 PUSH0 PUSH2 0xB3C JUMP JUMPDEST JUMP JUMPDEST PUSH0 PUSH0 PUSH0 SWAP1 SLOAD SWAP1 PUSH2 0x100 EXP SWAP1 DIV PUSH20 0xFFFFFFFFFFFFFFFFFFFFFFFFFFFFFFFFFFFFFFFF AND SWAP1 POP SWAP1 JUMP JUMPDEST PUSH1 0x2 PUSH0 SWAP1 SLOAD SWAP1 PUSH2 0x100 EXP SWAP1 DIV PUSH20 0xFFFFFFFFFFFFFFFFFFFFFFFFFFFFFFFFFFFFFFFF AND PUSH20 0xFFFFFFFFFFFFFFFFFFFFFFFFFFFFFFFFFFFFFFFF AND CALLER PUSH20 0xFFFFFFFFFFFFFFFFFFFFFFFFFFFFFFFFFFFFFFFF AND EQ PUSH2 0x7B2 JUMPI PUSH1 0x40 MLOAD PUSH32 0x79F0DDD500000000000000000000000000000000000000000000000000000000 DUP2 MSTORE PUSH1 0x4 ADD PUSH1 0x40 MLOAD DUP1 SWAP2 SUB SWAP1 REVERT JUMPDEST PUSH1 0x6 PUSH0 SWAP1 SLOAD SWAP1 PUSH2 0x100 EXP SWAP1 DIV PUSH1 0xFF AND ISZERO PUSH2 0x7F8 JUMPI PUSH1 0x40 MLOAD PUSH32 0xFDC9D49C00000000000000000000000000000000000000000000000000000000 DUP2 MSTORE PUSH1 0x4 ADD PUSH1 0x40 MLOAD DUP1 SWAP2 SUB SWAP1 REVERT JUMPDEST PUSH1 0x6 PUSH1 0x1 SWAP1 SLOAD SWAP1 PUSH2 0x100 EXP SWAP1 DIV PUSH1 0xFF AND ISZERO PUSH2 0x83F JUMPI PUSH1 0x40 MLOAD PUSH32 0x99B9CAEE00000000000000000000000000000000000000000000000000000000 DUP2 MSTORE PUSH1 0x4 ADD PUSH1 0x40 MLOAD DUP1 SWAP2 SUB SWAP1 REVERT JUMPDEST PUSH1 0x3 SLOAD DUP2 PUSH1 0x40 MLOAD PUSH1 0x20 ADD PUSH2 0x853 SWAP2 SWAP1 PUSH2 0xEF4 JUMP JUMPDEST PUSH1 0x40 MLOAD PUSH1 0x20 DUP2 DUP4 SUB SUB DUP2 MSTORE SWAP1 PUSH1 0x40 MSTORE DUP1 MLOAD SWAP1 PUSH1 0x20 ADD KECCAK256 EQ PUSH2 0x8A0 JUMPI PUSH1 0x40 MLOAD PUSH32 0x79F0DDD500000000000000000000000000000000000000000000000000000000 DUP2 MSTORE PUSH1 0x4 ADD PUSH1 0x40 MLOAD DUP1 SWAP2 SUB SWAP1 REVERT JUMPDEST PUSH1 0x1 PUSH1 0x6 PUSH0 PUSH2 0x100 EXP DUP2 SLOAD DUP2 PUSH1 0xFF MUL NOT AND SWAP1 DUP4 ISZERO ISZERO MUL OR SWAP1 SSTORE POP PUSH1 0x2 PUSH0 SWAP1 SLOAD SWAP1 PUSH2 0x100 EXP SWAP1 DIV PUSH20 0xFFFFFFFFFFFFFFFFFFFFFFFFFFFFFFFFFFFFFFFF AND PUSH20 0xFFFFFFFFFFFFFFFFFFFFFFFFFFFFFFFFFFFFFFFF AND PUSH32 0x7084F5476618D8E60B11EF0D7D3F06914655ADB8793E28FF7F018D4C76D505D5 PUSH1 0x5 SLOAD PUSH1 0x40 MLOAD PUSH2 0x923 SWAP2 SWAP1 PUSH2 0xDA2 JUMP JUMPDEST PUSH1 0x40 MLOAD DUP1 SWAP2 SUB SWAP1 LOG2 PUSH0 PUSH1 0x2 PUSH0 SWAP1 SLOAD SWAP1 PUSH2 0x100 EXP SWAP1 DIV PUSH20 0xFFFFFFFFFFFFFFFFFFFFFFFFFFFFFFFFFFFFFFFF AND PUSH20 0xFFFFFFFFFFFFFFFFFFFFFFFFFFFFFFFFFFFFFFFF AND PUSH1 0x5 SLOAD PUSH1 0x40 MLOAD PUSH2 0x973 SWAP1 PUSH2 0xE48 JUMP JUMPDEST PUSH0 PUSH1 0x40 MLOAD DUP1 DUP4 SUB DUP2 DUP6 DUP8 GAS CALL SWAP3 POP POP POP RETURNDATASIZE DUP1 PUSH0 DUP2 EQ PUSH2 0x9AD JUMPI PUSH1 0x40 MLOAD SWAP2 POP PUSH1 0x1F NOT PUSH1 0x3F RETURNDATASIZE ADD AND DUP3 ADD PUSH1 0x40 MSTORE RETURNDATASIZE DUP3 MSTORE RETURNDATASIZE PUSH0 PUSH1 0x20 DUP5 ADD RETURNDATACOPY PUSH2 0x9B2 JUMP JUMPDEST PUSH1 0x60 SWAP2 POP JUMPDEST POP POP SWAP1 POP DUP1 PUSH2 0x9F6 JUMPI PUSH1 0x40 MLOAD PUSH32 0x8C379A000000000000000000000000000000000000000000000000000000000 DUP2 MSTORE PUSH1 0x4 ADD PUSH2 0x9ED SWAP1 PUSH2 0xEB6 JUMP JUMPDEST PUSH1 0x40 MLOAD DUP1 SWAP2 SUB SWAP1 REVERT JUMPDEST POP POP JUMP JUMPDEST PUSH1 0x3 SLOAD DUP2 JUMP JUMPDEST PUSH1 0x5 SLOAD DUP2 JUMP JUMPDEST PUSH1 0x4 SLOAD DUP2 JUMP JUMPDEST PUSH2 0xA14 PUSH2 0xAB5 JUMP JUMPDEST PUSH0 PUSH20 0xFFFFFFFFFFFFFFFFFFFFFFFFFFFFFFFFFFFFFFFF AND DUP2 PUSH20 0xFFFFFFFFFFFFFFFFFFFFFFFFFFFFFFFFFFFFFFFF AND SUB PUSH2 0xA84 JUMPI PUSH0 PUSH1 0x40 MLOAD PUSH32 0x1E4FBDF700000000000000000000000000000000000000000000000000000000 DUP2 MSTORE PUSH1 0x4 ADD PUSH2 0xA7B SWAP2 SWAP1 PUSH2 0xD27 JUMP JUMPDEST PUSH1 0x40 MLOAD DUP1 SWAP2 SUB SWAP1 REVERT JUMPDEST PUSH2 0xA8D DUP2 PUSH2 0xB3C JUMP JUMPDEST POP JUMP JUMPDEST PUSH1 0x2 PUSH0 SWAP1 SLOAD SWAP1 PUSH2 0x100 EXP SWAP1 DIV PUSH20 0xFFFFFFFFFFFFFFFFFFFFFFFFFFFFFFFFFFFFFFFF AND DUP2 JUMP JUMPDEST PUSH2 0xABD PUSH2 0xBFD JUMP JUMPDEST PUSH20 0xFFFFFFFFFFFFFFFFFFFFFFFFFFFFFFFFFFFFFFFF AND PUSH2 0xADB PUSH2 0x705 JUMP JUMPDEST PUSH20 0xFFFFFFFFFFFFFFFFFFFFFFFFFFFFFFFFFFFFFFFF AND EQ PUSH2 0xB3A JUMPI PUSH2 0xAFE PUSH2 0xBFD JUMP JUMPDEST PUSH1 0x40 MLOAD PUSH32 0x118CDAA700000000000000000000000000000000000000000000000000000000 DUP2 MSTORE PUSH1 0x4 ADD PUSH2 0xB31 SWAP2 SWAP1 PUSH2 0xD27 JUMP JUMPDEST PUSH1 0x40 MLOAD DUP1 SWAP2 SUB SWAP1 REVERT JUMPDEST JUMP JUMPDEST PUSH0 PUSH0 PUSH0 SWAP1 SLOAD SWAP1 PUSH2 0x100 EXP SWAP1 DIV PUSH20 0xFFFFFFFFFFFFFFFFFFFFFFFFFFFFFFFFFFFFFFFF AND SWAP1 POP DUP2 PUSH0 PUSH0 PUSH2 0x100 EXP DUP2 SLOAD DUP2 PUSH20 0xFFFFFFFFFFFFFFFFFFFFFFFFFFFFFFFFFFFFFFFF MUL NOT AND SWAP1 DUP4 PUSH20 0xFFFFFFFFFFFFFFFFFFFFFFFFFFFFFFFFFFFFFFFF AND MUL OR SWAP1 SSTORE POP DUP2 PUSH20 0xFFFFFFFFFFFFFFFFFFFFFFFFFFFFFFFFFFFFFFFF AND DUP2 PUSH20 0xFFFFFFFFFFFFFFFFFFFFFFFFFFFFFFFFFFFFFFFF AND PUSH32 0x8BE0079C531659141344CD1FD0A4F28419497F9722A3DAAFE3B4186F6B6457E0 PUSH1 0x40 MLOAD PUSH1 0x40 MLOAD DUP1 SWAP2 SUB SWAP1 LOG3 POP POP JUMP JUMPDEST PUSH0 CALLER SWAP1 POP SWAP1 JUMP JUMPDEST PUSH0 PUSH0 REVERT JUMPDEST PUSH0 PUSH20 0xFFFFFFFFFFFFFFFFFFFFFFFFFFFFFFFFFFFFFFFF DUP3 AND SWAP1 POP SWAP2 SWAP1 POP JUMP JUMPDEST PUSH0 PUSH2 0xC31 DUP3 PUSH2 0xC08 JUMP JUMPDEST SWAP1 POP SWAP2 SWAP1 POP JUMP JUMPDEST PUSH2 0xC41 DUP2 PUSH2 0xC27 JUMP JUMPDEST DUP2 EQ PUSH2 0xC4B JUMPI PUSH0 PUSH0 REVERT JUMPDEST POP JUMP JUMPDEST PUSH0 DUP2 CALLDATALOAD SWAP1 POP PUSH2 0xC5C DUP2 PUSH2 0xC38 JUMP JUMPDEST SWAP3 SWAP2 POP POP JUMP JUMPDEST PUSH0 DUP2 SWAP1 POP SWAP2 SWAP1 POP JUMP JUMPDEST PUSH2 0xC74 DUP2 PUSH2 0xC62 JUMP JUMPDEST DUP2 EQ PUSH2 0xC7E JUMPI PUSH0 PUSH0 REVERT JUMPDEST POP JUMP JUMPDEST PUSH0 DUP2 CALLDATALOAD SWAP1 POP PUSH2 0xC8F DUP2 PUSH2 0xC6B JUMP JUMPDEST SWAP3 SWAP2 POP POP JUMP JUMPDEST PUSH0 DUP2 SWAP1 POP SWAP2 SWAP1 POP JUMP JUMPDEST PUSH2 0xCA7 DUP2 PUSH2 0xC95 JUMP JUMPDEST DUP2 EQ PUSH2 0xCB1 JUMPI PUSH0 PUSH0 REVERT JUMPDEST POP JUMP JUMPDEST PUSH0 DUP2 CALLDATALOAD SWAP1 POP PUSH2 0xCC2 DUP2 PUSH2 0xC9E JUMP JUMPDEST SWAP3 SWAP2 POP POP JUMP JUMPDEST PUSH0 PUSH0 PUSH0 PUSH1 0x60 DUP5 DUP7 SUB SLT ISZERO PUSH2 0xCDF JUMPI PUSH2 0xCDE PUSH2 0xC04 JUMP JUMPDEST JUMPDEST PUSH0 PUSH2 0xCEC DUP7 DUP3 DUP8 ADD PUSH2 0xC4E JUMP JUMPDEST SWAP4 POP POP PUSH1 0x20 PUSH2 0xCFD DUP7 DUP3 DUP8 ADD PUSH2 0xC81 JUMP JUMPDEST SWAP3 POP POP PUSH1 0x40 PUSH2 0xD0E DUP7 DUP3 DUP8 ADD PUSH2 0xCB4 JUMP JUMPDEST SWAP2 POP POP SWAP3 POP SWAP3 POP SWAP3 JUMP JUMPDEST PUSH2 0xD21 DUP2 PUSH2 0xC27 JUMP JUMPDEST DUP3 MSTORE POP POP JUMP JUMPDEST PUSH0 PUSH1 0x20 DUP3 ADD SWAP1 POP PUSH2 0xD3A PUSH0 DUP4 ADD DUP5 PUSH2 0xD18 JUMP JUMPDEST SWAP3 SWAP2 POP POP JUMP JUMPDEST PUSH0 PUSH1 0x20 DUP3 DUP5 SUB SLT ISZERO PUSH2 0xD55 JUMPI PUSH2 0xD54 PUSH2 0xC04 JUMP JUMPDEST JUMPDEST PUSH0 PUSH2 0xD62 DUP5 DUP3 DUP6 ADD PUSH2 0xC81 JUMP JUMPDEST SWAP2 POP POP SWAP3 SWAP2 POP POP JUMP JUMPDEST PUSH2 0xD74 DUP2 PUSH2 0xC62 JUMP JUMPDEST DUP3 MSTORE POP POP JUMP JUMPDEST PUSH0 PUSH1 0x20 DUP3 ADD SWAP1 POP PUSH2 0xD8D PUSH0 DUP4 ADD DUP5 PUSH2 0xD6B JUMP JUMPDEST SWAP3 SWAP2 POP POP JUMP JUMPDEST PUSH2 0xD9C DUP2 PUSH2 0xC95 JUMP JUMPDEST DUP3 MSTORE POP POP JUMP JUMPDEST PUSH0 PUSH1 0x20 DUP3 ADD SWAP1 POP PUSH2 0xDB5 PUSH0 DUP4 ADD DUP5 PUSH2 0xD93 JUMP JUMPDEST SWAP3 SWAP2 POP POP JUMP JUMPDEST PUSH0 PUSH1 0x20 DUP3 DUP5 SUB SLT ISZERO PUSH2 0xDD0 JUMPI PUSH2 0xDCF PUSH2 0xC04 JUMP JUMPDEST JUMPDEST PUSH0 PUSH2 0xDDD DUP5 DUP3 DUP6 ADD PUSH2 0xC4E JUMP JUMPDEST SWAP2 POP POP SWAP3 SWAP2 POP POP JUMP JUMPDEST PUSH0 PUSH1 0x60 DUP3 ADD SWAP1 POP PUSH2 0xDF9 PUSH0 DUP4 ADD DUP7 PUSH2 0xD93 JUMP JUMPDEST PUSH2 0xE06 PUSH1 0x20 DUP4 ADD DUP6 PUSH2 0xD6B JUMP JUMPDEST PUSH2 0xE13 PUSH1 0x40 DUP4 ADD DUP5 PUSH2 0xD93 JUMP JUMPDEST SWAP5 SWAP4 POP POP POP POP JUMP JUMPDEST PUSH0 DUP2 SWAP1 POP SWAP3 SWAP2 POP POP JUMP JUMPDEST POP JUMP JUMPDEST PUSH0 PUSH2 0xE33 PUSH0 DUP4 PUSH2 0xE1B JUMP JUMPDEST SWAP2 POP PUSH2 0xE3E DUP3 PUSH2 0xE25 JUMP JUMPDEST PUSH0 DUP3 ADD SWAP1 POP SWAP2 SWAP1 POP JUMP JUMPDEST PUSH0 PUSH2 0xE52 DUP3 PUSH2 0xE28 JUMP JUMPDEST SWAP2 POP DUP2 SWAP1 POP SWAP2 SWAP1 POP JUMP JUMPDEST PUSH0 DUP3 DUP3 MSTORE PUSH1 0x20 DUP3 ADD SWAP1 POP SWAP3 SWAP2 POP POP JUMP JUMPDEST PUSH32 0x5472616E73666572206661696C65640000000000000000000000000000000000 PUSH0 DUP3 ADD MSTORE POP JUMP JUMPDEST PUSH0 PUSH2 0xEA0 PUSH1 0xF DUP4 PUSH2 0xE5C JUMP JUMPDEST SWAP2 POP PUSH2 0xEAB DUP3 PUSH2 0xE6C JUMP JUMPDEST PUSH1 0x20 DUP3 ADD SWAP1 POP SWAP2 SWAP1 POP JUMP JUMPDEST PUSH0 PUSH1 0x20 DUP3 ADD SWAP1 POP DUP2 DUP2 SUB PUSH0 DUP4 ADD MSTORE PUSH2 0xECD DUP2 PUSH2 0xE94 JUMP JUMPDEST SWAP1 POP SWAP2 SWAP1 POP JUMP JUMPDEST PUSH0 DUP2 SWAP1 POP SWAP2 SWAP1 POP JUMP JUMPDEST PUSH2 0xEEE PUSH2 0xEE9 DUP3 PUSH2 0xC62 JUMP JUMPDEST PUSH2 0xED4 JUMP JUMPDEST DUP3 MSTORE POP POP JUMP JUMPDEST PUSH0 PUSH2 0xEFF DUP3 DUP5 PUSH2 0xEDD JUMP JUMPDEST PUSH1 0x20 DUP3 ADD SWAP2 POP DUP2 SWAP1 POP SWAP3 SWAP2 POP POP JUMP INVALID LOG2 PUSH5 0x6970667358 0x22 SLT KECCAK256 PUSH29 0xB004B448BFDE7F4CE05A28D952F7909FF2B8034E1D882D0E23DA1A3C31 0xA9 0xEA PUSH5 0x736F6C6343 STOP ADDMOD 0x1E STOP CALLER "
				},
				"gasEstimates": {
					"creation": {
						"codeDepositCost": "781600",
						"executionCost": "infinite",
						"totalCost": "infinite"
					},
					"external": {
						"amount()": "2469",
						"hashlock()": "2447",
						"initiate(address,bytes32,uint256)": "infinite",
						"owner()": "2603",
						"receiver()": "2618",
						"refund()": "infinite",
						"renounceOwnership()": "infinite",
						"sender()": "2553",
						"timelock()": "2491",
						"transferOwnership(address)": "infinite",
						"withdraw(bytes32)": "infinite"
					}
				},
				"methodIdentifiers": {
					"amount()": "aa8c217c",
					"hashlock()": "a782086e",
					"initiate(address,bytes32,uint256)": "39f5632b",
					"owner()": "8da5cb5b",
					"receiver()": "f7260d3e",
					"refund()": "590e1ae3",
					"renounceOwnership()": "715018a6",
					"sender()": "67e404ce",
					"timelock()": "d33219b4",
					"transferOwnership(address)": "f2fde38b",
					"withdraw(bytes32)": "8e19899e"
				}
			},
			"storageLayout": {
				"storage": [
					{
						"astId": 8,
						"contract": "hashTime.sol:HashedTimeLockEscrow",
						"label": "_owner",
						"offset": 0,
						"slot": "0",
						"type": "t_address"
					},
					{
						"astId": 185,
						"contract": "hashTime.sol:HashedTimeLockEscrow",
						"label": "sender",
						"offset": 0,
						"slot": "1",
						"type": "t_address"
					},
					{
						"astId": 187,
						"contract": "hashTime.sol:HashedTimeLockEscrow",
						"label": "receiver",
						"offset": 0,
						"slot": "2",
						"type": "t_address"
					},
					{
						"astId": 189,
						"contract": "hashTime.sol:HashedTimeLockEscrow",
						"label": "hashlock",
						"offset": 0,
						"slot": "3",
						"type": "t_bytes32"
					},
					{
						"astId": 191,
						"contract": "hashTime.sol:HashedTimeLockEscrow",
						"label": "timelock",
						"offset": 0,
						"slot": "4",
						"type": "t_uint256"
					},
					{
						"astId": 193,
						"contract": "hashTime.sol:HashedTimeLockEscrow",
						"label": "amount",
						"offset": 0,
						"slot": "5",
						"type": "t_uint256"
					},
					{
						"astId": 195,
						"contract": "hashTime.sol:HashedTimeLockEscrow",
						"label": "isWithdrawn",
						"offset": 0,
						"slot": "6",
						"type": "t_bool"
					},
					{
						"astId": 197,
						"contract": "hashTime.sol:HashedTimeLockEscrow",
						"label": "isRefunded",
						"offset": 1,
						"slot": "6",
						"type": "t_bool"
					}
				],
				"types": {
					"t_address": {
						"encoding": "inplace",
						"label": "address",
						"numberOfBytes": "20"
					},
					"t_bool": {
						"encoding": "inplace",
						"label": "bool",
						"numberOfBytes": "1"
					},
					"t_bytes32": {
						"encoding": "inplace",
						"label": "bytes32",
						"numberOfBytes": "32"
					},
					"t_uint256": {
						"encoding": "inplace",
						"label": "uint256",
						"numberOfBytes": "32"
					}
				}
			},
			"userdoc": {
				"kind": "user",
				"methods": {
					"initiate(address,bytes32,uint256)": {
						"notice": "Initiates the HTLC by setting the receiver, hashlock, timelock, and locking the funds."
					},
					"refund()": {
						"notice": "Allows the sender to refund the funds if the timelock has expired and the funds have not been withdrawn."
					},
					"withdraw(bytes32)": {
						"notice": "Allows the receiver to withdraw the funds by providing the correct preimage."
					}
				},
				"version": 1
			}
		}
	}
}