{
	"electionSystem.sol": {
		"ElectionSystem": {
			"abi": [
				{
					"inputs": [],
					"stateMutability": "nonpayable",
					"type": "constructor"
				},
				{
					"anonymous": false,
					"inputs": [
						{
							"indexed": true,
							"internalType": "address",
							"name": "voter",
							"type": "address"
						},
						{
							"indexed": true,
							"internalType": "address",
							"name": "candidate",
							"type": "address"
						}
					],
					"name": "VoteCast",
					"type": "event"
				},
				{
					"anonymous": false,
					"inputs": [
						{
							"indexed": true,
							"internalType": "address",
							"name": "voterAddress",
							"type": "address"
						}
					],
					"name": "VoterRegistered",
					"type": "event"
				},
				{
					"anonymous": false,
					"inputs": [
						{
							"indexed": true,
							"internalType": "address",
							"name": "winner",
							"type": "address"
						}
					],
					"name": "WinnerDeclared",
					"type": "event"
				},
				{
					"inputs": [],
					"name": "admin",
					"outputs": [
						{
							"internalType": "address",
							"name": "",
							"type": "address"
						}
					],
					"stateMutability": "view",
					"type": "function"
				},
				{
					"inputs": [
						{
							"internalType": "address",
							"name": "",
							"type": "address"
						}
					],
					"name": "candidateVotes",
					"outputs": [
						{
							"internalType": "uint256",
							"name": "",
							"type": "uint256"
						}
					],
					"stateMutability": "view",
					"type": "function"
				},
				{
					"inputs": [
						{
							"internalType": "uint256",
							"name": "",
							"type": "uint256"
						}
					],
					"name": "candidates",
					"outputs": [
						{
							"internalType": "address",
							"name": "",
							"type": "address"
						}
					],
					"stateMutability": "view",
					"type": "function"
				},
				{
					"inputs": [],
					"name": "endVoting",
					"outputs": [],
					"stateMutability": "nonpayable",
					"type": "function"
				},
				{
					"inputs": [
						{
							"internalType": "address",
							"name": "",
							"type": "address"
						}
					],
					"name": "hasVoted",
					"outputs": [
						{
							"internalType": "bool",
							"name": "",
							"type": "bool"
						}
					],
					"stateMutability": "view",
					"type": "function"
				},
				{
					"inputs": [
						{
							"internalType": "address",
							"name": "",
							"type": "address"
						}
					],
					"name": "isCandidate",
					"outputs": [
						{
							"internalType": "bool",
							"name": "",
							"type": "bool"
						}
					],
					"stateMutability": "view",
					"type": "function"
				},
				{
					"inputs": [
						{
							"internalType": "address",
							"name": "voterAddress",
							"type": "address"
						}
					],
					"name": "registerVoter",
					"outputs": [],
					"stateMutability": "nonpayable",
					"type": "function"
				},
				{
					"inputs": [
						{
							"internalType": "uint256",
							"name": "duration",
							"type": "uint256"
						}
					],
					"name": "startVoting",
					"outputs": [],
					"stateMutability": "nonpayable",
					"type": "function"
				},
				{
					"inputs": [
						{
							"internalType": "address",
							"name": "candidate",
							"type": "address"
						}
					],
					"name": "vote",
					"outputs": [],
					"stateMutability": "nonpayable",
					"type": "function"
				},
				{
					"inputs": [],
					"name": "votingPeriodEnd",
					"outputs": [
						{
							"internalType": "uint256",
							"name": "",
							"type": "uint256"
						}
					],
					"stateMutability": "view",
					"type": "function"
				},
				{
					"inputs": [],
					"name": "winner",
					"outputs": [
						{
							"internalType": "address",
							"name": "",
							"type": "address"
						}
					],
					"stateMutability": "view",
					"type": "function"
				}
			],
			"devdoc": {
				"events": {
					"VoteCast(address,address)": {
						"params": {
							"candidate": "The address of the candidate voted for",
							"voter": "The address of the voter"
						}
					},
					"VoterRegistered(address)": {
						"params": {
							"voterAddress": "The address of the registered voter"
						}
					},
					"WinnerDeclared(address)": {
						"params": {
							"winner": "The address of the winning candidate"
						}
					}
				},
				"kind": "dev",
				"methods": {
					"registerVoter(address)": {
						"params": {
							"voterAddress": "The address of the voter to register"
						}
					},
					"startVoting(uint256)": {
						"params": {
							"duration": "The duration of the voting period in seconds"
						}
					},
					"vote(address)": {
						"params": {
							"candidate": "The address of the candidate to vote for"
						}
					}
				},
				"title": "ElectionSystem - A simple, tamper-proof election system for a small community or club",
				"version": 1
			},
			"evm": {
				"assembly": "    /* \"electionSystem.sol\":159:4249  contract ElectionSystem {... */\n  mstore(0x40, 0x80)\n    /* \"electionSystem.sol\":1993:2044  constructor() {... */\n  callvalue\n  dup1\n  iszero\n  tag_1\n  jumpi\n  revert(0x00, 0x00)\ntag_1:\n  pop\n    /* \"electionSystem.sol\":2026:2036  msg.sender */\n  caller\n    /* \"electionSystem.sol\":2018:2023  admin */\n  0x00\n  0x00\n    /* \"electionSystem.sol\":2018:2036  admin = msg.sender */\n  0x0100\n  exp\n  dup2\n  sload\n  dup2\n  0xffffffffffffffffffffffffffffffffffffffff\n  mul\n  not\n  and\n  swap1\n  dup4\n  0xffffffffffffffffffffffffffffffffffffffff\n  and\n  mul\n  or\n  swap1\n  sstore\n  pop\n    /* \"electionSystem.sol\":159:4249  contract ElectionSystem {... */\n  dataSize(sub_0)\n  dup1\n  dataOffset(sub_0)\n  0x00\n  codecopy\n  0x00\n  return\nstop\n\nsub_0: assembly {\n        /* \"electionSystem.sol\":159:4249  contract ElectionSystem {... */\n      mstore(0x40, 0x80)\n      callvalue\n      dup1\n      iszero\n      tag_1\n      jumpi\n      revert(0x00, 0x00)\n    tag_1:\n      pop\n      jumpi(tag_2, lt(calldatasize, 0x04))\n      shr(0xe0, calldataload(0x00))\n      dup1\n      0x65381b1c\n      gt\n      tag_14\n      jumpi\n      dup1\n      0x65381b1c\n      eq\n      tag_8\n      jumpi\n      dup1\n      0x6dd7d8ea\n      eq\n      tag_9\n      jumpi\n      dup1\n      0xc3403ddf\n      eq\n      tag_10\n      jumpi\n      dup1\n      0xd51b9e93\n      eq\n      tag_11\n      jumpi\n      dup1\n      0xdfbf53ae\n      eq\n      tag_12\n      jumpi\n      dup1\n      0xf851a440\n      eq\n      tag_13\n      jumpi\n      jump(tag_2)\n    tag_14:\n      dup1\n      0x09eef43e\n      eq\n      tag_3\n      jumpi\n      dup1\n      0x23ef2746\n      eq\n      tag_4\n      jumpi\n      dup1\n      0x3477ee2e\n      eq\n      tag_5\n      jumpi\n      dup1\n      0x38db6dd3\n      eq\n      tag_6\n      jumpi\n      dup1\n      0x3d2f5bda\n      eq\n      tag_7\n      jumpi\n    tag_2:\n      revert(0x00, 0x00)\n        /* \"electionSystem.sol\":364:404  mapping(address => bool) public hasVoted */\n    tag_3:\n      tag_15\n      0x04\n      dup1\n      calldatasize\n      sub\n      dup2\n      add\n      swap1\n      tag_16\n      swap2\n      swap1\n      tag_17\n      jump\t// in\n    tag_16:\n      tag_18\n      jump\t// in\n    tag_15:\n      mload(0x40)\n      tag_19\n      swap2\n      swap1\n      tag_20\n      jump\t// in\n    tag_19:\n      mload(0x40)\n      dup1\n      swap2\n      sub\n      swap1\n      return\n        /* \"electionSystem.sol\":411:460  mapping(address => uint256) public candidateVotes */\n    tag_4:\n      tag_21\n      0x04\n      dup1\n      calldatasize\n      sub\n      dup2\n      add\n      swap1\n      tag_22\n      swap2\n      swap1\n      tag_17\n      jump\t// in\n    tag_22:\n      tag_23\n      jump\t// in\n    tag_21:\n      mload(0x40)\n      tag_24\n      swap2\n      swap1\n      tag_25\n      jump\t// in\n    tag_24:\n      mload(0x40)\n      dup1\n      swap2\n      sub\n      swap1\n      return\n        /* \"electionSystem.sol\":217:244  address[] public candidates */\n    tag_5:\n      tag_26\n      0x04\n      dup1\n      calldatasize\n      sub\n      dup2\n      add\n      swap1\n      tag_27\n      swap2\n      swap1\n      tag_28\n      jump\t// in\n    tag_27:\n      tag_29\n      jump\t// in\n    tag_26:\n      mload(0x40)\n      tag_30\n      swap2\n      swap1\n      tag_31\n      jump\t// in\n    tag_30:\n      mload(0x40)\n      dup1\n      swap2\n      sub\n      swap1\n      return\n        /* \"electionSystem.sol\":2207:2433  function registerVoter(address voterAddress) external onlyAdmin {... */\n    tag_6:\n      tag_32\n      0x04\n      dup1\n      calldatasize\n      sub\n      dup2\n      add\n      swap1\n      tag_33\n      swap2\n      swap1\n      tag_17\n      jump\t// in\n    tag_33:\n      tag_34\n      jump\t// in\n    tag_32:\n      stop\n        /* \"electionSystem.sol\":2578:2765  function startVoting(uint256 duration) external onlyAdmin {... */\n    tag_7:\n      tag_35\n      0x04\n      dup1\n      calldatasize\n      sub\n      dup2\n      add\n      swap1\n      tag_36\n      swap2\n      swap1\n      tag_28\n      jump\t// in\n    tag_36:\n      tag_37\n      jump\t// in\n    tag_35:\n      stop\n        /* \"electionSystem.sol\":251:281  uint256 public votingPeriodEnd */\n    tag_8:\n      tag_38\n      tag_39\n      jump\t// in\n    tag_38:\n      mload(0x40)\n      tag_40\n      swap2\n      swap1\n      tag_25\n      jump\t// in\n    tag_40:\n      mload(0x40)\n      dup1\n      swap2\n      sub\n      swap1\n      return\n        /* \"electionSystem.sol\":2914:3425  function vote(address candidate) external onlyVoter onlyDuringVoting {... */\n    tag_9:\n      tag_41\n      0x04\n      dup1\n      calldatasize\n      sub\n      dup2\n      add\n      swap1\n      tag_42\n      swap2\n      swap1\n      tag_17\n      jump\t// in\n    tag_42:\n      tag_43\n      jump\t// in\n    tag_41:\n      stop\n        /* \"electionSystem.sol\":3515:3605  function endVoting() external onlyAdmin onlyAfterVoting {... */\n    tag_10:\n      tag_44\n      tag_45\n      jump\t// in\n    tag_44:\n      stop\n        /* \"electionSystem.sol\":467:510  mapping(address => bool) public isCandidate */\n    tag_11:\n      tag_46\n      0x04\n      dup1\n      calldatasize\n      sub\n      dup2\n      add\n      swap1\n      tag_47\n      swap2\n      swap1\n      tag_17\n      jump\t// in\n    tag_47:\n      tag_48\n      jump\t// in\n    tag_46:\n      mload(0x40)\n      tag_49\n      swap2\n      swap1\n      tag_20\n      jump\t// in\n    tag_49:\n      mload(0x40)\n      dup1\n      swap2\n      sub\n      swap1\n      return\n        /* \"electionSystem.sol\":288:309  address public winner */\n    tag_12:\n      tag_50\n      tag_51\n      jump\t// in\n    tag_50:\n      mload(0x40)\n      tag_52\n      swap2\n      swap1\n      tag_31\n      jump\t// in\n    tag_52:\n      mload(0x40)\n      dup1\n      swap2\n      sub\n      swap1\n      return\n        /* \"electionSystem.sol\":190:210  address public admin */\n    tag_13:\n      tag_53\n      tag_54\n      jump\t// in\n    tag_53:\n      mload(0x40)\n      tag_55\n      swap2\n      swap1\n      tag_31\n      jump\t// in\n    tag_55:\n      mload(0x40)\n      dup1\n      swap2\n      sub\n      swap1\n      return\n        /* \"electionSystem.sol\":364:404  mapping(address => bool) public hasVoted */\n    tag_18:\n      mstore(0x20, 0x05)\n      dup1\n      0x00\n      mstore\n      keccak256(0x00, 0x40)\n      0x00\n      swap2\n      pop\n      sload\n      swap1\n      0x0100\n      exp\n      swap1\n      div\n      0xff\n      and\n      dup2\n      jump\t// out\n        /* \"electionSystem.sol\":411:460  mapping(address => uint256) public candidateVotes */\n    tag_23:\n      mstore(0x20, 0x06)\n      dup1\n      0x00\n      mstore\n      keccak256(0x00, 0x40)\n      0x00\n      swap2\n      pop\n      swap1\n      pop\n      sload\n      dup2\n      jump\t// out\n        /* \"electionSystem.sol\":217:244  address[] public candidates */\n    tag_29:\n      0x01\n      dup2\n      dup2\n      sload\n      dup2\n      lt\n      tag_56\n      jumpi\n      0x00\n      dup1\n      revert\n    tag_56:\n      swap1\n      0x00\n      mstore\n      keccak256(0x00, 0x20)\n      add\n      0x00\n      swap2\n      pop\n      sload\n      swap1\n      0x0100\n      exp\n      swap1\n      div\n      0xffffffffffffffffffffffffffffffffffffffff\n      and\n      dup2\n      jump\t// out\n        /* \"electionSystem.sol\":2207:2433  function registerVoter(address voterAddress) external onlyAdmin {... */\n    tag_34:\n        /* \"electionSystem.sol\":1654:1659  admin */\n      0x00\n      0x00\n      swap1\n      sload\n      swap1\n      0x0100\n      exp\n      swap1\n      div\n      0xffffffffffffffffffffffffffffffffffffffff\n      and\n        /* \"electionSystem.sol\":1640:1659  msg.sender == admin */\n      0xffffffffffffffffffffffffffffffffffffffff\n      and\n        /* \"electionSystem.sol\":1640:1650  msg.sender */\n      caller\n        /* \"electionSystem.sol\":1640:1659  msg.sender == admin */\n      0xffffffffffffffffffffffffffffffffffffffff\n      and\n      eq\n        /* \"electionSystem.sol\":1632:1687  require(msg.sender == admin, \"Caller is not the admin\") */\n      tag_59\n      jumpi\n      mload(0x40)\n      0x08c379a000000000000000000000000000000000000000000000000000000000\n      dup2\n      mstore\n      0x04\n      add\n      tag_60\n      swap1\n      tag_61\n      jump\t// in\n    tag_60:\n      mload(0x40)\n      dup1\n      swap2\n      sub\n      swap1\n      revert\n    tag_59:\n        /* \"electionSystem.sol\":2286:2292  voters */\n      0x04\n        /* \"electionSystem.sol\":2286:2306  voters[voterAddress] */\n      0x00\n        /* \"electionSystem.sol\":2293:2305  voterAddress */\n      dup3\n        /* \"electionSystem.sol\":2286:2306  voters[voterAddress] */\n      0xffffffffffffffffffffffffffffffffffffffff\n      and\n      0xffffffffffffffffffffffffffffffffffffffff\n      and\n      dup2\n      mstore\n      0x20\n      add\n      swap1\n      dup2\n      mstore\n      0x20\n      add\n      0x00\n      keccak256\n      0x00\n      swap1\n      sload\n      swap1\n      0x0100\n      exp\n      swap1\n      div\n      0xff\n      and\n        /* \"electionSystem.sol\":2282:2342  if (voters[voterAddress]) revert(\"Voter already registered\") */\n      iszero\n      tag_63\n      jumpi\n        /* \"electionSystem.sol\":2308:2342  revert(\"Voter already registered\") */\n      mload(0x40)\n      0x08c379a000000000000000000000000000000000000000000000000000000000\n      dup2\n      mstore\n      0x04\n      add\n      tag_64\n      swap1\n      tag_65\n      jump\t// in\n    tag_64:\n      mload(0x40)\n      dup1\n      swap2\n      sub\n      swap1\n      revert\n        /* \"electionSystem.sol\":2282:2342  if (voters[voterAddress]) revert(\"Voter already registered\") */\n    tag_63:\n        /* \"electionSystem.sol\":2376:2380  true */\n      0x01\n        /* \"electionSystem.sol\":2353:2359  voters */\n      0x04\n        /* \"electionSystem.sol\":2353:2373  voters[voterAddress] */\n      0x00\n        /* \"electionSystem.sol\":2360:2372  voterAddress */\n      dup4\n        /* \"electionSystem.sol\":2353:2373  voters[voterAddress] */\n      0xffffffffffffffffffffffffffffffffffffffff\n      and\n      0xffffffffffffffffffffffffffffffffffffffff\n      and\n      dup2\n      mstore\n      0x20\n      add\n      swap1\n      dup2\n      mstore\n      0x20\n      add\n      0x00\n      keccak256\n      0x00\n        /* \"electionSystem.sol\":2353:2380  voters[voterAddress] = true */\n      0x0100\n      exp\n      dup2\n      sload\n      dup2\n      0xff\n      mul\n      not\n      and\n      swap1\n      dup4\n      iszero\n      iszero\n      mul\n      or\n      swap1\n      sstore\n      pop\n        /* \"electionSystem.sol\":2412:2424  voterAddress */\n      dup1\n        /* \"electionSystem.sol\":2396:2425  VoterRegistered(voterAddress) */\n      0xffffffffffffffffffffffffffffffffffffffff\n      and\n      0xb6be2187d059cc2a55fe29e0e503b566e1e0f8c8780096e185429350acffd3dd\n      mload(0x40)\n      mload(0x40)\n      dup1\n      swap2\n      sub\n      swap1\n      log2\n        /* \"electionSystem.sol\":2207:2433  function registerVoter(address voterAddress) external onlyAdmin {... */\n      pop\n      jump\t// out\n        /* \"electionSystem.sol\":2578:2765  function startVoting(uint256 duration) external onlyAdmin {... */\n    tag_37:\n        /* \"electionSystem.sol\":1654:1659  admin */\n      0x00\n      0x00\n      swap1\n      sload\n      swap1\n      0x0100\n      exp\n      swap1\n      div\n      0xffffffffffffffffffffffffffffffffffffffff\n      and\n        /* \"electionSystem.sol\":1640:1659  msg.sender == admin */\n      0xffffffffffffffffffffffffffffffffffffffff\n      and\n        /* \"electionSystem.sol\":1640:1650  msg.sender */\n      caller\n        /* \"electionSystem.sol\":1640:1659  msg.sender == admin */\n      0xffffffffffffffffffffffffffffffffffffffff\n      and\n      eq\n        /* \"electionSystem.sol\":1632:1687  require(msg.sender == admin, \"Caller is not the admin\") */\n      tag_67\n      jumpi\n      mload(0x40)\n      0x08c379a000000000000000000000000000000000000000000000000000000000\n      dup2\n      mstore\n      0x04\n      add\n      tag_68\n      swap1\n      tag_61\n      jump\t// in\n    tag_68:\n      mload(0x40)\n      dup1\n      swap2\n      sub\n      swap1\n      revert\n    tag_67:\n        /* \"electionSystem.sol\":2674:2675  0 */\n      0x00\n        /* \"electionSystem.sol\":2655:2670  votingPeriodEnd */\n      sload(0x02)\n        /* \"electionSystem.sol\":2655:2675  votingPeriodEnd == 0 */\n      eq\n        /* \"electionSystem.sol\":2647:2702  require(votingPeriodEnd == 0, \"Voting already started\") */\n      tag_70\n      jumpi\n      mload(0x40)\n      0x08c379a000000000000000000000000000000000000000000000000000000000\n      dup2\n      mstore\n      0x04\n      add\n      tag_71\n      swap1\n      tag_72\n      jump\t// in\n    tag_71:\n      mload(0x40)\n      dup1\n      swap2\n      sub\n      swap1\n      revert\n    tag_70:\n        /* \"electionSystem.sol\":2749:2757  duration */\n      dup1\n        /* \"electionSystem.sol\":2731:2746  block.timestamp */\n      timestamp\n        /* \"electionSystem.sol\":2731:2757  block.timestamp + duration */\n      tag_73\n      swap2\n      swap1\n      tag_74\n      jump\t// in\n    tag_73:\n        /* \"electionSystem.sol\":2713:2728  votingPeriodEnd */\n      0x02\n        /* \"electionSystem.sol\":2713:2757  votingPeriodEnd = block.timestamp + duration */\n      dup2\n      swap1\n      sstore\n      pop\n        /* \"electionSystem.sol\":2578:2765  function startVoting(uint256 duration) external onlyAdmin {... */\n      pop\n      jump\t// out\n        /* \"electionSystem.sol\":251:281  uint256 public votingPeriodEnd */\n    tag_39:\n      sload(0x02)\n      dup2\n      jump\t// out\n        /* \"electionSystem.sol\":2914:3425  function vote(address candidate) external onlyVoter onlyDuringVoting {... */\n    tag_43:\n        /* \"electionSystem.sol\":1826:1832  voters */\n      0x04\n        /* \"electionSystem.sol\":1826:1844  voters[msg.sender] */\n      0x00\n        /* \"electionSystem.sol\":1833:1843  msg.sender */\n      caller\n        /* \"electionSystem.sol\":1826:1844  voters[msg.sender] */\n      0xffffffffffffffffffffffffffffffffffffffff\n      and\n      0xffffffffffffffffffffffffffffffffffffffff\n      and\n      dup2\n      mstore\n      0x20\n      add\n      swap1\n      dup2\n      mstore\n      0x20\n      add\n      0x00\n      keccak256\n      0x00\n      swap1\n      sload\n      swap1\n      0x0100\n      exp\n      swap1\n      div\n      0xff\n      and\n        /* \"electionSystem.sol\":1818:1881  require(voters[msg.sender], \"Caller is not a registered voter\") */\n      tag_76\n      jumpi\n      mload(0x40)\n      0x08c379a000000000000000000000000000000000000000000000000000000000\n      dup2\n      mstore\n      0x04\n      add\n      tag_77\n      swap1\n      tag_78\n      jump\t// in\n    tag_77:\n      mload(0x40)\n      dup1\n      swap2\n      sub\n      swap1\n      revert\n    tag_76:\n        /* \"electionSystem.sol\":1240:1255  votingPeriodEnd */\n      sload(0x02)\n        /* \"electionSystem.sol\":1221:1236  block.timestamp */\n      timestamp\n        /* \"electionSystem.sol\":1221:1255  block.timestamp <= votingPeriodEnd */\n      gt\n      iszero\n        /* \"electionSystem.sol\":1213:1283  require(block.timestamp <= votingPeriodEnd, \"Voting period has ended\") */\n      tag_80\n      jumpi\n      mload(0x40)\n      0x08c379a000000000000000000000000000000000000000000000000000000000\n      dup2\n      mstore\n      0x04\n      add\n      tag_81\n      swap1\n      tag_82\n      jump\t// in\n    tag_81:\n      mload(0x40)\n      dup1\n      swap2\n      sub\n      swap1\n      revert\n    tag_80:\n        /* \"electionSystem.sol\":3078:3093  votingPeriodEnd */\n      sload(0x02)\n        /* \"electionSystem.sol\":3060:3075  block.timestamp */\n      timestamp\n        /* \"electionSystem.sol\":3060:3093  block.timestamp > votingPeriodEnd */\n      gt\n        /* \"electionSystem.sol\":3060:3117  block.timestamp > votingPeriodEnd && winner == address(0) */\n      dup1\n      iszero\n      tag_84\n      jumpi\n      pop\n        /* \"electionSystem.sol\":3115:3116  0 */\n      0x00\n        /* \"electionSystem.sol\":3097:3117  winner == address(0) */\n      0xffffffffffffffffffffffffffffffffffffffff\n      and\n        /* \"electionSystem.sol\":3097:3103  winner */\n      0x03\n      0x00\n      swap1\n      sload\n      swap1\n      0x0100\n      exp\n      swap1\n      div\n      0xffffffffffffffffffffffffffffffffffffffff\n      and\n        /* \"electionSystem.sol\":3097:3117  winner == address(0) */\n      0xffffffffffffffffffffffffffffffffffffffff\n      and\n      eq\n        /* \"electionSystem.sol\":3060:3117  block.timestamp > votingPeriodEnd && winner == address(0) */\n    tag_84:\n        /* \"electionSystem.sol\":3056:3161  if (block.timestamp > votingPeriodEnd && winner == address(0)) {... */\n      iszero\n      tag_85\n      jumpi\n        /* \"electionSystem.sol\":3134:3149  _autoTabulate() */\n      tag_86\n        /* \"electionSystem.sol\":3134:3147  _autoTabulate */\n      tag_87\n        /* \"electionSystem.sol\":3134:3149  _autoTabulate() */\n      jump\t// in\n    tag_86:\n        /* \"electionSystem.sol\":3056:3161  if (block.timestamp > votingPeriodEnd && winner == address(0)) {... */\n    tag_85:\n        /* \"electionSystem.sol\":3177:3185  hasVoted */\n      0x05\n        /* \"electionSystem.sol\":3177:3197  hasVoted[msg.sender] */\n      0x00\n        /* \"electionSystem.sol\":3186:3196  msg.sender */\n      caller\n        /* \"electionSystem.sol\":3177:3197  hasVoted[msg.sender] */\n      0xffffffffffffffffffffffffffffffffffffffff\n      and\n      0xffffffffffffffffffffffffffffffffffffffff\n      and\n      dup2\n      mstore\n      0x20\n      add\n      swap1\n      dup2\n      mstore\n      0x20\n      add\n      0x00\n      keccak256\n      0x00\n      swap1\n      sload\n      swap1\n      0x0100\n      exp\n      swap1\n      div\n      0xff\n      and\n        /* \"electionSystem.sol\":3173:3222  if (hasVoted[msg.sender]) revert(\"Already voted\") */\n      iszero\n      tag_88\n      jumpi\n        /* \"electionSystem.sol\":3199:3222  revert(\"Already voted\") */\n      mload(0x40)\n      0x08c379a000000000000000000000000000000000000000000000000000000000\n      dup2\n      mstore\n      0x04\n      add\n      tag_89\n      swap1\n      tag_90\n      jump\t// in\n    tag_89:\n      mload(0x40)\n      dup1\n      swap2\n      sub\n      swap1\n      revert\n        /* \"electionSystem.sol\":3173:3222  if (hasVoted[msg.sender]) revert(\"Already voted\") */\n    tag_88:\n        /* \"electionSystem.sol\":3238:3249  isCandidate */\n      0x07\n        /* \"electionSystem.sol\":3238:3260  isCandidate[candidate] */\n      0x00\n        /* \"electionSystem.sol\":3250:3259  candidate */\n      dup3\n        /* \"electionSystem.sol\":3238:3260  isCandidate[candidate] */\n      0xffffffffffffffffffffffffffffffffffffffff\n      and\n      0xffffffffffffffffffffffffffffffffffffffff\n      and\n      dup2\n      mstore\n      0x20\n      add\n      swap1\n      dup2\n      mstore\n      0x20\n      add\n      0x00\n      keccak256\n      0x00\n      swap1\n      sload\n      swap1\n      0x0100\n      exp\n      swap1\n      div\n      0xff\n      and\n        /* \"electionSystem.sol\":3233:3289  if (!isCandidate[candidate]) revert(\"Invalid candidate\") */\n      tag_91\n      jumpi\n        /* \"electionSystem.sol\":3262:3289  revert(\"Invalid candidate\") */\n      mload(0x40)\n      0x08c379a000000000000000000000000000000000000000000000000000000000\n      dup2\n      mstore\n      0x04\n      add\n      tag_92\n      swap1\n      tag_93\n      jump\t// in\n    tag_92:\n      mload(0x40)\n      dup1\n      swap2\n      sub\n      swap1\n      revert\n        /* \"electionSystem.sol\":3233:3289  if (!isCandidate[candidate]) revert(\"Invalid candidate\") */\n    tag_91:\n        /* \"electionSystem.sol\":3325:3329  true */\n      0x01\n        /* \"electionSystem.sol\":3302:3310  hasVoted */\n      0x05\n        /* \"electionSystem.sol\":3302:3322  hasVoted[msg.sender] */\n      0x00\n        /* \"electionSystem.sol\":3311:3321  msg.sender */\n      caller\n        /* \"electionSystem.sol\":3302:3322  hasVoted[msg.sender] */\n      0xffffffffffffffffffffffffffffffffffffffff\n      and\n      0xffffffffffffffffffffffffffffffffffffffff\n      and\n      dup2\n      mstore\n      0x20\n      add\n      swap1\n      dup2\n      mstore\n      0x20\n      add\n      0x00\n      keccak256\n      0x00\n        /* \"electionSystem.sol\":3302:3329  hasVoted[msg.sender] = true */\n      0x0100\n      exp\n      dup2\n      sload\n      dup2\n      0xff\n      mul\n      not\n      and\n      swap1\n      dup4\n      iszero\n      iszero\n      mul\n      or\n      swap1\n      sstore\n      pop\n        /* \"electionSystem.sol\":3369:3370  1 */\n      0x01\n        /* \"electionSystem.sol\":3340:3354  candidateVotes */\n      0x06\n        /* \"electionSystem.sol\":3340:3365  candidateVotes[candidate] */\n      0x00\n        /* \"electionSystem.sol\":3355:3364  candidate */\n      dup4\n        /* \"electionSystem.sol\":3340:3365  candidateVotes[candidate] */\n      0xffffffffffffffffffffffffffffffffffffffff\n      and\n      0xffffffffffffffffffffffffffffffffffffffff\n      and\n      dup2\n      mstore\n      0x20\n      add\n      swap1\n      dup2\n      mstore\n      0x20\n      add\n      0x00\n      keccak256\n      0x00\n        /* \"electionSystem.sol\":3340:3370  candidateVotes[candidate] += 1 */\n      dup3\n      dup3\n      sload\n      tag_94\n      swap2\n      swap1\n      tag_74\n      jump\t// in\n    tag_94:\n      swap3\n      pop\n      pop\n      dup2\n      swap1\n      sstore\n      pop\n        /* \"electionSystem.sol\":3407:3416  candidate */\n      dup1\n        /* \"electionSystem.sol\":3386:3417  VoteCast(msg.sender, candidate) */\n      0xffffffffffffffffffffffffffffffffffffffff\n      and\n        /* \"electionSystem.sol\":3395:3405  msg.sender */\n      caller\n        /* \"electionSystem.sol\":3386:3417  VoteCast(msg.sender, candidate) */\n      0xffffffffffffffffffffffffffffffffffffffff\n      and\n      0x113ed09b18bb8fe2635af16f21d67464502d920ff1015abfe08dbe9a2971a7e2\n      mload(0x40)\n      mload(0x40)\n      dup1\n      swap2\n      sub\n      swap1\n      log3\n        /* \"electionSystem.sol\":2914:3425  function vote(address candidate) external onlyVoter onlyDuringVoting {... */\n      pop\n      jump\t// out\n        /* \"electionSystem.sol\":3515:3605  function endVoting() external onlyAdmin onlyAfterVoting {... */\n    tag_45:\n        /* \"electionSystem.sol\":1654:1659  admin */\n      0x00\n      0x00\n      swap1\n      sload\n      swap1\n      0x0100\n      exp\n      swap1\n      div\n      0xffffffffffffffffffffffffffffffffffffffff\n      and\n        /* \"electionSystem.sol\":1640:1659  msg.sender == admin */\n      0xffffffffffffffffffffffffffffffffffffffff\n      and\n        /* \"electionSystem.sol\":1640:1650  msg.sender */\n      caller\n        /* \"electionSystem.sol\":1640:1659  msg.sender == admin */\n      0xffffffffffffffffffffffffffffffffffffffff\n      and\n      eq\n        /* \"electionSystem.sol\":1632:1687  require(msg.sender == admin, \"Caller is not the admin\") */\n      tag_96\n      jumpi\n      mload(0x40)\n      0x08c379a000000000000000000000000000000000000000000000000000000000\n      dup2\n      mstore\n      0x04\n      add\n      tag_97\n      swap1\n      tag_61\n      jump\t// in\n    tag_97:\n      mload(0x40)\n      dup1\n      swap2\n      sub\n      swap1\n      revert\n    tag_96:\n        /* \"electionSystem.sol\":1468:1483  votingPeriodEnd */\n      sload(0x02)\n        /* \"electionSystem.sol\":1450:1465  block.timestamp */\n      timestamp\n        /* \"electionSystem.sol\":1450:1483  block.timestamp > votingPeriodEnd */\n      gt\n        /* \"electionSystem.sol\":1442:1517  require(block.timestamp > votingPeriodEnd, \"Voting period is still active\") */\n      tag_99\n      jumpi\n      mload(0x40)\n      0x08c379a000000000000000000000000000000000000000000000000000000000\n      dup2\n      mstore\n      0x04\n      add\n      tag_100\n      swap1\n      tag_101\n      jump\t// in\n    tag_100:\n      mload(0x40)\n      dup1\n      swap2\n      sub\n      swap1\n      revert\n    tag_99:\n        /* \"electionSystem.sol\":3582:3597  _autoTabulate() */\n      tag_103\n        /* \"electionSystem.sol\":3582:3595  _autoTabulate */\n      tag_87\n        /* \"electionSystem.sol\":3582:3597  _autoTabulate() */\n      jump\t// in\n    tag_103:\n        /* \"electionSystem.sol\":3515:3605  function endVoting() external onlyAdmin onlyAfterVoting {... */\n      jump\t// out\n        /* \"electionSystem.sol\":467:510  mapping(address => bool) public isCandidate */\n    tag_48:\n      mstore(0x20, 0x07)\n      dup1\n      0x00\n      mstore\n      keccak256(0x00, 0x40)\n      0x00\n      swap2\n      pop\n      sload\n      swap1\n      0x0100\n      exp\n      swap1\n      div\n      0xff\n      and\n      dup2\n      jump\t// out\n        /* \"electionSystem.sol\":288:309  address public winner */\n    tag_51:\n      0x03\n      0x00\n      swap1\n      sload\n      swap1\n      0x0100\n      exp\n      swap1\n      div\n      0xffffffffffffffffffffffffffffffffffffffff\n      and\n      dup2\n      jump\t// out\n        /* \"electionSystem.sol\":190:210  address public admin */\n    tag_54:\n      0x00\n      0x00\n      swap1\n      sload\n      swap1\n      0x0100\n      exp\n      swap1\n      div\n      0xffffffffffffffffffffffffffffffffffffffff\n      and\n      dup2\n      jump\t// out\n        /* \"electionSystem.sol\":3700:4246  function _autoTabulate() internal {... */\n    tag_87:\n        /* \"electionSystem.sol\":3745:3765  uint256 highestVotes */\n      0x00\n        /* \"electionSystem.sol\":3768:3769  0 */\n      0x00\n        /* \"electionSystem.sol\":3745:3769  uint256 highestVotes = 0 */\n      swap1\n      pop\n        /* \"electionSystem.sol\":3780:3801  address currentWinner */\n      0x00\n        /* \"electionSystem.sol\":3812:3813  0 */\n      0x00\n        /* \"electionSystem.sol\":3780:3814  address currentWinner = address(0) */\n      swap1\n      pop\n        /* \"electionSystem.sol\":3832:3841  uint256 i */\n      0x00\n        /* \"electionSystem.sol\":3844:3845  0 */\n      0x00\n        /* \"electionSystem.sol\":3832:3845  uint256 i = 0 */\n      swap1\n      pop\n        /* \"electionSystem.sol\":3827:4166  for (uint256 i = 0; i < candidates.length; i++) {... */\n    tag_105:\n        /* \"electionSystem.sol\":3851:3861  candidates */\n      0x01\n        /* \"electionSystem.sol\":3851:3868  candidates.length */\n      dup1\n      sload\n      swap1\n      pop\n        /* \"electionSystem.sol\":3847:3848  i */\n      dup2\n        /* \"electionSystem.sol\":3847:3868  i < candidates.length */\n      lt\n        /* \"electionSystem.sol\":3827:4166  for (uint256 i = 0; i < candidates.length; i++) {... */\n      iszero\n      tag_106\n      jumpi\n        /* \"electionSystem.sol\":3890:3907  address candidate */\n      0x00\n        /* \"electionSystem.sol\":3910:3920  candidates */\n      0x01\n        /* \"electionSystem.sol\":3921:3922  i */\n      dup3\n        /* \"electionSystem.sol\":3910:3923  candidates[i] */\n      dup2\n      sload\n      dup2\n      lt\n      tag_108\n      jumpi\n      tag_109\n      tag_110\n      jump\t// in\n    tag_109:\n    tag_108:\n      swap1\n      0x00\n      mstore\n      keccak256(0x00, 0x20)\n      add\n      0x00\n      swap1\n      sload\n      swap1\n      0x0100\n      exp\n      swap1\n      div\n      0xffffffffffffffffffffffffffffffffffffffff\n      and\n        /* \"electionSystem.sol\":3890:3923  address candidate = candidates[i] */\n      swap1\n      pop\n        /* \"electionSystem.sol\":3938:3963  uint256 votesForCandidate */\n      0x00\n        /* \"electionSystem.sol\":3966:3980  candidateVotes */\n      0x06\n        /* \"electionSystem.sol\":3966:3991  candidateVotes[candidate] */\n      0x00\n        /* \"electionSystem.sol\":3981:3990  candidate */\n      dup4\n        /* \"electionSystem.sol\":3966:3991  candidateVotes[candidate] */\n      0xffffffffffffffffffffffffffffffffffffffff\n      and\n      0xffffffffffffffffffffffffffffffffffffffff\n      and\n      dup2\n      mstore\n      0x20\n      add\n      swap1\n      dup2\n      mstore\n      0x20\n      add\n      0x00\n      keccak256\n      sload\n        /* \"electionSystem.sol\":3938:3991  uint256 votesForCandidate = candidateVotes[candidate] */\n      swap1\n      pop\n        /* \"electionSystem.sol\":4030:4042  highestVotes */\n      dup5\n        /* \"electionSystem.sol\":4010:4027  votesForCandidate */\n      dup2\n        /* \"electionSystem.sol\":4010:4042  votesForCandidate > highestVotes */\n      gt\n        /* \"electionSystem.sol\":4006:4155  if (votesForCandidate > highestVotes) {... */\n      iszero\n      tag_112\n      jumpi\n        /* \"electionSystem.sol\":4078:4095  votesForCandidate */\n      dup1\n        /* \"electionSystem.sol\":4063:4095  highestVotes = votesForCandidate */\n      swap5\n      pop\n        /* \"electionSystem.sol\":4130:4139  candidate */\n      dup2\n        /* \"electionSystem.sol\":4114:4139  currentWinner = candidate */\n      swap4\n      pop\n        /* \"electionSystem.sol\":4006:4155  if (votesForCandidate > highestVotes) {... */\n    tag_112:\n        /* \"electionSystem.sol\":3875:4166  {... */\n      pop\n      pop\n        /* \"electionSystem.sol\":3870:3873  i++ */\n      dup1\n      dup1\n      0x01\n      add\n      swap2\n      pop\n      pop\n        /* \"electionSystem.sol\":3827:4166  for (uint256 i = 0; i < candidates.length; i++) {... */\n      jump(tag_105)\n    tag_106:\n      pop\n        /* \"electionSystem.sol\":4187:4200  currentWinner */\n      dup1\n        /* \"electionSystem.sol\":4178:4184  winner */\n      0x03\n      0x00\n        /* \"electionSystem.sol\":4178:4200  winner = currentWinner */\n      0x0100\n      exp\n      dup2\n      sload\n      dup2\n      0xffffffffffffffffffffffffffffffffffffffff\n      mul\n      not\n      and\n      swap1\n      dup4\n      0xffffffffffffffffffffffffffffffffffffffff\n      and\n      mul\n      or\n      swap1\n      sstore\n      pop\n        /* \"electionSystem.sol\":4231:4237  winner */\n      0x03\n      0x00\n      swap1\n      sload\n      swap1\n      0x0100\n      exp\n      swap1\n      div\n      0xffffffffffffffffffffffffffffffffffffffff\n      and\n        /* \"electionSystem.sol\":4216:4238  WinnerDeclared(winner) */\n      0xffffffffffffffffffffffffffffffffffffffff\n      and\n      0x2d66076f24af48812dc2fdd69ac3d62bc732d6766ce65fdf93a45675faba22bd\n      mload(0x40)\n      mload(0x40)\n      dup1\n      swap2\n      sub\n      swap1\n      log2\n        /* \"electionSystem.sol\":3734:4246  {... */\n      pop\n      pop\n        /* \"electionSystem.sol\":3700:4246  function _autoTabulate() internal {... */\n      jump\t// out\n        /* \"#utility.yul\":88:205   */\n    tag_114:\n        /* \"#utility.yul\":197:198   */\n      0x00\n        /* \"#utility.yul\":194:195   */\n      0x00\n        /* \"#utility.yul\":187:199   */\n      revert\n        /* \"#utility.yul\":334:460   */\n    tag_116:\n        /* \"#utility.yul\":371:378   */\n      0x00\n        /* \"#utility.yul\":411:453   */\n      0xffffffffffffffffffffffffffffffffffffffff\n        /* \"#utility.yul\":404:409   */\n      dup3\n        /* \"#utility.yul\":400:454   */\n      and\n        /* \"#utility.yul\":389:454   */\n      swap1\n      pop\n        /* \"#utility.yul\":334:460   */\n      swap2\n      swap1\n      pop\n      jump\t// out\n        /* \"#utility.yul\":466:562   */\n    tag_117:\n        /* \"#utility.yul\":503:510   */\n      0x00\n        /* \"#utility.yul\":532:556   */\n      tag_151\n        /* \"#utility.yul\":550:555   */\n      dup3\n        /* \"#utility.yul\":532:556   */\n      tag_116\n      jump\t// in\n    tag_151:\n        /* \"#utility.yul\":521:556   */\n      swap1\n      pop\n        /* \"#utility.yul\":466:562   */\n      swap2\n      swap1\n      pop\n      jump\t// out\n        /* \"#utility.yul\":568:690   */\n    tag_118:\n        /* \"#utility.yul\":641:665   */\n      tag_153\n        /* \"#utility.yul\":659:664   */\n      dup2\n        /* \"#utility.yul\":641:665   */\n      tag_117\n      jump\t// in\n    tag_153:\n        /* \"#utility.yul\":634:639   */\n      dup2\n        /* \"#utility.yul\":631:666   */\n      eq\n        /* \"#utility.yul\":621:684   */\n      tag_154\n      jumpi\n        /* \"#utility.yul\":680:681   */\n      0x00\n        /* \"#utility.yul\":677:678   */\n      0x00\n        /* \"#utility.yul\":670:682   */\n      revert\n        /* \"#utility.yul\":621:684   */\n    tag_154:\n        /* \"#utility.yul\":568:690   */\n      pop\n      jump\t// out\n        /* \"#utility.yul\":696:835   */\n    tag_119:\n        /* \"#utility.yul\":742:747   */\n      0x00\n        /* \"#utility.yul\":780:786   */\n      dup2\n        /* \"#utility.yul\":767:787   */\n      calldataload\n        /* \"#utility.yul\":758:787   */\n      swap1\n      pop\n        /* \"#utility.yul\":796:829   */\n      tag_156\n        /* \"#utility.yul\":823:828   */\n      dup2\n        /* \"#utility.yul\":796:829   */\n      tag_118\n      jump\t// in\n    tag_156:\n        /* \"#utility.yul\":696:835   */\n      swap3\n      swap2\n      pop\n      pop\n      jump\t// out\n        /* \"#utility.yul\":841:1170   */\n    tag_17:\n        /* \"#utility.yul\":900:906   */\n      0x00\n        /* \"#utility.yul\":949:951   */\n      0x20\n        /* \"#utility.yul\":937:946   */\n      dup3\n        /* \"#utility.yul\":928:935   */\n      dup5\n        /* \"#utility.yul\":924:947   */\n      sub\n        /* \"#utility.yul\":920:952   */\n      slt\n        /* \"#utility.yul\":917:1036   */\n      iszero\n      tag_158\n      jumpi\n        /* \"#utility.yul\":955:1034   */\n      tag_159\n      tag_114\n      jump\t// in\n    tag_159:\n        /* \"#utility.yul\":917:1036   */\n    tag_158:\n        /* \"#utility.yul\":1075:1076   */\n      0x00\n        /* \"#utility.yul\":1100:1153   */\n      tag_160\n        /* \"#utility.yul\":1145:1152   */\n      dup5\n        /* \"#utility.yul\":1136:1142   */\n      dup3\n        /* \"#utility.yul\":1125:1134   */\n      dup6\n        /* \"#utility.yul\":1121:1143   */\n      add\n        /* \"#utility.yul\":1100:1153   */\n      tag_119\n      jump\t// in\n    tag_160:\n        /* \"#utility.yul\":1090:1153   */\n      swap2\n      pop\n        /* \"#utility.yul\":1046:1163   */\n      pop\n        /* \"#utility.yul\":841:1170   */\n      swap3\n      swap2\n      pop\n      pop\n      jump\t// out\n        /* \"#utility.yul\":1176:1266   */\n    tag_120:\n        /* \"#utility.yul\":1210:1217   */\n      0x00\n        /* \"#utility.yul\":1253:1258   */\n      dup2\n        /* \"#utility.yul\":1246:1259   */\n      iszero\n        /* \"#utility.yul\":1239:1260   */\n      iszero\n        /* \"#utility.yul\":1228:1260   */\n      swap1\n      pop\n        /* \"#utility.yul\":1176:1266   */\n      swap2\n      swap1\n      pop\n      jump\t// out\n        /* \"#utility.yul\":1272:1381   */\n    tag_121:\n        /* \"#utility.yul\":1353:1374   */\n      tag_163\n        /* \"#utility.yul\":1368:1373   */\n      dup2\n        /* \"#utility.yul\":1353:1374   */\n      tag_120\n      jump\t// in\n    tag_163:\n        /* \"#utility.yul\":1348:1351   */\n      dup3\n        /* \"#utility.yul\":1341:1375   */\n      mstore\n        /* \"#utility.yul\":1272:1381   */\n      pop\n      pop\n      jump\t// out\n        /* \"#utility.yul\":1387:1597   */\n    tag_20:\n        /* \"#utility.yul\":1474:1478   */\n      0x00\n        /* \"#utility.yul\":1512:1514   */\n      0x20\n        /* \"#utility.yul\":1501:1510   */\n      dup3\n        /* \"#utility.yul\":1497:1515   */\n      add\n        /* \"#utility.yul\":1489:1515   */\n      swap1\n      pop\n        /* \"#utility.yul\":1525:1590   */\n      tag_165\n        /* \"#utility.yul\":1587:1588   */\n      0x00\n        /* \"#utility.yul\":1576:1585   */\n      dup4\n        /* \"#utility.yul\":1572:1589   */\n      add\n        /* \"#utility.yul\":1563:1569   */\n      dup5\n        /* \"#utility.yul\":1525:1590   */\n      tag_121\n      jump\t// in\n    tag_165:\n        /* \"#utility.yul\":1387:1597   */\n      swap3\n      swap2\n      pop\n      pop\n      jump\t// out\n        /* \"#utility.yul\":1603:1680   */\n    tag_122:\n        /* \"#utility.yul\":1640:1647   */\n      0x00\n        /* \"#utility.yul\":1669:1674   */\n      dup2\n        /* \"#utility.yul\":1658:1674   */\n      swap1\n      pop\n        /* \"#utility.yul\":1603:1680   */\n      swap2\n      swap1\n      pop\n      jump\t// out\n        /* \"#utility.yul\":1686:1804   */\n    tag_123:\n        /* \"#utility.yul\":1773:1797   */\n      tag_168\n        /* \"#utility.yul\":1791:1796   */\n      dup2\n        /* \"#utility.yul\":1773:1797   */\n      tag_122\n      jump\t// in\n    tag_168:\n        /* \"#utility.yul\":1768:1771   */\n      dup3\n        /* \"#utility.yul\":1761:1798   */\n      mstore\n        /* \"#utility.yul\":1686:1804   */\n      pop\n      pop\n      jump\t// out\n        /* \"#utility.yul\":1810:2032   */\n    tag_25:\n        /* \"#utility.yul\":1903:1907   */\n      0x00\n        /* \"#utility.yul\":1941:1943   */\n      0x20\n        /* \"#utility.yul\":1930:1939   */\n      dup3\n        /* \"#utility.yul\":1926:1944   */\n      add\n        /* \"#utility.yul\":1918:1944   */\n      swap1\n      pop\n        /* \"#utility.yul\":1954:2025   */\n      tag_170\n        /* \"#utility.yul\":2022:2023   */\n      0x00\n        /* \"#utility.yul\":2011:2020   */\n      dup4\n        /* \"#utility.yul\":2007:2024   */\n      add\n        /* \"#utility.yul\":1998:2004   */\n      dup5\n        /* \"#utility.yul\":1954:2025   */\n      tag_123\n      jump\t// in\n    tag_170:\n        /* \"#utility.yul\":1810:2032   */\n      swap3\n      swap2\n      pop\n      pop\n      jump\t// out\n        /* \"#utility.yul\":2038:2160   */\n    tag_124:\n        /* \"#utility.yul\":2111:2135   */\n      tag_172\n        /* \"#utility.yul\":2129:2134   */\n      dup2\n        /* \"#utility.yul\":2111:2135   */\n      tag_122\n      jump\t// in\n    tag_172:\n        /* \"#utility.yul\":2104:2109   */\n      dup2\n        /* \"#utility.yul\":2101:2136   */\n      eq\n        /* \"#utility.yul\":2091:2154   */\n      tag_173\n      jumpi\n        /* \"#utility.yul\":2150:2151   */\n      0x00\n        /* \"#utility.yul\":2147:2148   */\n      0x00\n        /* \"#utility.yul\":2140:2152   */\n      revert\n        /* \"#utility.yul\":2091:2154   */\n    tag_173:\n        /* \"#utility.yul\":2038:2160   */\n      pop\n      jump\t// out\n        /* \"#utility.yul\":2166:2305   */\n    tag_125:\n        /* \"#utility.yul\":2212:2217   */\n      0x00\n        /* \"#utility.yul\":2250:2256   */\n      dup2\n        /* \"#utility.yul\":2237:2257   */\n      calldataload\n        /* \"#utility.yul\":2228:2257   */\n      swap1\n      pop\n        /* \"#utility.yul\":2266:2299   */\n      tag_175\n        /* \"#utility.yul\":2293:2298   */\n      dup2\n        /* \"#utility.yul\":2266:2299   */\n      tag_124\n      jump\t// in\n    tag_175:\n        /* \"#utility.yul\":2166:2305   */\n      swap3\n      swap2\n      pop\n      pop\n      jump\t// out\n        /* \"#utility.yul\":2311:2640   */\n    tag_28:\n        /* \"#utility.yul\":2370:2376   */\n      0x00\n        /* \"#utility.yul\":2419:2421   */\n      0x20\n        /* \"#utility.yul\":2407:2416   */\n      dup3\n        /* \"#utility.yul\":2398:2405   */\n      dup5\n        /* \"#utility.yul\":2394:2417   */\n      sub\n        /* \"#utility.yul\":2390:2422   */\n      slt\n        /* \"#utility.yul\":2387:2506   */\n      iszero\n      tag_177\n      jumpi\n        /* \"#utility.yul\":2425:2504   */\n      tag_178\n      tag_114\n      jump\t// in\n    tag_178:\n        /* \"#utility.yul\":2387:2506   */\n    tag_177:\n        /* \"#utility.yul\":2545:2546   */\n      0x00\n        /* \"#utility.yul\":2570:2623   */\n      tag_179\n        /* \"#utility.yul\":2615:2622   */\n      dup5\n        /* \"#utility.yul\":2606:2612   */\n      dup3\n        /* \"#utility.yul\":2595:2604   */\n      dup6\n        /* \"#utility.yul\":2591:2613   */\n      add\n        /* \"#utility.yul\":2570:2623   */\n      tag_125\n      jump\t// in\n    tag_179:\n        /* \"#utility.yul\":2560:2623   */\n      swap2\n      pop\n        /* \"#utility.yul\":2516:2633   */\n      pop\n        /* \"#utility.yul\":2311:2640   */\n      swap3\n      swap2\n      pop\n      pop\n      jump\t// out\n        /* \"#utility.yul\":2646:2764   */\n    tag_126:\n        /* \"#utility.yul\":2733:2757   */\n      tag_181\n        /* \"#utility.yul\":2751:2756   */\n      dup2\n        /* \"#utility.yul\":2733:2757   */\n      tag_117\n      jump\t// in\n    tag_181:\n        /* \"#utility.yul\":2728:2731   */\n      dup3\n        /* \"#utility.yul\":2721:2758   */\n      mstore\n        /* \"#utility.yul\":2646:2764   */\n      pop\n      pop\n      jump\t// out\n        /* \"#utility.yul\":2770:2992   */\n    tag_31:\n        /* \"#utility.yul\":2863:2867   */\n      0x00\n        /* \"#utility.yul\":2901:2903   */\n      0x20\n        /* \"#utility.yul\":2890:2899   */\n      dup3\n        /* \"#utility.yul\":2886:2904   */\n      add\n        /* \"#utility.yul\":2878:2904   */\n      swap1\n      pop\n        /* \"#utility.yul\":2914:2985   */\n      tag_183\n        /* \"#utility.yul\":2982:2983   */\n      0x00\n        /* \"#utility.yul\":2971:2980   */\n      dup4\n        /* \"#utility.yul\":2967:2984   */\n      add\n        /* \"#utility.yul\":2958:2964   */\n      dup5\n        /* \"#utility.yul\":2914:2985   */\n      tag_126\n      jump\t// in\n    tag_183:\n        /* \"#utility.yul\":2770:2992   */\n      swap3\n      swap2\n      pop\n      pop\n      jump\t// out\n        /* \"#utility.yul\":2998:3167   */\n    tag_127:\n        /* \"#utility.yul\":3082:3093   */\n      0x00\n        /* \"#utility.yul\":3116:3122   */\n      dup3\n        /* \"#utility.yul\":3111:3114   */\n      dup3\n        /* \"#utility.yul\":3104:3123   */\n      mstore\n        /* \"#utility.yul\":3156:3160   */\n      0x20\n        /* \"#utility.yul\":3151:3154   */\n      dup3\n        /* \"#utility.yul\":3147:3161   */\n      add\n        /* \"#utility.yul\":3132:3161   */\n      swap1\n      pop\n        /* \"#utility.yul\":2998:3167   */\n      swap3\n      swap2\n      pop\n      pop\n      jump\t// out\n        /* \"#utility.yul\":3173:3346   */\n    tag_128:\n        /* \"#utility.yul\":3313:3338   */\n      0x43616c6c6572206973206e6f74207468652061646d696e000000000000000000\n        /* \"#utility.yul\":3309:3310   */\n      0x00\n        /* \"#utility.yul\":3301:3307   */\n      dup3\n        /* \"#utility.yul\":3297:3311   */\n      add\n        /* \"#utility.yul\":3290:3339   */\n      mstore\n        /* \"#utility.yul\":3173:3346   */\n      pop\n      jump\t// out\n        /* \"#utility.yul\":3352:3718   */\n    tag_129:\n        /* \"#utility.yul\":3494:3497   */\n      0x00\n        /* \"#utility.yul\":3515:3582   */\n      tag_187\n        /* \"#utility.yul\":3579:3581   */\n      0x17\n        /* \"#utility.yul\":3574:3577   */\n      dup4\n        /* \"#utility.yul\":3515:3582   */\n      tag_127\n      jump\t// in\n    tag_187:\n        /* \"#utility.yul\":3508:3582   */\n      swap2\n      pop\n        /* \"#utility.yul\":3591:3684   */\n      tag_188\n        /* \"#utility.yul\":3680:3683   */\n      dup3\n        /* \"#utility.yul\":3591:3684   */\n      tag_128\n      jump\t// in\n    tag_188:\n        /* \"#utility.yul\":3709:3711   */\n      0x20\n        /* \"#utility.yul\":3704:3707   */\n      dup3\n        /* \"#utility.yul\":3700:3712   */\n      add\n        /* \"#utility.yul\":3693:3712   */\n      swap1\n      pop\n        /* \"#utility.yul\":3352:3718   */\n      swap2\n      swap1\n      pop\n      jump\t// out\n        /* \"#utility.yul\":3724:4143   */\n    tag_61:\n        /* \"#utility.yul\":3890:3894   */\n      0x00\n        /* \"#utility.yul\":3928:3930   */\n      0x20\n        /* \"#utility.yul\":3917:3926   */\n      dup3\n        /* \"#utility.yul\":3913:3931   */\n      add\n        /* \"#utility.yul\":3905:3931   */\n      swap1\n      pop\n        /* \"#utility.yul\":3977:3986   */\n      dup2\n        /* \"#utility.yul\":3971:3975   */\n      dup2\n        /* \"#utility.yul\":3967:3987   */\n      sub\n        /* \"#utility.yul\":3963:3964   */\n      0x00\n        /* \"#utility.yul\":3952:3961   */\n      dup4\n        /* \"#utility.yul\":3948:3965   */\n      add\n        /* \"#utility.yul\":3941:3988   */\n      mstore\n        /* \"#utility.yul\":4005:4136   */\n      tag_190\n        /* \"#utility.yul\":4131:4135   */\n      dup2\n        /* \"#utility.yul\":4005:4136   */\n      tag_129\n      jump\t// in\n    tag_190:\n        /* \"#utility.yul\":3997:4136   */\n      swap1\n      pop\n        /* \"#utility.yul\":3724:4143   */\n      swap2\n      swap1\n      pop\n      jump\t// out\n        /* \"#utility.yul\":4149:4323   */\n    tag_130:\n        /* \"#utility.yul\":4289:4315   */\n      0x566f74657220616c726561647920726567697374657265640000000000000000\n        /* \"#utility.yul\":4285:4286   */\n      0x00\n        /* \"#utility.yul\":4277:4283   */\n      dup3\n        /* \"#utility.yul\":4273:4287   */\n      add\n        /* \"#utility.yul\":4266:4316   */\n      mstore\n        /* \"#utility.yul\":4149:4323   */\n      pop\n      jump\t// out\n        /* \"#utility.yul\":4329:4695   */\n    tag_131:\n        /* \"#utility.yul\":4471:4474   */\n      0x00\n        /* \"#utility.yul\":4492:4559   */\n      tag_193\n        /* \"#utility.yul\":4556:4558   */\n      0x18\n        /* \"#utility.yul\":4551:4554   */\n      dup4\n        /* \"#utility.yul\":4492:4559   */\n      tag_127\n      jump\t// in\n    tag_193:\n        /* \"#utility.yul\":4485:4559   */\n      swap2\n      pop\n        /* \"#utility.yul\":4568:4661   */\n      tag_194\n        /* \"#utility.yul\":4657:4660   */\n      dup3\n        /* \"#utility.yul\":4568:4661   */\n      tag_130\n      jump\t// in\n    tag_194:\n        /* \"#utility.yul\":4686:4688   */\n      0x20\n        /* \"#utility.yul\":4681:4684   */\n      dup3\n        /* \"#utility.yul\":4677:4689   */\n      add\n        /* \"#utility.yul\":4670:4689   */\n      swap1\n      pop\n        /* \"#utility.yul\":4329:4695   */\n      swap2\n      swap1\n      pop\n      jump\t// out\n        /* \"#utility.yul\":4701:5120   */\n    tag_65:\n        /* \"#utility.yul\":4867:4871   */\n      0x00\n        /* \"#utility.yul\":4905:4907   */\n      0x20\n        /* \"#utility.yul\":4894:4903   */\n      dup3\n        /* \"#utility.yul\":4890:4908   */\n      add\n        /* \"#utility.yul\":4882:4908   */\n      swap1\n      pop\n        /* \"#utility.yul\":4954:4963   */\n      dup2\n        /* \"#utility.yul\":4948:4952   */\n      dup2\n        /* \"#utility.yul\":4944:4964   */\n      sub\n        /* \"#utility.yul\":4940:4941   */\n      0x00\n        /* \"#utility.yul\":4929:4938   */\n      dup4\n        /* \"#utility.yul\":4925:4942   */\n      add\n        /* \"#utility.yul\":4918:4965   */\n      mstore\n        /* \"#utility.yul\":4982:5113   */\n      tag_196\n        /* \"#utility.yul\":5108:5112   */\n      dup2\n        /* \"#utility.yul\":4982:5113   */\n      tag_131\n      jump\t// in\n    tag_196:\n        /* \"#utility.yul\":4974:5113   */\n      swap1\n      pop\n        /* \"#utility.yul\":4701:5120   */\n      swap2\n      swap1\n      pop\n      jump\t// out\n        /* \"#utility.yul\":5126:5298   */\n    tag_132:\n        /* \"#utility.yul\":5266:5290   */\n      0x566f74696e6720616c7265616479207374617274656400000000000000000000\n        /* \"#utility.yul\":5262:5263   */\n      0x00\n        /* \"#utility.yul\":5254:5260   */\n      dup3\n        /* \"#utility.yul\":5250:5264   */\n      add\n        /* \"#utility.yul\":5243:5291   */\n      mstore\n        /* \"#utility.yul\":5126:5298   */\n      pop\n      jump\t// out\n        /* \"#utility.yul\":5304:5670   */\n    tag_133:\n        /* \"#utility.yul\":5446:5449   */\n      0x00\n        /* \"#utility.yul\":5467:5534   */\n      tag_199\n        /* \"#utility.yul\":5531:5533   */\n      0x16\n        /* \"#utility.yul\":5526:5529   */\n      dup4\n        /* \"#utility.yul\":5467:5534   */\n      tag_127\n      jump\t// in\n    tag_199:\n        /* \"#utility.yul\":5460:5534   */\n      swap2\n      pop\n        /* \"#utility.yul\":5543:5636   */\n      tag_200\n        /* \"#utility.yul\":5632:5635   */\n      dup3\n        /* \"#utility.yul\":5543:5636   */\n      tag_132\n      jump\t// in\n    tag_200:\n        /* \"#utility.yul\":5661:5663   */\n      0x20\n        /* \"#utility.yul\":5656:5659   */\n      dup3\n        /* \"#utility.yul\":5652:5664   */\n      add\n        /* \"#utility.yul\":5645:5664   */\n      swap1\n      pop\n        /* \"#utility.yul\":5304:5670   */\n      swap2\n      swap1\n      pop\n      jump\t// out\n        /* \"#utility.yul\":5676:6095   */\n    tag_72:\n        /* \"#utility.yul\":5842:5846   */\n      0x00\n        /* \"#utility.yul\":5880:5882   */\n      0x20\n        /* \"#utility.yul\":5869:5878   */\n      dup3\n        /* \"#utility.yul\":5865:5883   */\n      add\n        /* \"#utility.yul\":5857:5883   */\n      swap1\n      pop\n        /* \"#utility.yul\":5929:5938   */\n      dup2\n        /* \"#utility.yul\":5923:5927   */\n      dup2\n        /* \"#utility.yul\":5919:5939   */\n      sub\n        /* \"#utility.yul\":5915:5916   */\n      0x00\n        /* \"#utility.yul\":5904:5913   */\n      dup4\n        /* \"#utility.yul\":5900:5917   */\n      add\n        /* \"#utility.yul\":5893:5940   */\n      mstore\n        /* \"#utility.yul\":5957:6088   */\n      tag_202\n        /* \"#utility.yul\":6083:6087   */\n      dup2\n        /* \"#utility.yul\":5957:6088   */\n      tag_133\n      jump\t// in\n    tag_202:\n        /* \"#utility.yul\":5949:6088   */\n      swap1\n      pop\n        /* \"#utility.yul\":5676:6095   */\n      swap2\n      swap1\n      pop\n      jump\t// out\n        /* \"#utility.yul\":6101:6281   */\n    tag_134:\n        /* \"#utility.yul\":6149:6226   */\n      0x4e487b7100000000000000000000000000000000000000000000000000000000\n        /* \"#utility.yul\":6146:6147   */\n      0x00\n        /* \"#utility.yul\":6139:6227   */\n      mstore\n        /* \"#utility.yul\":6246:6250   */\n      0x11\n        /* \"#utility.yul\":6243:6244   */\n      0x04\n        /* \"#utility.yul\":6236:6251   */\n      mstore\n        /* \"#utility.yul\":6270:6274   */\n      0x24\n        /* \"#utility.yul\":6267:6268   */\n      0x00\n        /* \"#utility.yul\":6260:6275   */\n      revert\n        /* \"#utility.yul\":6287:6478   */\n    tag_74:\n        /* \"#utility.yul\":6327:6330   */\n      0x00\n        /* \"#utility.yul\":6346:6366   */\n      tag_205\n        /* \"#utility.yul\":6364:6365   */\n      dup3\n        /* \"#utility.yul\":6346:6366   */\n      tag_122\n      jump\t// in\n    tag_205:\n        /* \"#utility.yul\":6341:6366   */\n      swap2\n      pop\n        /* \"#utility.yul\":6380:6400   */\n      tag_206\n        /* \"#utility.yul\":6398:6399   */\n      dup4\n        /* \"#utility.yul\":6380:6400   */\n      tag_122\n      jump\t// in\n    tag_206:\n        /* \"#utility.yul\":6375:6400   */\n      swap3\n      pop\n        /* \"#utility.yul\":6423:6424   */\n      dup3\n        /* \"#utility.yul\":6420:6421   */\n      dup3\n        /* \"#utility.yul\":6416:6425   */\n      add\n        /* \"#utility.yul\":6409:6425   */\n      swap1\n      pop\n        /* \"#utility.yul\":6444:6447   */\n      dup1\n        /* \"#utility.yul\":6441:6442   */\n      dup3\n        /* \"#utility.yul\":6438:6448   */\n      gt\n        /* \"#utility.yul\":6435:6471   */\n      iszero\n      tag_207\n      jumpi\n        /* \"#utility.yul\":6451:6469   */\n      tag_208\n      tag_134\n      jump\t// in\n    tag_208:\n        /* \"#utility.yul\":6435:6471   */\n    tag_207:\n        /* \"#utility.yul\":6287:6478   */\n      swap3\n      swap2\n      pop\n      pop\n      jump\t// out\n        /* \"#utility.yul\":6484:6666   */\n    tag_135:\n        /* \"#utility.yul\":6624:6658   */\n      0x43616c6c6572206973206e6f742061207265676973746572656420766f746572\n        /* \"#utility.yul\":6620:6621   */\n      0x00\n        /* \"#utility.yul\":6612:6618   */\n      dup3\n        /* \"#utility.yul\":6608:6622   */\n      add\n        /* \"#utility.yul\":6601:6659   */\n      mstore\n        /* \"#utility.yul\":6484:6666   */\n      pop\n      jump\t// out\n        /* \"#utility.yul\":6672:7038   */\n    tag_136:\n        /* \"#utility.yul\":6814:6817   */\n      0x00\n        /* \"#utility.yul\":6835:6902   */\n      tag_211\n        /* \"#utility.yul\":6899:6901   */\n      0x20\n        /* \"#utility.yul\":6894:6897   */\n      dup4\n        /* \"#utility.yul\":6835:6902   */\n      tag_127\n      jump\t// in\n    tag_211:\n        /* \"#utility.yul\":6828:6902   */\n      swap2\n      pop\n        /* \"#utility.yul\":6911:7004   */\n      tag_212\n        /* \"#utility.yul\":7000:7003   */\n      dup3\n        /* \"#utility.yul\":6911:7004   */\n      tag_135\n      jump\t// in\n    tag_212:\n        /* \"#utility.yul\":7029:7031   */\n      0x20\n        /* \"#utility.yul\":7024:7027   */\n      dup3\n        /* \"#utility.yul\":7020:7032   */\n      add\n        /* \"#utility.yul\":7013:7032   */\n      swap1\n      pop\n        /* \"#utility.yul\":6672:7038   */\n      swap2\n      swap1\n      pop\n      jump\t// out\n        /* \"#utility.yul\":7044:7463   */\n    tag_78:\n        /* \"#utility.yul\":7210:7214   */\n      0x00\n        /* \"#utility.yul\":7248:7250   */\n      0x20\n        /* \"#utility.yul\":7237:7246   */\n      dup3\n        /* \"#utility.yul\":7233:7251   */\n      add\n        /* \"#utility.yul\":7225:7251   */\n      swap1\n      pop\n        /* \"#utility.yul\":7297:7306   */\n      dup2\n        /* \"#utility.yul\":7291:7295   */\n      dup2\n        /* \"#utility.yul\":7287:7307   */\n      sub\n        /* \"#utility.yul\":7283:7284   */\n      0x00\n        /* \"#utility.yul\":7272:7281   */\n      dup4\n        /* \"#utility.yul\":7268:7285   */\n      add\n        /* \"#utility.yul\":7261:7308   */\n      mstore\n        /* \"#utility.yul\":7325:7456   */\n      tag_214\n        /* \"#utility.yul\":7451:7455   */\n      dup2\n        /* \"#utility.yul\":7325:7456   */\n      tag_136\n      jump\t// in\n    tag_214:\n        /* \"#utility.yul\":7317:7456   */\n      swap1\n      pop\n        /* \"#utility.yul\":7044:7463   */\n      swap2\n      swap1\n      pop\n      jump\t// out\n        /* \"#utility.yul\":7469:7642   */\n    tag_137:\n        /* \"#utility.yul\":7609:7634   */\n      0x566f74696e6720706572696f642068617320656e646564000000000000000000\n        /* \"#utility.yul\":7605:7606   */\n      0x00\n        /* \"#utility.yul\":7597:7603   */\n      dup3\n        /* \"#utility.yul\":7593:7607   */\n      add\n        /* \"#utility.yul\":7586:7635   */\n      mstore\n        /* \"#utility.yul\":7469:7642   */\n      pop\n      jump\t// out\n        /* \"#utility.yul\":7648:8014   */\n    tag_138:\n        /* \"#utility.yul\":7790:7793   */\n      0x00\n        /* \"#utility.yul\":7811:7878   */\n      tag_217\n        /* \"#utility.yul\":7875:7877   */\n      0x17\n        /* \"#utility.yul\":7870:7873   */\n      dup4\n        /* \"#utility.yul\":7811:7878   */\n      tag_127\n      jump\t// in\n    tag_217:\n        /* \"#utility.yul\":7804:7878   */\n      swap2\n      pop\n        /* \"#utility.yul\":7887:7980   */\n      tag_218\n        /* \"#utility.yul\":7976:7979   */\n      dup3\n        /* \"#utility.yul\":7887:7980   */\n      tag_137\n      jump\t// in\n    tag_218:\n        /* \"#utility.yul\":8005:8007   */\n      0x20\n        /* \"#utility.yul\":8000:8003   */\n      dup3\n        /* \"#utility.yul\":7996:8008   */\n      add\n        /* \"#utility.yul\":7989:8008   */\n      swap1\n      pop\n        /* \"#utility.yul\":7648:8014   */\n      swap2\n      swap1\n      pop\n      jump\t// out\n        /* \"#utility.yul\":8020:8439   */\n    tag_82:\n        /* \"#utility.yul\":8186:8190   */\n      0x00\n        /* \"#utility.yul\":8224:8226   */\n      0x20\n        /* \"#utility.yul\":8213:8222   */\n      dup3\n        /* \"#utility.yul\":8209:8227   */\n      add\n        /* \"#utility.yul\":8201:8227   */\n      swap1\n      pop\n        /* \"#utility.yul\":8273:8282   */\n      dup2\n        /* \"#utility.yul\":8267:8271   */\n      dup2\n        /* \"#utility.yul\":8263:8283   */\n      sub\n        /* \"#utility.yul\":8259:8260   */\n      0x00\n        /* \"#utility.yul\":8248:8257   */\n      dup4\n        /* \"#utility.yul\":8244:8261   */\n      add\n        /* \"#utility.yul\":8237:8284   */\n      mstore\n        /* \"#utility.yul\":8301:8432   */\n      tag_220\n        /* \"#utility.yul\":8427:8431   */\n      dup2\n        /* \"#utility.yul\":8301:8432   */\n      tag_138\n      jump\t// in\n    tag_220:\n        /* \"#utility.yul\":8293:8432   */\n      swap1\n      pop\n        /* \"#utility.yul\":8020:8439   */\n      swap2\n      swap1\n      pop\n      jump\t// out\n        /* \"#utility.yul\":8445:8608   */\n    tag_139:\n        /* \"#utility.yul\":8585:8600   */\n      0x416c726561647920766f74656400000000000000000000000000000000000000\n        /* \"#utility.yul\":8581:8582   */\n      0x00\n        /* \"#utility.yul\":8573:8579   */\n      dup3\n        /* \"#utility.yul\":8569:8583   */\n      add\n        /* \"#utility.yul\":8562:8601   */\n      mstore\n        /* \"#utility.yul\":8445:8608   */\n      pop\n      jump\t// out\n        /* \"#utility.yul\":8614:8980   */\n    tag_140:\n        /* \"#utility.yul\":8756:8759   */\n      0x00\n        /* \"#utility.yul\":8777:8844   */\n      tag_223\n        /* \"#utility.yul\":8841:8843   */\n      0x0d\n        /* \"#utility.yul\":8836:8839   */\n      dup4\n        /* \"#utility.yul\":8777:8844   */\n      tag_127\n      jump\t// in\n    tag_223:\n        /* \"#utility.yul\":8770:8844   */\n      swap2\n      pop\n        /* \"#utility.yul\":8853:8946   */\n      tag_224\n        /* \"#utility.yul\":8942:8945   */\n      dup3\n        /* \"#utility.yul\":8853:8946   */\n      tag_139\n      jump\t// in\n    tag_224:\n        /* \"#utility.yul\":8971:8973   */\n      0x20\n        /* \"#utility.yul\":8966:8969   */\n      dup3\n        /* \"#utility.yul\":8962:8974   */\n      add\n        /* \"#utility.yul\":8955:8974   */\n      swap1\n      pop\n        /* \"#utility.yul\":8614:8980   */\n      swap2\n      swap1\n      pop\n      jump\t// out\n        /* \"#utility.yul\":8986:9405   */\n    tag_90:\n        /* \"#utility.yul\":9152:9156   */\n      0x00\n        /* \"#utility.yul\":9190:9192   */\n      0x20\n        /* \"#utility.yul\":9179:9188   */\n      dup3\n        /* \"#utility.yul\":9175:9193   */\n      add\n        /* \"#utility.yul\":9167:9193   */\n      swap1\n      pop\n        /* \"#utility.yul\":9239:9248   */\n      dup2\n        /* \"#utility.yul\":9233:9237   */\n      dup2\n        /* \"#utility.yul\":9229:9249   */\n      sub\n        /* \"#utility.yul\":9225:9226   */\n      0x00\n        /* \"#utility.yul\":9214:9223   */\n      dup4\n        /* \"#utility.yul\":9210:9227   */\n      add\n        /* \"#utility.yul\":9203:9250   */\n      mstore\n        /* \"#utility.yul\":9267:9398   */\n      tag_226\n        /* \"#utility.yul\":9393:9397   */\n      dup2\n        /* \"#utility.yul\":9267:9398   */\n      tag_140\n      jump\t// in\n    tag_226:\n        /* \"#utility.yul\":9259:9398   */\n      swap1\n      pop\n        /* \"#utility.yul\":8986:9405   */\n      swap2\n      swap1\n      pop\n      jump\t// out\n        /* \"#utility.yul\":9411:9578   */\n    tag_141:\n        /* \"#utility.yul\":9551:9570   */\n      0x496e76616c69642063616e646964617465000000000000000000000000000000\n        /* \"#utility.yul\":9547:9548   */\n      0x00\n        /* \"#utility.yul\":9539:9545   */\n      dup3\n        /* \"#utility.yul\":9535:9549   */\n      add\n        /* \"#utility.yul\":9528:9571   */\n      mstore\n        /* \"#utility.yul\":9411:9578   */\n      pop\n      jump\t// out\n        /* \"#utility.yul\":9584:9950   */\n    tag_142:\n        /* \"#utility.yul\":9726:9729   */\n      0x00\n        /* \"#utility.yul\":9747:9814   */\n      tag_229\n        /* \"#utility.yul\":9811:9813   */\n      0x11\n        /* \"#utility.yul\":9806:9809   */\n      dup4\n        /* \"#utility.yul\":9747:9814   */\n      tag_127\n      jump\t// in\n    tag_229:\n        /* \"#utility.yul\":9740:9814   */\n      swap2\n      pop\n        /* \"#utility.yul\":9823:9916   */\n      tag_230\n        /* \"#utility.yul\":9912:9915   */\n      dup3\n        /* \"#utility.yul\":9823:9916   */\n      tag_141\n      jump\t// in\n    tag_230:\n        /* \"#utility.yul\":9941:9943   */\n      0x20\n        /* \"#utility.yul\":9936:9939   */\n      dup3\n        /* \"#utility.yul\":9932:9944   */\n      add\n        /* \"#utility.yul\":9925:9944   */\n      swap1\n      pop\n        /* \"#utility.yul\":9584:9950   */\n      swap2\n      swap1\n      pop\n      jump\t// out\n        /* \"#utility.yul\":9956:10375   */\n    tag_93:\n        /* \"#utility.yul\":10122:10126   */\n      0x00\n        /* \"#utility.yul\":10160:10162   */\n      0x20\n        /* \"#utility.yul\":10149:10158   */\n      dup3\n        /* \"#utility.yul\":10145:10163   */\n      add\n        /* \"#utility.yul\":10137:10163   */\n      swap1\n      pop\n        /* \"#utility.yul\":10209:10218   */\n      dup2\n        /* \"#utility.yul\":10203:10207   */\n      dup2\n        /* \"#utility.yul\":10199:10219   */\n      sub\n        /* \"#utility.yul\":10195:10196   */\n      0x00\n        /* \"#utility.yul\":10184:10193   */\n      dup4\n        /* \"#utility.yul\":10180:10197   */\n      add\n        /* \"#utility.yul\":10173:10220   */\n      mstore\n        /* \"#utility.yul\":10237:10368   */\n      tag_232\n        /* \"#utility.yul\":10363:10367   */\n      dup2\n        /* \"#utility.yul\":10237:10368   */\n      tag_142\n      jump\t// in\n    tag_232:\n        /* \"#utility.yul\":10229:10368   */\n      swap1\n      pop\n        /* \"#utility.yul\":9956:10375   */\n      swap2\n      swap1\n      pop\n      jump\t// out\n        /* \"#utility.yul\":10381:10560   */\n    tag_143:\n        /* \"#utility.yul\":10521:10552   */\n      0x566f74696e6720706572696f64206973207374696c6c20616374697665000000\n        /* \"#utility.yul\":10517:10518   */\n      0x00\n        /* \"#utility.yul\":10509:10515   */\n      dup3\n        /* \"#utility.yul\":10505:10519   */\n      add\n        /* \"#utility.yul\":10498:10553   */\n      mstore\n        /* \"#utility.yul\":10381:10560   */\n      pop\n      jump\t// out\n        /* \"#utility.yul\":10566:10932   */\n    tag_144:\n        /* \"#utility.yul\":10708:10711   */\n      0x00\n        /* \"#utility.yul\":10729:10796   */\n      tag_235\n        /* \"#utility.yul\":10793:10795   */\n      0x1d\n        /* \"#utility.yul\":10788:10791   */\n      dup4\n        /* \"#utility.yul\":10729:10796   */\n      tag_127\n      jump\t// in\n    tag_235:\n        /* \"#utility.yul\":10722:10796   */\n      swap2\n      pop\n        /* \"#utility.yul\":10805:10898   */\n      tag_236\n        /* \"#utility.yul\":10894:10897   */\n      dup3\n        /* \"#utility.yul\":10805:10898   */\n      tag_143\n      jump\t// in\n    tag_236:\n        /* \"#utility.yul\":10923:10925   */\n      0x20\n        /* \"#utility.yul\":10918:10921   */\n      dup3\n        /* \"#utility.yul\":10914:10926   */\n      add\n        /* \"#utility.yul\":10907:10926   */\n      swap1\n      pop\n        /* \"#utility.yul\":10566:10932   */\n      swap2\n      swap1\n      pop\n      jump\t// out\n        /* \"#utility.yul\":10938:11357   */\n    tag_101:\n        /* \"#utility.yul\":11104:11108   */\n      0x00\n        /* \"#utility.yul\":11142:11144   */\n      0x20\n        /* \"#utility.yul\":11131:11140   */\n      dup3\n        /* \"#utility.yul\":11127:11145   */\n      add\n        /* \"#utility.yul\":11119:11145   */\n      swap1\n      pop\n        /* \"#utility.yul\":11191:11200   */\n      dup2\n        /* \"#utility.yul\":11185:11189   */\n      dup2\n        /* \"#utility.yul\":11181:11201   */\n      sub\n        /* \"#utility.yul\":11177:11178   */\n      0x00\n        /* \"#utility.yul\":11166:11175   */\n      dup4\n        /* \"#utility.yul\":11162:11179   */\n      add\n        /* \"#utility.yul\":11155:11202   */\n      mstore\n        /* \"#utility.yul\":11219:11350   */\n      tag_238\n        /* \"#utility.yul\":11345:11349   */\n      dup2\n        /* \"#utility.yul\":11219:11350   */\n      tag_144\n      jump\t// in\n    tag_238:\n        /* \"#utility.yul\":11211:11350   */\n      swap1\n      pop\n        /* \"#utility.yul\":10938:11357   */\n      swap2\n      swap1\n      pop\n      jump\t// out\n        /* \"#utility.yul\":11363:11543   */\n    tag_110:\n        /* \"#utility.yul\":11411:11488   */\n      0x4e487b7100000000000000000000000000000000000000000000000000000000\n        /* \"#utility.yul\":11408:11409   */\n      0x00\n        /* \"#utility.yul\":11401:11489   */\n      mstore\n        /* \"#utility.yul\":11508:11512   */\n      0x32\n        /* \"#utility.yul\":11505:11506   */\n      0x04\n        /* \"#utility.yul\":11498:11513   */\n      mstore\n        /* \"#utility.yul\":11532:11536   */\n      0x24\n        /* \"#utility.yul\":11529:11530   */\n      0x00\n        /* \"#utility.yul\":11522:11537   */\n      revert\n\n    auxdata: 0xa26469706673582212209985269df0536382363b2e54765ec7ca4874a7103dea35b6c9d18f9637985dae64736f6c634300081e0033\n}\n",
				"bytecode": {
					"linkReferences": {},
					"object": "6080604052348015600e575f5ffd5b50335f5f6101000a81548173ffffffffffffffffffffffffffffffffffffffff021916908373ffffffffffffffffffffffffffffffffffffffff1602179055506110a28061005b5f395ff3fe608060405234801561000f575f5ffd5b50600436106100a7575f3560e01c806365381b1c1161006f57806365381b1c146101735780636dd7d8ea14610191578063c3403ddf146101ad578063d51b9e93146101b7578063dfbf53ae146101e7578063f851a44014610205576100a7565b806309eef43e146100ab57806323ef2746146100db5780633477ee2e1461010b57806338db6dd31461013b5780633d2f5bda14610157575b5f5ffd5b6100c560048036038101906100c09190610b83565b610223565b6040516100d29190610bc8565b60405180910390f35b6100f560048036038101906100f09190610b83565b610240565b6040516101029190610bf9565b60405180910390f35b61012560048036038101906101209190610c3c565b610255565b6040516101329190610c76565b60405180910390f35b61015560048036038101906101509190610b83565b610290565b005b610171600480360381019061016c9190610c3c565b610443565b005b61017b61052a565b6040516101889190610bf9565b60405180910390f35b6101ab60048036038101906101a69190610b83565b610530565b005b6101b5610882565b005b6101d160048036038101906101cc9190610b83565b61095e565b6040516101de9190610bc8565b60405180910390f35b6101ef61097b565b6040516101fc9190610c76565b60405180910390f35b61020d6109a0565b60405161021a9190610c76565b60405180910390f35b6005602052805f5260405f205f915054906101000a900460ff1681565b6006602052805f5260405f205f915090505481565b60018181548110610264575f80fd5b905f5260205f20015f915054906101000a900473ffffffffffffffffffffffffffffffffffffffff1681565b5f5f9054906101000a900473ffffffffffffffffffffffffffffffffffffffff1673ffffffffffffffffffffffffffffffffffffffff163373ffffffffffffffffffffffffffffffffffffffff161461031e576040517f08c379a000000000000000000000000000000000000000000000000000000000815260040161031590610ce9565b60405180910390fd5b60045f8273ffffffffffffffffffffffffffffffffffffffff1673ffffffffffffffffffffffffffffffffffffffff1681526020019081526020015f205f9054906101000a900460ff16156103a8576040517f08c379a000000000000000000000000000000000000000000000000000000000815260040161039f90610d51565b60405180910390fd5b600160045f8373ffffffffffffffffffffffffffffffffffffffff1673ffffffffffffffffffffffffffffffffffffffff1681526020019081526020015f205f6101000a81548160ff0219169083151502179055508073ffffffffffffffffffffffffffffffffffffffff167fb6be2187d059cc2a55fe29e0e503b566e1e0f8c8780096e185429350acffd3dd60405160405180910390a250565b5f5f9054906101000a900473ffffffffffffffffffffffffffffffffffffffff1673ffffffffffffffffffffffffffffffffffffffff163373ffffffffffffffffffffffffffffffffffffffff16146104d1576040517f08c379a00000000000000000000000000000000000000000000000000000000081526004016104c890610ce9565b60405180910390fd5b5f60025414610515576040517f08c379a000000000000000000000000000000000000000000000000000000000815260040161050c90610db9565b60405180910390fd5b80426105219190610e04565b60028190555050565b60025481565b60045f3373ffffffffffffffffffffffffffffffffffffffff1673ffffffffffffffffffffffffffffffffffffffff1681526020019081526020015f205f9054906101000a900460ff166105b9576040517f08c379a00000000000000000000000000000000000000000000000000000000081526004016105b090610e81565b60405180910390fd5b6002544211156105fe576040517f08c379a00000000000000000000000000000000000000000000000000000000081526004016105f590610ee9565b60405180910390fd5b6002544211801561065b57505f73ffffffffffffffffffffffffffffffffffffffff1660035f9054906101000a900473ffffffffffffffffffffffffffffffffffffffff1673ffffffffffffffffffffffffffffffffffffffff16145b15610669576106686109c4565b5b60055f3373ffffffffffffffffffffffffffffffffffffffff1673ffffffffffffffffffffffffffffffffffffffff1681526020019081526020015f205f9054906101000a900460ff16156106f3576040517f08c379a00000000000000000000000000000000000000000000000000000000081526004016106ea90610f51565b60405180910390fd5b60075f8273ffffffffffffffffffffffffffffffffffffffff1673ffffffffffffffffffffffffffffffffffffffff1681526020019081526020015f205f9054906101000a900460ff1661077c576040517f08c379a000000000000000000000000000000000000000000000000000000000815260040161077390610fb9565b60405180910390fd5b600160055f3373ffffffffffffffffffffffffffffffffffffffff1673ffffffffffffffffffffffffffffffffffffffff1681526020019081526020015f205f6101000a81548160ff021916908315150217905550600160065f8373ffffffffffffffffffffffffffffffffffffffff1673ffffffffffffffffffffffffffffffffffffffff1681526020019081526020015f205f82825461081e9190610e04565b925050819055508073ffffffffffffffffffffffffffffffffffffffff163373ffffffffffffffffffffffffffffffffffffffff167f113ed09b18bb8fe2635af16f21d67464502d920ff1015abfe08dbe9a2971a7e260405160405180910390a350565b5f5f9054906101000a900473ffffffffffffffffffffffffffffffffffffffff1673ffffffffffffffffffffffffffffffffffffffff163373ffffffffffffffffffffffffffffffffffffffff1614610910576040517f08c379a000000000000000000000000000000000000000000000000000000000815260040161090790610ce9565b60405180910390fd5b6002544211610954576040517f08c379a000000000000000000000000000000000000000000000000000000000815260040161094b90611021565b60405180910390fd5b61095c6109c4565b565b6007602052805f5260405f205f915054906101000a900460ff1681565b60035f9054906101000a900473ffffffffffffffffffffffffffffffffffffffff1681565b5f5f9054906101000a900473ffffffffffffffffffffffffffffffffffffffff1681565b5f5f90505f5f90505f5f90505b600180549050811015610a7c575f600182815481106109f3576109f261103f565b5b905f5260205f20015f9054906101000a900473ffffffffffffffffffffffffffffffffffffffff1690505f60065f8373ffffffffffffffffffffffffffffffffffffffff1673ffffffffffffffffffffffffffffffffffffffff1681526020019081526020015f2054905084811115610a6d578094508193505b505080806001019150506109d1565b508060035f6101000a81548173ffffffffffffffffffffffffffffffffffffffff021916908373ffffffffffffffffffffffffffffffffffffffff16021790555060035f9054906101000a900473ffffffffffffffffffffffffffffffffffffffff1673ffffffffffffffffffffffffffffffffffffffff167f2d66076f24af48812dc2fdd69ac3d62bc732d6766ce65fdf93a45675faba22bd60405160405180910390a25050565b5f5ffd5b5f73ffffffffffffffffffffffffffffffffffffffff82169050919050565b5f610b5282610b29565b9050919050565b610b6281610b48565b8114610b6c575f5ffd5b50565b5f81359050610b7d81610b59565b92915050565b5f60208284031215610b9857610b97610b25565b5b5f610ba584828501610b6f565b91505092915050565b5f8115159050919050565b610bc281610bae565b82525050565b5f602082019050610bdb5f830184610bb9565b92915050565b5f819050919050565b610bf381610be1565b82525050565b5f602082019050610c0c5f830184610bea565b92915050565b610c1b81610be1565b8114610c25575f5ffd5b50565b5f81359050610c3681610c12565b92915050565b5f60208284031215610c5157610c50610b25565b5b5f610c5e84828501610c28565b91505092915050565b610c7081610b48565b82525050565b5f602082019050610c895f830184610c67565b92915050565b5f82825260208201905092915050565b7f43616c6c6572206973206e6f74207468652061646d696e0000000000000000005f82015250565b5f610cd3601783610c8f565b9150610cde82610c9f565b602082019050919050565b5f6020820190508181035f830152610d0081610cc7565b9050919050565b7f566f74657220616c7265616479207265676973746572656400000000000000005f82015250565b5f610d3b601883610c8f565b9150610d4682610d07565b602082019050919050565b5f6020820190508181035f830152610d6881610d2f565b9050919050565b7f566f74696e6720616c72656164792073746172746564000000000000000000005f82015250565b5f610da3601683610c8f565b9150610dae82610d6f565b602082019050919050565b5f6020820190508181035f830152610dd081610d97565b9050919050565b7f4e487b71000000000000000000000000000000000000000000000000000000005f52601160045260245ffd5b5f610e0e82610be1565b9150610e1983610be1565b9250828201905080821115610e3157610e30610dd7565b5b92915050565b7f43616c6c6572206973206e6f742061207265676973746572656420766f7465725f82015250565b5f610e6b602083610c8f565b9150610e7682610e37565b602082019050919050565b5f6020820190508181035f830152610e9881610e5f565b9050919050565b7f566f74696e6720706572696f642068617320656e6465640000000000000000005f82015250565b5f610ed3601783610c8f565b9150610ede82610e9f565b602082019050919050565b5f6020820190508181035f830152610f0081610ec7565b9050919050565b7f416c726561647920766f746564000000000000000000000000000000000000005f82015250565b5f610f3b600d83610c8f565b9150610f4682610f07565b602082019050919050565b5f6020820190508181035f830152610f6881610f2f565b9050919050565b7f496e76616c69642063616e6469646174650000000000000000000000000000005f82015250565b5f610fa3601183610c8f565b9150610fae82610f6f565b602082019050919050565b5f6020820190508181035f830152610fd081610f97565b9050919050565b7f566f74696e6720706572696f64206973207374696c6c206163746976650000005f82015250565b5f61100b601d83610c8f565b915061101682610fd7565b602082019050919050565b5f6020820190508181035f83015261103881610fff565b9050919050565b7f4e487b71000000000000000000000000000000000000000000000000000000005f52603260045260245ffdfea26469706673582212209985269df0536382363b2e54765ec7ca4874a7103dea35b6c9d18f9637985dae64736f6c634300081e0033",
					"opcodes": "PUSH1 0x80 PUSH1 0x40 MSTORE CALLVALUE DUP1 ISZERO PUSH1 0xE JUMPI PUSH0 PUSH0 REVERT JUMPDEST POP CALLER PUSH0 PUSH0 PUSH2 0x100 EXP DUP2 SLOAD DUP2 PUSH20 0xFFFFFFFFFFFFFFFFFFFFFFFFFFFFFFFFFFFFFFFF MUL NOT AND SWAP1 DUP4 PUSH20 0xFFFFFFFFFFFFFFFFFFFFFFFFFFFFFFFFFFFFFFFF AND MUL OR SWAP1 SSTORE POP PUSH2 0x10A2 DUP1 PUSH2 0x5B PUSH0 CODECOPY PUSH0 RETURN INVALID PUSH1 0x80 PUSH1 0x40 MSTORE CALLVALUE DUP1 ISZERO PUSH2 0xF JUMPI PUSH0 PUSH0 REVERT JUMPDEST POP PUSH1 0x4 CALLDATASIZE LT PUSH2 0xA7 JUMPI PUSH0 CALLDATALOAD PUSH1 0xE0 SHR DUP1 PUSH4 0x65381B1C GT PUSH2 0x6F JUMPI DUP1 PUSH4 0x65381B1C EQ PUSH2 0x173 JUMPI DUP1 PUSH4 0x6DD7D8EA EQ PUSH2 0x191 JUMPI DUP1 PUSH4 0xC3403DDF EQ PUSH2 0x1AD JUMPI DUP1 PUSH4 0xD51B9E93 EQ PUSH2 0x1B7 JUMPI DUP1 PUSH4 0xDFBF53AE EQ PUSH2 0x1E7 JUMPI DUP1 PUSH4 0xF851A440 EQ PUSH2 0x205 JUMPI PUSH2 0xA7 JUMP JUMPDEST DUP1 PUSH4 0x9EEF43E EQ PUSH2 0xAB JUMPI DUP1 PUSH4 0x23EF2746 EQ PUSH2 0xDB JUMPI DUP1 PUSH4 0x3477EE2E EQ PUSH2 0x10B JUMPI DUP1 PUSH4 0x38DB6DD3 EQ PUSH2 0x13B JUMPI DUP1 PUSH4 0x3D2F5BDA EQ PUSH2 0x157 JUMPI JUMPDEST PUSH0 PUSH0 REVERT JUMPDEST PUSH2 0xC5 PUSH1 0x4 DUP1 CALLDATASIZE SUB DUP2 ADD SWAP1 PUSH2 0xC0 SWAP2 SWAP1 PUSH2 0xB83 JUMP JUMPDEST PUSH2 0x223 JUMP JUMPDEST PUSH1 0x40 MLOAD PUSH2 0xD2 SWAP2 SWAP1 PUSH2 0xBC8 JUMP JUMPDEST PUSH1 0x40 MLOAD DUP1 SWAP2 SUB SWAP1 RETURN JUMPDEST PUSH2 0xF5 PUSH1 0x4 DUP1 CALLDATASIZE SUB DUP2 ADD SWAP1 PUSH2 0xF0 SWAP2 SWAP1 PUSH2 0xB83 JUMP JUMPDEST PUSH2 0x240 JUMP JUMPDEST PUSH1 0x40 MLOAD PUSH2 0x102 SWAP2 SWAP1 PUSH2 0xBF9 JUMP JUMPDEST PUSH1 0x40 MLOAD DUP1 SWAP2 SUB SWAP1 RETURN JUMPDEST PUSH2 0x125 PUSH1 0x4 DUP1 CALLDATASIZE SUB DUP2 ADD SWAP1 PUSH2 0x120 SWAP2 SWAP1 PUSH2 0xC3C JUMP JUMPDEST PUSH2 0x255 JUMP JUMPDEST PUSH1 0x40 MLOAD PUSH2 0x132 SWAP2 SWAP1 PUSH2 0xC76 JUMP JUMPDEST PUSH1 0x40 MLOAD DUP1 SWAP2 SUB SWAP1 RETURN JUMPDEST PUSH2 0x155 PUSH1 0x4 DUP1 CALLDATASIZE SUB DUP2 ADD SWAP1 PUSH2 0x150 SWAP2 SWAP1 PUSH2 0xB83 JUMP JUMPDEST PUSH2 0x290 JUMP JUMPDEST STOP JUMPDEST PUSH2 0x171 PUSH1 0x4 DUP1 CALLDATASIZE SUB DUP2 ADD SWAP1 PUSH2 0x16C SWAP2 SWAP1 PUSH2 0xC3C JUMP JUMPDEST PUSH2 0x443 JUMP JUMPDEST STOP JUMPDEST PUSH2 0x17B PUSH2 0x52A JUMP JUMPDEST PUSH1 0x40 MLOAD PUSH2 0x188 SWAP2 SWAP1 PUSH2 0xBF9 JUMP JUMPDEST PUSH1 0x40 MLOAD DUP1 SWAP2 SUB SWAP1 RETURN JUMPDEST PUSH2 0x1AB PUSH1 0x4 DUP1 CALLDATASIZE SUB DUP2 ADD SWAP1 PUSH2 0x1A6 SWAP2 SWAP1 PUSH2 0xB83 JUMP JUMPDEST PUSH2 0x530 JUMP JUMPDEST STOP JUMPDEST PUSH2 0x1B5 PUSH2 0x882 JUMP JUMPDEST STOP JUMPDEST PUSH2 0x1D1 PUSH1 0x4 DUP1 CALLDATASIZE SUB DUP2 ADD SWAP1 PUSH2 0x1CC SWAP2 SWAP1 PUSH2 0xB83 JUMP JUMPDEST PUSH2 0x95E JUMP JUMPDEST PUSH1 0x40 MLOAD PUSH2 0x1DE SWAP2 SWAP1 PUSH2 0xBC8 JUMP JUMPDEST PUSH1 0x40 MLOAD DUP1 SWAP2 SUB SWAP1 RETURN JUMPDEST PUSH2 0x1EF PUSH2 0x97B JUMP JUMPDEST PUSH1 0x40 MLOAD PUSH2 0x1FC SWAP2 SWAP1 PUSH2 0xC76 JUMP JUMPDEST PUSH1 0x40 MLOAD DUP1 SWAP2 SUB SWAP1 RETURN JUMPDEST PUSH2 0x20D PUSH2 0x9A0 JUMP JUMPDEST PUSH1 0x40 MLOAD PUSH2 0x21A SWAP2 SWAP1 PUSH2 0xC76 JUMP JUMPDEST PUSH1 0x40 MLOAD DUP1 SWAP2 SUB SWAP1 RETURN JUMPDEST PUSH1 0x5 PUSH1 0x20 MSTORE DUP1 PUSH0 MSTORE PUSH1 0x40 PUSH0 KECCAK256 PUSH0 SWAP2 POP SLOAD SWAP1 PUSH2 0x100 EXP SWAP1 DIV PUSH1 0xFF AND DUP2 JUMP JUMPDEST PUSH1 0x6 PUSH1 0x20 MSTORE DUP1 PUSH0 MSTORE PUSH1 0x40 PUSH0 KECCAK256 PUSH0 SWAP2 POP SWAP1 POP SLOAD DUP2 JUMP JUMPDEST PUSH1 0x1 DUP2 DUP2 SLOAD DUP2 LT PUSH2 0x264 JUMPI PUSH0 DUP1 REVERT JUMPDEST SWAP1 PUSH0 MSTORE PUSH1 0x20 PUSH0 KECCAK256 ADD PUSH0 SWAP2 POP SLOAD SWAP1 PUSH2 0x100 EXP SWAP1 DIV PUSH20 0xFFFFFFFFFFFFFFFFFFFFFFFFFFFFFFFFFFFFFFFF AND DUP2 JUMP JUMPDEST PUSH0 PUSH0 SWAP1 SLOAD SWAP1 PUSH2 0x100 EXP SWAP1 DIV PUSH20 0xFFFFFFFFFFFFFFFFFFFFFFFFFFFFFFFFFFFFFFFF AND PUSH20 0xFFFFFFFFFFFFFFFFFFFFFFFFFFFFFFFFFFFFFFFF AND CALLER PUSH20 0xFFFFFFFFFFFFFFFFFFFFFFFFFFFFFFFFFFFFFFFF AND EQ PUSH2 0x31E JUMPI PUSH1 0x40 MLOAD PUSH32 0x8C379A000000000000000000000000000000000000000000000000000000000 DUP2 MSTORE PUSH1 0x4 ADD PUSH2 0x315 SWAP1 PUSH2 0xCE9 JUMP JUMPDEST PUSH1 0x40 MLOAD DUP1 SWAP2 SUB SWAP1 REVERT JUMPDEST PUSH1 0x4 PUSH0 DUP3 PUSH20 0xFFFFFFFFFFFFFFFFFFFFFFFFFFFFFFFFFFFFFFFF AND PUSH20 0xFFFFFFFFFFFFFFFFFFFFFFFFFFFFFFFFFFFFFFFF AND DUP2 MSTORE PUSH1 0x20 ADD SWAP1 DUP2 MSTORE PUSH1 0x20 ADD PUSH0 KECCAK256 PUSH0 SWAP1 SLOAD SWAP1 PUSH2 0x100 EXP SWAP1 DIV PUSH1 0xFF AND ISZERO PUSH2 0x3A8 JUMPI PUSH1 0x40 MLOAD PUSH32 0x8C379A000000000000000000000000000000000000000000000000000000000 DUP2 MSTORE PUSH1 0x4 ADD PUSH2 0x39F SWAP1 PUSH2 0xD51 JUMP JUMPDEST PUSH1 0x40 MLOAD DUP1 SWAP2 SUB SWAP1 REVERT JUMPDEST PUSH1 0x1 PUSH1 0x4 PUSH0 DUP4 PUSH20 0xFFFFFFFFFFFFFFFFFFFFFFFFFFFFFFFFFFFFFFFF AND PUSH20 0xFFFFFFFFFFFFFFFFFFFFFFFFFFFFFFFFFFFFFFFF AND DUP2 MSTORE PUSH1 0x20 ADD SWAP1 DUP2 MSTORE PUSH1 0x20 ADD PUSH0 KECCAK256 PUSH0 PUSH2 0x100 EXP DUP2 SLOAD DUP2 PUSH1 0xFF MUL NOT AND SWAP1 DUP4 ISZERO ISZERO MUL OR SWAP1 SSTORE POP DUP1 PUSH20 0xFFFFFFFFFFFFFFFFFFFFFFFFFFFFFFFFFFFFFFFF AND PUSH32 0xB6BE2187D059CC2A55FE29E0E503B566E1E0F8C8780096E185429350ACFFD3DD PUSH1 0x40 MLOAD PUSH1 0x40 MLOAD DUP1 SWAP2 SUB SWAP1 LOG2 POP JUMP JUMPDEST PUSH0 PUSH0 SWAP1 SLOAD SWAP1 PUSH2 0x100 EXP SWAP1 DIV PUSH20 0xFFFFFFFFFFFFFFFFFFFFFFFFFFFFFFFFFFFFFFFF AND PUSH20 0xFFFFFFFFFFFFFFFFFFFFFFFFFFFFFFFFFFFFFFFF AND CALLER PUSH20 0xFFFFFFFFFFFFFFFFFFFFFFFFFFFFFFFFFFFFFFFF AND EQ PUSH2 0x4D1 JUMPI PUSH1 0x40 MLOAD PUSH32 0x8C379A000000000000000000000000000000000000000000000000000000000 DUP2 MSTORE PUSH1 0x4 ADD PUSH2 0x4C8 SWAP1 PUSH2 0xCE9 JUMP JUMPDEST PUSH1 0x40 MLOAD DUP1 SWAP2 SUB SWAP1 REVERT JUMPDEST PUSH0 PUSH1 0x2 SLOAD EQ PUSH2 0x515 JUMPI PUSH1 0x40 MLOAD PUSH32 0x8C379A000000000000000000000000000000000000000000000000000000000 DUP2 MSTORE PUSH1 0x4 ADD PUSH2 0x50C SWAP1 PUSH2 0xDB9 JUMP JUMPDEST PUSH1 0x40 MLOAD DUP1 SWAP2 SUB SWAP1 REVERT JUMPDEST DUP1 TIMESTAMP PUSH2 0x521 SWAP2 SWAP1 PUSH2 0xE04 JUMP JUMPDEST PUSH1 0x2 DUP2 SWAP1 SSTORE POP POP JUMP JUMPDEST PUSH1 0x2 SLOAD DUP2 JUMP JUMPDEST PUSH1 0x4 PUSH0 CALLER PUSH20 0xFFFFFFFFFFFFFFFFFFFFFFFFFFFFFFFFFFFFFFFF AND PUSH20 0xFFFFFFFFFFFFFFFFFFFFFFFFFFFFFFFFFFFFFFFF AND DUP2 MSTORE PUSH1 0x20 ADD SWAP1 DUP2 MSTORE PUSH1 0x20 ADD PUSH0 KECCAK256 PUSH0 SWAP1 SLOAD SWAP1 PUSH2 0x100 EXP SWAP1 DIV PUSH1 0xFF AND PUSH2 0x5B9 JUMPI PUSH1 0x40 MLOAD PUSH32 0x8C379A000000000000000000000000000000000000000000000000000000000 DUP2 MSTORE PUSH1 0x4 ADD PUSH2 0x5B0 SWAP1 PUSH2 0xE81 JUMP JUMPDEST PUSH1 0x40 MLOAD DUP1 SWAP2 SUB SWAP1 REVERT JUMPDEST PUSH1 0x2 SLOAD TIMESTAMP GT ISZERO PUSH2 0x5FE JUMPI PUSH1 0x40 MLOAD PUSH32 0x8C379A000000000000000000000000000000000000000000000000000000000 DUP2 MSTORE PUSH1 0x4 ADD PUSH2 0x5F5 SWAP1 PUSH2 0xEE9 JUMP JUMPDEST PUSH1 0x40 MLOAD DUP1 SWAP2 SUB SWAP1 REVERT JUMPDEST PUSH1 0x2 SLOAD TIMESTAMP GT DUP1 ISZERO PUSH2 0x65B JUMPI POP PUSH0 PUSH20 0xFFFFFFFFFFFFFFFFFFFFFFFFFFFFFFFFFFFFFFFF AND PUSH1 0x3 PUSH0 SWAP1 SLOAD SWAP1 PUSH2 0x100 EXP SWAP1 DIV PUSH20 0xFFFFFFFFFFFFFFFFFFFFFFFFFFFFFFFFFFFFFFFF AND PUSH20 0xFFFFFFFFFFFFFFFFFFFFFFFFFFFFFFFFFFFFFFFF AND EQ JUMPDEST ISZERO PUSH2 0x669 JUMPI PUSH2 0x668 PUSH2 0x9C4 JUMP JUMPDEST JUMPDEST PUSH1 0x5 PUSH0 CALLER PUSH20 0xFFFFFFFFFFFFFFFFFFFFFFFFFFFFFFFFFFFFFFFF AND PUSH20 0xFFFFFFFFFFFFFFFFFFFFFFFFFFFFFFFFFFFFFFFF AND DUP2 MSTORE PUSH1 0x20 ADD SWAP1 DUP2 MSTORE PUSH1 0x20 ADD PUSH0 KECCAK256 PUSH0 SWAP1 SLOAD SWAP1 PUSH2 0x100 EXP SWAP1 DIV PUSH1 0xFF AND ISZERO PUSH2 0x6F3 JUMPI PUSH1 0x40 MLOAD PUSH32 0x8C379A000000000000000000000000000000000000000000000000000000000 DUP2 MSTORE PUSH1 0x4 ADD PUSH2 0x6EA SWAP1 PUSH2 0xF51 JUMP JUMPDEST PUSH1 0x40 MLOAD DUP1 SWAP2 SUB SWAP1 REVERT JUMPDEST PUSH1 0x7 PUSH0 DUP3 PUSH20 0xFFFFFFFFFFFFFFFFFFFFFFFFFFFFFFFFFFFFFFFF AND PUSH20 0xFFFFFFFFFFFFFFFFFFFFFFFFFFFFFFFFFFFFFFFF AND DUP2 MSTORE PUSH1 0x20 ADD SWAP1 DUP2 MSTORE PUSH1 0x20 ADD PUSH0 KECCAK256 PUSH0 SWAP1 SLOAD SWAP1 PUSH2 0x100 EXP SWAP1 DIV PUSH1 0xFF AND PUSH2 0x77C JUMPI PUSH1 0x40 MLOAD PUSH32 0x8C379A000000000000000000000000000000000000000000000000000000000 DUP2 MSTORE PUSH1 0x4 ADD PUSH2 0x773 SWAP1 PUSH2 0xFB9 JUMP JUMPDEST PUSH1 0x40 MLOAD DUP1 SWAP2 SUB SWAP1 REVERT JUMPDEST PUSH1 0x1 PUSH1 0x5 PUSH0 CALLER PUSH20 0xFFFFFFFFFFFFFFFFFFFFFFFFFFFFFFFFFFFFFFFF AND PUSH20 0xFFFFFFFFFFFFFFFFFFFFFFFFFFFFFFFFFFFFFFFF AND DUP2 MSTORE PUSH1 0x20 ADD SWAP1 DUP2 MSTORE PUSH1 0x20 ADD PUSH0 KECCAK256 PUSH0 PUSH2 0x100 EXP DUP2 SLOAD DUP2 PUSH1 0xFF MUL NOT AND SWAP1 DUP4 ISZERO ISZERO MUL OR SWAP1 SSTORE POP PUSH1 0x1 PUSH1 0x6 PUSH0 DUP4 PUSH20 0xFFFFFFFFFFFFFFFFFFFFFFFFFFFFFFFFFFFFFFFF AND PUSH20 0xFFFFFFFFFFFFFFFFFFFFFFFFFFFFFFFFFFFFFFFF AND DUP2 MSTORE PUSH1 0x20 ADD SWAP1 DUP2 MSTORE PUSH1 0x20 ADD PUSH0 KECCAK256 PUSH0 DUP3 DUP3 SLOAD PUSH2 0x81E SWAP2 SWAP1 PUSH2 0xE04 JUMP JUMPDEST SWAP3 POP POP DUP2 SWAP1 SSTORE POP DUP1 PUSH20 0xFFFFFFFFFFFFFFFFFFFFFFFFFFFFFFFFFFFFFFFF AND CALLER PUSH20 0xFFFFFFFFFFFFFFFFFFFFFFFFFFFFFFFFFFFFFFFF AND PUSH32 0x113ED09B18BB8FE2635AF16F21D67464502D920FF1015ABFE08DBE9A2971A7E2 PUSH1 0x40 MLOAD PUSH1 0x40 MLOAD DUP1 SWAP2 SUB SWAP1 LOG3 POP JUMP JUMPDEST PUSH0 PUSH0 SWAP1 SLOAD SWAP1 PUSH2 0x100 EXP SWAP1 DIV PUSH20 0xFFFFFFFFFFFFFFFFFFFFFFFFFFFFFFFFFFFFFFFF AND PUSH20 0xFFFFFFFFFFFFFFFFFFFFFFFFFFFFFFFFFFFFFFFF AND CALLER PUSH20 0xFFFFFFFFFFFFFFFFFFFFFFFFFFFFFFFFFFFFFFFF AND EQ PUSH2 0x910 JUMPI PUSH1 0x40 MLOAD PUSH32 0x8C379A000000000000000000000000000000000000000000000000000000000 DUP2 MSTORE PUSH1 0x4 ADD PUSH2 0x907 SWAP1 PUSH2 0xCE9 JUMP JUMPDEST PUSH1 0x40 MLOAD DUP1 SWAP2 SUB SWAP1 REVERT JUMPDEST PUSH1 0x2 SLOAD TIMESTAMP GT PUSH2 0x954 JUMPI PUSH1 0x40 MLOAD PUSH32 0x8C379A000000000000000000000000000000000000000000000000000000000 DUP2 MSTORE PUSH1 0x4 ADD PUSH2 0x94B SWAP1 PUSH2 0x1021 JUMP JUMPDEST PUSH1 0x40 MLOAD DUP1 SWAP2 SUB SWAP1 REVERT JUMPDEST PUSH2 0x95C PUSH2 0x9C4 JUMP JUMPDEST JUMP JUMPDEST PUSH1 0x7 PUSH1 0x20 MSTORE DUP1 PUSH0 MSTORE PUSH1 0x40 PUSH0 KECCAK256 PUSH0 SWAP2 POP SLOAD SWAP1 PUSH2 0x100 EXP SWAP1 DIV PUSH1 0xFF AND DUP2 JUMP JUMPDEST PUSH1 0x3 PUSH0 SWAP1 SLOAD SWAP1 PUSH2 0x100 EXP SWAP1 DIV PUSH20 0xFFFFFFFFFFFFFFFFFFFFFFFFFFFFFFFFFFFFFFFF AND DUP2 JUMP JUMPDEST PUSH0 PUSH0 SWAP1 SLOAD SWAP1 PUSH2 0x100 EXP SWAP1 DIV PUSH20 0xFFFFFFFFFFFFFFFFFFFFFFFFFFFFFFFFFFFFFFFF AND DUP2 JUMP JUMPDEST PUSH0 PUSH0 SWAP1 POP PUSH0 PUSH0 SWAP1 POP PUSH0 PUSH0 SWAP1 POP JUMPDEST PUSH1 0x1 DUP1 SLOAD SWAP1 POP DUP2 LT ISZERO PUSH2 0xA7C JUMPI PUSH0 PUSH1 0x1 DUP3 DUP2 SLOAD DUP2 LT PUSH2 0x9F3 JUMPI PUSH2 0x9F2 PUSH2 0x103F JUMP JUMPDEST JUMPDEST SWAP1 PUSH0 MSTORE PUSH1 0x20 PUSH0 KECCAK256 ADD PUSH0 SWAP1 SLOAD SWAP1 PUSH2 0x100 EXP SWAP1 DIV PUSH20 0xFFFFFFFFFFFFFFFFFFFFFFFFFFFFFFFFFFFFFFFF AND SWAP1 POP PUSH0 PUSH1 0x6 PUSH0 DUP4 PUSH20 0xFFFFFFFFFFFFFFFFFFFFFFFFFFFFFFFFFFFFFFFF AND PUSH20 0xFFFFFFFFFFFFFFFFFFFFFFFFFFFFFFFFFFFFFFFF AND DUP2 MSTORE PUSH1 0x20 ADD SWAP1 DUP2 MSTORE PUSH1 0x20 ADD PUSH0 KECCAK256 SLOAD SWAP1 POP DUP5 DUP2 GT ISZERO PUSH2 0xA6D JUMPI DUP1 SWAP5 POP DUP2 SWAP4 POP JUMPDEST POP POP DUP1 DUP1 PUSH1 0x1 ADD SWAP2 POP POP PUSH2 0x9D1 JUMP JUMPDEST POP DUP1 PUSH1 0x3 PUSH0 PUSH2 0x100 EXP DUP2 SLOAD DUP2 PUSH20 0xFFFFFFFFFFFFFFFFFFFFFFFFFFFFFFFFFFFFFFFF MUL NOT AND SWAP1 DUP4 PUSH20 0xFFFFFFFFFFFFFFFFFFFFFFFFFFFFFFFFFFFFFFFF AND MUL OR SWAP1 SSTORE POP PUSH1 0x3 PUSH0 SWAP1 SLOAD SWAP1 PUSH2 0x100 EXP SWAP1 DIV PUSH20 0xFFFFFFFFFFFFFFFFFFFFFFFFFFFFFFFFFFFFFFFF AND PUSH20 0xFFFFFFFFFFFFFFFFFFFFFFFFFFFFFFFFFFFFFFFF AND PUSH32 0x2D66076F24AF48812DC2FDD69AC3D62BC732D6766CE65FDF93A45675FABA22BD PUSH1 0x40 MLOAD PUSH1 0x40 MLOAD DUP1 SWAP2 SUB SWAP1 LOG2 POP POP JUMP JUMPDEST PUSH0 PUSH0 REVERT JUMPDEST PUSH0 PUSH20 0xFFFFFFFFFFFFFFFFFFFFFFFFFFFFFFFFFFFFFFFF DUP3 AND SWAP1 POP SWAP2 SWAP1 POP JUMP JUMPDEST PUSH0 PUSH2 0xB52 DUP3 PUSH2 0xB29 JUMP JUMPDEST SWAP1 POP SWAP2 SWAP1 POP JUMP JUMPDEST PUSH2 0xB62 DUP2 PUSH2 0xB48 JUMP JUMPDEST DUP2 EQ PUSH2 0xB6C JUMPI PUSH0 PUSH0 REVERT JUMPDEST POP JUMP JUMPDEST PUSH0 DUP2 CALLDATALOAD SWAP1 POP PUSH2 0xB7D DUP2 PUSH2 0xB59 JUMP JUMPDEST SWAP3 SWAP2 POP POP JUMP JUMPDEST PUSH0 PUSH1 0x20 DUP3 DUP5 SUB SLT ISZERO PUSH2 0xB98 JUMPI PUSH2 0xB97 PUSH2 0xB25 JUMP JUMPDEST JUMPDEST PUSH0 PUSH2 0xBA5 DUP5 DUP3 DUP6 ADD PUSH2 0xB6F JUMP JUMPDEST SWAP2 POP POP SWAP3 SWAP2 POP POP JUMP JUMPDEST PUSH0 DUP2 ISZERO ISZERO SWAP1 POP SWAP2 SWAP1 POP JUMP JUMPDEST PUSH2 0xBC2 DUP2 PUSH2 0xBAE JUMP JUMPDEST DUP3 MSTORE POP POP JUMP JUMPDEST PUSH0 PUSH1 0x20 DUP3 ADD SWAP1 POP PUSH2 0xBDB PUSH0 DUP4 ADD DUP5 PUSH2 0xBB9 JUMP JUMPDEST SWAP3 SWAP2 POP POP JUMP JUMPDEST PUSH0 DUP2 SWAP1 POP SWAP2 SWAP1 POP JUMP JUMPDEST PUSH2 0xBF3 DUP2 PUSH2 0xBE1 JUMP JUMPDEST DUP3 MSTORE POP POP JUMP JUMPDEST PUSH0 PUSH1 0x20 DUP3 ADD SWAP1 POP PUSH2 0xC0C PUSH0 DUP4 ADD DUP5 PUSH2 0xBEA JUMP JUMPDEST SWAP3 SWAP2 POP POP JUMP JUMPDEST PUSH2 0xC1B DUP2 PUSH2 0xBE1 JUMP JUMPDEST DUP2 EQ PUSH2 0xC25 JUMPI PUSH0 PUSH0 REVERT JUMPDEST POP JUMP JUMPDEST PUSH0 DUP2 CALLDATALOAD SWAP1 POP PUSH2 0xC36 DUP2 PUSH2 0xC12 JUMP JUMPDEST SWAP3 SWAP2 POP POP JUMP JUMPDEST PUSH0 PUSH1 0x20 DUP3 DUP5 SUB SLT ISZERO PUSH2 0xC51 JUMPI PUSH2 0xC50 PUSH2 0xB25 JUMP JUMPDEST JUMPDEST PUSH0 PUSH2 0xC5E DUP5 DUP3 DUP6 ADD PUSH2 0xC28 JUMP JUMPDEST SWAP2 POP POP SWAP3 SWAP2 POP POP JUMP JUMPDEST PUSH2 0xC70 DUP2 PUSH2 0xB48 JUMP JUMPDEST DUP3 MSTORE POP POP JUMP JUMPDEST PUSH0 PUSH1 0x20 DUP3 ADD SWAP1 POP PUSH2 0xC89 PUSH0 DUP4 ADD DUP5 PUSH2 0xC67 JUMP JUMPDEST SWAP3 SWAP2 POP POP JUMP JUMPDEST PUSH0 DUP3 DUP3 MSTORE PUSH1 0x20 DUP3 ADD SWAP1 POP SWAP3 SWAP2 POP POP JUMP JUMPDEST PUSH32 0x43616C6C6572206973206E6F74207468652061646D696E000000000000000000 PUSH0 DUP3 ADD MSTORE POP JUMP JUMPDEST PUSH0 PUSH2 0xCD3 PUSH1 0x17 DUP4 PUSH2 0xC8F JUMP JUMPDEST SWAP2 POP PUSH2 0xCDE DUP3 PUSH2 0xC9F JUMP JUMPDEST PUSH1 0x20 DUP3 ADD SWAP1 POP SWAP2 SWAP1 POP JUMP JUMPDEST PUSH0 PUSH1 0x20 DUP3 ADD SWAP1 POP DUP2 DUP2 SUB PUSH0 DUP4 ADD MSTORE PUSH2 0xD00 DUP2 PUSH2 0xCC7 JUMP JUMPDEST SWAP1 POP SWAP2 SWAP1 POP JUMP JUMPDEST PUSH32 0x566F74657220616C726561647920726567697374657265640000000000000000 PUSH0 DUP3 ADD MSTORE POP JUMP JUMPDEST PUSH0 PUSH2 0xD3B PUSH1 0x18 DUP4 PUSH2 0xC8F JUMP JUMPDEST SWAP2 POP PUSH2 0xD46 DUP3 PUSH2 0xD07 JUMP JUMPDEST PUSH1 0x20 DUP3 ADD SWAP1 POP SWAP2 SWAP1 POP JUMP JUMPDEST PUSH0 PUSH1 0x20 DUP3 ADD SWAP1 POP DUP2 DUP2 SUB PUSH0 DUP4 ADD MSTORE PUSH2 0xD68 DUP2 PUSH2 0xD2F JUMP JUMPDEST SWAP1 POP SWAP2 SWAP1 POP JUMP JUMPDEST PUSH32 0x566F74696E6720616C7265616479207374617274656400000000000000000000 PUSH0 DUP3 ADD MSTORE POP JUMP JUMPDEST PUSH0 PUSH2 0xDA3 PUSH1 0x16 DUP4 PUSH2 0xC8F JUMP JUMPDEST SWAP2 POP PUSH2 0xDAE DUP3 PUSH2 0xD6F JUMP JUMPDEST PUSH1 0x20 DUP3 ADD SWAP1 POP SWAP2 SWAP1 POP JUMP JUMPDEST PUSH0 PUSH1 0x20 DUP3 ADD SWAP1 POP DUP2 DUP2 SUB PUSH0 DUP4 ADD MSTORE PUSH2 0xDD0 DUP2 PUSH2 0xD97 JUMP JUMPDEST SWAP1 POP SWAP2 SWAP1 POP JUMP JUMPDEST PUSH32 0x4E487B7100000000000000000000000000000000000000000000000000000000 PUSH0 MSTORE PUSH1 0x11 PUSH1 0x4 MSTORE PUSH1 0x24 PUSH0 REVERT JUMPDEST PUSH0 PUSH2 0xE0E DUP3 PUSH2 0xBE1 JUMP JUMPDEST SWAP2 POP PUSH2 0xE19 DUP4 PUSH2 0xBE1 JUMP JUMPDEST SWAP3 POP DUP3 DUP3 ADD SWAP1 POP DUP1 DUP3 GT ISZERO PUSH2 0xE31 JUMPI PUSH2 0xE30 PUSH2 0xDD7 JUMP JUMPDEST JUMPDEST SWAP3 SWAP2 POP POP JUMP JUMPDEST PUSH32 0x43616C6C6572206973206E6F742061207265676973746572656420766F746572 PUSH0 DUP3 ADD MSTORE POP JUMP JUMPDEST PUSH0 PUSH2 0xE6B PUSH1 0x20 DUP4 PUSH2 0xC8F JUMP JUMPDEST SWAP2 POP PUSH2 0xE76 DUP3 PUSH2 0xE37 JUMP JUMPDEST PUSH1 0x20 DUP3 ADD SWAP1 POP SWAP2 SWAP1 POP JUMP JUMPDEST PUSH0 PUSH1 0x20 DUP3 ADD SWAP1 POP DUP2 DUP2 SUB PUSH0 DUP4 ADD MSTORE PUSH2 0xE98 DUP2 PUSH2 0xE5F JUMP JUMPDEST SWAP1 POP SWAP2 SWAP1 POP JUMP JUMPDEST PUSH32 0x566F74696E6720706572696F642068617320656E646564000000000000000000 PUSH0 DUP3 ADD MSTORE POP JUMP JUMPDEST PUSH0 PUSH2 0xED3 PUSH1 0x17 DUP4 PUSH2 0xC8F JUMP JUMPDEST SWAP2 POP PUSH2 0xEDE DUP3 PUSH2 0xE9F JUMP JUMPDEST PUSH1 0x20 DUP3 ADD SWAP1 POP SWAP2 SWAP1 POP JUMP JUMPDEST PUSH0 PUSH1 0x20 DUP3 ADD SWAP1 POP DUP2 DUP2 SUB PUSH0 DUP4 ADD MSTORE PUSH2 0xF00 DUP2 PUSH2 0xEC7 JUMP JUMPDEST SWAP1 POP SWAP2 SWAP1 POP JUMP JUMPDEST PUSH32 0x416C726561647920766F74656400000000000000000000000000000000000000 PUSH0 DUP3 ADD MSTORE POP JUMP JUMPDEST PUSH0 PUSH2 0xF3B PUSH1 0xD DUP4 PUSH2 0xC8F JUMP JUMPDEST SWAP2 POP PUSH2 0xF46 DUP3 PUSH2 0xF07 JUMP JUMPDEST PUSH1 0x20 DUP3 ADD SWAP1 POP SWAP2 SWAP1 POP JUMP JUMPDEST PUSH0 PUSH1 0x20 DUP3 ADD SWAP1 POP DUP2 DUP2 SUB PUSH0 DUP4 ADD MSTORE PUSH2 0xF68 DUP2 PUSH2 0xF2F JUMP JUMPDEST SWAP1 POP SWAP2 SWAP1 POP JUMP JUMPDEST PUSH32 0x496E76616C69642063616E646964617465000000000000000000000000000000 PUSH0 DUP3 ADD MSTORE POP JUMP JUMPDEST PUSH0 PUSH2 0xFA3 PUSH1 0x11 DUP4 PUSH2 0xC8F JUMP JUMPDEST SWAP2 POP PUSH2 0xFAE DUP3 PUSH2 0xF6F JUMP JUMPDEST PUSH1 0x20 DUP3 ADD SWAP1 POP SWAP2 SWAP1 POP JUMP JUMPDEST PUSH0 PUSH1 0x20 DUP3 ADD SWAP1 POP DUP2 DUP2 SUB PUSH0 DUP4 ADD MSTORE PUSH2 0xFD0 DUP2 PUSH2 0xF97 JUMP JUMPDEST SWAP1 POP SWAP2 SWAP1 POP JUMP JUMPDEST PUSH32 0x566F74696E6720706572696F64206973207374696C6C20616374697665000000 PUSH0 DUP3 ADD MSTORE POP JUMP JUMPDEST PUSH0 PUSH2 0x100B PUSH1 0x1D DUP4 PUSH2 0xC8F JUMP JUMPDEST SWAP2 POP PUSH2 0x1016 DUP3 PUSH2 0xFD7 JUMP JUMPDEST PUSH1 0x20 DUP3 ADD SWAP1 POP SWAP2 SWAP1 POP JUMP JUMPDEST PUSH0 PUSH1 0x20 DUP3 ADD SWAP1 POP DUP2 DUP2 SUB PUSH0 DUP4 ADD MSTORE PUSH2 0x1038 DUP2 PUSH2 0xFFF JUMP JUMPDEST SWAP1 POP SWAP2 SWAP1 POP JUMP JUMPDEST PUSH32 0x4E487B7100000000000000000000000000000000000000000000000000000000 PUSH0 MSTORE PUSH1 0x32 PUSH1 0x4 MSTORE PUSH1 0x24 PUSH0 REVERT INVALID LOG2 PUSH5 0x6970667358 0x22 SLT KECCAK256 SWAP10 DUP6 0x26 SWAP14 CREATE MSTORE8 PUSH4 0x82363B2E SLOAD PUSH23 0x5EC7CA4874A7103DEA35B6C9D18F9637985DAE64736F6C PUSH4 0x4300081E STOP CALLER "
				},
				"gasEstimates": {
					"creation": {
						"codeDepositCost": "851600",
						"executionCost": "25152",
						"totalCost": "876752"
					},
					"external": {
						"admin()": "2617",
						"candidateVotes(address)": "2825",
						"candidates(uint256)": "4989",
						"endVoting()": "infinite",
						"hasVoted(address)": "2834",
						"isCandidate(address)": "2899",
						"registerVoter(address)": "30442",
						"startVoting(uint256)": "infinite",
						"vote(address)": "infinite",
						"votingPeriodEnd()": "2425",
						"winner()": "2596"
					},
					"internal": {
						"_autoTabulate()": "infinite"
					}
				},
				"methodIdentifiers": {
					"admin()": "f851a440",
					"candidateVotes(address)": "23ef2746",
					"candidates(uint256)": "3477ee2e",
					"endVoting()": "c3403ddf",
					"hasVoted(address)": "09eef43e",
					"isCandidate(address)": "d51b9e93",
					"registerVoter(address)": "38db6dd3",
					"startVoting(uint256)": "3d2f5bda",
					"vote(address)": "6dd7d8ea",
					"votingPeriodEnd()": "65381b1c",
					"winner()": "dfbf53ae"
				}
			},
			"storageLayout": {
				"storage": [
					{
						"astId": 4,
						"contract": "electionSystem.sol:ElectionSystem",
						"label": "admin",
						"offset": 0,
						"slot": "0",
						"type": "t_address"
					},
					{
						"astId": 7,
						"contract": "electionSystem.sol:ElectionSystem",
						"label": "candidates",
						"offset": 0,
						"slot": "1",
						"type": "t_array(t_address)dyn_storage"
					},
					{
						"astId": 9,
						"contract": "electionSystem.sol:ElectionSystem",
						"label": "votingPeriodEnd",
						"offset": 0,
						"slot": "2",
						"type": "t_uint256"
					},
					{
						"astId": 11,
						"contract": "electionSystem.sol:ElectionSystem",
						"label": "winner",
						"offset": 0,
						"slot": "3",
						"type": "t_address"
					},
					{
						"astId": 15,
						"contract": "electionSystem.sol:ElectionSystem",
						"label": "voters",
						"offset": 0,
						"slot": "4",
						"type": "t_mapping(t_address,t_bool)"
					},
					{
						"astId": 19,
						"contract": "electionSystem.sol:ElectionSystem",
						"label": "hasVoted",
						"offset": 0,
						"slot": "5",
						"type": "t_mapping(t_address,t_bool)"
					},
					{
						"astId": 23,
						"contract": "electionSystem.sol:ElectionSystem",
						"label": "candidateVotes",
						"offset": 0,
						"slot": "6",
						"type": "t_mapping(t_address,t_uint256)"
					},
					{
						"astId": 27,
						"contract": "electionSystem.sol:ElectionSystem",
						"label": "isCandidate",
						"offset": 0,
						"slot": "7",
						"type": "t_mapping(t_address,t_bool)"
					}
				],
				"types": {
					"t_address": {
						"encoding": "inplace",
						"label": "address",
						"numberOfBytes": "20"
					},
					"t_array(t_address)dyn_storage": {
						"base": "t_address",
						"encoding": "dynamic_array",
						"label": "address[]",
						"numberOfBytes": "32"
					},
					"t_bool": {
						"encoding": "inplace",
						"label": "bool",
						"numberOfBytes": "1"
					},
					"t_mapping(t_address,t_bool)": {
						"encoding": "mapping",
						"key": "t_address",
						"label": "mapping(address => bool)",
						"numberOfBytes": "32",
						"value": "t_bool"
					},
					"t_mapping(t_address,t_uint256)": {
						"encoding": "mapping",
						"key": "t_address",
						"label": "mapping(address => uint256)",
						"numberOfBytes": "32",
						"value": "t_uint256"
					},
					"t_uint256": {
						"encoding": "inplace",
						"label": "uint256",
						"numberOfBytes": "32"
					}
				}
			},
			"userdoc": {
				"events": {
					"VoteCast(address,address)": {
						"notice": "Emitted when a vote is cast"
					},
					"VoterRegistered(address)": {
						"notice": "Emitted when a voter is registered"
					},
					"WinnerDeclared(address)": {
						"notice": "Emitted when a winner is declared"
					}
				},
				"kind": "user",
				"methods": {
					"constructor": {
						"notice": "Initializes the contract setting the deployer as the initial admin"
					},
					"endVoting()": {
						"notice": "Ends the voting period, tabulates votes, and declares the winner"
					},
					"registerVoter(address)": {
						"notice": "Registers a voter by verifying their identity and allowing them to vote"
					},
					"startVoting(uint256)": {
						"notice": "Starts the voting period for a specified duration"
					},
					"vote(address)": {
						"notice": "Allows a registered voter to cast a vote for a candidate"
					}
				},
				"version": 1
			}
		}
	}
}